:100000000C9457160C9481160C9481160C9481163E
:100010000C9481160C9481160C9481160C94811604
:100020000C9481160C9481160C9481160C948116F4
:100030000C9481160C9485380C9481160C948116BE
:100040000C9481160C9408310C9438CA0C948116C7
:100050000C942EBC0C9481160C9481160C94811671
:100060000C9481160C9481160C9481160C948116B4
:100070000C9481160C9481160C9481160C948116A4
:100080000C9481160C9481160C9481164E414E49A5
:100090004E495459494E46CDCCCC3D0AD7233C1746
:1000A000B7D13877CC2B329595E6241FB14F0A0093
:1000B0000020410000C84200401C4620BCBE4CCA83
:1000C0001B0E5AAEC59D741000C90210012C0140D0
:1000D00001220170011801B0010E01F0010401506C
:1000E00002FA00B002F0003003E600D003DC00901A
:1000F00004D2007005C800A006BE000008B400B01D
:1001000009AA00D00BA000600E960060118C0000C0
:1001100015820020197800C01D6E00A0226400B076
:10012000275A00902C500000314600E0343C00106B
:10013000383200903A2800603C1E00A03D14008038
:100140003E0A00203F00004D6F76696E672E2E2E0E
:1001500000454550524F4D206461746173697A6562
:10016000206572726F722E0A00290A00206279746B
:1001700065733B20637263200053657474696E6716
:10018000732053746F726564202800290A0020626E
:10019000797465733B2063726320002073746F72FF
:1001A00065642073657474696E6773207265747218
:1001B0006965766564202800202863616C63756C2E
:1001C0006174656429210A0020213D2000454550C5
:1001D000524F4D20435243206D69736D61746368C3
:1001E000202D202873746F726564292000205369C4
:1001F0007A653A2000496E6465783A2000204D61A6
:10020000726C696E3D563535290A002845455052B5
:100210004F4D3D00454550524F4D207665727369F4
:100220006F6E206D69736D61746368200048617240
:1002300064636F6465642044656661756C74205303
:10024000657474696E6773204C6F616465640A003D
:10025000282300002823000064000000102700006D
:100260000000FA430000FA430000704100004842D9
:1002700048E1A04214AE9F423373C843F6E82443DA
:10028000545249474745524544006F70656E003AE5
:1002900020007A5F6D696E00795F6D696E00785F2E
:1002A0006D696E005265706F7274696E6720656E5D
:1002B0006473746F70207374617475730A000A4DEF
:1002C0006561737572656420706F696E74733A0A44
:1002D000005A206F66667365743A20004E756D2073
:1002E000582C593A20362C360A0020746F6F206C37
:1002F0006F6E6720657874727573696F6E207072A7
:100300006576656E7465640A0020636F6C642065B1
:100310007874727573696F6E2070726576656E742D
:1003200065640A0024F4D43050C38E20C2A2401762
:10033000828B7011127A910D816CD90AA861E10843
:10034000C7586607615143061E4B5D05C145A704AA
:100350001A411104093D9803713931034036DB021B
:1003600065339102D4305402802E1D02632CEE01BD
:10037000752AC501B028A001102781018F256401CD
:100380002B244B01E0223401AC211F018D200D01F3
:10039000801FFC00841EED00971DDF00B81CD200FA
:1003A000E61BC600201BBC00641AB200B219A800EC
:1003B0000A19A0006A189900D117910040178B0004
:1003C000B516840031167E00B31579003A15730016
:1003D000C7146F0058146A00EE1366008813630098
:1003E00025135E00C7125B006C12570015125400F3
:1003F000C111510070114F0021114B00D61049005E
:100400008D1047004610440002104200C00F40000B
:10041000800F3E00420F3C00060F3B00CB0E380021
:10042000930E37005C0E3500270E3400F30D3200BA
:10043000C10D3100900D3000600D2E00320D2D00E9
:10044000050D2C00D90C2B00AE0C2900850C2900C1
:100450005C0C2700350C27000E0C2600E80B24004E
:10046000C40B2400A00B23007D0B23005A0B21009A
:10047000390B2100180B2000F80A1F00D90A1E00B2
:10048000BB0A1E009D0A1D00800A1D00630A1C0095
:10049000470A1B002C0A1B00110A1A00F7091A0050
:1004A000DD091900C4091900AB09190092091700E8
:1004B0007B091800630917004C091600360916005D
:1004C000200916000A091500F5081500E0081400B7
:1004D000CC081400B8081400A408140090081300F5
:1004E0007D0812006B08130058081200460812001D
:1004F000340811002308110012081100010811002E
:10050000F0071000E0071000D0071000C00710002F
:10051000B0070F00A107100091070E0083070F001E
:1005200074070F0065070E0057070E0049070E00FD
:100530003B070D002E070E0020070D0013070D00CE
:1005400006070D00F9060C00ED060D00E0060C0094
:10055000D4060C00C8060C00BC060C00B0060C004B
:10056000A4060B0099060C008D060B0082060B00FA
:1005700077060B006C060B0061060A0057060B009D
:100580004C060A0042060A0038060A002E060A0037
:1005900024060A001A060A001006090007060A00C7
:1005A000FD050900F4050900EB050900E205090055
:1005B000D9050900D0050900C7050900BE050900D5
:1005C000B5050800AD050800A50509009C05080053
:1005D000940508008C050800840508007C050800C7
:1005E000740508006C050700650508005D05070037
:1005F000560508004E05070047050700400508009E
:1006000038050700310507002A0507002305070004
:100610001C050600160507000F0507000805060063
:1006200002050700FB040600F5040700EE040600BF
:10063000E8040600E2040700DB040600D504060017
:10064000CF040600C9040600C3040600BD0406006A
:10065000B7040600B1040500AC040600A6040600B9
:10066000A00405009B040600950405009004060004
:100670008A04050085040500800406007A0405004C
:1006800075040500700405006B0405006604050090
:10069000610405005C0405005704050052040500D0
:1006A0004D04050048040500430405003E04040011
:1006B0003A04050035040500300404002C0405004C
:1006C00027040400230405001E0404001A04040087
:1006D00016040500110404000D04040009040500BB
:1006E0000404040000040400FC030400F8030400F4
:1006F000F4030400F0030400EC030400E803040026
:10070000E4030400E0030400DC030400D803040055
:10071000D4030400D0030400CC030400C803030086
:10072000C503030024F404D9201BC40C5C0E9804F8
:10073000C4095F0265077101F405F900FB04B30009
:1007400048048700C10369005803550003034500AE
:10075000BE023A008402310053022A002902250019
:1007600004022000E4011C00C8011900AF011700B9
:100770009801140084011300710110006101100040
:1007800051010E0043010D0036010B002B010B003F
:1007900020010B00150109000C01090003010800EC
:1007A000FB000800F3000800EB000700E40006006F
:1007B000DE000600D8000600D2000600CC000500CE
:1007C000C7000500C2000500BD000400B900040018
:1007D000B5000400B1000400AD000400A90004004D
:1007E000A5000300A20003009F0004009B0003007B
:1007F000980003009500020093000300900003009E
:100800008D0002008B0003008800020086000200B9
:1008100084000300810002007F0002007D000200CE
:100820007B000200790002007700010076000200E0
:100830007400020072000100710002006F000200EB
:100840006D0001006C0002006A00010069000200F6
:1008500067000100660001006500010064000200FD
:100860006200010061000100600001005F00020001
:100870005D0001005C0001005B0001005A00010006
:100880005900010058000100570001005600010006
:100890005500010054000100530000005300010006
:1008A0005200010051000100500001004F00010002
:1008B0004E0000004E0001004D0001004C00010000
:1008C0004B0000004B0001004A00010049000100FC
:1008D00048000000480001004700010046000000F9
:1008E00046000100450000004500010044000100F1
:1008F00043000000430001004200000042000100EC
:100900004100000041000100400001003F000000E4
:100910003F0001003E0000003E0001003D000000DD
:100920003D0001003C0000003C0000003C000100D4
:100930003B0000003B0001003A0000003A000100CB
:1009400039000000390001003800000038000000C4
:1009500038000100370000003700010036000000B9
:1009600036000000360001003500000035000000B0
:1009700035000100340000003400000034000100A4
:10098000330000003300000033000100320000009B
:100990003200000032000100310000003100000090
:1009A0003100010030000000300000003000010084
:1009B0002F0000002F0000002F0000002F0001007A
:1009C0002E0000002E0000002E0001002D0000006F
:1009D0002D0000002D0000002D0001002C00000063
:1009E0002C0000002C0000002C0001002B00000057
:1009F0002B0000002B0000002B0001002A0000004B
:100A00002A0000002A0000002A000100290000003E
:100A10002900000029000000290000002900010031
:100A20002800000028000000280000002800000026
:100A30002800010027000000270000002700000018
:100A4000270000002700010026000000260000000B
:100A500026000000260000002600010025000000FE
:100A600025000000250000002500000025000000F2
:100A700025000100240000002400000024000000E4
:100A800024000000240001002300000023000000D7
:100A900023000000230000002300000023000000CA
:100AA00023000100220000002200000022000000BC
:100AB00022000000220000002200010021000000AE
:100AC00021000000210000002100000021000000A2
:100AD0002100000021000100200000002000000093
:100AE0002000000020000000200000002000000086
:100AF00020000000200001001F0000001F00000077
:100B00001F0000001F0000001F0000001F00000069
:100B10001F0001001E0000001E0000001E0000005B
:100B20001E000000C23100001C260000F419000065
:100B3000D80F0000EB080000C004000075020000A0
:100B4000400100006265640A002C207379737465AB
:100B50006D2073746F7070656421204865617465E1
:100B6000725F49443A200042656420686561746997
:100B70006E67206661696C65640048656174696EC2
:100B800067206661696C6564004531204865617461
:100B9000696E67206661696C6564004865617469A7
:100BA0006E67206661696C65640070012C019001BC
:100BB0002701B0012201C0011D01F001180110023E
:100BC000130130020E016002090190020401C0020B
:100BD000FF000003FA004003F5008003F000D0039B
:100BE000EB002004E6007004E100E004DC004005B6
:100BF000D700C005D2004006CD00D006C80080074F
:100C0000C3003008BE00F008B900C009B400B00A43
:100C1000AF00B00BAA00D00CA500000EA000500F32
:100C20009B00C01096005012910000148C00C0155B
:100C30008700B0178200B0197D00D01B7800001E1D
:100C4000730040206E0090226900F0246400402769
:100C50005F0090295A00E02B5500102E50002030E4
:100C60004B0010324600E033410090353C00103715
:100C7000370070383200A0392D00B03A2800A03B70
:100C80002300603C1E00103D1900903D1400103EF2
:100C90000F00703E0A00C03E0500003F0000403FCC
:100CA000FBFF803FF6FFC03FF1FF45312054484530
:100CB000524D414C2052554E4157415900424544F6
:100CC00020544845524D414C2052554E41574159B0
:100CD00000546865726D616C2052756E6177617940
:100CE000004531204572723A204D415854454D50CF
:100CF000004572723A204D415854454D50204245AE
:100D000044004D415854454D5020747269676765E1
:100D1000726564004531204572723A204D494E5447
:100D2000454D50004572723A204D494E54454D5044
:100D300020424544004D494E54454D50207472693F
:100D4000676765726564004D383420582059205A11
:100D5000204500202F002042403A0020403A002544
:100D6000753A2530327500253032753A25303275A6
:100D70000025756420253032753A25303275002003
:100D80002020202020005A00590020202020005838
:100D9000000920000000000000000000000000002A
:100DA0003FFFF000000000000000000000000038DD
:100DB000007000000000000000000000000030FC97
:100DC0003000000000000000000000000020FC10C7
:100DD000000000000000000000000000207810006B
:100DE00000000000000000000000002030100000A3
:100DF000000000000000000000002C00D03FC000F8
:100E00000000000000002082002E31D07FE00000B2
:100E100000000000001041002F7BD07FE0000000A8
:100E2000000000001041002F7BD07FE00000000098
:100E30000000002082002E31D03FC00000000000E2
:100E400000004104002C00D03FC000000000000062
:100E5000008208002030107FE00000000000000049
:100E60008208002078107FE00000000000000041B0
:100E7000040020FC107FE000000000000000208241
:100E80000030FC301F800000000000000000000067
:100E90003800700F0000000000000000FFFFC03F9E
:100EA000FFF0060000000000000000FFFFC000008F
:100EB000000000000000000000000000003FFFF004
:100EC000000000000000000000000000380070007A
:100ED000000000000000000000000031863000002B
:100EE0000000000000000000000023871000000048
:100EF00000000000000000000027879000000000B4
:100F000000000000000000002F87D000000000005B
:100F1000000000000000002F03D03FC000000000D0
:100F20000000002082002030107FE0000000000060
:100F300000001041002078107FE000000000000059
:100F4000001041002078107FE00000000000000049
:100F50002082002030103FC000000000000000414F
:100F600004002F03D03FC0000000000000008208F2
:100F7000002F87D07FE00000000000000082080002
:100F80002787907FE000000000000000410400235C
:100F900087107FE000000000000000208200318602
:100FA000301F8000000000000000000000380070CA
:100FB0000F0000000000000000FFFFC03FFFF00630
:100FC0000000000000000000FFFFC00000003344EC
:100FD000205072696E7465722052656164792E00CA
:100FE0005072696E74696E672E2E2E005072696E93
:100FF0007420706175736564004D3730322054255C
:1010000064004D36303020423020542564004D3786
:101010003032203B2564004D3730312054256400A8
:10102000556E6C6F61642066696C616D656E7400ED
:10103000556E6C6F61642066696C616D656E7400DD
:101040004D373032004D373031004C6F61642066CF
:10105000696C616D656E74004D3630302042300031
:101060004368616E67652066696C616D656E7400CA
:1010700050726570617265005052494E5420504163
:101080005553454400554E4C4F41442046494C4130
:101090004D454E54004C4F41442046494C414D452E
:1010A0004E54005075726765206D6F726500436F16
:1010B0006E74696E756500524553554D45204F500D
:1010C00054494F4E533A0020204E6F7A7A6C653A5D
:1010D00020006368616E6765006F66207468652034
:1010E00066696C616D656E74005761697420666F26
:1010F000722073746172740020204E6F7A7A6C656E
:101100003A2000200066696C616D656E7420756E12
:101110006C6F6164005761697420666F72002020F3
:101120004E6F7A7A6C653A20002000506C656173CE
:101130006520776169742E2E2E0048656174696E92
:1011400067206E6F7A7A6C650020204E6F7A7A6C19
:10115000653A2000200068656174206E6F7A7A6CB1
:10116000652E00507265737320627574746F6E2003
:10117000746F0020204E6F7A7A6C653A2000746F8D
:1011800020636F6E74696E75652E2E2E00616E641D
:1011900020707265737320627574746F6E00496E8F
:1011A000736572742066696C616D656E74002020D1
:1011B0004E6F7A7A6C653A2000200066696C616D2A
:1011C000656E74206C6F6164005761697420666F8E
:1011D000720020204E6F7A7A6C653A2000200066FB
:1011E000696C616D656E742070757267650057611A
:1011F000697420666F7200746F20726573756D6517
:10120000005761697420666F72207072696E740095
:10121000473238200A4731205A32302046323030A7
:10122000300A4D313137205573657220536372692E
:10123000707420446F6E6500486F6D6520262052E3
:1012400061697365205A004D61696E005072696E64
:10125000742061626F7274656400496E69742E2037
:1012600053442063617264004D3231004E6F20534D
:10127000442063617264004368616E676520534473
:101280002063617264004D3231005072696E7420C7
:1012900066726F6D2053440053746F7020707269D2
:1012A0006E7400526573756D65207072696E74009E
:1012B0005061757365207072696E74004375737444
:1012C0006F6D20436F6D6D616E647300556E6C6F52
:1012D00061642066696C616D656E74004C6F616459
:1012E0002066696C616D656E74004368616E676548
:1012F0002066696C616D656E740044697361626C2F
:1013000065207374657070657273004D38340043E6
:101310006F6F6C646F776E00436F6E74726F6C00EA
:10132000507265706172650054756E6500496E6635
:101330006F2073637265656E0042616279737465D4
:1013400070205A004368616E67652066696C616D44
:10135000656E74004261627973746570205A00464C
:101360006C6F7700466C6F770046616E2073706516
:1013700065640046616E2073706565640042656453
:1013800000426564004E6F7A7A6C65004E6F7A7A1F
:101390006C6500426564205A00426564205A00531F
:1013A00070656564005370656564004D61696E0029
:1013B0005072656865617420504C4120426564003C
:1013C0005072656865617420504C4120456E640020
:1013D0005072656865617420504C410050726570B0
:1013E00061726500507265686561742041425320E6
:1013F000456E6400507265686561742041425320F7
:101400004265640050726568656174204142530012
:101410005072657061726500507265686561742014
:101420005045544720456E6400507265686561748C
:1014300020504554472042656400507265686561DC
:1014400074205045544700507265706172650042C7
:1014500061636B004E65787420506F696E74004C48
:101460006576656C696E6720446F6E6521004D6F0F
:101470007665205A00473239205332004E65787421
:1014800020506F696E74002569202F202575004754
:1014900032392053310047323920533200436C69CE
:1014A000636B20746F20426567696E00486F6D69D9
:1014B0006E672058595A004732380053746F72656E
:1014C0002073657474696E6773004C6F6164207378
:1014D000657474696E6773004C6576656C20636F24
:1014E000726E65727300426564205A004265642022
:1014F0005A00466164652048656967687400466102
:10150000646520486569676874004F6666004F6EC1
:101510002000426564204C6576656C696E67004CFE
:101520006576656C206265640050726570617265F5
:1015300000507265686561742050455447005072D0
:101540006568656174204142530050726568656149
:101550007420504C4100426564204C6576656C698E
:101560006E6700486F6D65205A00473238205A0078
:10157000486F6D65205900473238205900486F6D1B
:10158000652058004732382058004175746F206834
:101590006F6D6500473238004D6F76652061786960
:1015A00073004D61696E00434F4D4D554E494341A7
:1015B00054494F4E0044525952554E004552524FD5
:1015C000525300494E464F004543484F00656E71E7
:1015D00075657565696E672022004B494C4C454422
:1015E0002E200053544F505045442E200050726915
:1015F0006E7465722073746F7070656420647565B5
:1016000020746F206572726F72732E204669782085
:10161000746865206572726F7220616E64207573E4
:1016200065204D39393920746F2072657374617289
:10163000742E202854656D70657261747572652012
:1016400069732072657365742E2053657420697404
:101650002061667465722072657374617274696E5C
:1016600067290A004E6F20436865636B73756D20B0
:1016700077697468206C696E65206E756D6265723D
:101680002C204C617374204C696E653A20004E6FBB
:1016900020436865636B73756D2077697468206C8F
:1016A000696E65206E756D6265722C204C61737475
:1016B000204C696E653A2000636865636B73756DD5
:1016C000206D69736D617463682C204C61737420A4
:1016D0004C696E653A20004C696E65204E756D62EE
:1016E0006572206973206E6F74204C617374204C96
:1016F000696E65204E756D6265722B312C204C61D0
:101700007374204C696E653A20004D313130004DC4
:1017100033310053442072656164206572726F72C8
:101720000A00446F6E65207072696E74696E67207E
:1017300066696C650A0020496E76616C6964206593
:10174000787472756465722000000000000000006B
:101750000000000000000048430000434300002058
:1017600043486F6D696E67206661696C656400202F
:101770006E6F7420656E74657265642E0A00486F22
:1017800074656E6420746F6F20636F6C640A005020
:10179000726F7465637465642050696E0A00205727
:1017A0003A004520436F6F6C696E672E2E2E004500
:1017B0002048656174696E672E2E2E0020573A000E
:1017C00042656420636F6F6C696E672E2E2E004237
:1017D00065642068656174696E672E2E2E00205A3C
:1017E0003A0020593A0020436F756E7420583A0031
:1017F00020453A00205A3A0020593A00583A003A17
:10180000004361703A0023646566696E6520444553
:101810004641554C545F4B64200023646566696EF5
:10182000652044454641554C545F4B692000236474
:101830006566696E652044454641554C545F4B7062
:101840002000504944204175746F74756E652066A0
:10185000696E6973686564212050757420746865C9
:10186000206C617374204B702C204B6920616E6476
:10187000204B6420636F6E7374616E7473206672A4
:101880006F6D2062656C6F7720696E746F20436F97
:101890006E66696775726174696F6E2E680A0050B2
:1018A0004944204175746F74756E65206661696C7A
:1018B0006564212074696D656F75740A0045312077
:1018C000544845524D414C2052554E4157415900C4
:1018D000546865726D616C2052756E617761790034
:1018E00045312048656174696E67206661696C6581
:1018F000640048656174696E67206661696C65643F
:1019000000504944204175746F74756E652066619E
:10191000696C6564212054656D70657261747572BF
:101920006520746F6F20686967680A00204B643A0D
:101930002000204B693A2000204B703A20000A20FA
:10194000436C617373696320504944200A0020543A
:10195000753A2000204B753A2000206D61783A20BE
:1019600000206D696E3A200020643A2000206269F0
:1019700061733A2000504944204175746F74756E4C
:10198000652073746172740A005049442041757473
:101990006F74756E65206661696C656421204261B3
:1019A00064206578747275646572206E756D626509
:1019B000720A004F66660A004661646520486569E0
:1019C0006768742000426564204C6576656C696EBA
:1019D0006720004661696C656420746F20656E61E4
:1019E000626C6520426564204C6576656C696E6743
:1019F0000A004D65736820426564204C6576656C0D
:101A000020646174613A0A004D65736820706F69E3
:101A10006E742063616E6E6F7420626520726573F0
:101A20006F6C7665640A004D34323120696E636FE5
:101A3000727265637420706172616D657465722085
:101A400075736167650A004D3630303A20546F6F08
:101A500020636F6C6400486F74656E6420746F6FF0
:101A600020636F6C640A00496E7365727420666946
:101A70006C616D656E7420616E6420707265737345
:101A800020627574746F6E0A005072657373206201
:101A90007574746F6E20746F2068656174206E6F4A
:101AA0007A7A6C650A00496E736572742066696C97
:101AB000616D656E7420616E642070726573732051
:101AC000627574746F6E20286F72204D3130382922
:101AD0000A00536C6565702E2E2E00206F66200064
:101AE0004D424C2047323920706F696E7420005986
:101AF000206F7574206F662072616E6765202831D3
:101B00002D36292E0A0058206F7574206F662072BA
:101B1000616E67652028312D36292E0A004D6573C8
:101B2000682070726F62696E6720646F6E652E0A3E
:101B3000005374617274206D6573682070726F62F7
:101B4000696E6720776974682022473239205331E3
:101B5000222066697273742E0A004732380A4732AF
:101B600039205332004D65736820626564206C65CE
:101B700076656C696E6720686173206E6F206461A2
:101B800074612E0A0053746174653A200053206F0B
:101B90007574206F662072616E67652028302D3560
:101BA000292E0A004D65736820706F696E7420637A
:101BB000616E6E6F74206265207265736F6C7665FE
:101BC000640A00436C69636B20746F2072657375DF
:101BD0006D652E2E2E004E6F206D6F76652E0045A2
:101BE0006E642066696C65206C6973740A004265D6
:101BF00067696E2066696C65206C6973740A0028D9
:101C00006E6F2066696C65290043757272656E742B
:101C10002066696C653A20005344207072696E74C6
:101C2000696E67206279746520004E6F742053449A
:101C3000207072696E74696E670A0044656C657421
:101C4000696F6E206661696C65642C2046696C65FD
:101C50003A200046696C652064656C657465643A79
:101C6000002569730025696D202569730025696861
:101C70002025696D20256973002569642025696820
:101C80002025696D202569730025697920256964FF
:101C9000202569682025696D2025697300507269C7
:101CA0006E742074696D653A20006F666600C81511
:101CB000C315BC15B515A71544454255473A004B09
:101CC000494C4C45442E20004D3131332053006F98
:101CD0006B003344205072696E746572204F6666E3
:101CE0002E002C20002C2000544845524D414C5FC2
:101CF00050524F54454354494F4E004155544F5252
:101D000045504F52545F53445F5354415455530010
:101D1000454D455247454E43595F504152534552F8
:101D200000434153455F4C494748545F425249473D
:101D300048544E45535300544F47474C455F4C4918
:101D40004748545300534F4654574152455F504FF4
:101D5000574552004255494C445F50455243454E09
:101D600054004C4556454C494E475F444154410050
:101D70005A5F50524F4245004155544F4C455645CD
:101D80004C005052494E545F4A4F420050524F4708
:101D900052455353004155544F5245504F52545F92
:101DA00054454D5000564F4C554D455452494300F3
:101DB000454550524F4D0053455249414C5F584F95
:101DC0004E5F584F4646004649524D574152455F77
:101DD0004E414D453A4D61726C696E20312E312E67
:101DE0003920284769746875622920534F5552433A
:101DF000455F434F44455F55524C3A687474707365
:101E00003A2F2F6769746875622E636F6D2F4D616D
:101E1000726C696E4669726D776172652F4D617281
:101E20006C696E2050524F544F434F4C5F56455291
:101E300053494F4E3A312E30204D414348494E458B
:101E40005F545950453A3344205072696E7465723C
:101E50002045585452554445525F434F554E543ACD
:101E60003120555549443A63656465326132662DC7
:101E7000343161322D343734382D396231322D63AB
:101E800035356336326633363766660A002F2F20C3
:101E9000004D31343520533C696E6465783E206FC7
:101EA0007574206F662072616E67652028302D3151
:101EB000290A00205400205200416363656C65725A
:101EC0006174696F6E3A2050005741524E494E4737
:101ED00021204C6F77205A204A65726B206D617902
:101EE000206C65616420746F20756E77616E746517
:101EF00064207061757365732E0A004F66667365A2
:101F00007473206170706C696564004572723A2068
:101F1000546F6F206661722100546F6F206661728A
:101F20002066726F6D207265666572656E636520EE
:101F3000706F696E740A00205A0020590058002002
:101F4000204D61783A2000205A0020590058002086
:101F5000204D696E3A20004F6E20004F6666005398
:101F60006F667420656E6473746F70733A2000201E
:101F7000466C6F773A200000010F150E12FFFFFF2D
:101F8000FF16170E13FFFFFFFF03021A14FFFFFFD8
:101F9000FFFFFFFF0C04FFFFFF01000EFFFFFF0C20
:101FA000190DFF18496E76616C696420657874724A
:101FB000756465720A0020643A0020693A00207056
:101FC0003A0043290A0061626C656420286D696EDD
:101FD0002074656D702000436F6C642065787472A6
:101FE000756465732061726520004E6F20636173B4
:101FF00065206C696768740A00454550524F4D2052
:102000004F4B0A003F4B2076616C7565206F7574ED
:10201000206F662072616E67652028302D3130296F
:102020002E0A00416476616E6365204B3D0041637A
:10203000746976652045787472756465723A20001B
:10204000496E76616C696420657874727564657236
:102050000A00526573656E643A20006F6B0020744D
:102060006F6F206C6F6E6720657874727573696F1F
:102070006E2070726576656E7465640A0020636F09
:102080006C6420657874727573696F6E2070726508
:1020900076656E7465640A00627573793A207061C2
:1020A0007573656420666F7220696E7075740A00BE
:1020B000627573793A2070617573656420666F721A
:1020C00020757365720A00627573793A2070726FB9
:1020D00063657373696E670A004B494C4C45442E27
:1020E00020004B494C4C2063617573656420627914
:1020F00020746F6F206D75636820696E6163746909
:1021000076652074696D65202D2063757272656E29
:102110007420636F6D6D616E643A2000506C656170
:102120007365207265736574005052494E54455270
:102130002048414C544544005072696E74657220C9
:1021400068616C7465642E206B696C6C282920634F
:10215000616C6C6564210A00000000000000000052
:102160000000000000002042000020420000E0408B
:10217000000000005761726E696E673A20486F6D0B
:10218000696E672042756D702044697669736F725D
:10219000203C20310A000303050000A0400000A0FD
:1021A000400000004000004843000043430000207E
:1021B00043FFFFFF7C3C3E5E2B3D3F2F5B5D3B2C96
:1021C0002A225C004572726F722077726974696EA0
:1021D0006720746F20454550524F4D210A004D6FC6
:1021E00076652058004D6F76652059004D6F7665F5
:1021F000205A004578747275646572004D6F76657B
:1022000020302E316D6D004D6F766520316D6D0083
:102210004D6F76652031306D6D004D6F76652061B4
:10222000786973004578747275646572004D6F76D5
:1022300065205A004D6F76652059004D6F766520F8
:1022400058004578747275646572004D6F7665202C
:102250005A004D6F76652059004D6F766520580005
:1022600050726570617265004C6F616420736574B3
:1022700074696E677300526573746F72652066616E
:10228000696C736166650053746F72652073657461
:1022900074696E67730046696C616D656E74004D9C
:1022A0006F74696F6E0054656D70657261747572DC
:1022B00065004D61696E005049442D440050494409
:1022C0002D44005049442D49005049442D490050A7
:1022D00049442D50005049442D50002008204661AB
:1022E00063740020082046616374002008204D615B
:1022F00078002008204D6178002008204D696E008C
:102300002008204D696E004F6666004F6E20004128
:1023100075746F74656D700046616E2073706565CD
:10232000640046616E2073706565640042656400F8
:10233000426564004E6F7A7A6C65004E6F7A7A6CF3
:102340006500436F6E74726F6C00436F6E74726FD2
:102350006C004C6F6164206D6D004C6F6164206D8A
:102360006D00556E6C6F6164206D6D00556E6C6F05
:102370006164206D6D0046696C2E204469612E00F9
:1023800046696C2E204469612E004F6666004F6ED0
:1023900020004520696E206D6D3300416476616ECA
:1023A0006365204B00416476616E6365204B00439A
:1023B0006F6E74726F6C0043616E6E6F7420656E29
:1023C000746572207375626469723A2000022E2E61
:1023D000000152656672657368004D61696E0000A8
:1023E000002100240027002A0000002200250028E8
:1023F000002B00000020002300260029000202021A
:102400000202020202040404040404040403030399
:10241000030303030301010101010101010102049E
:1024200008102040800102040810204080010204AE
:1024300008102040808040201008040201000000A5
:10244000010200090A000000000403080700000060
:1024500000000000000000000000000000202050EC
:102460006C616E6E657242756666657242797465FE
:10247000733A20002046726565204D656D6F727954
:102480003A2000312E312E390A004D61726C696E8E
:102490000020536F667477617265205265736574AE
:1024A0000A00205761746368646F67205265736522
:1024B000740A002042726F776E206F757420526527
:1024C0007365740A002045787465726E616C2052E1
:1024D000657365740A00506F77657255700A0073F2
:1024E000746172740A006175746F25692E670065E6
:1024F00072726F722077726974696E6720746F20D0
:1025000066696C650A00456E6473746F707320258C
:102510006320256320256320256300205A3A00208C
:10252000593A0020583A00656E6473746F707320D6
:102530006869743A2000446F6E6520736176696E35
:10254000672066696C652E0A004D32390043686168
:102550006E67652066696C616D656E7400556E6CA2
:102560006F61642066696C616D656E74004C6F61AB
:10257000642066696C616D656E7400507265686593
:10258000617420504554470050726568656174203D
:10259000414253005072656865617420504C41009F
:1025A0004368616E67652066696C616D656E740075
:1025B0004D3234004D323320257300556E6B6E6FF3
:1025C000776E20636F6D6D616E643A202200496EF4
:1025D000736572742066696C616D656E7420616EDE
:1025E0006420707265737320627574746F6E202836
:1025F0006F72204D313038290A00534420636172D4
:1026000064206F6B0A006F70656E526F6F74206686
:1026100061696C65640A00766F6C756D652E696E14
:102620006974206661696C65640A00534420696EB0
:102630006974206661696C0A00486F6D65202573B6
:10264000257325732066697273740020666972733E
:10265000740A005A0059005800486F6D65200057F1
:10266000726974696E6720746F2066696C653A20C0
:10267000006F70656E206661696C65642C20466928
:102680006C653A20006F70656E206661696C6564E8
:102690002C2046696C653A200046696C652073659C
:1026A0006C65637465640A002053697A653A20009A
:1026B00046696C65206F70656E65643A200020661F
:1026C000696C653A2000646F696E670066726573B5
:1026D00068004E6F772000454E4420535542524FBC
:1026E0005554494E450A002220706F730022207015
:1026F0006172656E743A2200535542524F555449E7
:102700004E452043414C4C207461726765743A22F7
:10271000004B494C4C45442E2000747279696E6719
:1027200020746F2063616C6C207375622D67636F1A
:1027300064652066696C6573207769746820746FBE
:102740006F206D616E79206C6576656C732E204DFF
:102750004158206C6576656C2069733A0045727249
:102760006F723A006F70656E206661696C65642CEB
:102770002046696C653A200043616E6E6F74206F6D
:1027800070656E2073756264697220006563686F9E
:102790003A0000060900FE0701920321207FFF078F
:1027A000FF07FF0000000600000107070602008087
:1027B000808080800080030202060105A0A005073A
:1027C000070600005050F850F85050050707060063
:1027D000002078A07028F020050707060000C0C878
:1027E00010204098180507070600006090A040A838
:1027F0009068020303060104C04080030707060136
:1028000000204080808040200307070601008040B0
:10281000202020408005050506000120A870A82082
:102820000505050600012020F8202002030306020A
:10283000FFC04080050101060003F8020202060203
:1028400000C0C005050506000108102040800507EE
:1028500007060000708888888888700307070601CB
:102860000040C040404040E0050707060000708877
:1028700008708080F8050707060000F8102010088F
:1028800008F005070706000010305090F8101005FA
:102890000707060000F880F008088870050707069B
:1028A0000000708080F0888870050707060000F837
:1028B0000810202020200507070600007088887077
:1028C00088887005070706000070888878080870F7
:1028D000020505060200C0C000C0C00206060602CE
:1028E000FFC0C000C0408004070706000010204061
:1028F00080402010050303060002F800F8040707D3
:1029000006010080402010204080050707060000D7
:10291000708808102000200507070600007088084E
:1029200068A8A870050707060000708888F88888DE
:1029300088050707060000F08888F08888F00507FA
:1029400007060000708880808088700507070600F1
:1029500000F08888888888F0050707060000F8805E
:1029600080F08080F8050707060000F88080F0807E
:102970008080050707060000708880B88888700589
:102980000707060000888888F888888801070706F6
:102990000200808080808080800507070600003864
:1029A0001010101090600507070600008890A0C066
:1029B000A09088050707060000808080808080F84E
:1029C00005070706000088D8A888888888050707B3
:1029D0000600008888C8A8988888050707060000B0
:1029E00070888888888870050707060000F0888846
:1029F000F080808005070706000070888888A8900E
:102A000068050707060000F08888F0A09088050791
:102A100007060000788080700808F00507070600A8
:102A200000F82020202020200507070600008888C5
:102A30008888888870050707060000888888888845
:102A400050200507070600008888888888A8500558
:102A50000707060000888850205088880507070669
:102A6000000088888850202020050707060000F80D
:102A70000810204080F8030707060100E0808080EE
:102A80008080E0050505060001804020100803074E
:102A900007060100E02020202020E00503030600B7
:102AA00004205088050101060000F8020202060217
:102AB0000580400505050600007008788878050740
:102AC000070600008080B0C88888F005050506006C
:102AD0000070808088700507070600000808689865
:102AE0008888780505050600007088F8807005075D
:102AF000070600003048E04040404005060606005A
:102B0000FF7088887808700507070600008080B08D
:102B1000C8888888010707060200800080808080BE
:102B2000800308080601FF200020202020A0400488
:102B30000707060000808090A0C0A090030707064A
:102B40000100C04040404040E0050505060000D0BF
:102B5000A8A8A8A8050505060000B0C888888805AB
:102B6000050506000070888888700506060600FFC7
:102B7000F08888F080800506060600FF788888784F
:102B80000808050505060000B0C880808005050519
:102B900006000070807008F004070706000040403F
:102BA000E0404040300505050600008888889868A8
:102BB00005050506000088888850200505050600E3
:102BC000008888A8A85005050506000088502050F8
:102BD000880506060600FF888888780870050505C0
:102BE000060000F8102040F8030707060100204007
:102BF00040804040200107070602008080808080DE
:102C00008080030707060100804040204040800587
:102C1000020206000268900000000600000006099B
:102C200000FE000000000001090008FE0000050889
:102C30000806000040F0C888889878100508080643
:102C40000000C0F88888888888F805050506000116
:102C50002030F830200508080600002070F82020F9
:102C60002020E00509090600FF2070A8A8B8888880
:102C700070200509090600FFE080C0B0A8283028B0
:102C8000280509090600FFF8A88888888888A8F818
:102C9000050A0A0600FE205050505088A8A88870E7
:102CA00003030306000340A0400059EA22EA11246E
:102CB0001FBECFEFD0E4DEBFCDBF12E0A0E0B1E099
:102CC000E6EBF6EF01E00BBF02C007900D92AA35CC
:102CD000B107D9F724E1AAE5B2E001C01D92A43EF4
:102CE000B207E1F716E1C6E5D6E104C02197FE017F
:102CF0000E94ABFAC535D107C9F70E94D5EB0C94F9
:102D00004EFB0C94000060911F0170912001072E72
:102D1000000C880B990B0E941FF42AE037ED43E268
:102D20005CE30E947EF42091D9083091DA0840914A
:102D3000DB085091DC080E947EF460931B017093C5
:102D40001C0180931D0190931E0108958091AC0D8C
:102D5000813041F0823019F485E890E1089588E7E8
:102D600090E1089585E990E108955B9887FD54C04E
:102D700040980000000091E09A950000E9F75B9A06
:102D80005B9886FD55C040980000000091E09A9540
:102D90000000E9F75B9A5B9885FD48C04098000009
:102DA000000091E09A950000E9F75B9A5B9884FD3A
:102DB0003BC040980000000091E09A950000E9F7C0
:102DC0005B9A5B9883FD2EC040980000000091E064
:102DD0009A950000E9F75B9A5B9882FD21C04098C4
:102DE0000000000091E09A950000E9F75B9A5B987B
:102DF00081FD14C040980000000081E0982F9A9552
:102E00000000E9F75B9A5B984098000000008A9503
:102E10000000E9F75B9A0895409AABCF409AEBCF58
:102E2000409ADECF409AD1CF409AC4CF409AB7CFD4
:102E3000409AAACF90916F00292F227091FF05C070
:102E400090916F009D7F90936F0034E0839FC0014D
:102E50001124FC01E654F04F40815181628173815D
:102E60008F5A964FFC01408351836283738381E0C4
:102E70008093BD08222329F080916F0082608093A7
:102E80006F000895BC0120914F0930915009409185
:102E90004F09509150092417350731F481E0261766
:102EA000370709F080E008959A01F1CFCF92DF92C1
:102EB000EF92FF928091A70B882309F457C0C0902E
:102EC000A30BD090A40BE090A50BF090A60B20E0F4
:102ED00030E0A901C701B6010E9418F4882309F463
:102EE00045C020E030E040E05FE3C701B6010E944A
:102EF0007EF49B01AC010E947EF42BED3FE049E49F
:102F000050E40E947EF49B01AC0160E070E080E838
:102F10009FE30E94CCF86B017C01C092D908D0924B
:102F2000DA08E092DB08F092DC0860911F017091F2
:102F30002001072E000C880B990B0E941FF42AE039
:102F400037ED43E25CE30E947EF4A70196010E9404
:102F50007EF460931B0170931C0180931D0190937C
:102F60001E01FF90EF90DF90CF900895C12CD12CDF
:102F700080E8E82E8FE3F82ED0CF2F923F924F9229
:102F80005F926F927F928F929F92AF92BF92CF92F9
:102F9000DF92EF92FF920F931F93CF93DF93CDB702
:102FA000DEB762970FB6F894DEBF0FBECDBF588B69
:102FB0004F87DC018D909D90AD90BC90DB018D9191
:102FC0009D910D90BC91A02D89839A83AB83BC8386
:102FD00020E030E040EA50E4C501B4010E9448F826
:102FE00026E334E947ED5CE30E947EF40E943EF95B
:102FF00065300CF41FC164E0E62E660FFF08870100
:103000000F5F1F4F20E030E040EA50E469817A8191
:103010008B819C810E9448F829E33EE843EE5CE303
:103020000E947EF40E943EF965300CF407C164E012
:10303000262E660F3308F701EE0FFF1FEE0FFF1F5E
:10304000EB53FF4E408051806280738026E02E9DBE
:10305000F0012F9DF00D1124FE83ED83E20DF31D91
:10306000EE0FFF1FEE0FFF1FE859FD4FC080D1800C
:10307000E280F380F801EE0FFF1FEE0FFF1FEB530E
:10308000FF4EA301920160817181828193810E9430
:1030900048F86F83788789879A87A3019201C501D1
:1030A000B4010E9448F86B877C878D879E87A6E0D5
:1030B000A09FC001A19F900D11249A8B898BFC01C8
:1030C000E20DF31DEE0FFF1FEE0FFF1FE859FD4F3E
:1030D000A701960160817181828193810E9448F8E5
:1030E0002F81388549855A850E94CCF82B853C85EF
:1030F0004D855E850E947EF4A70196010E9449F8E5
:103100006B017C0181010F5F1F4FED81FE81E00F9C
:10311000F11FEE0FFF1FEE0FFF1FE859FD4F40801C
:10312000518062807380F101EE0FFF1FEE0FFF1FD1
:10313000E355FF4E80809180A280B380E989FA89AF
:10314000E00FF11FEE0FFF1FEE0FFF1FE859FD4FBD
:10315000A301920160817181828193810E9448F86C
:103160002F81388549855A850E94CCF82B853C856E
:103170004D855E850E947EF4A30192010E9449F86C
:10318000A70196010E9448F82B013C01000F111F76
:10319000000F111FF801E355FF4EA5019401608156
:1031A0007181828193810E9448F89B01AC01C30127
:1031B000B2010E94CCF82B013C01A5019401698168
:1031C0007A818B819C810E9448F89B01AC01C301EC
:1031D000B2010E947EF4A70196010E9449F8EF8592
:1031E000F88920813181428153810E947EF42091AF
:1031F000F0083091F1084091F2085091F3080E94D4
:1032000049F862960FB6F894DEBF0FBECDBFDF91CE
:10321000CF911F910F91FF90EF90DF90CF90BF90D3
:10322000AF909F908F907F906F905F904F903F9066
:103230002F90089567FFE0CE60E0DECE67FFF8CE06
:1032400060E0F6CE8F929F92AF92BF92CF92DF92C4
:10325000EF92FF92CF93DF93EC018090C70890909C
:10326000C808A090C908B090CA0820E030E0A901C1
:10327000C501B4010E9418F4882309F454C0C88021
:10328000D980EA80FB80A7019601C501B4010E94A4
:1032900018F418160CF04CC02091640230916502AD
:1032A0004091660250916702C701B6010E9418F46E
:1032B000882331F1C0926402D0926502E0926602E6
:1032C000F0926702209160023091610240916202A7
:1032D00050916302688179818A819B810E947EF48A
:1032E0009B01AC0160E070E080E89FE30E9448F839
:1032F0006093000170930101809302019093030198
:10330000609100017091010180910201909103018F
:10331000DF91CF91FF90EF90DF90CF90BF90AF9073
:103320009F908F90089560E070E080E89FE3F0CF79
:1033300060E070E0CB01ECCFCF93DF938091F50894
:1033400032994BC081608093F5088091F5083399DC
:1033500046C082608093F5088091F508349941C099
:1033600084608093F508C0914209C0FF10C080912D
:10337000010980FF0CC08091F50880FF08C0809192
:10338000EC0B81608093EC0B80E00E941A17C1FF68
:1033900010C08091010981FF0CC08091F50881FF68
:1033A00008C08091EC0B82608093EC0B81E00E945E
:1033B0001A17C2FF18C08091010982FF14C08091C2
:1033C000F50882FF10C08091EC0B84608093EC0BB9
:1033D00082E0DF91CF910C941A178E7FB4CF8D7F4E
:1033E000B9CF8B7FBECFDF91CF9108956091FA095D
:1033F0007091FB098091FC099091FD0941E00C94CA
:10340000839E0C9413C881E00C941FDF82E00C941F
:103410001FDF80E00C941FDF9F92AF92BF92CF928C
:10342000DF92EF92FF920F931F93CF93DF935B0195
:10343000E9014A3009F4C4C0453109F067C0DB0135
:103440001296ED91FC91F280C681D781419A88E273
:1034500090E00197F1F7EF2CE29420EFE22230E1C7
:10346000932E9F0C48E2C42ED12C88EF0E94B516F3
:10347000C6010197F1F7BFE1BF1508F488C08F2D91
:10348000807780680E94B5168E2D0E94B516C60101
:103490000197F1F780E80E94B51680E00E94B5160A
:1034A000C6010197F1F78AEF0E94B516C601019790
:1034B000F1F78E01005F1F4F8881807F0E94B51653
:1034C00089918295807F0E94B516C017D107A1F718
:1034D000C6010197F1F7F394E0E1EE0EF910C5CFC4
:1034E0004198D50112960D911C91C8010E9498CA6D
:1034F0008111FFC1DF91CF911F910F91FF90EF904C
:10350000DF90CF90BF90AF909F900895FB01028114
:103510001381ECEEE40FE43308F050C0F0E0ED5618
:10352000F54E0C94ABFA211C751ADE1A691CDE1AD2
:10353000DE1ADE1ADE1ADE1ADE1ADE1ADE1ADE1ACB
:10354000DE1ADE1ADE1ADE1ADE1ADE1ADE1ADE1ABB
:10355000DE1ADE1ADE1ADE1ADE1ADE1ADE1ADE1AAB
:10356000DE1A631CDE1ADE1ADE1ADE1ADE1ADE1A14
:10357000DE1ADE1A341CDE1ADE1ADE1ADE1ADE1A33
:10358000DE1ADE1ADE1ADE1ADE1A861CDA1A80EE5F
:103590008F0D8068807F0E94B5168F2D8295807F69
:1035A0000E94B516C6010197F1F780E80E94B51692
:1035B00080E874CFD80111968C91888381E09ACFEE
:1035C000399A4198389A4098539A5B9A419A88E27E
:1035D00090E00197F1F788E790E0CEE9DFE0FE01A7
:1035E0003197F1F70197D9F788EF0E94B51608E2F5
:1035F00010E0C8010197F1F780E20E94B51680E063
:103600000E94B516C8010197F1F780E00E94B51637
:1036100080E80E94B516C8010197F1F780E00E948A
:10362000B51680E10E94B516C8010197F1F7CE01E9
:103630000197F1F7CE010197F1F7CE010197F1F76C
:10364000CE010197F1F7CE010197F1F7CE01019775
:10365000F1F7CE010197F1F7CE010197F1F7CE0115
:103660000197F1F7CE010197F1F7CE010197F1F73C
:10367000CE010197F1F7CE010197F1F7CE01019745
:10368000F1F72197F1F780E20E94B51680E40E94DD
:10369000B516C8010197F1F780E20E94B51680E6E1
:1036A0000E94B516C8010197F1F7F12CD0E0C1E0F6
:1036B0008D2F807780680E94B5168F2D0E94B516D9
:1036C000C8010197F1F780E80E94B51680E00E94DA
:1036D000B516C8010197F1F78AEF0E94B516C80127
:1036E0000197F1F780E25B984098000000009C2F62
:1036F0009A950000E9F75B9A5B98409800000000FB
:103700009C2F9A950000E9F75B9A5B98409800001F
:1037100000009C2F9A950000E9F75B9A5B9840980F
:10372000000000009C2F9A950000E9F75B9A5B98D7
:103730004098000000009C2F9A950000E9F75B9AE2
:103740005B984098000000009C2F9A950000E9F7D4
:103750005B9A5B984098000000009C2F9A950000AF
:10376000E9F75B9A5B984098000000009C2F9A95BF
:103770000000E9F75B9A5B984098000000009C2FDE
:103780009A950000E9F75B9A5B984098000000006A
:103790009C2F9A950000E9F75B9A5B98409800008F
:1037A00000009C2F9A950000E9F75B9A5B9840987F
:1037B000000000009C2F9A950000E9F75B9A5B9847
:1037C0004098000000009C2F9A950000E9F75B9A52
:1037D0005B984098000000009C2F9A950000E9F744
:1037E0005B9A5B984098000000009C2F9A9500001F
:1037F000E9F75B9A5B984098000000009C2F9A952F
:103800000000E9F75B9AF8013197F1F7815009F070
:103810006ACF88EF0E94B516C8010197F1F7DF5F04
:1038200080E1F80ED03209F043CF80E00E94B51657
:1038300080EC0E94B516C8010197F1F7419881E02C
:1038400059CED80115964C91159750E0440F551F4D
:1038500070E060E016968D919C910E94E6FAC80196
:103860000E94AECA81E046CE89812B81D801129692
:103870006C91129713964C91213009F467C0233054
:1038800009F048C038EF380F582F91E0431708F47B
:1038900090E041E0531708F040E031E0561708F49B
:1038A00030E0592F542B352319F4942309F486CE94
:1038B000FA8030E0F901EB50FE4FD0802F503E4FA0
:1038C000F901E08040C0B901C8010E9482CA81E0CC
:1038D00011CE1882D80112968C9112978983159671
:1038E0008C91159781508A8313968C918B8381E0FC
:1038F00001CEF801458150E0440F551F70E060E0B3
:10390000868197810E94E6FA81E0F4CDF8018581F5
:10391000888354CE481708F451CE861708F44ECE4B
:10392000FA80E12CD12C243070F4C3CFBE01C80141
:103930000E9482CA898198819D0D98838E0D89830A
:10394000FF0C09F43BCEF7FEF6CFF0CF58E0580F4E
:10395000382F9BCF3F924F925F926F927F928F92C0
:103960009F92AF92BF92CF92DF92EF92FF920F930E
:103970001F93CF93DF93EC01162FDCAC5BAC5C01A3
:1039800024E0A20EB11CE98DFA8DC5010995982E8F
:10399000E884F984C7010E9466CC082F8885998540
:1039A0000E9469CC782E88248A94013011F48FE02B
:1039B000882E888599850E945CCC082F88859985FA
:1039C0000E9458CCC82E888599850E9460CC1136FB
:1039D00070F0009761F0E80EF91E01E6C116B8F428
:1039E0001C8A1F8A188E1D8A1E8A80E05BC088850B
:1039F00099850E9463CC113430F0009721F0E80ED5
:103A0000F91E01E4EBCF81E1E80EF11CE7CFC0160F
:103A100038F3872D90E0F70124912F3F39F4FFEF21
:103A2000EF1AFF0AC016E1F20F5FF5CF101368C05E
:103A3000888599850E9466CC97012F5F3F4FF701DB
:103A4000882319F0823009F044C084918F8BF901EA
:103A50002491288FF7013396E491EC8BF70134968B
:103A6000E491ED8BF7013596E491EE8BE114F104CE
:103A700009F4BBCF888599850E9469CC782ECF88C0
:103A8000388C8D89580E1D2D13198E89181B190D10
:103A9000032D2C2D412F652DC5010E9473CC811162
:103AA00038C08C899BAD890F8BAF81E090E0DF91AE
:103AB000CF911F910F91FF90EF90DF90CF90BF902B
:103AC000AF909F908F907F906F905F904F903F90BE
:103AD00008958491982F9F7092509E8B82958F703D
:103AE0008D8BF9012491822F8F70888F22952F70F2
:103AF0002F8BF7013296E491E295EF70EC8BB6CF05
:103B00003296E491E821E80FF92FF11DEE0EFF1E29
:103B100089CFE70CF11C07E00C0D0695069506957C
:103B2000310E4E01F0E28F0E911C602E712C131598
:103B300009F4B7CF452C670112C0F60184916E815C
:103B40007F8148A219A31BA28AA394014BE3C5015C
:103B50000E94B5CAFFEFCF1ADF0A28E0420E8C2D73
:103B60008E19801750F3E60CF71C1F5FE0CF1F93F0
:103B7000CF93DF93182FEB01FE01849121968111E1
:103B80000AC0CFE8D2E0FE0184912196882331F06B
:103B90000E94F083F8CF0E94F083EECFCAE8D2E013
:103BA000112311F0C0E8D2E0FE0184912196882310
:103BB00019F00E94F083F8CF8AE0DF91CF911F9136
:103BC0000C94F083CF93DF9381309340A1F0CDE547
:103BD000D7E2FE018491219681110AC0C1E5D1E0AE
:103BE000FE0184912196882351F00E94F083F8CF42
:103BF0000E94F083EECF80E0DF91CF91089581E0C5
:103C0000FBCF4F925F926F927F928F929F92AF9273
:103C1000BF92CF92DF92EF92FF92CF93DF93CDB717
:103C2000DEB76A970FB6F894DEBF0FBECDBF9A8F8E
:103C3000898F5B014A01FC01EE5BFF4F608171815E
:103C4000828193810E941DF46B017C01D5012D912D
:103C50003D914D915C910E947EF40E94B5F80E94C6
:103C600045F93B015C01F40120813181428153819E
:103C7000C701B6010E947EF40E94B5F80E9445F982
:103C80006D827E82AF82B8862D813E814F815885BC
:103C9000283731054105510540F428E730E040E080
:103CA00050E02D833E834F83588769837A838B83CB
:103CB0009C8389819A81AB81BC8188379105A1055C
:103CC000B10540F428E730E040E050E029833A8332
:103CD0004B835C83E98DFA8DE25BFF4F808191819C
:103CE000A281B38189879A87AB87BC87BC01CD014C
:103CF0000E941FF42B013C016D817E818F8198858C
:103D00000E941DF4698B7A8B8B8B9C8B20E030E0BA
:103D1000A901C301B2010E9418F4882309F43EC12D
:103D2000A7019601C701B6010E947EF44B015C0118
:103D300029893A894B895C89CA01B9010E947EF4BC
:103D40009B01AC01C501B4010E9448F84B015C0124
:103D5000A3019201C301B2010E9449F89B01AC0189
:103D6000C501B4010E94CCF80E94B5F80E9445F943
:103D70006D877E878F87988B69857A858B859C85F3
:103D800090958095709561957F4F8F4F9F4F0E94C2
:103D90001FF44B015C0169817A818B819C810E94B7
:103DA0001DF469877A878B879C8720E030E0A90122
:103DB000C501B4010E9418F4882309F4F3C02985D1
:103DC0003A854B855C85CA01B9010E947EF46D8BF2
:103DD0007E8B8F8B988FA7019601C701B6010E9439
:103DE0007EF49B01AC016D897E898F89988D0E943C
:103DF00048F86B017C01A5019401C501B4010E9442
:103E000049F89B01AC01C701B6010E94CCF80E94A1
:103E100074F9A98DBA8D95968D909D90AD90BC90BA
:103E20009897750164012D853E854F855889C21A82
:103E3000D30AE40AF50A0E9445F9C61AD70AE80A25
:103E4000F90AF7FE6EC020E030E0A901C301B2011B
:103E50000E9418F4882309F4A9C0C501B4010E9486
:103E60001DF46B017C01A3019201C301B2010E9408
:103E700049F89B01AC01C701B6010E947EF46B01B9
:103E80007C0129893A894B895C89CA01B9010E9460
:103E90007EF49B01AC01C701B6010E9448F86B019A
:103EA0007C0129853A854B855C85CA01B9010E9450
:103EB0007EF49B01AC01C701B6010E9449F86B0179
:103EC0007C0120E030E040E850E4C301B2010E94F0
:103ED0007EF49B01AC01C701B6010E94CCF80E94A0
:103EE000B5F86B017C0120E030E0A9010E94CCF91B
:103EF00018161CF0C12CD12C7601C701B6010E9406
:103F000045F96D877E878F87988B86169706A8065A
:103F1000B90620F48D869E86AF86B88AC12CD12C36
:103F200076018D859E85AF85B889E98DFA8D82A74A
:103F300093A7A4A7B5A7C80ED91EEA1EFB1EDF01D2
:103F4000C6A6D7A6E0AAF1AAEA5BFF4F2D813E8163
:103F50004F8158852083318342835383A65BBF4FB3
:103F6000FD0189819A81AB81BC8180839183A28389
:103F7000B3836A960FB6F894DEBF0FBECDBFDF9154
:103F8000CF91FF90EF90DF90CF90BF90AF909F9038
:103F90008F907F906F905F904F90089560E070E0F9
:103FA000CB01E2CE60E070E0CB0131CF60E070E0A9
:103FB000CB0195CFCF93DF9300D000D0CDB7DEB744
:103FC000882349F00E94EBD20F900F900F900F9032
:103FD000DF91CF91089588EB91E09C838B8384E1FE
:103FE00090E09A838983BE016D5F7F4FCE01019679
:103FF0000E94DDC2E9CF8091D1088230B1F090916A
:10400000FD10992359F080910D11811104C080E0B9
:1040100091E10C9411C38DE091E1FBCF813041F02F
:104020008EEC9FE06FEF0C94BEDA8CEE9FE0FACF3F
:1040300080EE9FE0F7CF282F1092B50B8091770D7F
:104040009091780DA091790DB0917A0D81309048C2
:10405000A105B10540F01092770D1092780D1092E5
:10406000790D10927A0D8091B00B882331F08091F8
:10407000770D8093730D1092710D8091700D18164D
:10408000FCF4082E000C990B821B91092091730DF2
:10409000022E000C330B2817390794F097FF02C04B
:1040A00090E080E08093730D092E000CAA0BBB0BEF
:1040B0008093770D9093780DA093790DB0937A0D3E
:1040C0008091730D6623A9F09091740D891714F4F3
:1040D0008093740D2091740D022E000C330B2C5F15
:1040E0003F4F482F082E000C550B241735071CF4A2
:1040F00084508093740D0895CF93DF9360E085E042
:104100000E941B20D091740DC0E0D1110DC0809190
:104110006401882399F00E94A61621E041E0BC01C9
:104120008C2F0E944EDE0AC0D13091F48091640140
:1041300020E041E061E072E18111F2CFDF5FCF5F0B
:10414000C53019F783E08093700DDF91CF9108950A
:10415000D230A1F780916401882381F320E041E00F
:1041600067EF71E1DDCFDF92EF92FF920F931F9324
:10417000CF93DF9361E081E00E941B20C091740D1A
:1041800015E01C0F81E001E0D2E0FD2EFC1AE82EC4
:10419000EC1ADC2ED194C11130C08823D9F0809163
:1041A000730D1816BCF04091770D5091780D609109
:1041B000790D70917A0D4F5F5F4F6F4F7F4F409336
:1041C000770D5093780D6093790D70937A0D8F5F12
:1041D0008093730D80916401882339F020E041E0E1
:1041E00067EB70E18D2D0E944EDE80E0CF5F1C13E7
:1041F000D2CF83E08093700D21C0C13039F590910A
:10420000730D913079F080916401882371F381E01E
:10421000913009F080E020E24EEA50E16E2D0E94DC
:104220001BD3E3CF8091720D882369F31092720D36
:10423000D093AA0D8091710D882329F3DF91CF913E
:104240001F910F91FF90EF90DF900895C23069F6B3
:104250009091730D923069F080916401882329F266
:1042600081E0923009F080E020E243EA50E16F2DD6
:10427000D6CF8091720D882379F31092720D00933E
:10428000AA0D8091710D882339F3D8CF8091D00980
:104290008630D8F496E0899FF0011124E455F64F5A
:1042A00020915C0130915D01318320834091770D35
:1042B0005091780D6091790D70917A0D42835383FE
:1042C000648375838F5F8093D0090895CF92DF92C6
:1042D000EF92FF920F931F93CF93DF93EC016A014C
:1042E0007B0180915C0190915D018C179D0709F421
:1042F00040C04091C7085091C8086091C9087091AA
:10430000CA084093FA095093FB096093FC09709323
:10431000FD0929E6CA38D207A9F58B56924371F4F4
:104320000E9407C86E517B4F8F4F9F4F6093A80923
:104330007093A9098093AA099093AB09D0935D016A
:10434000C0935C01C092770DD092780DE092790D08
:10435000F0927A0DCB56D24321F41092A90D10920F
:10436000D00982E08093640181E08093710D109206
:10437000B60BDF91CF911F910F91FF90EF90DF90DF
:10438000CF90089522E3CB36D207C1F68A589946DA
:1043900019F0CBE6D2E3D2CF0E9407C80091A8095A
:1043A0001091A9092091AA093091AB09601B710BEA
:1043B000820B930B97FFEDCF80917710909178103F
:1043C000891B8F7021F48091FD10882311F3C7E1C0
:1043D000D2E2B4CF81E08093A90D1092B90F40E0F2
:1043E00050E0BA0185ED99E20E94662187EB94E1E5
:1043F00090938F0D80938E0D0C94D78740E050E002
:10440000BA0184E09AE20E94662181E08093EF087D
:104410008091F909811108C08FE894E190938F0D84
:1044200080938E0D0C94D78786E994E1F7CF40E016
:1044300050E0BA018BE49AE20E9466211092F409DE
:104440001092F5091092F6091092F70981E0809315
:10445000A90D089540E050E0BA018BE692E30C9478
:1044600066216093AC0D4093AB0D8A3078F5E82F50
:10447000880FFF0BE25CFD4D0C94ABFA68224822DA
:104480006B22522255226122582266225B225E2232
:1044900089E49EE221E02093A90D40E050E0BA01BA
:1044A0000C9466218BEF9EE2F5CF84E59FE2F2CF7C
:1044B0008CE790E2EFCF8DEA9FE2ECCF86E090E3CD
:1044C000E9CF1092AA0D83EB90E2E4CF0C942A225C
:1044D00080EF9DE2DFCF82EA9EE2DCCFE091D0095F
:1044E000EE2389F0E150E093D00986E0E89FF001E7
:1044F0001124E455F64F4281538164817581808196
:1045000091810C9466210C942A229F92AF92BF92C3
:10451000CF92DF92EF92FF920F931F93CF93DF938F
:1045200061E081E00E941B20C091740DDC2F85E0CA
:10453000982E9C0E19E01C1B08E00C1B87E0F82E3F
:10454000FC1A86E0E82EEC1A9AE6A92E95E1B92E1F
:1045500085E0D82EDC1A84E0C82ECC1AC11133C0F5
:104560008091730D8823B9F080916401882361F0F4
:104570006D2F619581E09091730D911180E024E0A1
:1045800042EA55E10E941BD3CF5F9C12E7CF8AE03D
:104590008093700D0CC08091720D882329F31092C6
:1045A000720D0E946E228091710D8823E9F2DF91D5
:1045B000CF911F910F91FF90EF90DF90CF90BF9020
:1045C000AF909F900895C13019F58091730D81309F
:1045D00081F0809164018823B9F261E06D1B81E074
:1045E0009091730D913009F080E023E048E955E1A6
:1045F000C9CF8091720D882361F31092720D8BE404
:1046000091EE0E9412DF8091710D882311F3CFCFBC
:10461000C23009F014C18091730D823089F080910D
:104620006401882309F4B0CF62E06D1B81E09091B2
:10463000730D923009F080E020E24AE855E1A2CF04
:104640008091720D882359F31092720D84E995E1DF
:1046500090938F0D80938E0D0E94D7878091710D5E
:104660008823E9F2A4CF8091730D833089F0809183
:104670006401882309F488CF63E06D1B81E0909189
:10468000730D933009F080E020E24DE755E17ACFD9
:104690008091720D882359F31092720D84E895E190
:1046A00090938F0D80938E0D0E94D7878091710D0E
:1046B0008823E9F27CCF8091730D843081F0809162
:1046C0006401882309F460CF81E09091730D9430E8
:1046D00009F080E020E240E755E16C2D53CF809156
:1046E000720D882361F31092720D87E795E1909324
:1046F0008F0D80938E0D0E94D7878091710D882336
:10470000F1F255CF8091730D853081F08091640175
:10471000882309F439CF81E09091730D953009F029
:1047200080E020E243E655E16D2D2CCF8091720DA3
:10473000882361F31092720DB0928F0DA0928E0DAE
:104740000E94D7878091710D882301F330CF80912B
:10475000730D863081F080916401882309F414CFB1
:1047600081E09091730D963009F080E023E046E5FA
:1047700055E16E2D07CF8091720D882361F3109261
:10478000720D8EEB96E60E9412DF8091710D8823E8
:1047900011F30DCF8091730D873081F0809164010A
:1047A000882309F4F1CE81E09091730D973009F0E0
:1047B00080E023E04AE455E16F2DE4CE8091720D54
:1047C000882361F31092720D88E494E20E9412DF54
:1047D0008091710D882311F3EACE8091730D88309A
:1047E00081F080916401882309F4CECE81E090911C
:1047F000730D983009F080E023E04EE355E1602F1F
:10480000C1CE8091720D882361F31092720D88E100
:1048100095E20E9412DF8091710D882311F3C7CEBB
:104820008091720D882321F11092720D88EE95E22D
:104830000E9412DF8091710D8823D1F0B8CEC33071
:1048400009F411CFC43009F436CFC53009F45ACF7A
:10485000C63009F47CCFC73009F49CCFC83009F4C6
:10486000BCCFC93009F090CE8091730D8930C1F270
:1048700080916401882309F487CE81E09091730DC3
:10488000993009F080E023E041E355E1612F7ACED1
:10489000EF92FF920F931F93CF93DF9361E081E03C
:1048A0000E941B20C091740D85E0F82EFC0ED3E011
:1048B000DC1B12E01C1B01E00C1BEC2EE194C1116F
:1048C0002DC08091730D8823B1F0809164018823FD
:1048D00059F081E09091730D911180E024E04CED4E
:1048E00053E16E2D0E941BD3CF5FFC12E8CF84E012
:1048F0008093700D0CC08091720D882331F310925B
:10490000720D0E946E228091710D8823F1F2DF9169
:10491000CF911F910F91FF90EF900895C13061F5F5
:104920008091730D813079F0809164018823E1F2E8
:1049300081E09091730D913009F080E020E240ED2C
:1049400053E1602FCFCF8091720D882369F31092CD
:10495000720D4091E9085091EA086091E308709166
:10496000E4088091DD089091DE080E9445DA80918C
:10497000710D8823C9F2CBCFC23009F042C08091BB
:10498000730D823081F080916401882309F4ACCFEB
:1049900081E09091730D923009F080E020E240ECCC
:1049A00053E1612F9FCF8091720D882361F31092A4
:1049B000720D4091E9085091EA086FEF7FEF809106
:1049C000DD089091DE080E9445DA8091710D882300
:1049D000D1F29DCF8091720D8823D1F01092720D8B
:1049E0004091E9085091EA086091E3087091E40869
:1049F00090E080E00E9445DA8091710D882341F0BB
:104A000086CFC33009F070CF8091730D833011F3DE
:104A100080916401882309F467CF81E09091730D40
:104A2000933009F080E020E240EB53E16D2F5ACF44
:104A3000EF92FF920F931F93CF93DF9361E081E09A
:104A40000E941B20C091740D85E0F82EFC0ED3E06F
:104A5000DC1B12E01C1B01E00C1BEC2EE194C111CD
:104A60002DC08091730D8823B1F08091640188235B
:104A700059F081E09091730D911180E024E040E1C4
:104A800054E16E2D0E941BD3CF5FFC12E8CF84E06F
:104A90008093700D0CC08091720D882331F31092B9
:104AA000720D0E946E228091710D8823F1F2DF91C8
:104AB000CF911F910F91FF90EF900895C13061F554
:104AC0008091730D813079F0809164018823E1F247
:104AD00081E09091730D913009F080E020E244E094
:104AE00054E1602FCFCF8091720D882369F310922B
:104AF000720D4091EB085091EC086091E5087091BF
:104B0000E6088091DF089091E0080E9445DA8091E4
:104B1000710D8823C9F2CBCFC23009F042C0809119
:104B2000730D823081F080916401882309F4ACCF49
:104B300081E09091730D923009F080E020E244EE24
:104B400053E1612F9FCF8091720D882361F3109202
:104B5000720D4091EB085091EC086FEF7FEF809160
:104B6000DF089091E0080E9445DA8091710D88235A
:104B7000D1F29DCF8091720D8823D1F01092720DE9
:104B80004091EB085091EC086091E5087091E608BF
:104B900090E080E00E9445DA8091710D882341F019
:104BA00086CFC33009F070CF8091730D833011F33D
:104BB00080916401882309F467CF81E09091730D9F
:104BC000933009F080E020E244EF53E16D2F5ACF9B
:104BD000EF92FF920F931F93CF93DF9361E081E0F9
:104BE0000E941B20C091740D85E0F82EFC0ED3E0CE
:104BF000DC1B12E01C1B01E00C1BEC2EE194C1112C
:104C00002DC08091730D8823B1F0809164018823B9
:104C100059F081E09091730D911180E024E047E418
:104C200054E16E2D0E941BD3CF5FFC12E8CF84E0CD
:104C30008093700D0CC08091720D882331F3109217
:104C4000720D0E946E228091710D8823F1F2DF9126
:104C5000CF911F910F91FF90EF900895C13061F5B2
:104C60008091730D813079F0809164018823E1F2A5
:104C700081E09091730D913009F080E020E24AE3E9
:104C800054E1602FCFCF8091720D882369F3109289
:104C9000720D4091ED085091EE086091E708709117
:104CA000E8088091E1089091E2080E9445DA80913D
:104CB000710D8823C9F2CBCFC23009F042C0809178
:104CC000730D823081F080916401882309F4ACCFA8
:104CD00081E09091730D923009F080E020E248E18C
:104CE00054E1612F9FCF8091720D882361F3109260
:104CF000720D4091ED085091EE086FEF7FEF8091BB
:104D0000E1089091E2080E9445DA8091710D8823B4
:104D1000D1F29DCF8091720D8823D1F01092720D47
:104D20004091ED085091EE086091E7087091E80815
:104D300090E080E00E9445DA8091710D882341F077
:104D400086CFC33009F070CF8091730D833011F39B
:104D500080916401882309F467CF81E09091730DFD
:104D6000933009F080E020E249E254E16D2F5ACF00
:104D70008091EF08811106C01092A90D0E946E2249
:104D80000E94EBD280916401882339F020E041E059
:104D90006FE574E181E00E944EDE82E08093640161
:104DA00008958F929F92AF92BF92CF92DF92EF922F
:104DB000FF920F931F93CF93DF9361E081E00E94F6
:104DC0001B20C091740D85E0982E9C0E8C2E819432
:104DD00008E510E1D1E0DC1B83E0B82EBC1A90E4BA
:104DE000E92E90E1F92E25E4C22E20E1D22E82E0B8
:104DF000A82EAC1AC11114C08091730D882309F438
:104E00007AC080916401882359F081E09091730DFC
:104E1000911180E024E040E750E1682D0E941BD30F
:104E20008091D208811193C02091190130911A010B
:104E300080912E1090912F10821793070CF087C04D
:104E4000C130A9F48091730D813009F46FC0809155
:104E50006401882361F081E09091730D913009F035
:104E600080E023E040E650E16D2F0E941BD380914B
:104E7000771090917810891B8F7009F007C180918D
:104E8000EF12811103C18091D208811116C1809166
:104E90002E1090912F102091190130911A01821734
:104EA00093070CF0F5C0C23009F09AC08091730DE1
:104EB000823009F471C080916401882361F081E03F
:104EC0009091730D923009F080E023E04AE450E1C4
:104ED0006A2D0E941BD380912E1090912F1020914B
:104EE000D208222309F47CC084E0CF5F9C1282CFD9
:104EF0008093700D0EC08091720D882309F481CFCC
:104F00001092720D0E946E228091710D882309F417
:104F100078CFDF91CF911F910F91FF90EF90DF90AD
:104F2000CF90BF90AF909F908F9008958091720D19
:104F3000882309F48CCF1092720D89E09AE10E94C7
:104F400012DF8091710D882309F481CFE2CFC13047
:104F500009F08DCF8091730D813069F080916401EB
:104F6000882309F484CF81E09091730D913009F08A
:104F700080E020E277CF8091720D882379F3109240
:104F8000720D10938F0D00938E0D0E94D787809124
:104F9000710D882319F3BDCF8091720D882309F418
:104FA0008ACF1092720D83E09AE10E9412DF809105
:104FB000710D882309F47FCFACCF8091720D8823C7
:104FC00009F46EC01092720DD0928F0DC0928E0DAA
:104FD0000E94D7878091710D882309F461C099CF11
:104FE0002091190130911A018217930754F1C330AF
:104FF00009F07ACF8091730D833091F08091640134
:10500000882309F471CF81E09091730D933009F0FA
:1050100080E020E240E350E16B2D0E941BD364CF7F
:105020008091720D882351F31092720DF0928F0DC2
:10503000E0928E0D0E94D7878091710D8823F1F246
:1050400068CFC33009F050CF8091730D833079F071
:1050500080916401882309F447CF81E09091730D1A
:10506000933009F080E023E040E250E1D5CF809119
:10507000720D882369F31092720D86E09AE10E9406
:1050800012DF8091710D882319F343CF82E02DCF79
:10509000C23009F0A5CF8091730D823009F48DCF15
:1050A00080916401882309F416CF81E09091730DFB
:1050B000923009F080E020E209CFC23009F097CFAA
:1050C000EACFEF92FF920F931F93CF93DF9361E0AC
:1050D00081E00E941B20C091740D15E01C0F80E13F
:1050E000E82E82E1F82ED1E0DC1B0C2F0195C111D6
:1050F0002DC08091730D8823B1F0809164018823C5
:1051000059F081E09091730D911180E024E047E423
:1051100052E1602F0E941BD3CF5F1C13E8CF82E0C7
:105120008093700D0CC08091720D882331F3109222
:10513000720D0E946E228091710D8823F1F2DF9131
:10514000CF911F910F91FF90EF900895C13021F7FB
:105150008091730D813079F0809164018823E1F2B0
:1051600081E09091730D913009F080E020E248E3F6
:1051700052E16D2FCFCF8091720D882369F3109289
:10518000720DF0928F0DE0928E0D0E94D7870E94D3
:10519000EBD20E942A228091710D8823E9F2CFCFB1
:1051A0009CE0899F802D112491E0980F9093261008
:1051B0002CE0280F2093271040916E1030E02E5FD6
:1051C0003F4F4217130609F0A4F420917010921774
:1051D00080F4662341F08E5F0E9495CC8091271069
:1051E0008E5F0E9495CC8091271010927110809351
:1051F00072100895CF93DF931F92CDB7DEB78091E1
:105200007310811105C081E0809373100E941ACB46
:1052100060913C1070913D1019829E012F5F3F4FAD
:105220004FE08AE390E10E94B5CA0F90DF91CF91E1
:1052300008950F931F93CF93C62F8C01CC2349F071
:10524000F80181918F01882321F00E947AC2C15018
:10525000F5CFCF911F910F9108959FEF980F99303F
:1052600020F40E9429DA81E008950E947AC2FBCFDF
:105270009FEF980F993010F40C9429DA0C947AC2AD
:10528000CF93DF93EC01FE018491882321F00E94EB
:1052900038292196F8CFDF91CF910895CF93DF93EE
:1052A000EC018991882319F00E943829FACFDF9107
:1052B000CF910895AF92BF92CF92DF92EF92FF927B
:1052C0000F931F93CF93DF935C017B010E9440DE1D
:1052D000C82FC7010E9498DE04E110E0081B1109E5
:1052E000DD24D394C017110619F014F082E0D82EF3
:1052F00080913B1090E06D2D70E06F5F7F4F0E94BA
:1053000078FAC62EC6E0C60F80916E10C81788F1D5
:10531000209170104C2F4B50550B241715064CF153
:1053200010927110C0937210C5010E947FC2D1E02B
:10533000E114F10499F08AE30E947AC252E0D51296
:105340001AC0CC0D80916E10C81740F020917010DB
:105350004C2F4B50550B241715067CF4DF91CF9141
:105360001F910F91FF90EF90DF90CF90BF90AF9083
:105370000895D0E0DDCFDD2389F3802F880F800FE3
:10538000880F80937110C093721080E20E947AC2DD
:10539000C701DF91CF911F910F91FF90EF90DF90A8
:1053A000CF90BF90AF900C944E29809164018823D8
:1053B00031F070E060E08CEA94E10E945A2984E0C8
:1053C000809364018091B90F8770873039F440E091
:1053D00050E0BA018FEE99E20C9466210895809115
:1053E0006401882331F070E060E08DE994E10E946F
:1053F0005A298091720D1092720D882321F010921B
:10540000F9090C94FE2108950F931F93CF93DF9316
:10541000CDB7DEB72A970FB6F894DEBF0FBECDBF6B
:10542000809164018823F1F01F9284E28F93809130
:10543000F90990E001969F938F9387E894E19F93F9
:105440008F938E010F5F1F4F1F930F930E94AFF337
:10545000B8018CE794E10E945A290FB6F894DEBF98
:105460000FBECDBF84E0809364018091EF0881116D
:1054700007C040E050E0BA018FE39EE40E9466213D
:105480002A960FB6F894DEBF0FBECDBFDF91CF9145
:105490001F910F910895CF93DF9300D000D0CDB727
:1054A000DEB78091720D1092720D882359F0109220
:1054B000A90D0E946E220F900F900F900F90DF9118
:1054C000CF9108958091770D9091780DA091790DED
:1054D000B0917A0D0097A105B10589F11092770D71
:1054E0001092780D1092790D10927A0D21E0209390
:1054F00064012091CA0B22FF0AC02091D708309185
:10550000D808280F391F3093D8082093D708092EC0
:10551000000CAA0BBB0B4091F4095091F509609166
:10552000F6097091F709840F951FA61FB71F809386
:10553000F4099093F509A093F609B093F7098091C7
:105540006401882309F4B7CF6091F4097091F509DB
:105550008091F6099091F7090E941FF42091EC09BF
:105560003091ED094091EE095091EF090E947EF4CF
:1055700069837A838B839C8360E2CE0101960E94CB
:1055800006CDBC0189E393E10E945A2994CFCF92C2
:10559000DF92EF92FF920F93CF93DF93982F862F96
:1055A0006A017901692F0E94D02890916E10809134
:1055B0002710891708F445C090917010809126102B
:1055C000981708F43EC0C701002381F00E9440DE16
:1055D000C82FD4E1D81BF6018491882351F00E9492
:1055E0002D29D81BFFEFCF1ADF0AF5CF0E9498DED6
:1055F000EFCF8AE30E947AC2D15010F080E2FACF56
:10560000809127109C2F990F990FC91BCC0FC05860
:10561000C093711080937210C701002349F0DF918D
:10562000CF910F91FF90EF90DF90CF900C94402995
:10563000DF91CF910F91FF90EF90DF90CF900C947E
:105640004E29DF91CF910F91FF90EF90DF90CF9097
:1056500008952F923F924F925F926F927F928F9216
:105660009F92AF92BF92CF92DF92EF92FF920F93F1
:105670001F93CF93DF9300D000D0CDB7DEB761E0AA
:1056800081E00E941B202091740D2B832C83822F9C
:105690008B5F898388E0821B8A8387E0282E221A09
:1056A00086E0382E321A85E0F82EF21A84E0E82ED1
:1056B000E21A89E9C82E83E1D82E98E1892E9CEF61
:1056C000992EAA24AA94BA2C20ED422E27E0522E1D
:1056D000612C712C2B81211139C08091730D88238D
:1056E00091F080916401882309F452C06C81619526
:1056F00081E09091730D911180E024E04BEA53E139
:105700000E941BD345C08091720D882351F31092E3
:10571000720D0E946E228091710D882311F30F90FB
:105720000F900F900F90DF91CF911F910F91FF90ED
:10573000EF90DF90CF90BF90AF909F908F907F9031
:105740006F905F904F903F902F9008958B818130A4
:1057500009F03FC08091730D813021F18091640187
:105760008823B1F011E08091730D813009F010E0D1
:1057700080912101909122010E9499D061E02C81B9
:10578000621B00E09C014FE953E1812F0E94C72A70
:105790008B818F5F8B83998198139CCF89E0809355
:1057A000700DBDCF8091720D8823C1F21092720DE1
:1057B00010E000E027EE33E04AE050E061E271E003
:1057C00085EA93E10E941FC68091710D882331F212
:1057D000A6CF8B81823009F08DC18091730D82300C
:1057E000B9F080916401882399F211E08091730DE2
:1057F000823009F010E060E280EF98E00E9406CD70
:1058000062E02C81621B00E09C0143E953E1BDCFC3
:105810008091720D882329F31092720D0E94462107
:1058200083E080936401D092860DC092850D80EF55
:1058300098E09093840D8093830D80927F0D9092D9
:10584000800DA092810DB092820D40927B0D5092FE
:105850007C0D60927D0D70927E0D20E030E04AE775
:1058600054E46091F0087091F1088091F2089091F1
:10587000F3080E947EF420E030E04AE754E40E94FE
:1058800049F80E9445F96093770D7093780D8093E5
:10589000790D90937A0D8CE99DEC90935D01809346
:1058A0005C011092890D1092880D1092870D8091E5
:1058B000710D882309F495CF32CF8091730D833019
:1058C000C9F080916401882309F462CF11E08091CE
:1058D000730D833009F010E080912E1090912F10FD
:1058E0000E9499D063E02C81621B00E09C0145E896
:1058F00053E14BCF8091720D882319F31092720DF2
:1059000081E08093B50B1092B10B1092B20B109204
:10591000B30B1092B40B01E01AE12EE031E050E03D
:1059200040E06EE270E18CE893E10E941FC6809136
:10593000710D882331F2F3CE8091730D8430B9F06C
:1059400080916401882309F423CF11E08091730DC5
:10595000843009F010E080918A0D90918B0D0E94A7
:1059600099D000E09C014DE753E16E2D0ECF809160
:10597000720D882329F31092720D81E08093B50B8C
:105980001092B10B1092B20B1092B30B1092B40B99
:1059900008E811E325E530E050E040E06AE87DE00A
:1059A00081E893E10E941FC68091710D882341F226
:1059B000B6CE8091730D8530B9F080916401882353
:1059C00009F4E6CE11E08091730D853009F010E006
:1059D00080918C0D90918D0D0E9499D000E09C01DA
:1059E00049E653E16F2DD1CE8091720D882329F3C2
:1059F0001092720D81E08093B50B1092B10B109252
:105A0000B20B1092B30B1092B40B10E000E02FEF2A
:105A100030E050E040E06CE87DE083E793E10E94F5
:105A20001FC68091710D882341F279CE8091730D4C
:105A30008630B9F080916401882309F4A9CE11E081
:105A40008091730D863009F010E080911F019091D4
:105A500020010E9499D000E09C014FE553E1632DA5
:105A600094CE8091720D882329F31092720D03E871
:105A700016E127EE33E04AE050E06FE171E084E6A2
:105A800093E10E941FC68091710D882399F247CE41
:105A90008091730D873081F080916401882309F42F
:105AA00077CE81E09091730D973009F080E023E08C
:105AB00044E553E1622D24CE8091720D882361F379
:105AC0001092720D87E192E20E9412DF8091710DB7
:105AD000882311F324CE8091720D882311F1109246
