:100000000C94BC180C94E6180C94E6180C94E618A2
:100010000C94E6180C94E6180C94E6180C94E61868
:100020000C94E6180C94E6180C94E6180C94E61858
:100030000C94E6180C94DEBD0C94E6180C94E618AB
:100040000C94E6180C94F8570C9486CF0C94E61890
:100050000C9485290C94E6180C94E6180C94E61878
:100060000C94E6180C94E6180C94E6180C94E61818
:100070000C94E6180C94E6180C94E6180C94E61808
:100080000C94E6180C94E6180C94E61828970E9732
:1000900011971497179723971A9734971D972097BE
:1000A00073C423C35AC3AFC45AC35AC35AC35AC32F
:1000B0005AC35AC35AC35AC35AC35AC35AC35AC358
:1000C0005AC35AC35AC35AC35AC35AC35AC35AC348
:1000D0005AC35AC35AC35AC35AC35AC3A9C45AC3E8
:1000E0005AC35AC35AC35AC35AC35AC35AC382C4FF
:1000F0005AC35AC35AC35AC35AC35AC35AC35AC318
:100100005AC35AC3C6C457C35ACC5DCC50CC54CC86
:1001100074CC74CC61CC65CC6BCC6FCCF5CEFACE04
:10012000FFCE09CF37CF37CF13CF1BCF23CF2DCF64
:10013000084AD73B3BCE016E84BCBFFDC12F3D6C4E
:1001400074319ABD56833DDA3D00C77F11BED9E4B4
:10015000BB4C3E916BAAAABE000000803F05A84C94
:10016000CDB2D44EB93836A9020C50B99186880860
:100170003CA6AAAA2ABE000000803F004E414E497C
:100180004E495459494E46CDCCCC3D0AD7233C1755
:10019000B7D13877CC2B329595E6241FB14F0A00A2
:1001A0000020410000C84200401C4620BCBE4CCA92
:1001B0001B0E5AAEC59D74434F4D4D554E4943419C
:1001C00054494F4E0044525952554E004552524FD9
:1001D000525300494E464F004543484F0047322F87
:1001E00047332062616420706172616D657465726D
:1001F000730A00536C6565702E2E2E00206F6620EA
:10020000004D424C2047323920706F696E742000D7
:1002100059206F7574206F662072616E67652028A3
:10022000312D35292E0A0058206F7574206F6620F5
:1002300072616E67652028312D35292E0A004D65C3
:1002400073682070726F62696E6720646F6E652ECE
:100250000A005374617274206D6573682070726F48
:1002600062696E67207769746820224732392053AB
:1002700031222066697273742E0A004732380A47A9
:1002800032392053320053746174653A20004D6551
:10029000736820626564206C6576656C696E6720A2
:1002A000686173206E6F20646174612E0A005320B0
:1002B0006F7574206F662072616E67652028302D1F
:1002C00035292E0A004D65736820706F696E7420A1
:1002D00063616E6E6F74206265207265736F6C76F9
:1002E00065640A00436C69636B20746F20726573E8
:1002F000756D652E2E2E004E6F206D6F76652E006B
:100300005072696E742074696D653A2000D801D30B
:1003100001CC01C501B7016F6666004445425547EF
:100320003A004B494C4C45442E20004D313133208E
:1003300053006F6B003344205072696E74657220F5
:100340004F66662E00544845524D414C5F50524F07
:1003500054454354494F4E004155544F5245504F18
:1003600052545F53445F53544154555300454D45D7
:100370005247454E43595F50415253455200434105
:1003800053455F4C494748545F4252494748544E91
:1003900045535300544F47474C455F4C49474854D9
:1003A0005300534F4654574152455F504F574552A3
:1003B000004255494C445F50455243454E54004C11
:1003C0004556454C494E475F44415441005A5F50A1
:1003D000524F4245004155544F4C4556454C0050F4
:1003E00052494E545F4A4F420050524F4752455374
:1003F00053004155544F5245504F52545F54454D50
:100400005000564F4C554D455452494300454550B8
:10041000524F4D0053455249414C5F584F4E5F5823
:100420004F4646004649524D574152455F4E414D59
:10043000453A4D61726C696E20312E312E3920287B
:100440004769746875622920534F555243455F438D
:100450004F44455F55524C3A68747470733A2F2F6D
:100460006769746875622E636F6D2F4D61726C6978
:100470006E4669726D776172652F4D61726C696E3F
:100480002050524F544F434F4C5F56455253494FA3
:100490004E3A312E30204D414348494E455F545924
:1004A00050453A3344205072696E74657220455845
:1004B0005452554445525F434F554E543A3120559E
:1004C0005549443A63656465326132662D34316161
:1004D000322D343734382D396231322D633535635E
:1004E00036326633363766660A002F2F20004D31CC
:1004F000343520533C696E6465783E206F757420F6
:100500006F662072616E67652028302D31290A00E0
:10051000205400205200416363656C657261746908
:100520006F6E3A2050005741524E494E4721204CA1
:100530006F77205A204A65726B206D6179206C6557
:10054000616420746F20756E77616E7465642070CD
:1005500061757365732E0A00000000000000000042
:10056000000000004F666673657473206170706CE4
:10057000696564004572723A20546F6F206661723B
:100580002100546F6F206661722066726F6D207259
:1005900065666572656E636520706F696E740A00CA
:1005A000FFFFFF20466C6F773A200000010F150E09
:1005B00012FFFFFFFF16170E13FFFFFFFF03021AC4
:1005C00014FFFFFFFFFFFFFF0C04FFFFFF01000E02
:1005D000FFFFFF0C190DFF1820643A0020693A0054
:1005E00020703A00496E76616C6964206578747297
:1005F000756465720A0043290A0061626C656420B3
:10060000286D696E2074656D702000436F6C6420E6
:1006100065787472756465732061726520004E6F31
:100620002063617365206C696768740A00454550F2
:10063000524F4D204F4B0A00416374697665204547
:10064000787472756465723A2000496E76616C69DF
:10065000642065787472756465720A006F6B00457A
:100660006E6473746F707320256320256320256387
:1006700020256300205A3A0020593A0020583A00B9
:10068000656E6473746F7073206869743A20002516
:1006900069730025696D2025697300256968202527
:1006A000696D202569730025696420256968202506
:1006B000696D2025697300256979202569642025E5
:1006C00069682025696D20256973004B494C4C45AC
:1006D000442E200053544F505045442E2000507259
:1006E000696E7465722073746F70706564206475D0
:1006F0006520746F206572726F72732E2046697860
:1007000020746865206572726F7220616E64207556
:100710007365204D39393920746F207265737461A7
:1007200072742E202854656D7065726174757265DF
:100730002069732072657365742E20536574206977
:100740007420616674657220726573746172746975
:100750006E67290A004E6F20436865636B73756D81
:100760002077697468206C696E65206E756D6265AE
:10077000722C204C617374204C696E653A200063C2
:100780006865636B73756D206D69736D6174636803
:100790002C204C617374204C696E653A20004C69C2
:1007A0006E65204E756D626572206973206E6F7480
:1007B000204C617374204C696E65204E756D6265C6
:1007C000722B312C204C617374204C696E653A2079
:1007D000004D3131300020496E76616C69642065CE
:1007E00078747275646572200000000000000000DB
:1007F00000000000000000484300004343000020C8
:1008000043486F6D696E67206661696C656400209E
:100810006E6F7420656E74657265642E0A002C20FC
:10082000002C200050726F746563746564205069F9
:100830006E0A0020573A004520436F6F6C696E675F
:100840002E2E2E00452048656174696E672E2E2E6F
:100850000020573A0042656420636F6F6C696E67D1
:100860002E2E2E004265642068656174696E672EC5
:100870002E2E00205A3A0020593A0020436F756E00
:100880007420583A0020453A00205A3A0020593A3C
:1008900000583A0020746F6F206C6F6E6720657887
:1008A00074727573696F6E2070726576656E7465AB
:1008B000640A0020636F6C642065787472757369D4
:1008C0006F6E2070726576656E7465640A004261B1
:1008D000627973746570205A004368616E676520A1
:1008E00066696C616D656E74004368616E67652052
:1008F00066696C616D656E74004D36303020423033
:10090000004261627973746570205A00466C6F779B
:1009100000466C6F7700466C6F770046616E2073FF
:10092000706565640046616E20737065656400469D
:10093000616E2073706565640042656400426564A1
:1009400000426564004E6F7A7A6C65004E6F7A7A69
:100950006C65004E6F7A7A6C65004661646520486C
:100960006569676874004661646520486569676801
:100970007400466164652048656967687400426573
:1009800064205A00426564205A0053706565640013
:100990005370656564005370656564004D61696EF0
:1009A000005072656865617420504C4120456E644A
:1009B000005072656865617420504C412042656446
:1009C000005072656865617420504C41005072653A
:1009D00070617265005072656865617420414253B0
:1009E00020456E6400507265686561742041425311
:1009F000204265640050726568656174204142530D
:100A0000005072657061726500507265686561744E
:100A1000205045544720456E6400507265686561FA
:100A200074205045544720426564005072656865E3
:100A300061742050455447005072657061726500C2
:100A40004261636B004E65787420506F696E74006C
:100A50004C6576656C696E6720446F6E6521004D4C
:100A60006F7665205A004732392053320020204EDD
:100A70006F7A7A6C653A2000200066696C616D655A
:100A80006E74206C6F6164005761697420666F72C8
:100A90000020204E6F7A7A6C653A2000200066694B
:100AA0006C616D656E742070757267650057616961
:100AB0007420666F7200746F20726573756D6500C7
:100AC0005761697420666F72207072696E74004E8F
:100AD00065787420506F696E74002569202F202579
:100AE00075004732392053310047323920533200E4
:100AF000436C69636B20746F20426567696E0048C0
:100B00006F6D696E672058595A0047323800537428
:100B10006F72652073657474696E6773004C6F61E2
:100B2000642073657474696E6773004C6576656CD8
:100B300020636F726E65727300426564205A0042D2
:100B40006564205A00466164652048656967687479
:100B500000466164652048656967687400466164A1
:100B60006520486569676874004F6666004F6E20AF
:100B700000426564204C6576656C696E67004C6563
:100B800076656C2062656400507265706172650004
:100B90004D343238005072656865617420414253AB
:100BA000005072656865617420504C4100436F6F5E
:100BB0006C646F776E005072656865617420504593
:100BC00054470044697361626C652073746570708A
:100BD000657273004D38340053657420686F6D651D
:100BE000206F66667365747300426564204C657699
:100BF000656C696E6700486F6D65205A0047323832
:100C0000205A00486F6D652059004732382059003E
:100C1000486F6D6520580047323820580041757480
:100C20006F20686F6D6500473238004D6F76652024
:100C300061786973004D61696E004D6F766520586B
:100C4000004D6F76652059004D6F7665205A00453E
:100C500078747275646572004D6F766520302E3140
:100C60006D6D004D6F766520316D6D004D6F766551
:100C70002031306D6D004D6F7665206178697300AD
:100C80004578747275646572004D6F7665205A0000
:100C90004D6F76652059004D6F7665205800100025
:100CA000C90210012C014001220170011801B0019C
:100CB0000E01F00104015002FA00B002F00030030E
:100CC000E600D003DC009004D2007005C800A00646
:100CD000BE000008B400B009AA00D00BA000600E4E
:100CE000960060118C000015820020197800C01D4C
:100CF0006E00A0226400B0275A00902C50000031F2
:100D00004600E0343C0010383200903A2800603C45
:100D10001E00A03D1400803E0A00203F00004265F6
:100D2000642068656174696E67206661696C6564DA
:100D30000048656174696E67206661696C6564006E
:100D400045312048656174696E67206661696C652C
:100D5000640048656174696E67206661696C6564EA
:100D60000070012C0190012701B0012201C0011D7A
:100D700001F00118011002130130020E0160020996
:100D80000190020401C002FF000003FA004003F5D5
:100D9000008003F000D003EB002004E6007004E1C3
:100DA00000E004DC004005D700C005D2004006CDBD
:100DB00000D006C8008007C3003008BE00F008B9A4
:100DC00000C009B400B00AAF00B00BAA00D00CA557
:100DD00000000EA000500F9B00C010960050129112
:100DE0000000148C00C0158700B0178200B0197D78
:100DF00000D01B7800001E730040206E0090226916
:100E000000F024640040275F0090295A00E02B5531
:100E100000102E500020304B0010324600E03341CD
:100E20000090353C001037370070383200A0392D63
:100E300000B03A2800A03B2300603C1E00103D1982
:100E400000903D1400103E0F00703E0A00C03E05A9
:100E500000003F0000403FFBFF803FF6FFC03FF136
:100E6000FF453120544845524D414C2052554E418A
:100E70005741590042454420544845524D414C2069
:100E800052554E4157415900546865726D616C204E
:100E900052756E61776179004531204572723A2052
:100EA0004D415854454D50004572723A204D4158BD
:100EB00054454D5020424544004D415854454D50F5
:100EC00020747269676765726564004531204572F8
:100ED000723A204D494E54454D50004572723A20A9
:100EE0004D494E54454D5020424544004D494E54C5
:100EF000454D502074726967676572656400202FE4
:100F0000002042403A0020403A0025753A25303210
:100F10007500253032753A2530327500257564200C
:100F2000253032753A2530327500202020202020CF
:100F3000005A0059002020202000580009200000FD
:100F400000000000000000000000003FFFF0000073
:100F500000000000000000000000380070000000E9
:100F600000000000000000000030FC300000000025
:100F7000000000000000000020FC10000000000045
:100F800000000000000000207810000000000000B9
:100F900000000000000020301000000000000000F1
:100FA00000000000002C00D03FC000000000000046
:100FB000002082002E31D07FE00000000000000001
:100FC0001041002F7BD07FE00000000000000010E7
:100FD00041002F7BD07FE000000000000000208255
:100FE000002E31D03FC0000000000000004104008E
:100FF0002C00D03FC000000000000000820800204C
:1010000030107FE00000000000000082080020781F
:10101000107FE00000000000000041040020FC10F0
:101020007FE00000000000000020820030FC301F44
:1010300080000000000000000000003800700F0079
:1010400000000000000000FFFFC03FFFF0060000AE
:10105000000000000000FFFFC000000000000000D2
:1010600000000000000000003FFFF0000000000052
:1010700000000000000000380070000000000000C8
:101080000000000000003186300000000000000079
:101090000000000000238710000000000000000096
:1010A0000000000027879000000000000000000002
:1010B0000000002F87D000000000000000000000AA
:1010C00000002F03D03FC00000000000000020827D
:1010D000002030107FE00000000000000010410000
:1010E0002078107FE0000000000000001041002088
:1010F00078107FE000000000000000208200203017
:10110000103FC0000000000000004104002F03D089
:101110003FC0000000000000008208002F87D07F41
:10112000E0000000000000008208002787907FE0B8
:10113000000000000000004104002387107FE00051
:101140000000000000002082003186301F80000077
:1011500000000000000000003800700F00000000D8
:1011600000000000FFFFC03FFFF00600000000008D
:10117000000000FFFFC00000003344205072696E81
:101180007465722052656164792E005072696E74C4
:10119000696E672E2E2E005072696E742070617514
:1011A00073656400473238200A4731205A323020B4
:1011B00046323030300A4D31313720557365722058
:1011C00053637269707420446F6E65004732382033
:1011D0000A473930200A4731205A31373020463308
:1011E000303030200A4731205A31383020463130F3
:1011F00030200A4734205331200A4731205A3137F2
:10120000302046313030200A473238205A200A47F1
:1012100031205A32302046323030300A4D313137A9
:1012200020557365722053637269707420446F6E29
:1012300065004C6576656C20582043617272696167
:10124000676500486F6D65202620526169736520CF
:101250005A004D61696E00437573746F6D20436F62
:101260006D6D616E6473004368616E6765206669C9
:101270006C616D656E74004368616E6765206669B8
:101280006C616D656E74004D363030204230004424
:10129000697361626C652073746570706572730048
:1012A0004D383400436F6F6C646F776E00436F6E20
:1012B00074726F6C00507265706172650054756E67
:1012C0006500496E666F2073637265656E005654E3
:1012D000726176206D696E005654726176206D6978
:1012E0006E005654726176206D696E00566D696E9F
:1012F00000566D696E00566D696E00566D617820FE
:101300004500566D6178204500566D617820450096
:10131000566D6178205A00566D6178205A00566DDE
:101320006178205A00566D6178205900566D6178B9
:10133000205900566D6178205900566D617820580B
:1013400000566D6178205800566D61782058004D28
:101350006F74696F6E00416D6178204500416D6169
:1013600078204500416D6178205A00416D617820F8
:101370005A00416D6178205900416D617820590013
:10138000416D6178205800416D6178205800412DF1
:1013900074726176656C00412D74726176656C00C3
:1013A000412D7265747261637400412D72657472AF
:1013B00061637400416363656C00416363656C0045
:1013C0004D6F74696F6E0056652D6A65726B0056BD
:1013D000652D6A65726B0056652D6A65726B0056E5
:1013E0007A2D6A65726B00567A2D6A65726B0056AB
:1013F000792D6A65726B0056792D6A65726B00569D
:10140000792D6A65726B0056782D6A65726B00568D
:10141000782D6A65726B0056782D6A65726B004D87
:101420006F74696F6E004573746570732F6D6D0016
:101430004573746570732F6D6D005A7374657073A6
:101440002F6D6D005A73746570732F6D6D00597335
:10145000746570732F6D6D005973746570732F6DA3
:101460006D005873746570732F6D6D0058737465DB
:1014700070732F6D6D004D6F74696F6E00457874D9
:101480007275646572004D6F7665205A004D6F76F7
:10149000652059004D6F7665205800507265706167
:1014A000726500496E697469616C697A65204545A9
:1014B00050524F4D00436F6E74726F6C00526573E3
:1014C000746F7265206661696C73616665004C6F4C
:1014D00061642073657474696E677300496E697422
:1014E00069616C697A6520454550524F4D005374CF
:1014F0006F72652073657474696E67730046696CFA
:10150000616D656E74004D6F74696F6E0054656D2A
:101510007065726174757265004D61696E0050721C
:101520006568656174205045544720636F6E66009E
:10153000507265686561742041425320636F6E6626
:10154000005072656865617420504C4120636F6E75
:1015500066005049442D44005049442D44005049F0
:10156000442D49005049442D49005049442D500014
:101570005049442D50002008204661637400200823
:101580002046616374002008204D61780020082007
:101590004D6178002008204D6178002008204D69B9
:1015A0006E002008204D696E002008204D696E00F5
:1015B0004F6666004F6E20004175746F74656D70E4
:1015C0000046616E2073706565640046616E20732D
:1015D000706565640046616E2073706565640042E5
:1015E00065640042656400426564004E6F7A7A6CFF
:1015F00065004E6F7A7A6C65004E6F7A7A6C650082
:10160000436F6E74726F6C0053746F7265207365F4
:101610007474696E677300426564004265640042D9
:101620006564004E6F7A7A6C65004E6F7A7A6C65ED
:10163000004E6F7A7A6C650046616E207370656546
:10164000640046616E2073706565640046616E20BB
:1016500073706565640054656D7065726174757250
:1016600065003A004361703A00205A002059005842
:101670000020204D61783A2000205A00205900585F
:101680000020204D696E3A20004F6E20004F6666A4
:1016900000536F667420656E6473746F70733A20C4
:1016A000004F66660A0046616465204865696768A0
:1016B000742000426564204C6576656C696E672015
:1016C000004661696C656420746F20656E61626CB0
:1016D0006520426564204C6576656C696E670A001A
:1016E0004D65736820426564204C6576656C2064A6
:1016F0006174613A0A004D65736820706F696E7499
:101700002063616E6E6F74206265207265736F6C0A
:101710007665640A004D34323120696E636F7272EF
:1017200065637420706172616D6574657220757394
:101730006167650A004D3630303A20546F6F206380
:101740006F6C6400486F74656E6420746F6F206303
:101750006F6C640A00496E736572742066696C610F
:101760006D656E7420616E642070726573732062A3
:101770007574746F6E0A00507265737320627574AD
:10178000746F6E20746F2068656174206E6F7A7A52
:101790006C650A00496E736572742066696C616DD0
:1017A000656E7420616E642070726573732062755B
:1017B00074746F6E20286F72204D313038290A0002
:1017C000496E736572742066696C616D656E742014
:1017D000616E6420707265737320627574746F6ECD
:1017E00020286F72204D313038290A00454550526B
:1017F0004F4D206461746173697A65206572726F00
:10180000722E0A00290A002062797465733B2063F6
:101810007263200053657474696E67732053746F2C
:10182000726564202800290A002062797465733B80
:101830002063726320002073746F72656420736587
:101840007474696E67732072657472696576656415
:10185000202800202863616C63756C6174656429BD
:10186000210A0020213D2000454550524F4D204384
:101870005243206D69736D61746368202D20287355
:10188000746F7265642920002053697A653A2000DC
:10189000496E6465783A2000204D61726C696E3D36
:1018A000563535290A0028454550524F4D3D0045D3
:1018B0004550524F4D2076657273696F6E206D6989
:1018C000736D61746368200024F4D43050C38E209B
:1018D000C2A24017828B7011127A910D816CD90AC5
:1018E000A861E108C7586607615143061E4B5D05B4
:1018F000C145A7041A411104093D98037139310308
:101900004036DB0265339102D4305402802E1D0232
:10191000632CEE01752AC501B028A00110278101B2
:101920008F2564012B244B01E0223401AC211F01DF
:101930008D200D01801FFC00841EED00971DDF002F
:10194000B81CD200E61BC600201BBC00641AB20003
:10195000B219A8000A19A0006A189900D1179100BD
:1019600040178B00B516840031167E00B315790040
:101970003A157300C7146F0058146A00EE1366001E
:101980008813630025135E00C7125B006C125700BA
:1019900015125400C111510070114F0021114B005C
:1019A000D61049008D104700461044000210420036
:1019B000C00F4000800F3E00420F3C00060F3B006E
:1019C000CB0E3800930E37005C0E3500270E340026
:1019D000F30D3200C10D3100900D3000600D2E006E
:1019E000320D2D00050D2C00D90C2B00AE0C29005A
:1019F000850C29005C0C2700350C27000E0C2600F6
:101A0000E80B2400C40B2400A00B23007D0B230053
:101A10005A0B2100390B2100180B2000F80A1F0077
:101A2000D90A1E00BB0A1E009D0A1D00800A1D0067
:101A3000630A1C00470A1B002C0A1B00110A1A002B
:101A4000F7091A00DD091900C4091900AB091900CA
:101A5000920917007B091800630917004C0916004A
:101A600036091600200916000A091500F5081500A8
:101A7000E0081400CC081400B8081400A4081400EE
:101A8000900813007D0812006B081300580812001C
:101A90004608120034081100230811001208110032
:101AA00001081100F0071000E0071000D007100037
:101AB000C0071000B0070F00A107100091070E002B
:101AC00083070F0074070F0065070E0057070E000D
:101AD00049070E003B070D002E070E0020070D00E2
:101AE00013070D0006070D00F9060C00ED060D00AA
:101AF000E0060C00D4060C00C8060C00BC060C0066
:101B0000B0060C00A4060B0099060C008D060B0015
:101B100082060B0077060B006C060B0061060A00BC
:101B200057060B004C060A0042060A0038060A0057
:101B30002E060A0024060A001A060A0010060900EA
:101B400007060A00FD050900F4050900EB05090078
:101B5000E2050900D9050900D0050900C7050900FB
:101B6000BE050900B5050800AD050800A50509007A
:101B70009C050800940508008C05080084050800F1
:101B80007C050800740508006C0507006505080061
:101B90005D050700560508004E05070047050700CC
:101BA0004005080038050700310507002A05070031
:101BB000230507001C050600160507000F05070092
:101BC0000805060002050700FB040600F5040700EF
:101BD000EE040600E8040600E2040700DB04060049
:101BE000D5040600CF040600C9040600C30406009D
:101BF000BD040600B7040600B1040500AC040600ED
:101C0000A6040600A00405009B0406009504050038
:101C1000900406008A04050085040500800406007F
:101C20007A04050075040500700405006B040500C6
:101C300066040500610405005C0405005704050006
:101C4000520405004D040500480405004304050046
:101C50003E0404003A040500350405003004040085
:101C60002C04050027040400230405001E040400BE
:101C70001A04040016040500110404000D040400F5
:101C8000090405000404040000040400FC0304002B
:101C9000F8030400F4030400F0030400EC03040060
:101CA000E8030400E4030400E0030400DC03040090
:101CB000D8030400D4030400D0030400CC030400C0
:101CC000C8030300C503030024F404D9201BC40C7B
:101CD0005C0E9804C4095F0265077101F405F90000
:101CE000FB04B30048048700C10369005803550092
:101CF00003034500BE023A008402310053022A0069
:101D00002902250004022000E4011C00C80119007A
:101D1000AF01170098011400840113007101100035
:101D20006101100051010E0043010D0036010B004E
:101D30002B010B0020010B00150109000C0109000B
:101D400003010800FB000800F3000800EB00070097
:101D5000E4000600DE000600D8000600D2000600FF
:101D6000CC000500C7000500C2000500BD0004004E
:101D7000B9000400B5000400B1000400AD00040087
:101D8000A9000400A5000300A20003009F000400B6
:101D90009B000300980003009500020093000300DD
:101DA000900003008D0002008B00030088000200F9
:101DB0008600020084000300810002007F00020010
:101DC0007D0002007B000200790002007700010024
:101DD000760002007400020072000100710002002F
:101DE0006F0002006D0001006C0002006A0001003B
:101DF0006900020067000100660001006500010043
:101E00006400020062000100610001006000010046
:101E10005F0002005D0001005C0001005B0001004A
:101E20005A0001005900010058000100570001004C
:101E3000560001005500010054000100530000004D
:101E40005300010052000100510001005000010048
:101E50004F0001004E0000004E0001004D00010047
:101E60004C0001004B0000004B0001004A00010043
:101E7000490001004800000048000100470001003F
:101E8000460000004600010045000000450001003A
:101E90004400010043000000430001004200000034
:101EA000420001004100000041000100400001002B
:101EB0003F0000003F0001003E0000003E00010026
:101EC0003D0000003D0001003C0000003C0000001F
:101ED0003C0001003B0000003B0001003A00000014
:101EE0003A0001003900000039000100380000000C
:101EF0003800000038000100370000003700010002
:101F000036000000360000003600010035000000F9
:101F100035000000350001003400000034000000EE
:101F200034000100330000003300000033000100E2
:101F300032000000320000003200010031000000D9
:101F400031000000310001003000000030000000CE
:101F5000300001002F0000002F0000002F000000C3
:101F60002F0001002E0000002E0000002E000100B6
:101F70002D0000002D0000002D0000002D000100AC
:101F80002C0000002C0000002C0000002C000100A0
:101F90002B0000002B0000002B0000002B00010094
:101FA0002A0000002A0000002A0000002A00010088
:101FB000290000002900000029000000290000007D
:101FC000290001002800000028000000280000006F
:101FD0002800000028000100270000002700000062
:101FE0002700000027000000270001002600000055
:101FF0002600000026000000260000002600010048
:10200000250000002500000025000000250000003C
:10201000250000002500010024000000240000002D
:102020002400000024000000240001002300000020
:102030002300000023000000230000002300000014
:102040002300000023000100220000002200000005
:1020500022000000220000002200000022000100F7
:1020600021000000210000002100000021000000EC
:1020700021000000210000002100010020000000DC
:1020800020000000200000002000000020000000D0
:102090002000000020000000200001001F000000C0
:1020A0001F0000001F0000001F0000001F000000B4
:1020B0001F0000001F0001001E0000001E000000A5
:1020C0001E0000001E000000043700001E29000052
:1020D000511B00005810000010090000CC04000043
:1020E000780200004101000023646566696E652086
:1020F00044454641554C545F4B642000236465665B
:10210000696E652044454641554C545F4B6920003B
:1021100023646566696E652044454641554C545FAD
:102120004B702000504944204175746F74756E6582
:102130002066696E69736865642120507574207427
:102140006865206C617374204B702C204B69206192
:102150006E64204B6420636F6E7374616E747320C1
:1021600066726F6D2062656C6F7720696E746F2088
:10217000436F6E66696775726174696F6E2E680A67
:1021800000504944204175746F74756E6520666116
:10219000696C6564212074696D656F75740A00450A
:1021A0003120544845524D414C2052554E415741E3
:1021B0005900546865726D616C2052756E6177616B
:1021C000790045312048656174696E6720666169F0
:1021D0006C65640048656174696E67206661696C4E
:1021E000656400504944204175746F74756E6520B4
:1021F0006661696C6564212054656D7065726174F7
:1022000075726520746F6F20686967680A00204BDB
:10221000643A2000204B693A2000204B703A20009D
:102220000A20436C617373696320504944200A009B
:102230002054753A2000204B753A2000206D6178BB
:102240003A2000206D696E3A200020643A20002078
:10225000626961733A2000504944204175746F747B
:10226000756E65206661696C656421204261642039
:102270006578747275646572206E756D6265720A38
:1022800000504944204175746F74756E65207374F5
:102290006172740A006265640A002C207379737499
:1022A000656D2073746F707065642120486561747A
:1022B00065725F49443A2000556E6B6E6F776E20F1
:1022C000636F6D6D616E643A202200486F74656EB5
:1022D0006420746F6F20636F6C640A00486F6D65D3
:1022E0002025732573257320666972737400206638
:1022F000697273740A005A0059005800486F6D657E
:1023000020006563686F3A004572726F723A00533D
:10231000746570732F6D6D004A65726B0041636365
:10232000656C65726174696F6E0056656C6F636988
:10233000747900436F6E74726F6C004C6F6164202F
:102340006D6D004C6F6164206D6D004C6F61642099
:102350006D6D00556E6C6F6164206D6D00556E6C17
:102360006F6164206D6D00556E6C6F6164206D6DE2
:102370000046696C2E204469612E0046696C2E204F
:102380004469612E004F6666004F6E20004520694B
:102390006E206D6D3300436F6E74726F6C004D373D
:1023A000303220542564004D3630302042302054E5
:1023B0002564004D373032203B2564004D373031E5
:1023C00020542564004368616E67652066696C610E
:1023D0006D656E7400507265686561742050455477
:1023E0004700507265686561742041425300507225
:1023F000656865617420504C41004368616E676593
:102400002066696C616D656E74005052494E5420AF
:1024100050415553454400554E4C4F414420464988
:102420004C414D454E54004C4F41442046494C418F
:102430004D454E54005075726765206D6F72650092
:10244000436F6E74696E756500524553554D452056
:102450004F5054494F4E533A0020204E6F7A7A6CB9
:10246000653A20006368616E6765006F6620746876
:10247000652066696C616D656E74005761697420D2
:10248000666F722073746172740020204E6F7A7AC6
:102490006C653A2000200066696C616D656E742081
:1024A000756E6C6F6164005761697420666F7200AD
:1024B00020204E6F7A7A6C653A20002000506C65BF
:1024C00061736520776169742E2E2E0048656174F2
:1024D000696E67206E6F7A7A6C650020204E6F7A85
:1024E0007A6C653A2000200068656174206E6F7A0E
:1024F0007A6C652E00507265737320627574746F08
:102500006E20746F0020204E6F7A7A6C653A20003E
:10251000746F20636F6E74696E75652E2E2E006168
:102520006E6420707265737320627574746F6E00D0
:10253000496E736572742066696C616D656E7400B6
:1025400000060900FE0701920321207FFF07FF0715
:10255000FF000000060000010707060200808080DF
:1025600080800080030202060105A0A0050707067F
:1025700000005050F850F8505005070706000020A2
:1025800078A07028F020050707060000C0C81020BA
:102590004098180507070600006090A040A89068C2
:1025A000020303060104C040800307070601002060
:1025B00040808080402003070706010080402020E3
:1025C00020408005050506000120A870A82005050B
:1025D000050600012020F820200203030602FFC0A8
:1025E0004080050101060003F8020202060200C055
:1025F000C0050505060001081020408005070706F4
:1026000000007088888888887003070706010040EA
:10261000C040404040E00507070600007088087091
:102620008080F8050707060000F81020100808F061
:1026300005070706000010305090F8101005070736
:10264000060000F880F008088870050707060000FB
:10265000708080F0888870050707060000F8081071
:1026600020202020050707060000708888708888D1
:102670007005070706000070888878080870020552
:1026800005060200C0C000C0C00206060602FFC068
:10269000C000C040800407070600001020408040B2
:1026A0002010050303060002F800F80407070601DE
:1026B0000080402010204080050707060000708839
:1026C000081020002005070706000070880868A889
:1026D000A870050707060000708888F888888805B4
:1026E0000707060000F08888F08888F005070706CD
:1026F000000070888080808870050707060000F061
:102700008888888888F0050707060000F88080F030
:102710008080F8050707060000F88080F080808040
:10272000050707060000708880B8888870050707CD
:10273000060000888888F888888801070706020054
:102740008080808080808005070706000038101098
:10275000101090600507070600008890A0C0A090A8
:1027600088050707060000808080808080F80507C4
:102770000706000088D8A88888888805070706000B
:10278000008888C8A8988888050707060000708810
:102790008888888870050707060000F08888F08020
:1027A000808005070706000070888888A890680563
:1027B0000707060000F08888F0A090880507070644
:1027C0000000788080700808F0050707060000F810
:1027D0002020202020200507070600008888888800
:1027E0008888700507070600008888888888502038
:1027F0000507070600008888888888A8500507070D
:1028000006000088885020508888050707060000C9
:1028100088888850202020050707060000F8081047
:10282000204080F8030707060100E0808080808058
:10283000E005050506000180402010080307070693
:102840000100E02020202020E005030306000420F2
:102850005088050101060000F80202020602058008
:10286000400505050600007008788878050707060A
:1028700000008080B0C88888F0050505060000705B
:102880008080887005070706000008086898888817
:10289000780505050600007088F8807005070706B2
:1028A00000003048E0404040400506060600FF704A
:1028B00088887808700507070600008080B0C888FF
:1028C00088880107070602008000808080808003DE
:1028D00008080601FF200020202020A04004070750
:1028E000060000808090A0C0A090030707060100AA
:1028F000C04040404040E0050505060000D0A8A8C3
:10290000A8A8050505060000B0C888888805050543
:1029100006000070888888700506060600FFF088AB
:1029200088F080800506060600FF78888878080809
:10293000050505060000B0C8808080050505060075
:102940000070807008F00407070600004040E04077
:102950004040300505050600008888889868050510
:1029600005060000888888502005050506000088B7
:1029700088A8A85005050506000088502050880545
:1029800006060600FF888888780870050505060099
:1029900000F8102040F8030707060100204040809F
:1029A00040402001070706020080808080808080F0
:1029B00003070706010080404020404080050202D6
:1029C0000600026890000000060000506C6561730C
:1029D00065207265736574005052494E544552200B
:1029E00048414C544544005072696E7465722068C9
:1029F000616C7465642E206B696C6C28292063619E
:102A00006C6C6564210A001FFFFFFFFFFFFF600081
:102A100000000001FF400000000000FF80000000F7
:102A200000007F83CF00000C303F87FF80000C3018
:102A30001F867980000C000F8C30C7838C30E78CA8
:102A400030CFC7CC31F38C30DCECEC33B98C30D8E0
:102A50006C6C33198C30D06C0C33198C30D86C0CF6
:102A600033198C30DC6C0E3B198C30CF7C079F19EE
:102A70008C30C77C038F194000000000000260000A
:102A800000000000061FFFFFFFFFFFF82020506C32
:102A9000616E6E65724275666665724279746573C1
:102AA0003A20002046726565204D656D6F72793A57
:102AB0002000436F6D70696C65643A204465632043
:102AC000323420323031380A00207C20417574685D
:102AD0006F723A20286E6F6E652C20646566617592
:102AE0006C7420636F6E666967290A003230313872
:102AF0002D30382D303100204C61737420557064B6
:102B0000617465643A2000312E312E390A004D611E
:102B1000726C696E0020536F667477617265205223
:102B2000657365740A00205761746368646F672079
:102B300052657365740A002042726F776E206F755C
:102B4000742052657365740A002045787465726E4E
:102B5000616C2052657365740A00506F7765725519
:102B6000700A0073746172740A00656E7175657520
:102B700065696E67202200000020420000204200AC
:102B800000E040000000005761726E696E673A20F5
:102B9000486F6D696E672042756D70204469766973
:102BA000736F72203C20310A000303050000A0402F
:102BB0000000A040000000400000484300004343E4
:102BC000000020434572726F722077726974696EDB
:102BD0006720746F20454550524F4D210A004861CF
:102BE0007264636F6465642044656661756C74200B
:102BF00053657474696E6773204C6F616465640A11
:102C000000D0070000D0070000640000001027007B
:102C100000000048430000484300007041000048A5
:102C2000420000A0420000A0423373C843F6E824EB
:102C30004320286D6D290020204D363033200020A0
:102C400055004C0046696C616D656E74206C6F6157
:102C5000642F756E6C6F6164206C656E6774687349
:102C60003A0A0020440020490020204D3330312012
:102C700050005049442073657474696E67733A0A52
:102C80000020460020420020480020204D313435ED
:102C90002053004D6174657269616C2068656174D0
:102CA000757020706172616D65746572733A0A00A7
:102CB000205A002059002020473239205333205811
:102CC00000205A0020204D3432302053004D6573CF
:102CD0006820426564204C6576656C696E673A0AC7
:102CE00000205A0020590020204D32303620580054
:102CF000486F6D65206F66667365743A0A002045FB
:102D000000205A0020590020580020540020530071
:102D100020204D32303520510020453C6D61785FD8
:102D2000655F6A65726B3E0020583C6D61785F7824
:102D30005F6A65726B3E20593C6D61785F795F6AAE
:102D400065726B3E205A3C6D61785F7A5F6A65728E
:102D50006B3E00416476616E6365643A20513C6D60
:102D6000696E5F7365676D656E745F74696D655FCD
:102D700075733E20533C6D696E5F66656564726174
:102D800074653E20543C6D696E5F74726176656C4B
:102D90005F66656564726174653E00205400205270
:102DA0000020204D323034205000416363656C6553
:102DB000726174696F6E2028756E6974732F733237
:102DC000293A20503C7072696E745F616363656C70
:102DD0003E20523C726574726163745F6163636527
:102DE0006C3E20543C74726176656C5F6163636510
:102DF0006C3E0A00204500205A0020590020204D3A
:102E00003230312058004D6178696D756D20416315
:102E100063656C65726174696F6E2028756E697484
:102E2000732F7332293A0A00204500205A00205996
:102E30000020204D3230332058004D6178696D7587
:102E40006D206665656472617465732028756E69AE
:102E500074732F73293A0A00204500205A00205924
:102E60000020204D39322058005374657073207053
:102E7000657220756E69743A0A0020204D32303038
:102E80002044300A0020204D3230302044002044BD
:102E9000697361626C65640A0046696C616D656E98
:102EA000742073657474696E67733A0020204D3125
:102EB00034392043203B20556E69747320696E209D
:102EC00043656C736975730A0020204732312020F6
:102ED00020203B00526573656E643A200020746FB9
:102EE0006F206C6F6E6720657874727573696F6E92
:102EF0002070726576656E7465640A0020636F6C7D
:102F00006420657874727573696F6E20707265766F
:102F1000656E7465640A00627573793A2070617534
:102F200073656420666F7220696E7075740A006242
:102F30007573793A2070617573656420666F7220CD
:102F4000757365720A00627573793A2070726F63E7
:102F5000657373696E670A004B494C4C45442E20DB
:102F6000004B494C4C206361757365642062792085
:102F7000746F6F206D75636820696E616374697624
:102F8000652074696D65202D2063757272656E749D
:102F900020636F6D6D616E643A200046696C616DEF
:102FA000656E7420757365643A20005374617473A0
:102FB0003A20002C204C6F6E67657374206A6F6234
:102FC0003A2000546F74616C2074696D653A20007A
:102FD00053746174733A20002C204661696C6564F7
:102FE0003A20002C2046696E69736865643A2000B7
:102FF0005072696E74733A200053746174733A208E
:1030000000545249474745524544006F70656E0071
:103010003A20007A5F6D696E00795F6D696E0078A5
:103020005F6D696E005265706F7274696E672065BE
:103030006E6473746F70207374617475730A000A20
:103040004D6561737572656420706F696E74733A53
:103050000A005A206F66667365743A20004E756DDB
:1030600020582C593A20352C350A00000021002424
:103070000027002A0000002200250028002B000065
:1030800000200023002600290002020202020202A0
:1030900002040404040404040403030303030303F9
:1030A0000301010101010101010102040810204096
:1030B0008001020408102040800102040810204012
:1030C0008080402010080402010000000102000975
:1030D0000A000000000403080700000000000000D0
:1030E00000000000000000000000060900FE0000D3
:1030F00000000001090008FE0000050808060000A5
:1031000040F0C88888987810050808060000C0F8C4
:103110008888888888F80505050600012030F83081
:10312000200508080600002070F820202020E00577
:1031300009090600FF2070A8A8B888887020050932
:10314000090600FFE080C0B0A8283028280509093A
:103150000600FFF8A88888888888A8F8050A0A0663
:1031600000FE205050505088A8A888700303030622
:10317000000340A0400053E811241FBECFEFD0E46D
:10318000DEBFCDBF12E0A0E0B1E0E0E3FEEE01E083
:103190000BBF02C007900D92AE34B107D9F72FE0F4
:1031A000AEE4B2E001C01D92AF32B207E1F718E120
:1031B000CCEBD8E104C02197FE010E949DF6CB3BE9
:1031C000D107C9F70E9425D30C9416F70C94000080
:1031D0008091A9089091AA08981759F0E92FF0E07A
:1031E000E75DF74F80819F5F9F779093AA0890E0FB
:1031F00008958FEF9FEF08950F931F93CF93DF9361
:10320000EC010E947ACF0E811F8128853985011536
:1032100011052105310559F52C852223A9F13A859F
:1032200021502C8721E0230F2A874D85241301C0CC
:103230001A86FE0124E0329FE00DF11D112406855F
:103240001785208931890A831B832C833D83DC0108
:10325000CB01800F911FA11DB11D8E839F83A88775
:10326000B9878C819D81892B79F0149A0DC0DC017E
:10327000CB01801B910BA20BB30BB7FD05C01498BB
:103280001E821F8218861986DF91CF911F910F91A0
:1032900008958F929F92AF92BF92CF92DF92EF925A
:1032A000FF920F931F93CF93DF9300D000D0CDB741
:1032B000DEB7F82E662351F010929F0510929B0501
:1032C00010929C0510929D0510929E050E947ACF47
:1032D00080909B0590909C05A0909D05B0909E05C8
:1032E0009B01AC01281939094A095B0957FD4CC0FB
:1032F00020919F05F7FC16C04F2D0F2C000C550B8D
:103300004C5F5F4FE22F022E000CFF0B4E175F0742
:10331000DCF12F153CF044EFC42EDD24D394E12CD6
:10332000F12C06C038EEC32E33E0D32EE12CF12C65
:10333000DC01CB018C0D9D1DAE1DBF1D80939B0537
:1033400090939C05A0939D05B0939E05022F01705C
:1033500010E024E2209FC001219F900D901B1124BA
:1033600080599C4F9C838B8382E390E09A8389836E
:10337000BE016D5F7F4FCE0101960E944A958091FC
:103380009F058F5F80939F050F900F900F900F9078
:10339000DF91CF911F910F91FF90EF90DF90CF9031
:1033A000BF90AF909F908F900895EF92FF921F93E0
:1033B000CF93DF9380E7E82E82E0F82E15E0C0E09F
:1033C000D0E020E030E0A901F701EC0FFD1F6081A3
:1033D0007181828193810E94C0EE81110CC024967C
:1033E000C431D10571F7115084E1E80EF11C1111BF
:1033F000E6CF80E001C081E0DF91CF911F91FF9087
:10340000EF900895CF93909198039817D1F0C82F1B
:103410000E947E37C11112C047EF56E063EF76E09D
:103420008FEE96E00E9479C980E08093980388230C
:1034300041F08FEE96E0CF910C94FB370E94D519A6
:10344000F4CFCF910895CF92DF92EF920F931F9315
:10345000CF93DF93CDB7DEB760970FB6F894DEBF9A
:103460000FBECDBFE0900307EFEEF6E080859185BB
:10347000A285B38544815581668177810081118160
:103480002281338109831A832B833C834D835E839E
:103490006F83788789879A87AB87BC871D861E864E
:1034A0001F86188AAE01475F5F4FBE016B5F7F4F7B
:1034B000CE0101960E9479C9CE010D966C010BE3F5
:1034C00011E02BEF36E0AE01475F5F4FBE016B5F4F
:1034D0007F4F0C970E94AF2960960FB6F894DEBF1D
:1034E0000FBECDBFDF91CF911F910F91EF90DF9075
:1034F000CF9008952F923F924F925F926F927F925A
:103500008F929F92AF92BF92CF92DF92EF92FF92F3
:103510000F931F93CF93DF93CDB7DEB72A970FB6E4
:10352000F894DEBF0FBECDBF2B013C012D833E833F
:103530004F83588747015801DA86C98680913B013D
:1035400090913C01A0913D01B0913E0189839A8305
:10355000AB83BC83D6011C9111960C9111971296E6
:103560003C90129713962C9020E030E0A901612F37
:10357000702F832D922D0E94C0EE81110AC0EFE7BB
:10358000FBE285919591A591B491182F092F3A2EC0
:103590002B2EA50194016091F7067091F806809199
:1035A000F9069091FA060E94C0EE87FF16C0812F9F
:1035B000902FA32DB22D80933B0190933C01A093BB
:1035C0003D01B0933E018092F7069092F806A092DA
:1035D000F906B092FA060E94231AE985FA85C0809E
:1035E000D180E280F38020E030E0A901C701B6017C
:1035F0000E94C0EE811107C085E5C82EDC2C85E055
:10360000E82E83E4F82EC0923B01D0923C01E09278
:103610003D01F0923E014092EF065092F00660921A
:10362000F1067092F2068D819E81AF81B8858093FC
:10363000F3069093F406A093F506B093F6060E9465
:10364000231A2091F7063091F8064091F90650911F
:10365000FA06C501B4010E94C0EE87FF16C0812F93
:10366000902FA32DB22D80933B0190933C01A0930A
:103670003D01B0933E018092F7069092F806A09229
:10368000F906B092FA060E94231A0E947E378981B9
:103690009A81AB81BC8180933B0190933C01A093C4
:1036A0003D01B0933E012A960FB6F894DEBF0FBEDF
:1036B000CDBFDF91CF911F910F91FF90EF90DF90E1
:1036C000CF90BF90AF909F908F907F906F905F90C2
:1036D0004F903F902F900895CF92DF92EF92FF92FC
:1036E0000F931F936B01FC01E080F1800281138135
:1036F000EFEEF6E02481358146815781608171814A
:10370000828193810E947A1A1F910F91FF90EF900E
:10371000DF90CF9008950F931F93CF93DF9394E0A2
:10372000899FE00111248E010D511D4FFE01E559C5
:10373000FC4FDE01A952BD4F2D913D914D915C9101
:1037400060817181828193810E9436F3F8016083E8
:10375000718382839383FE01E751F84F85919591A0
:10376000A591B491FE01EE51FA4F80839183A2831B
:10377000B383FE01EB50F84F85919591A591B491DB
:10378000C05FDE4F88839983AA83BB83DF91CF918B
:103790001F910F910895FF920F931F93CF93DF9383
:1037A000FC0120812B3319F1D0912505D430F8F498
:1037B000F62EBC01C0912F050C2F10E0F0E6CF9F34
:1037C000C00111248D559C4F0E94E7F6F801E75681
:1037D000FC4FF082CF5FC43018F4C0932F0502C0B5
:1037E00010922F05DF5FD093250581E001C080E0B6
:1037F000DF91CF911F910F91FF900895DF92EF928B
:10380000FF920F931F93CF93DF93CDB7DEB76E97E1
:103810000FB6F894DEBF0FBECDBF6091D402709199
:10382000D5026115710509F14DE150E0CE01019617
:103830007C010E942FEE1E8EF7018F010E191F09C9
:10384000D190DD2019F09AE0D912F7CFF701E00FFF
:10385000F11F108260E0C7010E94CB1B882329F072
:10386000C7010E944CAD811109C081E02091D402B2
:103870003091D502232BA1F480E012C0DD2049F065
:103880000F5F1F4F8091D4029091D502080F191F2E
:1038900002C000E010E01093D5020093D402E5CFFF
:1038A0006E960FB6F894DEBF0FBECDBFDF91CF91FD
:1038B0001F910F91FF90EF90DF9008950F931F934A
:1038C000CF93DF93CDB7DEB72C970FB6F894DEBF5A
:1038D0000FBECDBFEFEEF6E080859185A285B38562
:1038E00044815581668177810081118122813381F4
:1038F00009831A832B833C834D835E836F83788790
:1039000089879A87AB87BC87AE01475F5F4FBE014F
:103910006B5F7F4FCE0101960E9479C92BEF36E095
:10392000AE01475F5F4FBE016B5F7F4FCE010196D7
:103930000E9472C12C960FB6F894DEBF0FBECDBFA9
:10394000DF91CF911F910F9108952F923F924F9247
:103950005F926F927F929F92AF92BF92CF92DF92CF
:10396000EF92FF920F931F93CF93DF93CDB7DEB704
:1039700064970FB6F894DEBF0FBECDBF1A012B01BE
:10398000922EF32EC82ED12CF601E056FA4FE49178
:10399000AA24A3941E160CF4A12CBB24B39420E0FB
:1039A00030E0A901C201B1010E9496F518160CF091
:1039B000B12CCC0CDD1CCC0CDD1CC6018151994F07
:1039C0003C01FC0110821182128213820E945E1C53
:1039D000F3012082318242825382E090030720E08B
:1039E00030E0A901B801892D9F2D0E94C0EE811100
:1039F0000AC0F601E958F44D85919591A591B491CD
:103A00008C019A2EFB2EC801A92DBF2D898B9A8B74
:103A1000AB8BBC8B8091F7069091F806A091F906CC
:103A2000B091FA064091F3065091F4066091F506C4
:103A30007091F6060091EF061091F0062091F106C4
:103A40003091F20609831A832B833C834D835E8376
:103A50006F83788789879A87AB87BC871D861E8688
:103A60001F86188AAE01475F5F4FBE016B5F7F4FB5
:103A7000CE0101960E9479C9CE010D966C018E018E
:103A80000F5E1F4F2BEF36E0AE01475F5F4FBE0169
:103A90006B5F7F4F0C970E94AF290E947E37AB145B
:103AA00059F080912305882319F01092230504C052
:103AB00081E098E00E94F8AF64960FB6F894DEBFFC
:103AC0000FBECDBFDF91CF911F910F91FF90EF906F
:103AD000DF90CF90BF90AF909F907F906F905F905E
:103AE0004F903F902F90089580912D0590912E0535
:103AF000009731F04AE050E060E070E00C94F8ECA0
:103B000060E070E0CB01089580912D0590912E0525
:103B1000009731F04AE050E060E070E00C94CAEBAE
:103B200060E070E0CB0108950E94841D97FD0CC0F9
:103B30000E94841D6F3F71058105910509F034F4E1
:103B40000E94841D862F089580E008958FEF0895C8
:103B500080912D0590912E05892B39F00E94941D9E
:103B600091E0811103C090E001C091E0892F089598
:103B70000F931F93CF9380912D0590912E05009761
:103B8000F1F0FC018F01C1912C2F2F7D89F0C534FC
:103B900011F0C536B9F7F801108260E070E00E94BC
:103BA0006EEAF801C083562F472F382F292F0BC0FC
:103BB00060E070E0CF911F910F910C946EEA50E09D
:103BC00040E030E020E0652F742F832F922FCF91BB
:103BD0001F910F91089581548A3108F042C0E82F57
:103BE000F0E0409168025091690260916A02709120
:103BF0006B0204C076956795579547958A95D2F7DD
:103C0000842F817040FF2FC0E25BFD4F908199238C
:103C100009F1E091DD06F091DE06E90FF11D9081DA
:103C200020ED290F2A3098F09E3211F491810CC0BA
:103C30009D3211F09B3271F4918120ED290F2A30D1
:103C400030F09E3239F4928190539A3018F42E2F2E
:103C50009F2F02C020E090E020932D0590932E0529
:103C6000089580E0089508950E94EB1D882341F097
:103C700081E020912D0530912E05232B09F480E061
:103C800008959F92AF92BF92CF92DF92EF92FF92F0
:103C90000F931F93CF93DF9389E5A82E81E0B82E71
:103CA0000FED16E0CFEED6E093EEC92E92E0D92EBE
:103CB0002DE9E22E23E0F22E912CF50181915F0196
:103CC0000E94EB1D882309F10E94B81DF701208195
:103CD000211104C02091A103222339F028813981C8
:103CE0004A815B810E9436F30AC0F3E09F1639F0E7
:103CF000F60120813181428153810E9435F3F80120
:103D0000608371838283938309C088819981AA81AA
:103D1000BB81F80180839183A283B38393940C5F6A
:103D20001F4F2496F4E0CF0ED11C2FEFE21AF20AB7
:103D300084E09812C2CF86E40E94341E8823C9F022
:103D40000E94B81D20E030E0A9010E9496F51816E7
:103D500084F40E94B81D20E030E040E752E40E9465
:103D600030F460933B0170933C0180933D0190934C
:103D70003E018091070783FD28C08091EC088823CD
:103D800021F12091FB063091FC064091FD065091F7
:103D9000FE066091EB067091EC068091ED06909125
:103DA000EE060E9435F32091FD083091FE08409107
:103DB000FF08509100090E9436F36093FD0870934C
:103DC000FE088093FF0890930009DF91CF911F9127
:103DD0000F91FF90EF90DF90CF90BF90AF909F90AA
:103DE00008952F923F924F925F926F927F928F929F
:103DF0009F92AF92BF92CF92DF92EF92FF920F937A
:103E00001F93CF93DF93EB01FC0180809180A28010
:103E1000B380C501B40120E831E541E050E00E94E3
:103E2000F9F2C9016DE671E00E9456F66B017C0162
:103E3000C501B40120E13EE040E050E00E94F9F20B
:103E4000CA01B90128E130E040E050E00E94F9F2F7
:103E5000362E272E062F172F8CE3482E512C612C3F
:103E6000712CC501B401A30192010E94F9F2B62E92
:103E7000A72ECA01B901A30192010E94F9F2CB0158
:103E8000C114D104D9F0AF92BF927F936F932F9258
:103E90003F92FF92EF92DF92CF9287EB96E09F9353
:103EA0008F93DF93CF930E9458EE8DB79EB70E96F7
:103EB0000FB6F8949EBF0FBE8DBF5CC0E114F10435
:103EC000C9F0AF92BF927F936F932F923F92FF9270
:103ED000EF9287EA96E09F938F93DF93CF930E94B0
:103EE00058EEEDB7FEB73C960FB6F894FEBF0FBE86
:103EF000EDBF40C0012BB9F0AF92BF927F936F939B
:103F00002F923F928BE996E09F938F93DF93CF930D
:103F10000E9458EE8DB79EB70A960FB6F8949EBFD2
:103F20000FBE8DBF27C0892BA9F0AF92BF927F93A0
:103F30006F9383E996E09F938F93DF93CF930E94D3
:103F400058EEEDB7FEB738960FB6F894FEBF0FBE29
:103F5000EDBF10C0AF92BF928FE896E09F938F9312
:103F6000DF93CF930E9458EE0F900F900F900F9019
:103F70000F900F90DF91CF911F910F91FF90EF90D5
:103F8000DF90CF90BF90AF909F908F907F906F9079
:103F90005F904F903F902F90089580E1EFEEF6E014
:103FA000AFEDB6E001900D928A95E1F7089580E1BA
:103FB000EFEDF6E0AFEEB6E001900D928A95E1F7F5
:103FC0000895AF92BF92CF92DF92EF920F931F931B
:103FD000CF93DF93CDB7DEB760970FB6F894DEBF0F
:103FE0000FBECDBF5C018B010E94CD1FE090030787
:103FF0008FEDC82E86E0D82E84E0E89EF0011124D3
:10400000E95FFE4F2081318142815381F50160815A
:104010007181828193810E9430F4F6012485358577
:10402000468557850E9436F3F60164877587868733
:1040300097871D861E861F86188A80819181A2819E
:10404000B38189839A83AB83BC8384819581A68164
:10405000B7818D839E83AF83B88780859185A28544
:10406000B38589879A87AB87BC87AE01475F5F4F6F
:10407000BE016B5F7F4FCE0101960E9479C9CE01D0
:104080000D966C012BEE36E0AE01475F5F4FBE012F
:104090006B5F7F4F0C970E94AF290E94D71F0E9431
:1040A0007E3760960FB6F894DEBF0FBECDBFDF91AE
:1040B000CF911F910F91EF90DF90CF90BF90AF9075
:1040C00008959091C00095FFFCCF8093C60008959D
:1040D000CF93DF93E8E0F3E28491EF012196882308
:1040E00021F00E946120FE01F7CFE4E2F8E0849124
:1040F000EF012196882321F00E946120FE01F7CF75
:10410000DF91CF910895CF93DF93EFE0F8E08491B2
:10411000EF012196882321F00E946120FE01F7CF54
:10412000DF91CF910895CF92DF92EF92FF920F939C
:104130001F93CF93DF9380912505843008F027C12A
:104140000E94E818AC0197FD22C1982F20915C07CE
:1041500030915D078A3019F09D3009F0E6C0109269
:1041600094052115310519F40E949A59E4CFF901FB
:10417000EC5CFA4F108210925D0710925C07C4E36A
:10418000D5E0FE018191803211F4EF01FACF8E3437
:1041900009F07EC0209709F47BC061ED77E0CE0185
:1041A0000E943EEE8C01892B41F06EE470E0CE015E
:1041B00004960E94D3F6009709F4CE014AE050E03D
:1041C00060E070E001960E94CAEB60933005709346
:1041D00031058093320590933305C0905E07D090EF
:1041E0005F07E0906007F09061072FEFC21AD20AD4
:1041F000E20AF20A6C157D058E059F0529F0012B58
:1042000019F48EE997E02AC06AE270E0CE010E94BC
:104210000BF79C01009701F1982F9C1B10E099234C
:1042200039F09150FE01E90FF11D80811827F7CF79
:104230004AE050E060E070E0C90101960E94CAEBDC
:10424000012F10E020E030E060177107820793072C
:1042500079F08FE797E002C085E597E0DF91CF9195
:104260001F910F91FF90EF90DF90CF900C941895D5
:104270008091300590913105A0913205B0913305C0
:1042800080935E0790935F07A0936007B0936107E8
:1042900080910D01811124C067E470E0CE010E947D
:1042A000D3F60097E9F04AE050E060E070E0019654
:1042B0000E94CAEB643071058105910588F4EEED2A
:1042C000F6E084918F010F5F1F4F882321F00E9439
:1042D0006120F801F6CF60E084ED96E00E9465AAC7
:1042E0006AE172E0CE010E94DEF6892B21F4109281
:1042F00041011092EF026FE172E0CE010E94DEF602
:10430000892B21F48BEC96E00E94F8AF64E272E016
:10431000CE010E94DEF6892B11F40E94FB7B61E046
:1043200084E395E00E94CB1B06CF2F3531050CF0BE
:1043300002CF9C35C1F40E94E81897FDFCCE209175
:1043400094052111F8CE20915C0730915D07A901F9
:104350004F5F5F4F50935D0740935C07F901EC5C42
:10436000FA4F8083E8CE9B3319F481E08093940563
:10437000809194058111DFCEC901019690935D076C
:1043800080935C07F901EC5CFA4F4083D4CEDF9157
:10439000CF911F910F91FF90EF90DF90CF900895F4
:1043A0008F929F92AF92BF92EF92FF920F931F93C3
:1043B000CF93DF93CDB7DEB7A0970FB6F894DEBFEB
:1043C0000FBECDBF611571058105910591F100E02A
:1043D000842E912CA12CB12C102FEE24E394F12CDF
:1043E000EC0EFD1EE00EF11C07FDFA94A5019401F0
:1043F0000E94F9F2F7016083B901CA010F5F6115EC
:1044000071058105910541F71F3F31F1E1E0F0E0D1
:10441000EC0FFD1FE10FF11D17FDFA9580818A3029
:1044200010F097E301C090E3890F0E9461201150C2
:10443000EBCF80E3A0960FB6F894DEBF0FBECDBFE2
:10444000DF91CF911F910F91FF90EF90BF90AF90B0
:104450009F908F900C946120A0960FB6F894DEBFC9
:104460000FBECDBFDF91CF911F910F91FF90EF90C5
:10447000BF90AF909F908F900895EF92FF920F930F
:104480001F93CF93DF937C0184E50E94341ED82FC5
:10449000882349F10E94941DC82F181604F5E2E004
:1044A000F3E284918F010F5F1F4F882321F00E9458
:1044B0006120F801F6CF8DE40E946120B70180E011
:1044C00090E04AE00E94D0216C2FCC0F770B86ED54
:1044D00097E00E94E0BE8AE00E94612008C08093BD
:1044E0009703D0E004C080910307809397038D2F3A
:1044F000DF91CF911F910F91FF90EF900895CF9290
:10450000DF92EF92FF926B017C0197FF0BC08DE26F
:104510000E946120F094E094D094C094C11CD11CFE
:10452000E11CF11C4AE0C701B601FF90EF90DF905B
:10453000CF900C94D0214F925F926F927F928F9286
:104540009F92AF92BF92CF92DF92EF92FF92CF9362
:10455000DF932091E3023091E4024091E502509113
:10456000E6026091EF067091F0068091F10690915D
:10457000F2060E9436F3AB01BC0181E998E00E948B
:10458000C3BE2091E7023091E8024091E9025091C8
:10459000EA026091F3067091F4068091F50690911D
:1045A000F6060E9436F3AB01BC018DE898E00E944C
:1045B000C3BE2091EB023091EC024091ED0250918C
:1045C000EE026091F7067091F8068091F9069091DD
:1045D000FA060E9436F3AB01BC0189E898E00E941C
:1045E000C3BE4091FB065091FC066091FD067091A0
:1045F000FE0685E898E00E94C3BE80916F00982F68
:10460000927081FF05C080916F008D7F80936F0055
:1046100040903C0750903D0760903E0770903F07E8
:104620008090400790904107A0904207B0904307C8
:10463000C0904407D0904507E0904607F0904707A8
:10464000992329F080916F00826080936F00EBE7DF
:10465000F8E08491EF012196882321F00E946120E7
:10466000FE01F7CFC301B2010E947F22E7E7F8E025
:104670008491EF012196882321F00E946120FE01A0
:10468000F7CFC501B4010E947F22E3E7F8E08491EF
:10469000EF012196882321F00E946120FE01F7CFCF
:1046A000C701B6010E947F228AE0DF91CF91FF907F
:1046B000EF90DF90CF90BF90AF909F908F907F90C2
:1046C0006F905F904F900C9461208F929F92AF9269
:1046D000BF92EF92FF920F931F93CF93DF9300D07F
:1046E00000D0CDB7DEB7182F809181038770873057
:1046F00069F48FE40E94341E882319F00E94A81DDB
:1047000003C08FE40E94EB1D8111C2C00E947E375E
:1047100080E00E94021A80913B0190913C01A0919F
:104720003D01B0913E018093970590939805A09329
:104730009905B0939A0580913F0190914001909323
:1047400096058093950584E690E0909340018093D0
:104750003F0181E080930B0311111BC088E50E948B
:10476000EB1DF82E89E50E94EB1D082F8AE50E94BB
:10477000EB1DE82EF11006C0011109C0811107C020
:10478000F02E0CC0002319F0F02E182F08C010E0F6
:1047900006C0FF24F39401E0EE24E39411E00E94AC
:1047A000CD1F82E50E94341E882361F00E94B81D4F
:1047B0004B015C0120E030E0A9010E94C0EE88239B
:1047C00071F106C0812C912C80EAA82E80E4B82ECD
:1047D000111104C0F11002C0002391F18092E7068C
:1047E0009092E806A092E906B092EA06A50194012B
:1047F0006091F7067091F8068091F9069091FA069B
:104800000E94C0EE87FF0BC019821A821B821C8295
:10481000BE016F5F7F4F87EE96E00E946C1B111107
:1048200005C0011103C0F11006C00AC081E00E945A
:104830006BAC1123C1F380E00E946BAC111102C07C
:10484000EE2019F082E00E946BAC0E945E1C809109
:104850000A0380930B038091970590919805A0918E
:104860009905B0919A0580933B0190933C01A093E8
:104870003D01B0933E0180919505909196059093EE
:10488000400180933F0183E0809344010E949B227A
:104890000F900F900F900F90DF91CF911F910F917C
:1048A000FF90EF90BF90AF909F908F900895CF9220
:1048B000DF92EF92FF920F931F93CF93DF93CDB7C9
:1048C000DEB72C970FB6F894DEBF0FBECDBF7B01CD
:1048D0008C01D42E9B01AC016091FC0E7091FD0EF9
:1048E0008091FE0E9091FF0E0E94C0EE882309F485
:1048F00096C0C090980380E00E94021A20E030E049
:10490000A901B701C8010E9496F5181624F0E12C00
:10491000F12C00E010E0C701D8018093FC0E9093C9
:10492000FD0EA093FE0EB093FF0E2DEB37E346E88D
:1049300055EBB701C8010E9496F587FD0AC02DEB23
:1049400037E346E855E3B701C8010E94C0EE1816E8
:104950004CF49701A80160E070E080E89FE30E94BA
:1049600030F403C060E070E0CB016093D10D709330
:10497000D20D8093D30D9093D40D80EF9FEFA9E7D4
:10498000B4EC8093D50D9093D60DA093D70DB09332
:10499000D80DCC2009F443C08091EF069091F00629
:1049A000A091F106B091F20689839A83AB83BC8310
:1049B0008091F3069091F406A091F506B091F60669
:1049C0008D839E83AF83B8878091F7069091F80618
:1049D000A091F906B091FA0689879A87AB87BC87C0
:1049E00081E00E94021ADD20D1F04CE050E06FEE31
:1049F00076E0CE0101960E94BFF6892B81F02C96BD
:104A00000FB6F894DEBF0FBECDBFDF91CF911F91DF
:104A10000F91FF90EF90DF90CF900C949B222C96FB
:104A20000FB6F894DEBF0FBECDBFDF91CF911F91BF
:104A30000F91FF90EF90DF90CF9008952F923F92CB
:104A40004F925F926F927F928F929F92AF92BF929E
:104A5000CF92DF92EF92FF920F931F93CF93DF934A
:104A6000CDB7DEB762970FB6F894DEBF0FBECDBFED
:104A70008091070783FDA3C183E50E94341E8C87C4
:104A8000811106C082E50E94341E882309F497C173
:104A90000E94B81D0E94A2F4643671050CF08CC10E
:104AA0007093F00D6093EF0D0E9430580E94B81D76
:104AB00020E030E040E251E40E9496F5181614F42C
:104AC0000E9414BF6091EF0D7091F00D072E000C45
:104AD000880B990B0E94C7EE20914606309147063D
:104AE00040914806509149060E9496F518161CF010
:104AF00085E598E002C084E698E060E00E9465AA3F
:104B000081E08093410180910307809397031A828B
:104B10001B821C821D82188619861A861B861982A2
:104B20001D862CE32E873CE13F8746E4488B312CE1
:104B3000212C50E8598B8FEB8A8B812C912C5401BE
:104B40006091EF0D7091F00D072E000C880B990B02
:104B50000E94C7EE7B018C019B01AC01632D722D7D
:104B600089899A890E94C0EE882309F442C0209165
:104B700046063091470640914806509149069C856B
:104B8000B701802F91110CC0912F0E94C0EE881F99
:104B90008827881F89833E2C2F2C098B1A8B29C0CC
:104BA000912F0E94C0EE87FF1FC080914101882392
:104BB00009F405C162960FB6F894DEBF0FBECDBFF3
:104BC000DF91CF911F910F91FF90EF90DF90CF90E9
:104BD000BF90AF909F908F907F906F905F904F901D
:104BE0003F902F900C9421643E2C2F2C098B1A8B14
:104BF00019820E947ACF6B017C01DC01CB012885F0
:104C000039854A855B85821B930BA40BB50BB7FDD9
:104C10003BC0D701C60188519C4FAF4FBF4F88871B
:104C20009987AA87BB870E94FE55E1E5F8E0849149
:104C30003F019FEF691A790A882321F00E946120C1
:104C4000F301F5CF81149104A104B104B9F0D501A9
:104C5000C401805F984DAF4FBF4FBC01CD016C19AF
:104C60007D098E099F0928EE33E040E050E00E9464
:104C7000F9F2CA01B9010E947F2203C08FE30E94AA
:104C800061208AE00E94612080E00E944DB60E946F
:104C90007ACF6093B8087093B9088093BA0890935C
:104CA000BB08A0914606AE83B0914706BF83009132
:104CB0004806109149069D01A801632D722D89892E
:104CC0009A890E9435F32B013C0120E030E0A901D4
:104CD0000E9496F587FF04C077FA709477F8709475
:104CE00081149104A104B10459F420E030E040E8BB
:104CF0005FE3C301B2010E94C0EE87FF0DC00AC08E
:104D000020E030E040E450E4C301B2010E9496F597
:104D1000181614F44601570129812223A9F18A812A
:104D20009B81AC81BD81892B8A2B8B2B61F0D701B4
:104D3000C6012A813B814C815D81821B930BA40BB0
:104D4000B50BB7FD21C02E813F81A8016D857E8501
:104D50008F8598890E9435F320E030E040EC5FE3D6
:104D60000E94C0EE87FD21CFD701C601805A954130
:104D7000AF4FBF4F8A839B83AC83BD839E819D874A
:104D8000AF81AE870F87188B80914101882309F48A
:104D90000CCF81149104A104B10409F4D1CEB0E187
:104DA000CB1AB7E2DB0AE108F108C818D908EA080B
:104DB000FB08F7FEFACEC4CE64E670E071CE6296D0
:104DC0000FB6F894DEBF0FBECDBFDF91CF911F911C
:104DD0000F91FF90EF90DF90CF90BF90AF909F909A
:104DE0008F907F906F905F904F903F902F9008959D
:104DF0002F923F924F925F926F927F928F929F92EB
:104E0000AF92BF92CF92DF92EF92FF920F931F93D8
:104E1000CF93DF93CDB7DEB762970FB6F894DEBFBE
:104E20000FBECDBF8DE690E00E943D228111B7C13B
:104E30008091070783FDB3C183E50E94341E8F83F1
:104E4000811107C082E50E94341E8983882309F4FA
:104E500044C00E94B81D0E94A2F4CB010E940AAA7D
:104E60000E94B81D20E030E04AEA52E40E94C0EE01
:104E700018160CF48BC10E9465C00E9421646091D9
:104E8000050770910607072E000C880B990B0E94EE
:104E9000C7EE6B017C018090FF0690900007A09008
:104EA0000107B0900207A50194010E9496F518161B
:104EB0000CF46FC12F8121116FC1A5019401C701AD
:104EC000B6010E9496F518160CF463C187E398E0CA
:104ED00060E00E9465AA31E039830E94E7C05981F1
:104EE000552309F45CC181E0809341011B821C823F
:104EF0001D821E8219861A861B861C861A821D86B2
:104F00008CE38E879CE19F87A6E4A88B1A8A312CBC
:104F1000B0E8B9832FEB298B812C912C540160913F
:104F2000050770910607072E000C880B990B0E944D
:104F3000C7EE7B018C019B01AC016A89732D8981CD
:104F400099890E94C0EE882309F441C02091FF0690
:104F50003091000740910107509102078F81B701FE
:104F600081110CC0C8010E94C0EE881F8827881FCD
:104F70008A83EA8A3F2C0983198B29C0C8010E94C1
:104F8000C0EE87FF1FC080914101882309F407C14B
:104F900062960FB6F894DEBF0FBECDBFDF91CF9102
:104FA0001F910F91FF90EF90DF90CF90BF90AF9047
:104FB0009F908F907F906F905F904F903F902F9039
:104FC0000C942164EA8A3F2C0983198B1A820E946F
:104FD0007ACF6B017C01DC01CB0129853A854B85B9
:104FE0005C85821B930BA40BB50BB7FD3BC0D701AF
:104FF000C60188519C4FAF4FBF4F89879A87AB87B7
:10500000BC870E94FE55E3E3F8E084913F019FEFE7
:10501000691A790A882321F00E946120F301F5CFF3
:1050200081149104A104B104B9F0D501C401805FD9
:10503000984DAF4FBF4FBC01CD016C197D098E0952
:105040009F0928EE33E040E050E00E94F9F2CA01E7
:10505000B9010E947F2203C08FE30E9461208AE091
:105060000E94612080E00E944DB60E947ACF60933A
:10507000B8087093B9088093BA089093BB08209041
:10508000FF06A0910007A887009101071091020771
:10509000222D3A2FA8016A89732D898199890E944E
:1050A00035F32B013C0120E030E0A9010E9496F588
:1050B00087FF04C077FA709477F870948114910494
:1050C000A104B10459F420E030E040E85FE3C301FB
:1050D000B2010E94C0EE87FF0DC00AC020E030E0A0
:1050E00040E450E4C301B2010E9496F5181614F48E
:1050F00046015701BA81BB2389F12B813C814D8147
:105100005E81211531054105510541F0D701C601E8
:10511000821B930BA40BB50BB7FD20C0222D388545
:10512000A8016D857E858F8598890E9435F320E0E2
:1051300030E040EC5FE30E94C0EE87FD24CFD70152
:10514000C601805A9541AF4FBF4F8B839C83AD837F
:10515000BE832D8698859E870F87188B809141018D
:10516000882309F410CF81149104A104B10409F437
:10517000D6CEA0E1CA1AA7E2DA0AE108F108C818F7
:10518000D908EA08FB08F7FEFECEC9CE0E9414BF7C
:1051900076CE84E498E09CCE41E049839ECE629630
:1051A0000FB6F894DEBF0FBECDBFDF91CF911F9138
:1051B0000F91FF90EF90DF90CF90BF90AF909F90B6
:1051C0008F907F906F905F904F903F902F900895B9
:1051D0008F929F92AF92BF92CF92DF92EF92FF9207
:1051E000CF936B017C01B42E20E030E0A9010E9436
:1051F000C0EE87FF07C08DE20E946120F7FAF094AD
:10520000F7F8F094C0E060E070E080E09FE3CB1539
:1052100041F02DEC3CEC4CEC5DE30E9426EFCF5FBF
:10522000F6CF9B01AC01C701B6010E9436F36B01BA
:105230007C010E94A9F44B015C014AE00E94D0214C
:10524000CC2389F1C501B4010E94C5EE9B01AC01DC
:10525000C701B6010E9435F36B017C018EE20E940A
:10526000612020E030E040E251E4C701B6010E9435
:1052700026EF4B015C010E94A2F46B01770FEE0850
:10528000FF08C701B6010E947F22C701B6010E9434
:10529000C7EE9B01AC01C501B4010E9435F36B015F
:1052A0007C01C150F1F6CF91FF90EF90DF90CF904D
:1052B000BF90AF909F908F900895CF93DF930E94FF
:1052C0008FBD8BE50E946120CBEAD8E068817981AF
:1052D0008A819B8142E00E94E8284C815D816E8139
:1052E0007F8181E298E00E94C3BE488559856A8526
:1052F0007B858EE198E00E94C3BE8DE50E9461200F
:105300008AE0DF91CF910C9461201F920F920FB62B
:105310000F9211240BB60F922F938F939F93EF93BD
:10532000FF932091AA08E091A90881E08E0F8F7762
:105330009091C600281729F0F0E0E75DF74F9083C1
:10534000E82FE093A908FF91EF919F918F912F9102
:105350000F900BBE0F900FBE0F901F9018952F92BD
:105360003F924F925F926F927F928F929F92AF92F5
:10537000BF92CF92DF92EF92FF920F931F93CF9342
:10538000DF93CDB7DEB7C956D1090FB6F894DEBFAB
:105390000FBECDBFE091FF05F0910006EF2B11F09D
:1053A0000C94C331DEAECDAEE9AE79016A015B018A
:1053B000FC0120914C0730914D0740914E075091D0
:1053C0004F0760817181828193810E9426EF0E9444
:1053D000A3F5A1966CAF7DAF8EAF9FAFA197209143
:1053E0005007309151074091520750915307D50112
:1053F0006D917D918D919C910E9426EF0E94A3F565
:10540000A5966CAF7DAF8EAF9FAFA5972091540747
:10541000309155074091560750915707F60160812A
:105420007181828193810E9426EF0E94A3F5A99643
:105430006CAF7DAF8EAF9FAFA99720915807309189
:10544000590740915A0750915B07D7016D917D91A3
:105450008D919C910E9426EF0E94A3F52B966CAF34
:105460007DAF8EAF9FAF2B978091070783FF0EC054
:105470002B964CAC5DAC6EAC7FAC2B974092C707C3
:105480005092C8076092C9077092CA07D8013C9031
:1054900011964C9011974DA612965C90129759AAAE
:1054A00013962C908091A5079091A607891B8F7069
:1054B0008F3021F480E00E944DB6F4CF6090A507B4
:1054C000AA966FAEAA978091A507082F10E01CA39B
:1054D0000BA38091BB079091BC07A091BD07B09131
:1054E000BE07A1968CAC9DACAEACBFACA197881AA0
:1054F000990AAA0ABB0A8091BF079091C007A091A0
:10550000C107B091C207A5964CAC5DAC6EAC7FAC48
:10551000A597481A590A6A0A7B0A4DA25EA26FA291
:1055200078A68091C3079091C407A091C507B09158
:10553000C607A9964CAC5DAC6EAC7FACA997481A77
:10554000590A6A0A7B0A49A65AA66BA67CA68091CC
:10555000C7079091C807A091C907B091CA072B96B9
:105560004CAC5DAC6EAC7FAC2B97481A590A6A0AFA
:105570007B0A09F49DC08091040781113BC06091B2
:10558000FF067091000780910107909102070E9429
:10559000A2F420914201309143016217730754F540
:1055A0002B964CAC5DAC6EAC7FAC2B974092C70792
:1055B0005092C8076092C9077092CA07E2E0F3E20E
:1055C00084918F010F5F1F4F811103C0E3EBF8E05F
:1055D00004C00E946120F801F3CF84918F010F5F16
:1055E0001F4F882321F00E946120F801F6CF412C43
:1055F000512C320139AD24E0329F80011124095F22
:105600001E4FC301B2010E94C7EED8012D913D91FA
:105610004D915C910E9426EF6B017C0120E030E00F
:10562000A9010E9496F587FF04C0F7FAF094F7F8F5
:10563000F094609158077091590780915A079091A2
:105640005B070E94A2F49B01AC01AAEFB0E00E94AC
:105650001BF30E94C7EEA70196010E94C0EE87FFD0
:105660002AC02B964CAC5DAC6EAC7FAC2B974092B5
:10567000C7075092C8076092C9077092CA07E2E054
:10568000F3E284918F010F5F1F4F811103C0E4E9A2
:10569000F8E004C00E946120F801F3CF84918F01EB
:1056A0000F5F1F4F882321F00E946120F801F6CF81
:1056B000412C512C3201D501C4018827B7FD8395B7
:1056C0009927AA27BB27182F2DA13EA14FA158A586
:1056D00057FD126089A59AA5ABA5BCA5B7FD1460BE
:1056E00077FC186009ADA4E00A9FC00111249C0159
:1056F000295F3E4F7901C301B2010E94C7EED70175
:105700002D913D914D915C910E9426EF6B017C01A2
:1057100020E030E0A9010E9496F587FF04C0C70190
:10572000B601905802C0C701B60120E030E040E069
:105730005FE30E9436F30E94A9F46DAB7EAB8FABA2
:1057400098AF8DE44BA05CA0849DF001859DF00D89
:105750001124EF5FF64F108216ABB501A401B7FE1E
:1057600007C044275527BA01481959096A097B0916
:105770008DE46BA07CA0869DF001879DF00D112427
:10578000EF5FF64F458B568B678B708F8DA19EA177
:10579000AFA1B8A5B7FF07C0B095A095909581952A
:1057A0009F4FAF4FBF4F2DE40BA11CA1209FF001D5
:1057B000219FF00D1124EF5FF64F818F928FA38F01
:1057C000B48F09A51AA52BA53CA537FF07C03095B6
:1057D0002095109501951F4F2F4F3F4FEDE47E2EE2
:1057E0004BA05CA0749CF001759CF00D1124EF5F40
:1057F000F64F058F168F278F30A34DA85EA86FA890
:1058000078AC41A252A263A274A23A01F62FE72F0C
:10581000481759076A077B0718F43C01FA2FEB2F4A
:10582000C301AF2FBE2F80179107A207B30710F453
:10583000D901C8014DA85EA86FA878AC841595055C
:10584000A605B70510F4D301C2012DE46BA07CA01E
:10585000269DF001279DF00D1124EF5FF64F85A3E3
:1058600096A3A7A3B0A70697A105B10508F484C520
:10587000DF01A95BBF4F8091F10D9091F20D8D93E7
:105880009C9379AC71A6452B462B472B09F05E986B
:105890008DE40BA11CA1809FF001819FF00D1124CC
:1058A000EF5FF64F818D928DA38DB48D892B8A2B5E
:1058B0008B2B09F05E988DE44BA05CA0849DF001D9
:1058C000859DF00D1124EF5FF64F858D968DA78D88
:1058D000B0A1892B8A2B8B2B09F015984DA85EA8B7
:1058E0006FA878AC45284628472809F44EC5809112
:1058F000A405882319F081508093A40559AC511058
:1059000004C05E9880E28093A40560906303709069
:10591000640300916503109166039301A801632D50
:105920007DA589A9922D0E94C0EE87FF04C0362C68
:105930007DA609AB212EC501B4010E94C7EE2091BE
:10594000A5053091A6054091A7055091A8050E9494
:1059500026EF69AF7AAF8BAF9CAF698B7A8B8B8B5D
:105960009C8B6DA17EA18FA198A50E94C7EE20916E
:10597000A9053091AA054091AB055091AC050E9454
:1059800026EF2B013C016D8B7E8B8F8B988F69A549
:105990007AA58BA59CA50E94C7EE2091AD053091FC
:1059A000AE054091AF055091B0050E9426EF4B0126
:1059B0005C01698F7A8F8B8F9C8F2091B10530911C
:1059C000B2054091B3055091B405C701B6010E94DC
:1059D00026EF6B017C016D8F7E8F8F8F98A38DE4F6
:1059E0000BA11CA1809FF001819FF00D1124EF5F9E
:1059F000F64F85899689A789B08D0697A105B105CF
:105A000008F4CCC4ADADBEADCD90DD90ED90FC9072
:105A100020E030E0A901C701B6010E94C0EE81116B
:105A2000E5C429AD3AAD4BAD5CADCA01B9010E94E8
:105A300026EF6B017C01A3019201C301B2010E9418
:105A400026EF9B01AC01C701B6010E9436F36B0142
:105A50007C01A5019401C501B4010E9426EF9B01C0
:105A6000AC01C701B6010E9436F30E94E4F52DE4B3
:105A70004BA05CA0249DF001259DF00D1124EF5F4B
:105A8000F64F658776878787908B8DE40BA11CA1E5
:105A9000809FF001819FF00D1124EF5FF64F258567
:105AA00036854785508960E070E080E89FE30E947A
:105AB00030F423966CAF7DAF8EAF9FAF2397232D2D
:105AC0003DA549A9522D0E9426EF4B015C01809112
:105AD000A5079091A307891B8F708DAFA501940135
