:100000000C945E160C9488160C9488160C94881622
:100010000C9488160C9488160C9488160C948816E8
:100020000C9488160C9488160C9488160C948816D8
:100030000C9488160C944FA30C9488160C94881674
:100040000C9488160C9429460C946DB90C9488165F
:100050000C9425A30C9488160C9488160C9488167E
:100060000C9488160C9488160C9488160C94881698
:100070000C9488160C9488160C9488160C94881688
:100080000C9488160C9488160C94881605B5B5B394
:10009000ECB341B5ECB3ECB3ECB3ECB3ECB3ECB311
:1000A000ECB3ECB3ECB3ECB3ECB3ECB3ECB3ECB358
:1000B000ECB3ECB3ECB3ECB3ECB3ECB3ECB3ECB348
:1000C000ECB3ECB3ECB3ECB33BB5ECB3ECB3ECB3E7
:1000D000ECB3ECB3ECB3ECB3ECB314B5ECB3ECB3FE
:1000E000ECB3ECB3ECB3ECB3ECB3ECB3ECB3ECB318
:1000F00058B5E9B3BCB5BFB5B2B5B6B5D6B5D6B58A
:10010000C3B5C7B5CDB5D1B5DCB8E1B8E6B8F0B880
:100110001EB91EB9FAB802B90AB914B9084AD73BD0
:100120003BCE016E84BCBFFDC12F3D6C74319ABDC6
:1001300056833DDA3D00C77F11BED9E4BB4C3E91EA
:100140006BAAAABE000000803F05A84CCDB2D44ED9
:10015000B93836A9020C50B9918688083CA6AAAADB
:100160002ABE000000803F004E414E494E4954597E
:10017000494E46CDCCCC3D0AD7233C17B7D1387772
:10018000CC2B329595E6241FB14F0A000020410088
:1001900000C84200401C4620BCBE4CCA1B0E5AAED2
:1001A000C59D74434F4D4D554E49434154494F4EA3
:1001B0000044525952554E004552524F5253004935
:1001C0004E464F004543484F0047322F4733206289
:1001D000616420706172616D65746572730A0053A9
:1001E0006C6565702E2E2E00206F6620004D424CEF
:1001F0002047323920706F696E74200059206F7566
:1002000074206F662072616E67652028312D352954
:100210002E0A0058206F7574206F662072616E6719
:10022000652028312D35292E0A004D657368207010
:10023000726F62696E6720646F6E652E0A00537478
:10024000617274206D6573682070726F62696E6789
:100250002077697468202247323920533122206682
:10026000697273742E0A004732380A4732392053B4
:10027000320053746174653A20004D6573682062E2
:100280006564206C6576656C696E672068617320B3
:100290006E6F20646174612E0A0053206F757420A4
:1002A0006F662072616E67652028302D35292E0A11
:1002B000004D65736820706F696E742063616E6EA7
:1002C0006F74206265207265736F6C7665640A00D6
:1002D000436C69636B20746F20726573756D652E56
:1002E0002E2E004E6F206D6F76652E005072696E57
:1002F000742074696D653A2000C401BF01B801B172
:1003000001A3016F66660044454255473A004B49D8
:100310004C4C45442E20004D3131332053006F6B3F
:10032000003344205072696E746572204F66662EE9
:10033000002C20002C2000544845524D414C5F5069
:10034000524F54454354494F4E004155544F524526
:10035000504F52545F53445F5354415455530045DA
:100360004D455247454E43595F5041525345520007
:10037000434153455F4C494748545F4252494748BF
:10038000544E45535300544F47474C455F4C4947E3
:1003900048545300534F4654574152455F504F57AE
:1003A0004552004255494C445F50455243454E54D6
:1003B000004C4556454C494E475F44415441005A14
:1003C0005F50524F4245004155544F4C4556454CA5
:1003D000005052494E545F4A4F420050524F4752CC
:1003E000455353004155544F5245504F52545F545A
:1003F000454D5000564F4C554D45545249430045CC
:100400004550524F4D0053455249414C5F584F4E55
:100410005F584F4646004649524D574152455F4E40
:10042000414D453A4D61726C696E20312E312E3945
:1004300020284769746875622920534F55524345F7
:100440005F434F44455F55524C3A68747470733A39
:100450002F2F6769746875622E636F6D2F4D6172FF
:100460006C696E4669726D776172652F4D61726C51
:10047000696E2050524F544F434F4C5F5645525374
:10048000494F4E3A312E30204D414348494E455F49
:10049000545950453A3344205072696E7465722045
:1004A00045585452554445525F434F554E543A3186
:1004B00020555549443A63656465326132662D348E
:1004C0003161322D343734382D396231322D633574
:1004D000356336326633363766660A002F2F2000C2
:1004E0004D31343520533C696E6465783E206F751C
:1004F00074206F662072616E67652028302D312967
:100500000A00205400205200416363656C657261EB
:1005100074696F6E3A2050005741524E494E472140
:10052000204C6F77205A204A65726B206D617920CC
:100530006C65616420746F20756E77616E7465649C
:10054000207061757365732E0A00205A00205900CF
:10055000580020204D61783A2000205A0020590090
:10056000580020204D696E3A20004F6E20004F66E3
:100570006600536F667420656E6473746F70733AAF
:10058000200020466C6F773A200000010F150E12F4
:10059000FFFFFFFF16170E13FFFFFFFF03021A14E2
:1005A000FFFFFFFFFFFFFF0C04FFFFFF01000EFF37
:1005B000FFFF0C190DFF1820643A0020693A002053
:1005C000703A00496E76616C696420657874727562
:1005D0006465720A0043290A0061626C6564202820
:1005E0006D696E2074656D702000436F6C642065CA
:1005F000787472756465732061726520004E6F2097
:1006000063617365206C696768740A0045455052E0
:100610004F4D204F4B0A0041637469766520457841
:100620007472756465723A2000496E76616C696413
:100630002065787472756465720A006F6B00456E90
:100640006473746F707320256320256320256320F5
:10065000256300205A3A0020593A0020583A006594
:100660006E6473746F7073206869743A200020742C
:100670006F6F206C6F6E6720657874727573696F29
:100680006E2070726576656E7465640A0020636F13
:100690006C6420657874727573696F6E2070726512
:1006A00076656E7465640A000000000000000000BA
:1006B00000000000000048430000434300003443B2
:1006C000486F6D696E67206661696C656400206EB5
:1006D0006F7420656E74657265642E0A0050726FC7
:1006E0007465637465642050696E0A0020573A008F
:1006F0004520436F6F6C696E672E2E2E0045204893
:10070000656174696E672E2E2E0020573A0042658F
:100710006420636F6F6C696E672E2E2E00426564D5
:100720002068656174696E672E2E2E00205A3A008B
:1007300020593A0020436F756E7420583A002045C6
:100740003A00205A3A0020593A00583A003A0043F9
:1007500061703A004F66660A00466164652048652C
:10076000696768742000426564204C6576656C6931
:100770006E6720004661696C656420746F20656E49
:1007800061626C6520426564204C6576656C696EBB
:10079000670A004D65736820426564204C65766584
:1007A0006C20646174613A0A00526573746F7265FB
:1007B000206661696C73616665004C6F61642073CB
:1007C000657474696E677300496E697469616C69F8
:1007D0007A6520454550524F4D0053746F72652025
:1007E00073657474696E67730046696C616D656EDC
:1007F00074004D6F74696F6E0054656D7065726141
:1008000074757265004D61696E005072656865614E
:10081000742041425320636F6E66005072656865B4
:10082000617420504C4120636F6E66005049442D26
:1008300044005049442D44005049442D490050493A
:10084000442D49005049442D50005049442D50003A
:10085000200820466163740020082046616374000C
:100860002008204D6178002008204D617800200884
:10087000204D6178002008204D696E002008204D31
:10088000696E002008204D696E004F6666004F6E4D
:1008900020004175746F74656D700046616E207341
:1008A000706565640046616E20737065656400461E
:1008B000616E207370656564004265640042656422
:1008C00000426564004E6F7A7A6C65004E6F7A7AEA
:1008D0006C65004E6F7A7A6C6500436F6E74726F50
:1008E0006C0053746F72652073657474696E6773FE
:1008F000004265640042656400426564004E6F7AA0
:100900007A6C65004E6F7A7A6C65004E6F7A7A6CFD
:10091000650046616E2073706565640046616E20F7
:1009200073706565640046616E2073706565640070
:1009300054656D70657261747572650056547261AC
:1009400076206D696E005654726176206D696E0076
:100950005654726176206D696E00566D696E005650
:100960006D696E00566D696E00566D6178204500A8
:10097000566D6178204500566D6178204500566DB2
:100980006178205A00566D6178205A00566D617862
:10099000205A00566D6178205900566D61782059B3
:1009A00000566D6178205900566D617820580056C8
:1009B0006D6178205800566D61782058004D6F7435
:1009C000696F6E0000060900FE00000000000109CA
:1009D0000008FE000005080806000040F0C88888EE
:1009E000987810050808060000C0F888888888886C
:1009F000F80505050600012030F830200508080636
:100A000000002070F820202020E00509090600FFE2
:100A10002070A8A8B8888870200509090600FFE0A2
:100A200080C0B0A8283028280509090600FFF8A8CA
:100A30008888888888A8F8050A0A0600FE20505091
:100A4000505088A8A8887003030306000340A04004
:100A500025753A2530327500253032753A25303209
:100A6000750025756420253032753A2530327500C1
:100A7000202020202020005A005900202020200083
:100A800058000920000000000000000000000000E5
:100A9000003FFFF000000000000000000000000028
:100AA000380070000000000000000000000000306E
:100AB000FC3000000000000000000000000020FCEE
:100AC000100000000000000000000000002078106E
:100AD00000000000000000000000000020301000B6
:100AE00000000000000000000000002C00D03FC00B
:100AF000000000000000002082002E31D07FE000C6
:100B00000000000000001041002F7BD07FE00000BB
:100B100000000000001041002F7BD07FE0000000AB
:100B2000000000002082002E31D03FC000000000F5
:100B30000000004104002C00D03FC0000000000075
:100B400000008208002030107FE00000000000005C
:100B5000008208002078107FE00000000000000004
:100B600041040020FC107FE0000000000000002095
:100B7000820030FC301F80000000000000000000F8
:100B8000003800700F0000000000000000FFFFC0F0
:100B90003FFFF0060000000000000000FFFFC00063
:100BA00000000000000000000000000000003FFF07
:100BB000F00000000000000000000000003800709D
:100BC000000000000000000000000000318630003E
:100BD000000000000000000000000023871000005B
:100BE00000000000000000000000278790000000C7
:100BF0000000000000000000002F87D0000000006F
:100C000000000000000000002F03D03FC0000000E3
:100C1000000000002082002030107FE00000000073
:100C20000000001041002078107FE000000000006C
:100C300000001041002078107FE00000000000005C
:100C4000002082002030103FC000000000000000A3
:100C50004104002F03D03FC00000000000000082CC
:100C600008002F87D07FE00000000000000082080D
:100C7000002787907FE00000000000000041040092
:100C80002387107FE0000000000000002082003178
:100C900086301F80000000000000000000003800C7
:100CA000700F0000000000000000FFFFC03FFFF0D9
:100CB000060000000000000000FFFFC0000000422E
:100CC00065642068656174696E67206661696C653A
:100CD000640048656174696E67206661696C65646B
:100CE0000045312048656174696E67206661696CF2
:100CF00065640048656174696E67206661696C654A
:100D0000640070012C0190012701B0012201C00193
:100D10001D01F00118011002130130020E016002E2
:100D2000090190020401C002FF000003FA00400321
:100D3000F5008003F000D003EB002004E60070040F
:100D4000E100E004DC004005D700C005D200400609
:100D5000CD00D006C8008007C3003008BE00F008F0
:100D6000B900C009B400B00AAF00B00BAA00D00CA3
:100D7000A500000EA000500F9B00C010960050125E
:100D8000910000148C00C0158700B0178200B019C4
:100D90007D00D01B7800001E730040206E00902262
:100DA0006900F024640040275F0090295A00E02B7E
:100DB0005500102E500020304B0010324600E0331A
:100DC000410090353C001037370070383200A039B0
:100DD0002D00B03A2800A03B2300603C1E00103DCF
:100DE0001900903D1400103E0F00703E0A00C03EF6
:100DF0000500003F0000403FFBFF803FF6FFC03F83
:100E0000F1FF453120544845524D414C2052554E3A
:100E1000415741590042454420544845524D414CA8
:100E20002052554E4157415900546865726D616CAE
:100E30002052756E61776179004531204572723AB2
:100E4000204D415854454D50004572723A204D4155
:100E50005854454D5020424544004D415854454D4D
:100E6000502074726967676572656400453120457A
:100E700072723A204D494E54454D50004572723AB7
:100E8000204D494E54454D5020424544004D494E59
:100E900054454D502074726967676572656400201F
:100EA0002F002042403A0020403A0046696C2E2034
:100EB0004469612E0046696C2E204469612E004F02
:100EC0006666004F6E20004520696E206D6D330010
:100ED000436F6E74726F6C004D65736820706F693C
:100EE0006E742063616E6E6F74206265207265732C
:100EF0006F6C7665640A004D34323120696E636F21
:100F0000727265637420706172616D6574657220C0
:100F100075736167650A00486F6D652025732573D9
:100F20002573206669727374002066697273740A8F
:100F3000005A0059005800486F6D6520004F6666E2
:100F400073657473206170706C69656400457272BA
:100F50003A20546F6F206661722100546F6F2066D3
:100F600061722066726F6D207265666572656E6370
:100F70006520706F696E740A00526573656E643A1D
:100F8000200020746F6F206C6F6E6720657874721C
:100F90007573696F6E2070726576656E7465640A2C
:100FA0000020636F6C6420657874727573696F6E6E
:100FB0002070726576656E7465640A006275737977
:100FC0003A2070617573656420666F7220696E7077
:100FD00075740A00627573793A207061757365647F
:100FE00020666F7220757365720A00627573793AB4
:100FF0002070726F63657373696E670A004B494CAA
:101000004C45442E20004B494C4C20636175736560
:101010006420627920746F6F206D75636820696E3B
:101020006163746976652074696D65202D20637530
:101030007272656E7420636F6D6D616E643A20002C
:1010400024F4D43050C38E20C2A24017828B70117A
:10105000127A910D816CD90AA861E108C758660718
:10106000615143061E4B5D05C145A7041A41110499
:10107000093D9803713931034036DB026533910233
:10108000D4305402802E1D02632CEE01752AC50156
:10109000B028A001102781018F2564012B244B016A
:1010A000E0223401AC211F018D200D01801FFC00C6
:1010B000841EED00971DDF00B81CD200E61BC600A1
:1010C000201BBC00641AB200B219A8000A19A000C3
:1010D0006A189900D117910040178B00B51684004B
:1010E00031167E00B31579003A157300C7146F00EE
:1010F00058146A00EE1366008813630025135E001F
:10110000C7125B006C12570015125400C111510038
:1011100070114F0021114B00D61049008D1047006F
:101120004610440002104200C00F4000800F3E00F5
:10113000420F3C00060F3B00CB0E3800930E3700E9
:101140005C0E3500270E3400F30D3200C10D310066
:10115000900D3000600D2E00320D2D00050D2C007D
:10116000D90C2B00AE0C2900850C29005C0C270043
:10117000350C27000E0C2600E80B2400C40B2400BD
:10118000A00B23007D0B23005A0B2100390B2100FB
:10119000180B2000F80A1F00D90A1E00BB0A1E0007
:1011A0009D0A1D00800A1D00630A1C00470A1B00DF
:1011B0002C0A1B00110A1A00F7091A00DD09190090
:1011C000C4091900AB091900920917007B0918001E
:1011D000630917004C09160036091600200916008D
:1011E0000A091500F5081500E0081400CC081400E1
:1011F000B8081400A4081400900813007D08120019
:101200006B08130058081200460812003408110039
:10121000230811001208110001081100F007100046
:10122000E0071000D0071000C0071000B0070F0043
:10123000A107100091070E0083070F0074070F002D
:1012400065070E0057070E0049070E003B070D000B
:101250002E070E0020070D0013070D0006070D00D6
:10126000F9060C00ED060D00E0060C00D4060C009B
:10127000C8060C00BC060C00B0060C00A4060B004F
:1012800099060C008D060B0082060B0077060B00FA
:101290006C060B0061060A0057060B004C060A009C
:1012A00042060A0038060A002E060A0024060A0032
:1012B0001A060A001006090007060A00FD050900C3
:1012C000F4050900EB050900E2050900D90509004C
:1012D000D0050900C7050900BE050900B5050800CD
:1012E000AD050800A50509009C0508009405080047
:1012F0008C050800840508007C05080074050800BA
:101300006C050700650508005D0507005605080027
:101310004E0507004705070040050800380507008F
:10132000310507002A050700230507001C050600F4
:10133000160507000F05070008050600020507004F
:10134000FB040600F5040700EE040600E8040600AE
:10135000E2040700DB040600D5040600CF04060003
:10136000C9040600C3040600BD040600B704060055
:10137000B1040500AC040600A6040600A0040500A4
:101380009B04060095040500900406008A040500ED
:1013900085040500800406007A0405007504050034
:1013A000700405006B040500660405006104050077
:1013B0005C04050057040500520405004D040500B7
:1013C00048040500430405003E0404003A040500F7
:1013D00035040500300404002C0405002704040033
:1013E000230405001E0404001A040400160405006A
:1013F000110404000D0404000904050004040400A1
:1014000000040400FC030400F8030400F4030400D7
:10141000F0030400EC030400E8030400E403040008
:10142000E0030400DC030400D8030400D403040038
:10143000D0030400CC030400C8030300C503030069
:1014400024F404D9201BC40C5C0E9804C4095F0268
:1014500065077101F405F900FB04B3004804870037
:10146000C10369005803550003034500BE023A005A
:101470008402310053022A002902250004022000C0
:10148000E4011C00C8011900AF0117009801140005
:1014900084011300710110006101100051010E0060
:1014A00043010D0036010B002B010B0020010B0046
:1014B000150109000C01090003010800FB000800E8
:1014C000F3000800EB000700E4000600DE00060061
:1014D000D8000600D2000600CC000500C7000500B9
:1014E000C2000500BD000400B9000400B5000400FE
:1014F000B1000400AD000400A9000400A500030031
:10150000A20003009F0004009B000300980003005A
:101510009500020093000300900003008D0002007C
:101520008B00030088000200860002008400030094
:10153000810002007F0002007D0002007B000200AB
:1015400079000200770001007600020074000200BA
:1015500072000100710002006F0002006D000100C6
:101560006C0002006A0001006900020067000100CF
:1015700066000100650001006400020062000100D5
:1015800061000100600001005F0002005D000100D9
:101590005C0001005B0001005A00010059000100DD
:1015A00058000100570001005600010055000100DD
:1015B00054000100530000005300010052000100DC
:1015C00051000100500001004F0001004E000000DA
:1015D0004E0001004D0001004C0001004B000000D6
:1015E0004B0001004A0001004900010048000000D2
:1015F00048000100470001004600000046000100CD
:1016000045000000450001004400010043000000C7
:1016100043000100420000004200010041000000C0
:1016200041000100400001003F0000003F000100B8
:101630003E0000003E0001003D0000003D000100B2
:101640003C0000003C0000003C0001003B000000AA
:101650003B0001003A0000003A00010039000000A0
:101660003900010038000000380000003800010097
:10167000370000003700010036000000360000008F
:101680003600010035000000350000003500010083
:10169000340000003400000034000100330000007A
:1016A000330000003300010032000000320000006F
:1016B0003200010031000000310000003100010063
:1016C0003000000030000000300001002F0000005A
:1016D0002F0000002F0000002F0001002E0000004E
:1016E0002E0000002E0001002D0000002D00000043
:1016F0002D0000002D0001002C0000002C00000037
:101700002C0000002C0001002B0000002B0000002A
:101710002B0000002B0001002A0000002A0000001E
:101720002A0000002A000100290000002900000012
:101730002900000029000000290001002800000005
:1017400028000000280000002800000028000100F8
:1017500027000000270000002700000027000000ED
:1017600027000100260000002600000026000000DF
:1017700026000000260001002500000025000000D2
:1017800025000000250000002500000025000100C4
:1017900024000000240000002400000024000000B9
:1017A00024000100230000002300000023000000AB
:1017B000230000002300000023000000230001009C
:1017C0002200000022000000220000002200000091
:1017D0002200000022000100210000002100000082
:1017E0002100000021000000210000002100000075
:1017F0002100010020000000200000002000000067
:101800002000000020000000200000002000000058
:10181000200001001F0000001F0000001F0000004A
:101820001F0000001F0000001F0000001F0001003B
:101830001E0000001E0000001E0000001E00000030
:10184000043700001E290000511B00005810000042
:1018500010090000CC0400007802000041010000E3
:1018600023646566696E652044454641554C545F66
:101870004B64200023646566696E652044454641DB
:10188000554C545F4B69200023646566696E652082
:1018900044454641554C545F4B702000504944200C
:1018A0004175746F74756E652066696E69736865DD
:1018B00064212050757420746865206C61737420F5
:1018C0004B702C204B6920616E64204B6420636F49
:1018D0006E7374616E74732066726F6D2062656CD6
:1018E0006F7720696E746F20436F6E6669677572DB
:1018F0006174696F6E2E680A005049442041757406
:101900006F74756E65206661696C65642120746909
:101910006D656F75740A00453120544845524D413C
:101920004C2052554E4157415900546865726D61C3
:101930006C2052756E617761790045312048656190
:1019400074696E67206661696C65640048656174DE
:10195000696E67206661696C656400504944204186
:1019600075746F74756E65206661696C656421209D
:1019700054656D706572617475726520746F6F2047
:10198000686967680A00204B643A2000204B693A76
:101990002000204B703A20000A20436C6173736969
:1019A0006320504944200A002054753A2000204BFF
:1019B000753A2000206D61783A2000206D696E3AFA
:1019C000200020643A200020626961733A200050B0
:1019D0004944204175746F74756E65206661696C49
:1019E0006564212042616420657874727564657253
:1019F000206E756D6265720A00504944204175740D
:101A00006F74756E652073746172740A0062656428
:101A10000A002C2073797374656D2073746F707075
:101A2000656421204865617465725F49443A20000D
:101A3000454550524F4D206461746173697A652049
:101A40006572726F722E0A00290A0020627974652D
:101A5000733B20637263200053657474696E67730F
:101A60002053746F726564202800290A002062796F
:101A70007465733B2063726320002073746F72651A
:101A8000642073657474696E67732072657472691B
:101A900065766564202800202863616C63756C613D
:101AA00074656429210A0020213D200045455052DB
:101AB0004F4D20435243206D69736D6174636820FC
:101AC0002D202873746F7265642920002053697A71
:101AD000653A2000496E6465783A2000204D6172B5
:101AE0006C696E3D563535290A0028454550524FE0
:101AF0004D3D00454550524F4D2076657273696FDC
:101B00006E206D69736D617463682000416D61784A
:101B1000204500416D6178204500416D6178205A73
:101B200000416D6178205A00416D61782059004173
:101B30006D6178205900416D6178205800416D61D8
:101B400078205800412D74726176656C00412D74C7
:101B5000726176656C00412D726574726163740008
:101B6000412D7265747261637400416363656C003A
:101B7000416363656C004D6F74696F6E0056652D2F
:101B80006A65726B0056652D6A65726B0056652D2D
:101B90006A65726B00567A2D6A65726B00567A2DF3
:101BA0006A65726B0056792D6A65726B0056792DE5
:101BB0006A65726B0056792D6A65726B0056782DD6
:101BC0006A65726B0056782D6A65726B0056782DC7
:101BD0006A65726B004D6F74696F6E004573746552
:101BE00070732F6D6D004573746570732F6D6D008C
:101BF0005A73746570732F6D6D005A7374657073CA
:101C00002F6D6D005973746570732F6D6D0059736E
:101C1000746570732F6D6D005873746570732F6DDC
:101C20006D005873746570732F6D6D004D6F74691E
:101C30006F6E0053746570732F6D6D004A65726B23
:101C400000416363656C65726174696F6E0056650F
:101C50006C6F6369747900436F6E74726F6C0050BF
:101C600072656865617420504C4120456E64005077
:101C700072656865617420504C4120426564005073
:101C800072656865617420504C41005072657061E6
:101C90007265005072656865617420414253204549
:101CA0006E64005072656865617420414253204241
:101CB000656400507265686561742041425300504C
:101CC000726570617265004261636B004E65787485
:101CD00020506F696E74004C6576656C696E672084
:101CE000446F6E6521004D6F7665205A004732398A
:101CF000205332004E65787420506F696E74002551
:101D000069202F2025750047323920533100473292
:101D10003920533200436C69636B20746F20426535
:101D200067696E00486F6D696E672058595A0047A1
:101D300032380053746F72652073657474696E670E
:101D400073004C6F61642073657474696E6773000F
:101D50004C6576656C20636F726E657273004265C8
:101D600064205A00426564205A0046616465204838
:101D700065696768740046616465204865696768DD
:101D800074004661646520486569676874004F6641
:101D900066004F6E2000426564204C6576656C6974
:101DA0006E67004C6576656C2062656400507265F4
:101DB000706172650000060900FE07019203212090
:101DC0007FFF07FF07FF000000060000010707066E
:101DD000020080808080800080030202060105A04E
:101DE000A00507070600005050F850F850500507AE
:101DF000070600002078A07028F0200507070600DD
:101E000000C0C81020409818050707060000609021
:101E1000A040A89068020303060104C040800307A5
:101E2000070601002040808080402003070706014C
:101E3000008040202020408005050506000120A8E4
:101E400070A8200505050600012020F820200203C7
:101E5000030602FFC04080050101060003F80202EC
:101E600002060200C0C0050505060001081020405A
:101E70008005070706000070888888888870030737
:101E80000706010040C040404040E005070706004B
:101E900000708808708080F8050707060000F810B9
:101EA00020100808F005070706000010305090F8D1
:101EB0001010050707060000F880F0080888700574
:101EC0000707060000708080F08888700507070605
:101ED0000000F808102020202005070706000070E9
:101EE00088887088887005070706000070888878E1
:101EF000080870020505060200C0C000C0C0020646
:101F0000060602FFC0C000C04080040707060000AC
:101F100010204080402010050303060002F800F85E
:101F200004070706010080402010204080050707B5
:101F30000600007088081020002005070706000032
:101F400070880868A8A870050707060000708888D0
:101F5000F8888888050707060000F08888F08888D8
:101F6000F0050707060000708880808088700507EC
:101F700007060000F08888888888F00507070600B3
:101F800000F88080F08080F8050707060000F880E0
:101F900080F0808080050707060000708880B88880
:101FA0008870050707060000888888F888888801F7
:101FB0000707060200808080808080800507070672
:101FC0000000381010101090600507070600008808
:101FD00090A0C0A090880507070600008080808040
:101FE0008080F805070706000088D8A888888888B8
:101FF0000507070600008888C8A89888880507078D
:102000000600007088888888887005070706000029
:10201000F08888F0808080050707060000708888B7
:1020200088A89068050707060000F08888F0A0904F
:1020300088050707060000788080700808F005070B
:1020400007060000F82020202020200507070600B2
:1020500000888888888888700507070600008888B7
:1020600088888850200507070600008888888888A7
:10207000A85005070706000088885020508888056A
:1020800007070600008888885020202005070706DB
:102090000000F80810204080F8030707060100E060
:1020A0008080808080E005050506000180402010CA
:1020B00008030707060100E02020202020E0050398
:1020C00003060004205088050101060000F8020202
:1020D00002060205804005050506000070087888A4
:1020E000780507070600008080B0C88888F00505DD
:1020F000050600007080808870050707060000084C
:102100000868988888780505050600007088F880BA
:10211000700507070600003048E0404040400506D3
:10212000060600FF7088887808700507070600001B
:102130008080B0C888888801070706020080008078
:10214000808080800308080601FF200020202020D6
:10215000A040040707060000808090A0C0A0900364
:102160000707060100C04040404040E00505050665
:102170000000D0A8A8A8A8050505060000B0C888DA
:1021800088880505050600007088888870050606A1
:102190000600FFF08888F080800506060600FF78BC
:1021A0008888780808050505060000B0C88080808A
:1021B00005050506000070807008F004070706009A
:1021C000004040E04040403005050506000088889A
:1021D0008898680505050600008888885020050550
:1021E000050600008888A8A8500505050600008897
:1021F000502050880506060600FF888888780870F9
:10220000050505060000F8102040F8030707060141
:1022100000204040804040200107070602008080E7
:1022200080808080800307070601008040402040B6
:1022300040800502020600026890000000060000CF
:10224000556E6B6E6F776E20636F6D6D616E643A65
:102250002022006563686F3A0000002042000020E1
:10226000420000E040000000004572726F723A00C8
:102270004D343238005072656865617420504C41AD
:1022800000436F6F6C646F776E00507265686561B4
:1022900074204142530044697361626C6520737419
:1022A000657070657273004D383400536574206832
:1022B0006F6D65206F666673657473004265642098
:1022C0004C6576656C696E67004175746F20686F48
:1022D0006D6500473238004D6F766520617869730F
:1022E000004D61696E004D6F76652058004D6F7628
:1022F000652059004D6F7665205A004578747275D7
:10230000646572004D6F766520302E316D6D004D25
:102310006F766520316D6D004D6F76652031306DC3
:102320006D004D6F76652061786973004578747231
:1023300075646572004D6F7665205A004D6F766545
:102340002059004D6F766520580045787472756489
:102350006572004D6F7665205A004D6F7665205985
:10236000004D6F766520580050726570617265008F
:10237000496E697469616C697A6520454550524FB0
:102380004D00436F6E74726F6C00506C65617365C5
:10239000207265736574005052494E54455220486E
:1023A000414C544544005072696E746572206861F6
:1023B0006C7465642E206B696C6C28292063616CD9
:1023C0006C6564210A001FFFFFFFFFFFFF60000034
:1023D000000001FF400000000000FF80000000003E
:1023E000007F83CF00000C303F87FF80000C301F40
:1023F000867980000C000F8C30C7838C30E78C30DE
:10240000CFC7CC31F38C30DCECEC33B98C30D86CEA
:102410006C33198C30D06C0C33198C30D86C0C3375
:10242000198C30DC6C0E3B198C30CF7C079F198CDB
:1024300030C77C038F1940000000000002600000DC
:10244000000000061FFFFFFFFFFFF82020506C6117
:102450006E6E657242756666657242797465733A2E
:1024600020002046726565204D656D6F72793A20B7
:1024700000436F6D70696C65643A204E6F76202062
:102480003620323031380A00207C20417574686F64
:10249000723A20286E6F6E652C2064656661756CDB
:1024A0007420636F6E666967290A00323031382DF7
:1024B00030382D303100204C6173742055706461C8
:1024C0007465643A2000312E312E390A004D617254
:1024D0006C696E0020536F66747761726520526577
:1024E0007365740A00205761746368646F672052D3
:1024F000657365740A002042726F776E206F757481
:102500002052657365740A002045787465726E61A7
:102510006C2052657365740A00506F776572557050
:102520000A0073746172740A000000000000000069
:1025300000000000005761726E696E673A20486FB4
:102540006D696E672042756D702044697669736F9E
:1025500072203C20310A000303050000A040000067
:10256000A04000000040000048430000434300003A
:102570003443FFFFFF4572726F722077726974698E
:102580006E6720746F20454550524F4D210A00253B
:1025900069730025696D2025697300256968202508
:1025A000696D2025697300256964202569682025E7
:1025B000696D2025697300256979202569642025C6
:1025C00069682025696D2025697300656E717565E0
:1025D0007565696E672022004B494C4C45442E209E
:1025E0000053544F505045442E20005072696E7471
:1025F00065722073746F70706564206475652074F3
:102600006F206572726F72732E204669782074682D
:1026100065206572726F7220616E6420757365202B
:102620004D39393920746F20726573746172742E5C
:10263000202854656D7065726174757265206973C8
:102640002072657365742E2053657420697420614F
:10265000667465722072657374617274696E67293D
:102660000A004E6F20436865636B73756D20776950
:102670007468206C696E65206E756D6265722C20C1
:102680004C617374204C696E653A20006368656321
:102690006B73756D206D69736D617463682C204C6C
:1026A000617374204C696E653A20004C696E652038
:1026B0004E756D626572206973206E6F74204C6177
:1026C0007374204C696E65204E756D6265722B3196
:1026D0002C204C617374204C696E653A20004D319A
:1026E00031300020496E76616C69642065787472BF
:1026F00075646572200046696C616D656E74207545
:102700007365643A200053746174733A20002C207E
:102710004C6F6E67657374206A6F623A2000546F65
:1027200074616C2074696D653A2000537461747330
:102730003A20002C204661696C65643A20002C2008
:1027400046696E69736865643A20005072696E74F8
:10275000733A200053746174733A200048617264C4
:10276000636F6465642044656661756C74205365AD
:102770007474696E6773204C6F616465640A00D07D
:10278000070000D0070000640000001027000000D0
:1027900000484300004843000070410000484200E8
:1027A00000A0420000A0423373C8430000BC422096
:1027B000286D6D290020440020490020204D333031
:1027C000312050005049442073657474696E6773FA
:1027D0003A0A0020460020420020480020204D31C7
:1027E00034352053004D6174657269616C206865F1
:1027F0006174757020706172616D65746572733A91
:102800000A00205A00205900202047323920533333
:10281000205800205A0020204D3432302053004DE3
:1028200065736820426564204C6576656C696E67E7
:102830003A0A00205A0020590020204D323036201C
:102840005800486F6D65206F66667365743A0A00BC
:10285000204500205A002059002058002054002014
:10286000530020204D32303520510020453C6D6111
:10287000785F655F6A65726B3E0020583C6D6178D9
:102880005F785F6A65726B3E20593C6D61785F7955
:102890005F6A65726B3E205A3C6D61785F7A5F6A51
:1028A00065726B3E00416476616E6365643A2051E7
:1028B0003C6D696E5F7365676D656E745F74696D9D
:1028C000655F75733E20533C6D696E5F6665656438
:1028D000726174653E20543C6D696E5F74726176FE
:1028E000656C5F66656564726174653E00205400C6
:1028F00020520020204D3230342050004163636567
:102900006C65726174696F6E2028756E6974732FBF
:102910007332293A20503C7072696E745F61636350
:10292000656C3E20523C726574726163745F6163D2
:1029300063656C3E20543C74726176656C5F6163C4
:1029400063656C3E0A00204500205A002059002093
:10295000204D3230312058004D6178696D756D2001
:10296000416363656C65726174696F6E2028756E72
:102970006974732F7332293A0A00204500205A00E7
:1029800020590020204D3230332058004D617869A5
:102990006D756D2066656564726174657320287558
:1029A0006E6974732F73293A0A00204500205A007B
:1029B00020590020204D393220580053746570731F
:1029C0002070657220756E69743A0A0020204D32BD
:1029D00030302044300A0020204D32303020440076
:1029E0002044697361626C65640A0046696C616DBC
:1029F000656E742073657474696E67733A00202085
:102A00004D3134392043203B20556E697473206961
:102A10006E2043656C736975730A0020204732315C
:102A2000202020203B003344205072696E74657270
:102A30002052656164792E005072696E74696E6708
:102A40002E2E2E005072696E74207061757365644D
:102A500000473238200A4731205A3230204632307F
:102A600030300A4D3131372055736572205363720F
:102A700069707420446F6E6500473238200A473908
:102A800030200A4731205A3137302046313030303B
:102A9000200A4731205A3138302046313030200A60
:102AA0004734205331200A4731205A3137302046ED
:102AB000313030200A4731205A350A4D3131372024
:102AC000557365722053637269707420446F6E652C
:102AD000004C6576656C20582043617272696167AD
:102AE0006500486F6D652026205261697365205A24
:102AF000004D61696E00436F6E74726F6C005072AE
:102B000065706172650054756E6500437573746F0E
:102B10006D20436F6D6D616E647300496E666F204A
:102B200073637265656E00426162797374657020CB
:102B30005A004261627973746570205A00466C6F66
:102B40007700466C6F7700466C6F770046616E20A9
:102B500073706565640046616E207370656564001E
:102B600046616E207370656564004265640042656D
:102B70006400426564004E6F7A7A6C65004E6F7A2D
:102B80007A6C65004E6F7A7A6C65004661646520E8
:102B900048656967687400466164652048656967CF
:102BA000687400466164652048656967687400421E
:102BB0006564205A00426564205A0053706565645C
:102BC000005370656564005370656564004D61690C
:102BD0006E0000002100240027002A0000002200CF
:102BE000250028002B0000002000230026002900DB
:102BF00002020202020202020404040404040404A5
:102C000003030303030303030101010101010101A4
:102C100001020408102040800102040810204080B6
:102C200001020408102040808040201008040201A6
:102C3000000000010200090A000000000403080768
:102C40000000000000000000000000000000000084
:102C5000545249474745524544006F70656E003AEB
:102C600020007A5F6D696E00795F6D696E00785F34
:102C70006D696E005265706F7274696E6720656E63
:102C80006473746F70207374617475730A000A4DF5
:102C90006561737572656420706F696E74733A0A4A
:102CA000005A206F66667365743A20004E756D2079
:102CB000582C593A20352C350A0023D511241FBE33
:102CC000CFEFD0E4DEBFCDBF12E0A0E0B1E0E0EE98
:102CD000F6EC01E00BBF02C007900D92AE34B107D5
:102CE000D9F72EE0AEE4B2E001C01D92AF3FB207CB
:102CF000E1F716E1CEE5D6E104C02197FE010E947E
:102D0000F5E2CD35D107C9F70E9440C00C946EE3BF
:102D10000C9400002F923F924F925F926F927F929D
:102D20008F929F92AF92BF92CF92DF92EF92FF92DB
:102D30000F931F93CF93DF93CDB7DEB7C956D10959
:102D40000FB6F894DEBF0FBECDBFE091C505F09180
:102D5000C605EF2B11F00C949D1EDEAECDAEE9AE94
:102D600079016A015B01FC012091A9033091AA035A
:102D70004091AB035091AC0360817181828193815A
:102D80000E947EDB0E94FBE1A1966CAF7DAF8EAF0F
:102D90009FAFA1972091AD033091AE034091AF0357
:102DA0005091B003D5016D917D918D919C910E94C0
:102DB0007EDB0E94FBE1A5966CAF7DAF8EAF9FAF2F
:102DC000A5972091B1033091B2034091B303509184
:102DD000B403F60160817181828193810E947EDB60
:102DE0000E94FBE1A9966CAF7DAF8EAF9FAFA99714
:102DF0002091B5033091B6034091B7035091B803C9
:102E0000D7016D917D918D919C910E947EDB0E94F6
:102E1000FBE12B966CAF7DAF8EAF9FAF2B97809170
:102E2000D30383FF0EC02B964CAC5DAC6EAC7FAC75
:102E30002B9740920D0850920E0860920F087092E6
:102E40001008D8013C9011964C9011974DA61296FF
:102E50005C90129759AA13962C908091EB07909151
:102E6000EC07891B8F708F3019F40E946854F5CFDE
:102E70006090EB07AA966FAEAA978091EB07082F98
:102E800010E01CA30BA38091010890910208A0916F
:102E90000308B0910408A1968CAC9DACAEACBFAC5D
:102EA000A197881A990AAA0ABB0A809105089091ED
:102EB0000608A0910708B0910808A5964CAC5DAC37
:102EC0006EAC7FACA597481A590A6A0A7B0A4DA2D4
:102ED0005EA26FA278A68091090890910A08A0913D
:102EE0000B08B0910C08A9964CAC5DAC6EAC7FACF5
:102EF000A997481A590A6A0A7B0A49A65AA66BA6D4
:102F00007CA680910D0890910E08A0910F08B091B9
:102F100010082B964CAC5DAC6EAC7FAC2B97481A6E
:102F2000590A6A0A7B0A09F49DC08091C503811180
:102F30003BC06091760570917705809178059091FE
:102F400079050E94FAE02091190130911A01621767
:102F5000730754F52B964CAC5DAC6EAC7FAC2B97E5
:102F600040920D0850920E0860920F08709210085F
:102F7000E3E5F2E284918F010F5F1F4F811103C0DF
:102F8000EDE8F6E004C00E942AA0F801F3CF849196
:102F90008F010F5F1F4F882321F00E942AA0F801A4
:102FA000F6CF412C512C320139AD24E0329F800103
:102FB00011240D5E1E4FC301B2010E941FDBD80118
:102FC0002D913D914D915C910E947EDB6B017C01C6
:102FD00020E030E0A9010E94EEE187FF04C0F7FA8B
:102FE000F094F7F8F0946091B5037091B603809176
:102FF000B7039091B8030E94FAE09B01AC01AAEFDD
:10300000B0E00E9473DF0E941FDBA70196010E94BF
:1030100018DB87FF2AC02B964CAC5DAC6EAC7FAC46
:103020002B9740920D0850920E0860920F087092F4
:103030001008E3E5F2E284918F010F5F1F4F8111C9
:1030400003C0EEE6F6E004C00E942AA0F801F3CF28
:1030500084918F010F5F1F4F882321F00E942AA0C7
:10306000F801F6CF412C512C3201D501C40188273B
:10307000B7FD83959927AA27BB27182F2DA13EA11D
:103080004FA158A557FD126089A59AA5ABA5BCA56F
:10309000B7FD146077FC186009ADA4E00A9FC00179
:1030A00011249C012D5E3E4F7901C301B2010E94A3
:1030B0001FDBD7012D913D914D915C910E947EDBEC
:1030C0006B017C0120E030E0A9010E94EEE187FF66
:1030D00004C0C701B601905802C0C701B60120E084
:1030E00030E040E05FE30E948EDF0E9401E16DABC3
:1030F0007EAB8FAB98AF8DE44BA05CA0849DF001BC
:10310000859DF00D1124E252F74F108216ABB501E8
:10311000A401B7FE07C044275527BA014819590929
:103120006A097B098DE46BA07CA0869DF001879DD8
:10313000F00D1124E252F74F458B568B678B708F41
:103140008DA19EA1AFA1B8A5B7FF07C0B095A0956E
:10315000909581959F4FAF4FBF4F2DE40BA11CA1C0
:10316000209FF001219FF00D1124E252F74F818F33
:10317000928FA38FB48F09A51AA52BA53CA537FF65
:1031800007C030952095109501951F4F2F4F3F4F49
:10319000EDE47E2E4BA05CA0749CF001759CF00DBC
:1031A0001124E252F74F058F168F278F30A34DA8B9
:1031B0005EA86FA878AC41A252A263A274A23A01A1
:1031C000F62FE72F481759076A077B0718F43C01C9
:1031D000FA2FEB2FC301AF2FBE2F80179107A20745
:1031E000B30710F4D901C8014DA85EA86FA878AC48
:1031F00084159505A605B70510F4D301C2012DE489
:103200006BA07CA0269DF001279DF00D1124E252B9
:10321000F74F85A396A3A7A3B0A70697A105B1056D
:1032200008F484C5DF01A95BBF4F8091DB0D90914D
:10323000DC0D8D939C9379AC71A6452B462B472BC7
:1032400009F05E988DE40BA11CA1809FF001819F85
:10325000F00D1124E252F74F818D928DA38DB48D24
:10326000892B8A2B8B2B09F05E988DE44BA05CA0F8
:10327000849DF001859DF00D1124E252F74F858D5C
:10328000968DA78DB0A1892B8A2B8B2B09F01598D1
:103290004DA85EA86FA878AC45284628472809F4B1
:1032A0004EC580916205882319F081508093620594
:1032B00059AC511004C05E9880E280936205609022
:1032C000720370907303009174031091750393015E
:1032D000A801632D7DA589A9922D0E9418DB87FF87
:1032E00004C0362C7DA609AB212EC501B4010E9475
:1032F0001FDB2091B20D3091B30D4091B40D509170
:10330000B50D0E947EDB69AF7AAF8BAF9CAF698B46
:103310007A8B8B8B9C8B6DA17EA18FA198A50E942F
:103320001FDB2091B60D3091B70D4091B80D509133
:10333000B90D0E947EDB2B013C016D8B7E8B8F8B48
:10334000988F69A57AA58BA59CA50E941FDB20916B
:10335000BA0D3091BB0D4091BC0D5091BD0D0E9436
:103360007EDB4B015C01698F7A8F8B8F9C8F209164
:10337000BE0D3091BF0D4091C00D5091C10DC701E0
:10338000B6010E947EDB6B017C016D8F7E8F8F8F7B
:1033900098A38DE40BA11CA1809FF001819FF00DEB
:1033A0001124E252F74F85899689A789B08D069737
:1033B000A105B10508F4CCC4ADADBEADCD90DD9096
:1033C000ED90FC9020E030E0A901C701B6010E9419
:1033D00018DB8111E5C429AD3AAD4BAD5CADCA0136
:1033E000B9010E947EDB6B017C01A3019201C30144
:1033F000B2010E947EDB9B01AC01C701B6010E94B5
:103400008EDF6B017C01A5019401C501B4010E940E
:103410007EDB9B01AC01C701B6010E948EDF0E94DA
:103420003CE22DE44BA05CA0249DF001259DF00D15
:103430001124E252F74F658776878787908B8DE45A
:103440000BA11CA1809FF001819FF00D1124E2527D
:10345000F74F258536854785508960E070E080E824
:103460009FE30E9488E023966CAF7DAF8EAF9FAF45
:103470002397232D3DA549A9522D0E947EDB4B01A8
:103480005C018091EB079091E907891B8F708DAFEC
:10349000A501940160E074E284E799E40E9488E069
:1034A0000E94FBE16B017C018DAD8250863008F4F7
:1034B00086C480916F00982F927081FF05C0809123
:1034C0006F008D7F80936F00409110065091110620
:1034D0006091120670911306C40ED51EE61EF71EEB
:1034E000C0921006D0921106E0921206F0921306D6
:1034F000992329F080916F00826080936F008DE4A2
:103500006BA07CA0869D8001879D100D1124025226
:10351000174FD8011D964D905D906D907C905097FF
:103520006B964CAE5DAE6EAE7FAE6B97A50194010F
:10353000C301B2010E947EDB9B01AC010E947EDBD5
:103540002F966CAF7DAF8EAF9FAF2F97F801618341
:1035500072838383948345A056A067A070A44DA670
:103560005EA66FA678AAC301B2010E941DDB69ABFB
:103570007AAB8BAB9CAB9B01AC01C501B4010E9443
:103580007EDB0E946CE00E9401E163966CAF7DAF30
:103590008EAF9FAF6397F80167AB70AF81AF92AF0B
:1035A0008E010F5E1F4F25961FAF0EAF259700515E
:1035B00011091AAF09AF02E413E06D961FAF0EAF09
:1035C0006D978E010F5D1F4F1AA309A349AC5AAC2A
:1035D00065965FAE4EAE6597212C312C00E80DA3A9
:1035E0001FE319A72596AEADBFAD25972D913D914F
:1035F0004D915D912596BFAFAEAF2597C501B40142
:103600000E947EDB6B017C016596EEADFFAD659798
:1036100061937193819391936596FFAFEEAF659738
:1036200020E030E0A9010E94EEE187FF04C0F7FA34
:10363000F094F7F8F0946D96AEADBFAD6D974D90E8
:103640005D906D907D906D96BFAFAEAF6D97A70109
:103650009601C301B2010E9418DB87FDEAC349A0AD
:103660005AA025966EAC7FAC25974614570409F0F6
:10367000B9CF20E030E040E85FE3B1018DA199A52A
:103680000E9418DB87FF4EC07E0101E1E00EF11CB5
:1036900009AD1AAD91014DA159A5D8016D917D914A
:1036A0008D919C910E947EDBF801619371938193CF
:1036B00091938F01EE16FF0669F78DE44BA05CA095
:1036C000849D8001859D100D11240252174F639631
:1036D0006CAD7DAD8EAD9FAD63970E941DDB9101FA
:1036E0004DA159A50E947EDB0E9401E1D801D79629
:1036F0006D937D938D939C93DA9791014DA159A57C
:10370000B1018DA199A50E947EDB2F962CAD3DAD18
:103710004EAD5FAD2F970E947EDBF801618372830F
:103720008383948329A93AA94BA95CA923966CADFC
:103730007DAD8EAD9FAD23970E947EDB6DA37EA3F2
:103740008FA398A78DE44BA05CA0849DF001859D7C
:10375000F00D1124E252F74F85889688A788B08C27
:1037600081149104A104B10409F479C34DA85EA8A1
:103770006FA878AC45284628472809F493C32091C0
:103780005A0330915B0340915C0350915D036DA13E
:103790007EA18FA198A50E947EDB0E946CE00E9412
:1037A00001E16B017C018091C5089091C608A09150
:1037B000C708B091C8084DA45EA46FA478A884156A
:1037C0009505A605B70508F418C481149104A10451
:1037D000B10409F070C38DE46BA07CA0869DF0015C
:1037E000879DF00D1124E252F74F818C928CA38CAF
:1037F000B48C81149104A104B10409F083C38DE455
:103800000BA11CA1809FF001819FF00D1124E252B9
:10381000F74F858C968CA78CB0A081149104A104DD
:10382000B10409F098C38DE44BA05CA0849DF00125
:10383000859DF00D1124E252F74F81A092A0A3A024
:10384000B4A081149104A104B10409F0ADC38DE4C6
:103850006BA07CA0869D8001879D100D11240252D3
:10386000174FF801ED5BFF4FC082D182E282F382F5
:10387000C701B6010E941DDB6B017C012DA13EA199
:103880004FA158A50E9488E02F966CAF7DAF8EAFF8
:103890009FAF2F97D80151966D937D938D939C93F5
:1038A00054972DEB37E346E051E4C701B6010E947F
:1038B0007EDB0E9401E1F80162AB73AB84AB95AB98
:1038C000418052806380748027964CAE5DAE6EAEB0
:1038D0007FAE2797C301B2010E943CE2362E272E0D
:1038E0008C01EEE5F3E06196FFAFEEAF61973E012C
:1038F000F1E16F0E711C2EE533E021963FAF2EAF44
:10390000219749AC5AAC6DA379A78DA719AB1DAA15
:10391000D201CD90DD90ED90FD902D0120E030E0C2
:10392000A901C701B6010E94EEE187FF04C0F7FAC2
:10393000F094F7F8F0942196EEADFFAD21978190C9
:103940009190A190B1902196FFAFEEAF2197A70182
:103950009601C501B4010E9418DB87FD6BC4641495
:103960007504B1F64DAC442009F4DDC4C090ED07F8
:10397000D090EE07E090EF07F090F0072DEB37E3E3
:1039800046E855E3C701B6010E9418DB87FDCBC4AA
:10399000C701B6010E943CE26B017C019B01AC01B6
:1039A000632D722DC8010E9418DB87FD03C03C2CDB
:1039B0002D2C87019601A701632D722DC8010E944D
:1039C00088E067966CAF7DAF8EAF9FAF679721EFB2
:1039D00037E021963FAF2EAF2197412C512C30E894
:1039E000632E3FE3732E4DAA5EAA6FAA78AE1DAE7A
:1039F0002196AEADBFAD21972D913D914D915D9139
:103A00002196BFAFAEAF219767966CAD7DAD8EAD01
:103A10009FAD67970E947EDB4B015C01E9ADFAAD7B
:103A2000C190D190E190F190FAAFE9AF4DAC442054
:103A300091F02DA93EA94FA958AD0E947EDB4B0104
:103A40005C012DA93EA94FA958ADC701B6010E943E
:103A50007EDB6B017C01A7019601C501B4010E94C8
:103A6000EEE120E030E0A90118160CF029C4C701EE
:103A7000B6010E94EEE118160CF41DC420E030E0FF
:103A8000A901C501B4010E9418DB87FD14C42601F9
:103A9000370177FA709477F87094A3019201C50109
:103AA000B4010E94EEE1181614F424013501619668
:103AB000AEADBFAD6197CD90DD90ED90FD9061967C
:103AC000BFAFAEAF6197A3019201C701B6010E94DB
:103AD00018DB87FF15C0A3019201C701B6010E9440
:103AE00088E09B01AC016DA97EA98FA998AD0E94C9
:103AF0007EDB6DAB7EAB8FAB98AFBDADBF5FBDAFB7
:103B0000E1E0F8E021964EAC5FAC2197E415F505B5
:103B100009F06ECF5DAC552061F02DA93EA94FA9EB
:103B200058AD632D722DC8010E947EDB362E272EE4
:103B30008C0124EA30E74DE75FE3632D722DC80165
:103B40000E947EDB6B017C0120915E0530915F0558
:103B500040916005509161050E9418DB87FDD9C333
:103B60008DA199A5ADA5B9A980935E0590935F0538
:103B7000A0936005B09361052DE46BA07CA0269D09
:103B8000C001279D900D11249C012252374F7901CD
:103B9000232D322DA801632D722DC8010E947EDBDA
:103BA000D70119966D937D938D939C931C978BE011
:103BB00097EDA3E2BBE3F70185839683A783B087E4
:103BC00010812F966CAD7DAD8EAD9FAD2F97905827
:103BD0009B01AC010E948EDF6B962CAD3DAD4EADCE
:103BE0005FAD6B970E947EDB9B01AC016BE077EDD4
:103BF00083E29BE30E948DDF9B01AC0127966CADB5
:103C00007DAD8EAD9FAD27970E9418DB18160CF482
:103C10008FC383E0182B8DE44BA05CA0849DF00142
:103C2000859DF00D1124E252F74F108380E1FE01D3
:103C30003196A1EFB7E001900D928A95E1F72796B2
:103C40004CAC5DAC6EAC7FAC27974092ED075092C8
:103C5000EE076092EF077092F007A1964CAC5DAC56
:103C60006EAC7FACA197409201085092020860921E
:103C7000030870920408A5964CAC5DAC6EAC7FACAA
:103C8000A597409205085092060860920708709226
:103C90000808A9964CAC5DAC6EAC7FACA99740927D
:103CA000090850920A0860920B0870920C082B9633
:103CB0004CAC5DAC6EAC7FAC2B9740920D08509233
:103CC0000E0860920F08709210089091EB07809197
:103CD000EC07981303C084E68093E807AA968FAD9B
:103CE000AA978F5F8F708093EB078091EB0790917D
:103CF000EA0781508F7089131DC3D090EC07809024
:103D0000EB072DE4D810A4C3212C312C412C512CCD
:103D10001BA21DA2712C612C00E010E0E12CF12C03
:103D20008D10A3C30115110509F014C480916F0013
:103D3000826080936F0081E042C580E040C5609062
:103D40006E0370906F030091700310917103BFCAEE
:103D5000818D928DA38DB48D0697A105B10508F0D4
:103D60002BCB858D968DA78DB0A10697A105B105AA
:103D700008F022CB20E030E0A901C701B6010E9483
:103D8000EEE187FF04C0F7FAF094F7F8F0948DE4C1
:103D90004BA05CA0849DF001859DF00D112408C00E
:103DA0008DE46BA07CA0869DF001879DF00D112411
:103DB000E252F74FC586D686E786F08A40CB8091DF
:103DC000760390917703A0917803B0917903C81698
:103DD000D906EA06FB0608F06CCB8C199D09AE09E2
:103DE000BF09BC01CD01660F771F881F991F4DAC1D
:103DF000042D10E020E030E0A90198010E9451DF7D
:103E0000CA01B9010E941DDB0E94FBE1C60ED71E4C
:103E1000E81EF91EC701B6010E941DDB9B01AC0123
:103E200060E074E284E799E40E9488E04B015C0161
:103E300040CBA7019601C301B2010E9488E07B013B
:103E40008C019B01AC01B1018DA199A50E94EEE10D
:103E500018160CF004CC17010DA319A700CC818D06
:103E6000928DA38DB48D892B8A2B8B2B09F07ECC60
:103E7000858D968DA78DB0A1892B8A2B8B2B09F070
:103E800075CC2091520330915303409154035091CB
:103E900055036DA17EA18FA198A50E947EDB0E9493
:103EA0006CE0C3C1209156033091570340915803F1
:103EB000509159036CCC609103037091040380917D
:103EC0000503909106036C157D058E059F0508F08E
:103ED00082CCA30192010E9441DF2B013C01A5018C
:103EE0009401C701B6010E9441DF461657066806D5
:103EF000790608F070CCC301B2010E9451DF69015C
:103F00007A0169CC609107037091080380910903DD
:103F100090910A036C157D058E059F0508F06FCC06
:103F20002DA53EA54FA558A90E9441DF2B013C01BC
:103F3000A5019401C701B6010E9441DF461657064C
:103F40006806790608F05BCCC301B2010E9451DF1C
:103F500069017A0154CC60910B0370910C0380913C
:103F60000D0390910E036C157D058E059F0508F0DD
:103F70005ACC2DA53EA54FA558A90E9441DF2B0183
:103F80003C01A5019401C701B6010E9441DF46161C
:103F900057066806790608F046CCC301B2010E94B4
:103FA00051DF69017A013FCC60910F0370911003DA
:103FB00080911103909112036C157D058E059F056C
:103FC00008F045CC2DA53EA54FA558A90E9441DF7C
:103FD0002B013C01A5019401C701B6010E9441DFFC
:103FE000461657066806790608F031CCC301B201BF
:103FF0000E9451DF69017A012ACC81149104A10445
:10400000B104B9F160910303709104038091050339
:10401000909106036C157D058E059F0550F50E9455
:104020001DDB29A93AA94BA95CA90E947EDB2B01C3
:104030003C01C501B4010E941DDB4B015C01C701BD
:10404000B6010E941DDBA50194010E947EDB9B014D
:10405000AC01C301B2010E9418DB87FF0AC0A501B1
:104060009401C301B2010E9488E00E9401E16B014A
:104070007C018DE46BA07CA0869DF001879DF00DF6
:104080001124E252F74F418C528C638C748C411492
:10409000510461047104B9F1609107037091080340
:1040A0008091090390910A036C157D058E059F058B
:1040B00050F50E941DDB29A93AA94BA95CA90E94D1
:1040C0007EDB4B015C01C301B2010E941DDB2B01B1
:1040D0003C01C701B6010E941DDBA30192010E94B1
:1040E0007EDB9B01AC01C501B4010E9418DB87FF98
:1040F0000AC0A3019201C501B4010E9488E00E9498
:1041000001E16B017C018DE40BA11CA1809FF001FA
:10411000819FF00D1124E252F74F458C568C678C2D
:1041200070A04114510461047104B9F160910B0352
:1041300070910C0380910D0390910E036C157D0519
:104140008E059F0550F50E941DDB29A93AA94BA9B0
:104150005CA90E947EDB4B015C01C301B2010E949D
:104160001DDB2B013C01C701B6010E941DDBA30131
:1041700092010E947EDB9B01AC01C501B4010E944B
:1041800018DB87FF0AC0A3019201C501B4010E9498
:1041900088E00E9401E16B017C018DE44BA05CA0F2
:1041A000849DF001859DF00D1124E252F74F81A00E
:1041B00092A0A3A0B4A081149104A104B10409F4B5
:1041C00046CB60910F037091100380911103909181
:1041D00012036C157D058E059F0508F038CB0E94F3
:1041E0001DDB29A93AA94BA95CA90E947EDB2B0102
:1041F0003C01C501B4010E941DDB4B015C01C701FC
:10420000B6010E941DDBA50194010E947EDB9B018B
:10421000AC01C301B2010E9418DB87FF18CBA501D6
:104220009401C301B2010E9488E00E9401E16B0188
:104230007C010DCBFDA9FF2331F1A5019401632D74
:10424000722DC8010E947EDB4B015C012DA139A5B6
:104250004DA559A9C701B6010E947EDB9B01AC01A7
:10426000C501B4010E9418DB87FF22C0A701960197
:10427000C501B4010E9488E06DA379A78DA799AB11
:1042800021E02DAB6CCBA7019601C501B4010E94C2
:1042900088E09B01AC016DA179A58DA599A90E942B
:1042A0007EDB6DA379A78DA799AB31E03DAB57CBF2
:1042B00041E04DAB54CBA7019601C501B40113C039
:1042C000C701B6010E9418DB87FD09C020E030E07D
:1042D000A901C501B4010E94EEE118164CF4A50134
:1042E0009401C701B6010E948DDF2B013C01DFCB99
:1042F0002401350177FA709477F87094A301920144
:10430000C701B6010E9418DB87FDD1CB260137011A
:10431000CECB2DA139A54DA559A9C701B6010E9443
:1043200018DB87FF1DCC3DA029A40DA519A918CC29
:1043300081E070CCF090EB078FEF8F0D8F708BA327
:10434000B090EA078091EB07B81609F456C0C12C6B
:10435000D12C5BA05B1409F450C0652C712C2DE4AA
:10436000269D8001279D100D11240252174FD80160
:104370008C9183FD2DC00DAB19AF0115110551F1C5
:1043800019964C9019974DA21A965C901A9759A6B7
:104390001B964C901B974DA61C965C901C9759AA97
:1043A00015962D903D904D905C901897A20191012B
:1043B0006DA179A58DA599A90E9418DB811108C16D
:1043C000C114D10439F0D6018C9180FD01C102C025
:1043D000CDAAD9AE8BA181508F708BA38091EA07B3
:1043E0008B1103C0CDA8D9ACB4CF4BA04B1429F08E
:1043F00081E08B0D8F70B82EF1CF5090EA075BA251
:10440000C12CD12C8091EB076BA0861509F475CCDB
:10441000862C912C9DE4792E789C8001799C100D3E
:1044200011240252174FD8018C9183FD0AC0580104
:10443000C114D10439F0C6010E946B63811102C01E
:1044400045C156018BA18F5F8F708BA36501DACFB9
:104450008FEF880D8F70289FF0011124E252F74FE3
:10446000908193FF51CC882E4DCC2DE42D9D800161
:1044700011240252174FD8018C9183FD19C0159653
:104480006D917D918D919C9118970E943CE2C62E72
:10449000B72EA82E992EE114F10409F44DC0F701AE
:1044A000808180FD0AC0D8018C9180FD06C044C087
:1044B000CBA0BDA0A72C962C44C0F70180818160C1
:1044C0008083C7010E946B63811132C0F701618153
:1044D0007281838194810E943CE29B01AC0160E087
:1044E00070E080E89FE30E9488E01B012C019B01A3
:1044F000AC016C2D7B2D8A2D992D0E947EDB69836A
:104500007A838B839C832BA13DA1472D562DC2011D
:10451000B1010E947EDB698B7A8B8B8B9C8BAE0109
:104520004F5F5F4FBE016F5E7F4FC7010E944FBA62
:10453000D7018C918E7F8C932C2C3B2C4A2C592CA0
:10454000780181E08D0D8F70D82ECBA2BDA27A2C80
:10455000692CE6CBF801808181608083C7010E94CD
:104560006B63811130C0D80111966D917D918D9151
:104570009C9114970E943CE29B01AC0160E070E0CA
:1045800080E89FE30E9488E06B017C012DEC3CEC0D
:104590004CE45DE30E947EDB69837A838B839C839A
:1045A0009101A201C701B6010E947EDB698B7A8B63
:1045B0008B8B9C8BAE014F5F5F4FBE016F5E7F4F59
:1045C000C8010E944FBAF80180818E7F8083AECBF4
:1045D0002DE4269DF001279DF00D1124E252F74FA6
:1045E000808181FD43C0C114D10431F0F601C58042
:1045F000D680E780F08408C02BE0C22E27EDD22EB3
:1046000023E2E22E2BE3F22E2DE4269DF001279DDE
:10461000F00D1124E252F74F81899289A389B48960
:10462000BC01CD0190589B01AC010E948EDFD801E6
:104630001D962D913D914D915C9150970E947EDB8E
:104640009B01AC01C701B6010E948DDFE62E872ECB
:10465000982EA92E262F372F482F592F6DA179A5D7
:104660008DA599A90E9418DB87FF04C0EDA089A43D
:104670009DA4A9A82E2D382D492D5A2DC201B10176
:104680000E9418DB882309F4A5CEBDE4B69DC001C5
:10469000B79D900D1124FC01E252F74F6F0180810C
:1046A00081608083C8010E946B63882329F0D60152
:1046B0008C918E7F8C938ECE8E2D982DA92DBA2D18
:1046C000F60185839683A783B08784CED6018C912B
:1046D00081FD52C0D60115964D905D906D907C90F5
:1046E00018974DA25EA26FA278A61501B5E02B0E19
:1046F000311CF8014580568067807084A3019201C7
:104700006DA17EA18FA198A50E9418DB87FF34C000
:10471000F60181899289A389B489BC01CD019058A1
:104720009B01AC010E948EDFD6011D962D913D911B
:104730004D915C9150970E947EDB9B01AC016DA175
:104740007EA18FA198A50E948DDF6B017C019B014A
:10475000AC01C301B2010E94EEE118166CF4D8015D
:104760008C9181608C93C5010E946B638823E9F072
:10477000F80180818E7F80838DE4582E589CF00153
:10478000599CF00D1124E252F74F21853285438563
:10479000548565817681878190850E9418DB81111F
:1047A00051CE6BA06092EA074DCED101CD92DD9241
:1047B000ED92FC9213974BA04092EA07DDCFC759C8
:1047C000DF4F0FB6F894DEBF0FBECDBFDF91CF91A4
:1047D0001F910F91FF90EF90DF90CF90BF90AF901F
:1047E0009F908F907F906F905F904F903F902F9011
:1047F00008958091EB079091EC07891B8F708F30A3
:1048000019F40E946854F5CF8091EB078F5F8F7089
:10481000E091EB079DE49E9FF0011124E252F74FD7
:10482000DF011D929A95E9F798E090834091010885
:10483000509102086091030870910408458B568BD3
:10484000678B708F409105085091060860910708AA
:1048500070910808418F528F638F748F40910908BF
:1048600050910A0860910B0870910C08458F568F83
:10487000678F70A340910D0850910E0860910F084A
:104880007091100841A352A363A374A32091EB0776
:104890009091EC07291303C094E69093E807809366
:1048A000EB0780916F00826080936F000895909174
:1048B000EB078091EC07981306C08091C505909195
:1048C000C605892B19F00E946854F1CF0895CF9343
:1048D000DF9390916F00292F227091FF05C0909176
:1048E0006F009D7F90936F0094E0899FA001112439
:1048F000FA01E952FD4F6081718182819381222307
:1049000029F020916F00226020936F00EA01CE54BD
:10491000D24F0E941FDB288139814A815B810E942E
:104920007EDBDF91CF9108959091EB078091EC07AA
:10493000981306C08091C5059091C605892B19F082
:104940000E946854F1CF0C94B757CF93DF939091A6
:104950006F00292F227091FF05C090916F009D7FFD
:1049600090936F0094E0899FA0011124FA01E55211
:10497000F94F6081718182819381222329F02091F6
:104980006F00226020936F00EA01CE54D24F0E9444
:104990001FDB288139814A815B810E947EDBDF91A8
:1049A000CF9108954F925F926F927F928F929F92D4
:1049B000AF92BF92CF92DF92EF92FF920F931F932D
:1049C000CF93DF9300D000D0CDB7DEB78C018091BC
:1049D000C8038823F9F0C80108960E94A0BD698326
:1049E0007A838B839C83AE014F5F5F4FB8016C5F0E
:1049F0007F4FC8010E9424BC9B01AC01F801608577
:104A00007185828593850E948DDFF80160877187AB
:104A100082879387F80180809180A280B38020E014
:104A200030E0A901C501B4010E94EEE187FD74C028
:104A300020E030E048E453E4C501B4010E9418DBF3
:104A400018160CF469C0F801C480D580E680F780A0
:104A500020E030E0A901C701B6010E94EEE187FD28
:104A60005BC020E030E043E453E4C701B6010E949C
:104A700018DB18160CF450C020E030E0A901F80152
:104A800060857185828593850E947EDB2B013C01C8
:104A900020E030E0A901C701B6010E947EDBA5013C
:104AA00094010E948EDFA30192010E948EDF4B01D0
:104AB0005C0120E030E0A9010E94EEE187FD2CC0FE
:104AC00020E030E048E453E4C501B4010E9418DB63
:104AD000181614F1A3019201C701B6010E948EDFDE
:104AE0006B017C0120E030E0A9010E94EEE187FD2E
:104AF00013C020E030E043E453E4C701B6010E9454
:104B000018DB18164CF0F80180829182A282B382E1
:104B1000C482D582E682F7820F900F900F900F909B
:104B2000DF91CF911F910F91FF90EF90DF90CF9089
:104B3000BF90AF909F908F907F906F905F904F90BD
:104B40000895CF9380916F00C82FC27081FF05C078
:104B500080916F008D7F80936F008091EC07809330
:104B6000EB078093EA078093E90784E68093E807E0
:104B70000E9485BD88EE93E09093C6058093C5059D
:104B8000CC2329F080916F00826080936F0081E0D8
:104B90008093DA060E9457240E94AB5B83E193E086
:104BA0000E94D2248CE0E3E1F3E0A2E9B7E00190B7
:104BB0000D928A95E1F7CF910C94309EFF920F935E
:104BC0001F93CF93DF93F82E092F162FEFE4F7E012
:104BD0008491EF012196882321F00E942AA0FE01F2
:104BE000F7CFEF2DF02F8491EF012196882321F04C
:104BF0000E942AA0FE01F7CFEDE4F7E08491EF01D7
:104C00002196882321F00E942AA0FE01F7CF612F70
:104C100070E080E090E00E9494A28AE0DF91CF9162
:104C20001F910F91FF900C942AA04F925F926F9268
:104C30007F928F929F92AF92BF92CF92DF92EF922C
:104C4000FF92CF93DF9320918603309187034091A9
:104C50008803509189036091920770919307809126
:104C60009407909195070E948EDFAB01BC018AE406
:104C700097E00E9434A420918A0330918B034091E5
:104C80008C0350918D0360919607709197078091E6
:104C90009807909199070E948EDFAB01BC0186E4D2
:104CA00097E00E9434A420918E0330918F034091AD
:104CB00090035091910360919A0770919B078091A6
:104CC0009C0790919D070E948EDFAB01BC0182E49E
:104CD00097E00E9434A440919E0750919F076091F5
:104CE000A0077091A1078EE397E00E9434A4809101
:104CF0006F00982F927081FF05C080916F008D7FAB
:104D000080936F004090D7025090D8026090D902F3
:104D10007090DA028090DB029090DC02A090DD02BD
:104D2000B090DE02C090DF02D090E002E090E1029D
:104D3000F090E202992329F080916F0082608093C5
:104D40006F00E4E3F7E08491EF012196882321F0DE
:104D50000E942AA0FE01F7CFC301B2010E9494A2D3
:104D6000E0E3F7E08491EF012196882321F00E948F
:104D70002AA0FE01F7CFC501B4010E9494A2ECE283
:104D8000F7E08491EF012196882321F00E942AA068
:104D9000FE01F7CFC701B6010E9494A28AE0DF911D
:104DA000CF91FF90EF90DF90CF90BF90AF909F900A
:104DB0008F907F906F905F904F900C942AA02F92CD
:104DC0003F924F925F926F927F928F929F92AF929B
:104DD000BF92CF92DF92EF92FF920F931F93CF93E8
:104DE000DF93CDB7DEB762970FB6F894DEBF0FBE84
:104DF000CDBF8091D30383FDA2C183E50E94379F7D
:104E00008C87811106C082E50E94379F882309F4B0
:104E100096C10E94BB9E0E94FAE0683771050CF0B3
:104E20008BC17093D80D6093D70D0E9461460E948C
:104E3000BB9E20E030E040E251E40E94EEE1181613
:104E400014F40E9485A46091D70D7091D80D072E9F
:104E5000000C880B990B0E941FDB20917A05309182
:104E60007B0540917C0550917D050E94EEE118166E
:104E70001CF08EE097E002C08DE197E060E00E94B8
:104E8000C78981E080931C01809162078093C603EB
:104E90001A821B821C821D82188619861A861B861E
:104EA00019821D862CE32E873CE13F8746E4488B20
:104EB000312C212C50E8598B8FEB8A8B812C912C33
:104EC00054016091D70D7091D80D072E000C880BFE
:104ED000990B0E941FDB7B018C019B01AC01632DB0
:104EE000722D89899A890E9418DB882309F442C0AF
:104EF00020917A0530917B0540917C0550917D058C
:104F00009C85B701802F91110CC0912F0E9418DB56
:104F1000881F8827881F89833E2C2F2C098B1A8B8A
:104F200029C0912F0E9418DB87FF1FC080911C01B0
:104F3000882309F404C162960FB6F894DEBF0FBE51
:104F4000CDBFDF91CF911F910F91FF90EF90DF9038
:104F5000CF90BF90AF909F908F907F906F905F9019
:104F60004F903F902F900C9450B03E2C2F2C098BDB
:104F70001A8B19820E9461B96B017C01DC01CB01A3
:104F8000288539854A855B85821B930BA40BB50B5D
:104F9000B7FD3BC0D701C60188519C4FAF4FBF4FF3
:104FA00088879987AA87BB870E942F44EAE0F7E0A9
:104FB00084913F019FEF691A790A882321F00E94AA
:104FC0002AA0F301F5CF81149104A104B104B9F032
:104FD000D501C401805F984DAF4FBF4FBC01CD01DB
:104FE0006C197D098E099F0928EE33E040E050E0FE
:104FF0000E9451DFCA01B9010E9494A203C08FE34D
:105000000E942AA08AE00E942AA00E9468540E945E
:1050100061B96093A8067093A9068093AA0690933D
:10502000AB06A0917A05AE83B0917B05BF8300915A
:105030007C0510917D059D01A801632D722D898944
:105040009A890E948DDF2B013C0120E030E0A9010C
:105050000E94EEE187FF04C077FA709477F87094AD
:1050600081149104A104B10459F420E030E040E837
:105070005FE3C301B2010E9418DB87FF0DC00AC0C5
:1050800020E030E040E450E4C301B2010E94EEE1D0
:10509000181614F44601570129812223A9F18A81A7
:1050A0009B81AC81BD81892B8A2B8B2B61F0D70131
:1050B000C6012A813B814C815D81821B930BA40B2D
:1050C000B50BB7FD21C02E813F81A8016D857E857E
:1050D0008F8598890E948DDF20E030E040EC5FE30F
:1050E0000E9418DB87FD22CFD701C601805A954167
:1050F000AF4FBF4F8A839B83AC83BD839E819D87C7
:10510000AF81AE870F87188B80911C01882309F42B
:105110000DCF81149104A104B10409F4D2CEB0E101
:10512000CB1AB7E2DB0AE108F108C818D908EA0887
:10513000FB08F7FEFBCEC5CE68E770E072CE629644
:105140000FB6F894DEBF0FBECDBFDF91CF911F9198
:105150000F91FF90EF90DF90CF90BF90AF909F9016
:105160008F907F906F905F904F903F902F90089519
:105170002F923F924F925F926F927F928F929F9267
:10518000AF92BF92CF92DF92EF92FF920F931F9355
:10519000CF93DF93CDB7DEB762970FB6F894DEBF3B
:1051A0000FBECDBF8DE690E00E9452A28111BAC120
:1051B0008091D30383FDB6C183E50E94379F8F831F
:1051C000811107C082E50E94379F8983882309F4F3
:1051D00048C00E94BB9E0E94FAE07093DA0D609373
:1051E000D90D80E00E94AD460E94BB9E20E030E0D9
:1051F0004AEA52E40E9418DB18160CF48AC10E9495
:10520000D6A50E9450B06091D90D7091DA0D072E8D
:10521000000C880B990B0E941FDB6B017C018090B6
:10522000760590907705A0907805B0907905A50156
:1052300094010E94EEE118160CF46EC12F81211129
:105240006EC1A5019401C701B6010E94EEE11816D6
:105250000CF462C180EF96E060E00E94C78931E003
:1052600039830E9458A65981552309F45BC181E016
:1052700080931C011B821C821D821E8219861A8645
:105280001B861C861A821D868CE38E879CE19F8775
:10529000A6E4A88B1A8A312CB0E8B9832FEB298BAE
:1052A000812C912C54016091D90D7091DA0D072E4B
:1052B000000C880B990B0E941FDB7B018C019B016A
:1052C000AC016A89732D898199890E9418DB882332
:1052D00009F441C020917605309177054091780519
:1052E000509179058F81B70181110CC0C8010E94CE
:1052F00018DB881F8827881F8A83EA8A3F2C098346
:10530000198B29C0C8010E9418DB87FF1FC080913C
:105310001C01882309F406C162960FB6F894DEBF1B
:105320000FBECDBFDF91CF911F910F91FF90EF90F6
:10533000DF90CF90BF90AF909F908F907F906F90B5
:105340005F904F903F902F900C9450B0EA8A3F2C82
:105350000983198B1A820E9461B96B017C01DC01FF
:10536000CB0129853A854B855C85821B930BA40B69
:10537000B50BB7FD3BC0D701C60188519C4FAF4F5D
:10538000BF4F89879A87AB87BC870E942F44ECEE7A
:10539000F6E084913F019FEF691A790A882321F092
:1053A0000E942AA0F301F5CF81149104A104B10455
:1053B000B9F0D501C401805F984DAF4FBF4FBC011C
:1053C000CD016C197D098E099F0928EE33E040E07C
:1053D00050E00E9451DFCA01B9010E9494A203C0AB
:1053E0008FE30E942AA08AE00E942AA00E946854AB
:1053F0000E9461B96093A8067093A9068093AA06DB
:105400009093AB0620907605A0917705A887009130
:10541000780510917905222D3A2FA8016A89732DFC
:10542000898199890E948DDF2B013C0120E030E0C9
:10543000A9010E94EEE187FF04C077FA709477F823
:10544000709481149104A104B10459F420E030E077
:1054500040E85FE3C301B2010E9418DB87FF0DC083
:105460000AC020E030E040E450E4C301B2010E94F1
:10547000EEE1181614F446015701BA81BB2389F1F5
:105480002B813C814D815E812115310541055105FE
:1054900041F0D701C601821B930BA40BB50BB7FDDE
:1054A00020C0222D3885A8016D857E858F8598893D
:1054B0000E948DDF20E030E040EC5FE30E9418DBCB
:1054C00087FD25CFD701C601805A9541AF4FBF4F09
:1054D0008B839C83AD83BE832D8698859E870F87A3
:1054E000188B80911C01882309F411CF8114910439
:1054F000A104B10409F4D7CEA0E1CA1AA7E2DA0ADE
:10550000E108F108C818D908EA08FB08F7FEFFCE41
:10551000CACE0E9485A477CE8DEF96E09DCE41E065
:1055200049839FCE62960FB6F894DEBF0FBECDBF03
:10553000DF91CF911F910F91FF90EF90DF90CF906F
:10554000BF90AF909F908F907F906F905F904F90A3
:105550003F902F900895CF93DF93E9E6F2E2849194
:10556000EF012196882321F00E942AA0FE01F7CFA7
:10557000EDEDF6E08491EF012196882321F00E9461
:105580002AA0FE01F7CFDF91CF910895CF93DF934B
:10559000EEECF6E08491EF012196882321F00E9441
:1055A0002AA0FE01F7CFDF91CF9108959F92AF928D
:1055B000BF92CF92DF92EF92FF920F931F93CF9300
:1055C000DF9389E5A82E81E0B82E02E517E0C2E955
:1055D000D7E096E8C92E93E0D92E2DECE22E23E0F9
:1055E000F22E912CF50181915F010E94EE9E88239D
:1055F00009F10E94BB9EF7012081211104C0209176
:10560000D103222339F0288139814A815B810E94AC
:105610008EDF0AC0F3E09F1639F0F6012081318158
:10562000428153810E948DDFF80160837183828300
:10563000938309C088819981AA81BB81F801808305
:105640009183A283B38393940C5F1F4F2496F4E05D
:10565000CF0ED11C2FEFE21AF20A84E09812C2CFCB
:1056600086E40E94379F8823C9F00E94BB9E20E0F9
:1056700030E0A9010E94EEE1181684F40E94BB9E5E
:1056800020E030E040E752E40E9488E0609341016E
:105690007093420180934301909344018091D3031E
:1056A00083FD28C08091C908882321F120919E079D
:1056B00030919F074091A0075091A10760915E072C
:1056C00070915F0780916007909161070E948DDF64
:1056D0002091DA083091DB084091DC085091DD0818
:1056E0000E948EDF6093DA087093DB088093DC08F9
:1056F0009093DD08DF91CF911F910F91FF90EF9074
:10570000DF90CF90BF90AF909F9008952F923F92DF
:105710004F925F926F927F929F92AF92BF92CF9281
:10572000DF92EF92FF920F931F93CF93DF93CDB74A
:10573000DEB764970FB6F894DEBF0FBECDBF1A0177
:105740002B01922EF32EC82ED12CF601EE58FA4DD5
:10575000E491AA24A3941E160CF4A12CBB24B394A8
:1057600020E030E0A901C201B1010E94EEE118166B
:105770000CF0B12CCC0CDD1CCC0CDD1CC6018E5603
:10578000984F3C01FC0110821182128213820E9408
:10579000309EF3012082318242825382E090620780
:1057A00020E030E0A901B801892D9F2D0E9418DB6F
:1057B00081110AC0F601E75AFD4D85919591A59199
:1057C000B4918C019A2EFB2EC801A92DBF2D898B77
:1057D0009A8BAB8BBC8B80919A0790919B07A09181
:1057E0009C07B0919D074091960750919707609153
:1057F0009807709199070091920710919307209153
:1058000094073091950709831A832B833C834D833A
:105810005E836F83788789879A87AB87BC871D866D
:105820001E861F86188AAE01475F5F4FBE016B5F01
:105830007F4FCE0101960E941ABECE010D966C01DB
:105840008E010F5E1F4F2EE937E0AE01475F5F4FBD
:10585000BE016B5F7F4F0C970E948A160E945724EF
:10586000AB1459F080915405882319F01092540517
:1058700004C080EC96E00E94389D64960FB6F894C0
:10588000DEBF0FBECDBFDF91CF911F910F91FF9073
:10589000EF90DF90CF90BF90AF909F907F906F90F0
:1058A0005F904F903F902F900895EF92FF921F933B
:1058B000CF93DF9380E7E82E82E0F82E15E0C0E07A
:1058C000D0E020E030E0A901F701EC0FFD1F60817E
:1058D0007181828193810E9418DB81110CC0249612
:1058E000C431D10571F7115084E1E80EF11C11119A
:1058F000E6CF80E001C081E0DF91CF911F91FF9062
:10590000EF900895CF939091C8039817D1F0C82FC6
:105910000E945724C11112C04AE957E066E977E0B6
:1059200082E997E00E941ABE80E08093C803882332
:1059300041F082E997E0CF910C94D2240E94552C3B
:10594000F4CFCF9108958F929F92AF92BF92EF9232
:10595000FF920F931F93CF93DF9300D000D0CDB76A
:10596000DEB7182F8091A8038770873069F48FE421
:105970000E94379F882319F00E94AB9E03C08FE4DA
:105980000E94EE9E8111C2C00E94572480E00E94B6
:10599000822C8091410190914201A0914301B091EC
:1059A00044018093650590936605A0936705B093C5
:1059B000680580913E0190913F019093640580932A
:1059C000630584E690E090933F0180933E0181E07F
:1059D0008093200311111BC088E50E94EE9EF82ED3
:1059E00089E50E94EE9E082F8AE50E94EE9EE82E31
:1059F000F11006C0011109C0811107C0F02E0CC0C2
:105A0000002319F0F02E182F08C010E006C0FF2464
:105A1000F39401E0EE24E39411E00E9420A082E5DB
:105A20000E94379F882361F00E94BB9E4B015C015E
:105A300020E030E0A9010E9418DB882371F106C044
:105A4000812C912C80EAA82E80E4B82E111104C07C
:105A5000F11002C0002391F180925A0790925B07E7
:105A6000A0925C07B0925D07A501940160919A072E
:105A700070919B0780919C0790919D070E9418DB75
:105A800087FF0BC019821A821B821C82BE016F5FC6
:105A90007F4F8AE597E00E94768C111105C00111B5
:105AA00003C0F11006C00AC081E00E94CC99112306
:105AB000C1F380E00E94CC99111102C0EE2019F0D0
:105AC00082E00E94CC990E94309E80911F038093B7
:105AD00020038091650590916605A0916705B091BE
