:100000000C9496170C94C0170C94C0170C94C0173E
:100010000C94C0170C94C0170C94C0170C94C01704
:100020000C94C0170C94C0170C94C0170C94C017F4
:100030000C94C0170C943F410C94C0170C94C0173B
:100040000C94C0170C9473300C94F1CB0C94C01723
:100050000C94C2BC0C94C0170C94C0170C94C0171D
:100060000C94C0170C94C0170C94C0170C94C017B4
:100070000C94C0170C94C0170C94C0170C94C017A4
:100080000C9454420C94C0170C94C0174E414E4926
:100090004E495459494E46CDCCCC3D0AD7233C1746
:1000A000B7D13877CC2B329595E6241FB14F0A0093
:1000B0000020410000C84200401C4620BCBE4CCA83
:1000C0001B0E5AAEC59D741000C90210012C0140D0
:1000D00001220170011801B0010E01F0010401506C
:1000E00002FA00B002F0003003E600D003DC00901A
:1000F00004D2007005C800A006BE000008B400B01D
:1001000009AA00D00BA000600E960060118C0000C0
:1001100015820020197800C01D6E00A0226400B076
:10012000275A00902C500000314600E0343C00106B
:10013000383200903A2800603C1E00A03D14008038
:100140003E0A00203F00004D6F76696E672E2E2E0E
:1001500000454550524F4D206461746173697A6562
:10016000206572726F722E0A00290A00206279746B
:1001700065733B20637263200053657474696E6716
:10018000732053746F726564202800290A0020626E
:10019000797465733B2063726320002073746F72FF
:1001A00065642073657474696E6773207265747218
:1001B0006965766564202800202863616C63756C2E
:1001C0006174656429210A0020213D2000454550C5
:1001D000524F4D20435243206D69736D61746368C3
:1001E000202D202873746F726564292000205369C4
:1001F0007A653A2000496E6465783A2000204D61A6
:10020000726C696E3D563535290A002845455052B5
:100210004F4D3D00454550524F4D207665727369F4
:100220006F6E206D69736D61746368200048617240
:1002300064636F6465642044656661756C74205303
:10024000657474696E6773204C6F616465640A003D
:10025000282300002823000064000000102700006D
:100260000000FA430000FA430000704100004842D9
:1002700048E1A04214AE9F423373C843F6E82443DA
:100280003A0A0020286D6D290020204D3630332099
:10029000002055004C0046696C616D656E74206CE1
:1002A0006F61642F756E6C6F6164206C656E67742E
:1002B00068733A0A0020204D383531205A005A2DF3
:1002C00050726F6265204F6666736574002044004B
:1002D00020490020204D3330312050005049442027
:1002E00073657474696E67733A0A00204600204291
:1002F0000020480020204D3134352053004D6174DA
:10030000657269616C2068656174757020706172D6
:10031000616D65746572733A0A00205A00204A00C4
:100320002020473239205720490020204D343230D8
:100330002053004175746F20426564204C657665DA
:100340006C696E673A0A00205A0020590020204D3F
:10035000323036205800486F6D65206F66667365D1
:10036000743A0A00204500205A0020590020580005
:1003700020540020530020204D32303520510020E1
:10038000453C6D61785F655F6A65726B3E00205821
:100390003C6D61785F785F6A65726B3E20593C6D99
:1003A00061785F795F6A65726B3E205A3C6D617857
:1003B0005F7A5F6A65726B3E00416476616E636569
:1003C000643A20513C6D696E5F7365676D656E744C
:1003D0005F74696D655F75733E20533C6D696E5F38
:1003E00066656564726174653E20543C6D696E5F3C
:1003F00074726176656C5F66656564726174653E92
:100400000020540020520020204D32303420500073
:10041000416363656C65726174696F6E2028756EE7
:100420006974732F7332293A20503C7072696E746C
:100430005F616363656C3E20523C726574726163F8
:10044000745F616363656C3E20543C7472617665D1
:100450006C5F616363656C3E0A00204500205A00B2
:1004600020590020204D3230312058004D617869EC
:100470006D756D20416363656C65726174696F6E43
:100480002028756E6974732F7332293A0A0020454B
:1004900000205A0020590020204D323033205800CF
:1004A0004D6178696D756D2066656564726174650E
:1004B000732028756E6974732F73293A0A002045DA
:1004C00000205A0020590020204D39322058005376
:1004D000746570732070657220756E69743A0A00D5
:1004E00020204D3230302044300A0020204D323060
:1004F000302044002044697361626C65640A0046E0
:10050000696C616D656E742073657474696E677370
:100510003A0020204D3134392043203B20556E696C
:10052000747320696E2043656C736975730A0020CB
:1005300020473231202020203B0054524947474574
:10054000524544006F70656E003A20007A5F6D6915
:100550006E00795F6D696E00785F6D696E0052653F
:10056000706F7274696E6720656E6473746F70204B
:100570007374617475730A0020636F6C642065780E
:1005800074727573696F6E2070726576656E7465CE
:10059000640A0024F4D43050C38E20C2A2401782D3
:1005A0008B7011127A910D816CD90AA861E108C78C
:1005B000586607615143061E4B5D05C145A7041AE5
:1005C000411104093D9803713931034036DB02655E
:1005D000339102D4305402802E1D02632CEE01753B
:1005E0002AC501B028A001102781018F2564012BA5
:1005F000244B01E0223401AC211F018D200D01802C
:100600001FFC00841EED00971DDF00B81CD200E621
:100610001BC600201BBC00641AB200B219A8000A55
:1006200019A0006A189900D117910040178B00B5E6
:1006300016840031167E00B31579003A157300C791
:10064000146F0058146A00EE1366008813630025C7
:10065000135E00C7125B006C12570015125400C1E4
:1006600011510070114F0021114B00D61049008D1F
:100670001047004610440002104200C00F400080A6
:100680000F3E00420F3C00060F3B00CB0E3800939C
:100690000E37005C0E3500270E3400F30D3200C11A
:1006A0000D3100900D3000600D2E00320D2D000533
:1006B0000D2C00D90C2B00AE0C2900850C29005CF8
:1006C0000C2700350C27000E0C2600E80B2400C474
:1006D0000B2400A00B23007D0B23005A0B210039B3
:1006E0000B2100180B2000F80A1F00D90A1E00BBBE
:1006F0000A1E009D0A1D00800A1D00630A1C004797
:100700000A1B002C0A1B00110A1A00F7091A00DD47
:10071000091900C4091900AB091900920917007BD7
:10072000091800630917004C091600360916002045
:100730000916000A091500F5081500E0081400CC98
:10074000081400B8081400A4081400900813007DD1
:100750000812006B081300580812004608120034F3
:10076000081100230811001208110001081100F0FF
:10077000071000E0071000D0071000C0071000B0FD
:10078000070F00A107100091070E0083070F0074E8
:10079000070F0065070E0057070E0049070E003BC4
:1007A000070D002E070E0020070D0013070D000691
:1007B000070D00F9060C00ED060D00E0060C00D454
:1007C000060C00C8060C00BC060C00B0060C00A409
:1007D000060B0099060C008D060B0082060B0077B5
:1007E000060B006C060B0061060A0057060B004C56
:1007F000060A0042060A0038060A002E060A0024ED
:10080000060A001A060A001006090007060A00FD7B
:10081000050900F4050900EB050900E2050900D906
:10082000050900D0050900C7050900BE050900B586
:10083000050800AD050800A50509009C0508009401
:100840000508008C050800840508007C0508007474
:100850000508006C050700650508005D05070056E2
:100860000508004E05070047050700400508003849
:10087000050700310507002A050700230507001CAE
:10088000050600160507000F05070008050600020B
:10089000050700FB040600F5040700EE040600E867
:1008A000040600E2040700DB040600D5040600CFBE
:1008B000040600C9040600C3040600BD040600B710
:1008C000040600B1040500AC040600A6040600A05E
:1008D0000405009B04060095040500900406008AA8
:1008E00004050085040500800406007A04050075EF
:1008F000040500700405006B040500660405006132
:100900000405005C04050057040500520405004D71
:1009100004050048040500430405003E0404003AB1
:1009200004050035040500300404002C04050027EC
:10093000040400230405001E0404001A0404001625
:10094000040500110404000D04040009040500045A
:1009500004040000040400FC030400F8030400F491
:10096000030400F0030400EC030400E8030400E4C3
:10097000030400E0030400DC030400D8030400D4F3
:10098000030400D0030400CC030400C8030300C523
:1009900003030024F404D9201BC40C5C0E9804C487
:1009A000095F0265077101F405F900FB04B3004813
:1009B000048700C10369005803550003034500BEC6
:1009C000023A008402310053022A00290225000461
:1009D000022000E4011C00C8011900AF01170098B3
:1009E0000114008401130071011000610110005115
:1009F000010E0043010D0036010B002B010B0020FE
:100A0000010B00150109000C01090003010800FB9E
:100A1000000800F3000800EB000700E4000600DE19
:100A2000000600D8000600D2000600CC000500C772
:100A3000000500C2000500BD000400B9000400B5B7
:100A4000000400B1000400AD000400A9000400A5EA
:100A5000000300A20003009F0004009B0003009815
:100A60000003009500020093000300900003008D36
:100A70000002008B00030088000200860002008450
:100A8000000300810002007F0002007D0002007B65
:100A90000002007900020077000100760002007475
:100AA00000020072000100710002006F0002006D80
:100AB0000001006C0002006A00010069000200678A
:100AC0000001006600010065000100640002006290
:100AD00000010061000100600001005F0002005D94
:100AE0000001005C0001005B0001005A0001005998
:100AF0000001005800010057000100560001005598
:100B00000001005400010053000000530001005296
:100B100000010051000100500001004F0001004E93
:100B20000000004E0001004D0001004C0001004B90
:100B30000000004B0001004A00010049000100488C
:100B40000000004800010047000100460000004688
:100B50000001004500000045000100440001004381
:100B6000000000430001004200000042000100417B
:100B700000000041000100400001003F0000003F74
:100B80000001003E0000003E0001003D0000003D6D
:100B90000001003C0000003C0000003C0001003B64
:100BA0000000003B0001003A0000003A000100395B
:100BB0000000003900010038000000380000003853
:100BC0000001003700000037000100360000003649
:100BD000000000360001003500000035000000353F
:100BE0000001003400000034000000340001003334
:100BF000000000330000003300010032000000322A
:100C0000000000320001003100000031000000311E
:100C10000001003000000030000000300001002F13
:100C20000000002F0000002F0000002F0001002E08
:100C30000000002E0000002E0001002D0000002DFD
:100C40000000002D0000002D0001002C0000002CF1
:100C50000000002C0000002C0001002B0000002BE5
:100C60000000002B0000002B0001002A0000002AD9
:100C70000000002A0000002A0001002900000029CD
:100C800000000029000000290000002900010028C0
:100C900000000028000000280000002800000028B4
:100CA00000010027000000270000002700000027A7
:100CB000000000270001002600000026000000269A
:100CC000000000260000002600010025000000258D
:100CD0000000002500000025000000250000002580
:100CE0000001002400000024000000240000002473
:100CF0000000002400010023000000230000002366
:100D00000000002300000023000000230000002357
:100D1000000100220000002200000022000000224A
:100D2000000000220000002200010021000000213C
:100D3000000000210000002100000021000000212F
:100D40000000002100010020000000200000002021
:100D50000000002000000020000000200000002013
:100D6000000000200001001F0000001F0000001F05
:100D70000000001F0000001F0000001F0000001FF7
:100D80000001001E0000001E0000001E0000001EEA
:100D9000000000043700001E290000511B0000580D
:100DA00010000010090000CC04000078020000418F
:100DB00001000005FFFFFFFFFF00010101010162CB
:100DC00065640A002C2073797374656D2073746FE9
:100DD0007070656421204865617465725F49443AAA
:100DE00020004265642068656174696E67206661F1
:100DF000696C65640048656174696E672066616945
:100E00006C65640045312048656174696E672066D1
:100E100061696C65640048656174696E672066612C
:100E2000696C65640070012C0190012701B00122FA
:100E300001C0011D01F00118011002130130020E62
:100E4000016002090190020401C002FF000003FAE0
:100E5000004003F5008003F000D003EB002004E61F
:100E6000007004E100E004DC004005D700C005D2BA
:100E7000004006CD00D006C8008007C3003008BE81
:100E800000F008B900C009B400B00AAF00B00BAA66
:100E900000D00CA500000EA000500F9B00C01096C3
:100EA000005012910000148C00C0158700B017820A
:100EB00000B0197D00D01B7800001E730040206E2A
:100EC0000090226900F024640040275F0090295AB6
:100ED00000E02B5500102E500020304B0010324601
:100EE00000E033410090353C001037370070383255
:100EF00000A0392D00B03A2800A03B2300603C1E22
:100F000000103D1900903D1400103E0F00703E0A85
:100F100000C03E0500003F0000403FFBFF803FF661
:100F2000FFC03FF1FF453120544845524D414C2010
:100F300052554E415741590042454420544845526C
:100F40004D414C2052554E415741590054686572ED
:100F50006D616C2052756E61776179004531204575
:100F600072723A204D415854454D50004572723AC4
:100F7000204D415854454D5020424544004D415864
:100F800054454D5020747269676765726564004509
:100F900031204572723A204D494E54454D5000451E
:100FA00072723A204D494E54454D502042454400FE
:100FB0004D494E54454D502074726967676572659E
:100FC00064004D383420582059205A204500202FE5
:100FD000002042403A0020403A0025753A25303240
:100FE0007500253032753A2530327500257564203C
:100FF000253032753A2530327500202020202020FF
:10100000005A00590020202020005800092000002C
:1010100000000000000000000000003FFFF00000A2
:101020000000000000000000000038007000000018
:1010300000000000000000000030FC300000000054
:10104000000000000000000020FC10000000000074
:1010500000000000000000207810000000000000E8
:101060000000000000002030100000000000000020
:1010700000000000002C00D03FC000000000000075
:10108000002082002E31D07FE00000000000000030
:101090001041002F7BD07FE0000000000000001016
:1010A00041002F7BD07FE000000000000000208284
:1010B000002E31D03FC000000000000000410400BD
:1010C0002C00D03FC000000000000000820800207B
:1010D00030107FE00000000000000082080020784F
:1010E000107FE00000000000000041040020FC1020
:1010F0007FE00000000000000020820030FC301F74
:1011000080000000000000000000003800700F00A8
:1011100000000000000000FFFFC03FFFF0060000DD
:10112000000000000000FFFFC00000000000000001
:1011300000000000000000003FFFF0000000000081
:1011400000000000000000380070000000000000F7
:1011500000000000000031863000000000000000A8
:1011600000000000002387100000000000000000C5
:101170000000000027879000000000000000000031
:101180000000002F87D000000000000000000000D9
:1011900000002F03D03FC0000000000000002082AC
:1011A000002030107FE0000000000000001041002F
:1011B0002078107FE00000000000000010410020B7
:1011C00078107FE000000000000000208200203046
:1011D000103FC0000000000000004104002F03D0B9
:1011E0003FC0000000000000008208002F87D07F71
:1011F000E0000000000000008208002787907FE0E8
:10120000000000000000004104002387107FE00080
:101210000000000000002082003186301F800000A6
:1012200000000000000000003800700F0000000007
:1012300000000000FFFFC03FFFF0060000000000BC
:10124000000000FFFFC00000003344205072696EB0
:101250007465722052656164792E005072696E74F3
:10126000696E672E2E2E005072696E742070617543
:10127000736564004D37303220542564004D36309C
:101280003020423020542564004D373032203B2539
:1012900064004D3730312054256400556E6C6F6109
:1012A000642066696C616D656E7400556E6C6F616B
:1012B000642066696C616D656E74004D3730320074
:1012C0004D373031004C6F61642066696C616D652B
:1012D0006E74004D363030204230004368616E67D6
:1012E000652066696C616D656E7400507265706131
:1012F0007265005052494E542050415553454400A8
:10130000554E4C4F41442046494C414D454E5400AA
:101310004C4F41442046494C414D454E5400507578
:10132000726765206D6F726500436F6E74696E75CC
:101330006500524553554D45204F5054494F4E532B
:101340003A0020204E6F7A7A6C653A20006368611B
:101350006E6765006F66207468652066696C616DF4
:10136000656E74005761697420666F7220737461D2
:1013700072740020204E6F7A7A6C653A200020004B
:1013800066696C616D656E7420756E6C6F6164006A
:101390005761697420666F720020204E6F7A7A6CF4
:1013A000653A20002000506C6561736520776169A3
:1013B000742E2E2E0048656174696E67206E6F7AF8
:1013C0007A6C650020204E6F7A7A6C653A20002096
:1013D0000068656174206E6F7A7A6C652E005072B9
:1013E00065737320627574746F6E20746F002020B3
:1013F0004E6F7A7A6C653A2000746F20636F6E745A
:10140000696E75652E2E2E00616E64207072657394
:101410007320627574746F6E00496E736572742008
:1014200066696C616D656E740020204E6F7A7A6C0F
:10143000653A2000200066696C616D656E74206CF1
:101440006F6164005761697420666F720020204EDE
:101450006F7A7A6C653A2000200066696C616D6570
:101460006E74207075726765005761697420666FCD
:101470007200746F20726573756D650057616974D1
:1014800020666F72207072696E740053746F7720DB
:10149000424C546F756368004D3238302050302014
:1014A000533930004465706C6F7920424C546F752D
:1014B0006368004D323830205030205331300042C4
:1014C0004C546F7563682053656C662D5465737456
:1014D000004D3238302050302053313230005265C8
:1014E00073657420424C546F756368004D32383018
:1014F0002050302053313630004D61696E005072FB
:10150000696E742061626F72746564004D323100DF
:101510004E6F2053442063617264004368616E67BC
:10152000652053442063617264004D323100507273
:10153000696E742066726F6D2053440053746F702F
:10154000207072696E7400526573756D65207072DB
:10155000696E74005061757365207072696E7400F5
:10156000496E69742E205344206361726400556E85
:101570006C6F61642066696C616D656E74004C6FA0
:1015800061642066696C616D656E74004368616EAC
:1015900067652066696C616D656E7400446973618E
:1015A000626C65207374657070657273004D3834B9
:1015B00000436F6F6C646F776E00436F6E74726F71
:1015C0006C00507265706172650054756E650049FB
:1015D0006E666F2073637265656E0050726F626530
:1015E000205A204F6666736574004368616E6765B4
:1015F0002066696C616D656E740050726F62652063
:101600005A204F666673657400466C6F7700466CAF
:101610006F770046616E2073706565640046616E89
:101620002073706565640042656400426564004E25
:101630006F7A7A6C65004E6F7A7A6C6500537065CC
:101640006564005370656564004D61696E00507299
:10165000656865617420504C412042656400507299
:10166000656865617420504C4120456E640050727D
:10167000656865617420504C4100507265706172FC
:10168000650050726568656174204142532042656F
:101690006400507265686561742041425320456E54
:1016A0006400507265686561742041425300507255
:1016B000657061726500507265686561742050459F
:1016C000544720456E64005072656865617420500F
:1016D0004554470050726568656174205045544711
:1016E00020426564005072657061726500526573D6
:1016F000657420424C546F756368004D3238302059
:101700005030205331363000424C546F756368209E
:1017100053656C662D54657374004D32383020501B
:10172000302053313230005072656865617420504A
:10173000455447005072656865617420414253000A
:101740005072656865617420504C4100486F6D654A
:10175000205A00473238205A00486F6D65205900E2
:10176000473238205900486F6D652058004732389D
:101770002058004175746F20686F6D6500473238DE
:10178000004D6F76652061786973004D61696E0068
:10179000434F4D4D554E49434154494F4E004452DD
:1017A0005952554E004552524F525300494E464FE2
:1017B000004543484F00656E7175657565696E67D4
:1017C0002022004B494C4C45442E200053544F508E
:1017D0005045442E20005072696E746572207374F7
:1017E0006F707065642064756520746F2065727217
:1017F0006F72732E20466978207468652065727256
:101800006F7220616E6420757365204D39393920FF
:10181000746F20726573746172742E202854656D24
:101820007065726174757265206973207265736585
:10183000742E20536574206974206166746572206B
:1018400072657374617274696E67290A004E6F2045
:10185000436865636B73756D2077697468206C6984
:101860006E65206E756D6265722C204C61737420FC
:101870004C696E653A20004E6F20436865636B7358
:10188000756D2077697468206C696E65206E756D62
:101890006265722C204C617374204C696E653A202D
:1018A00000636865636B73756D206D69736D61743A
:1018B00063682C204C617374204C696E653A20007B
:1018C0004C696E65204E756D626572206973206E7D
:1018D0006F74204C617374204C696E65204E756D79
:1018E0006265722B312C204C617374204C696E65DB
:1018F0003A20004D313130004D33310053442072D5
:10190000656164206572726F720A00446F6E6520B3
:101910007072696E74696E672066696C650A002072
:10192000496E76616C69642065787472756465725D
:101930002000000000000000000000000000000087
:101940004843000043430000204342696C696E65D0
:101950006172204C6576656C696E672047726964B8
:101960003A0A00486F6D696E67206661696C65644C
:1019700000202844525952554E29004732392041FF
:1019800075746F20426564204C6576656C696E677E
:10199000003F20284C2C522C462C4229206F757475
:1019A000206F6620626F756E64732E0A003F2856A2
:1019B000296572626F7365206C6576656C2069734A
:1019C00020696D706C61757369626C652028302DBB
:1019D00034292E0A00426164205A2076616C7565B4
:1019E0000A004E6F2062696C696E656172206772D1
:1019F00069640A00486F74656E6420746F6F2063B9
:101A00006F6C640A0044656C6574696F6E20666172
:101A1000696C65642C2046696C653A200046696CE7
:101A2000652064656C657465643A0050726F746516
:101A3000637465642050696E0A0020573A0045209F
:101A4000436F6F6C696E672E2E2E004520486561CE
:101A500074696E672E2E2E0020573A00426564206E
:101A6000636F6F6C696E672E2E2E0042656420686E
:101A7000656174696E672E2E2E00205A3A00205937
:101A80003A0020436F756E7420583A0020453A00A2
:101A9000205A3A0020593A00583A003A00436170FF
:101AA0003A00205A00205900580020204D61783A11
:101AB0002000205A00205900580020204D696E3A1D
:101AC00020004F6E20004F666600536F66742065DD
:101AD0006E6473746F70733A200023646566696E78
:101AE000652044454641554C545F4B6420002364B7
:101AF0006566696E652044454641554C545F4B69A7
:101B0000200023646566696E652044454641554C56
:101B1000545F4B702000504944204175746F7475B8
:101B20006E652066696E69736865642120507574FE
:101B300020746865206C617374204B702C204B6995
:101B400020616E64204B6420636F6E7374616E74E9
:101B5000732066726F6D2062656C6F7720696E749A
:101B60006F20436F6E66696775726174696F6E2E60
:101B7000680A00504944204175746F74756E652081
:101B80006661696C6564212074696D656F75740A9E
:101B900000453120544845524D414C2052554E414C
:101BA00057415900546865726D616C2052756E61C1
:101BB0007761790045312048656174696E672066F8
:101BC00061696C65640048656174696E672066616F
:101BD000696C656400504944204175746F74756E7A
:101BE00065206661696C6564212054656D7065725D
:101BF000617475726520746F6F20686967680A0088
:101C0000204B643A2000204B693A2000204B703A68
:101C100020000A20436C617373696320504944209B
:101C20000A002054753A2000204B753A2000206DA0
:101C300061783A2000206D696E3A200020643A20D5
:101C40000020626961733A20005049442041757454
:101C50006F74756E652073746172740A0050494424
:101C6000204175746F74756E65206661696C65647A
:101C70002120426164206578747275646572206EFB
:101C8000756D6265720A00426564204C6576656C0C
:101C9000696E6720004661696C656420746F206519
:101CA0006E61626C6520426564204C6576656C6986
:101CB0006E670A004F666673657473206170706C9E
:101CC000696564004572723A20546F6F20666172D4
:101CD0002100546F6F206661722066726F6D2072F2
:101CE00065666572656E636520706F696E740A0063
:101CF0004D3630303A20546F6F20636F6C6400486B
:101D00006F74656E6420746F6F20636F6C640A007B
:101D1000496E736572742066696C616D656E7420BE
:101D2000616E6420707265737320627574746F6E77
:101D30000A00507265737320627574746F6E20743C
:101D40006F2068656174206E6F7A7A6C650A00494D
:101D50006E736572742066696C616D656E74206166
:101D60006E6420707265737320627574746F6E2078
:101D7000286F72204D313038290A00536C65657028
:101D80002E2E2E00486F6D6520585920666972739B
:101D9000740A00486F6D6520585920666972737423
:101DA00000205A3A200020593A2000426564205809
:101DB0003A20004D65736820706F696E742063610E
:101DC0006E6E6F74206265207265736F6C766564E9
:101DD0000A00436C69636B20746F20726573756DC4
:101DE000652E2E2E004E6F206D6F76652E00456E8F
:101DF000642066696C65206C6973740A00426567CB
:101E0000696E2066696C65206C6973740A00286EBF
:101E10006F2066696C65290043757272656E742067
:101E200066696C653A20005344207072696E74696B
:101E30006E67206279746520004E6F7420534420D1
:101E40007072696E74696E670A002569730025698E
:101E50006D20256973002569682025696D20256935
:101E60007300256964202569682025696D2025692E
:101E70007300256979202569642025696820256912
:101E80006D20256973005072696E742074696D65E8
:101E90003A20006F666600B117AC17A5179E179021
:101EA0001744454255473A004B494C4C45442E2077
:101EB000004D3131332053006F6B0033442050729A
:101EC000696E746572204F66662E002C20002C20EF
:101ED00000544845524D414C5F50524F5445435475
:101EE000494F4E004155544F5245504F52545F5345
:101EF000445F53544154555300454D455247454E58
:101F000043595F50415253455200434153455F4C42
:101F1000494748545F4252494748544E455353003D
:101F2000544F47474C455F4C494748545300534F23
:101F30004654574152455F504F574552004255490C
:101F40004C445F50455243454E54004C4556454C19
:101F5000494E475F44415441005A5F50524F4245F9
:101F6000004155544F4C4556454C005052494E5433
:101F70005F4A4F420050524F47524553530041551C
:101F8000544F5245504F52545F54454D5000564F98
:101F90004C554D455452494300454550524F4D0014
:101FA00053455249414C5F584F4E5F584F4646008B
:101FB0004649524D574152455F4E414D453A4D615C
:101FC000726C696E20312E312E3920284769746871
:101FD00075622920534F555243455F434F44455F37
:101FE00055524C3A68747470733A2F2F676974684D
:101FF00075622E636F6D2F4D61726C696E466972EA
:102000006D776172652F4D61726C696E2050524F11
:10201000544F434F4C5F56455253494F4E3A312E21
:1020200030204D414348494E455F545950453A335D
:1020300044205072696E746572204558545255445C
:1020400045525F434F554E543A3120555549443A15
:1020500063656465326132662D343161322D343707
:1020600034382D396231322D63353563363266337B
:10207000363766660A002F2F20004D313435205345
:102080003C696E6465783E206F7574206F662072BF
:10209000616E67652028302D31290A002054002008
:1020A0005200416363656C65726174696F6E3A20BA
:1020B00050005741524E494E4721204C6F77205ACD
:1020C000204A65726B206D6179206C6561642074B3
:1020D0006F20756E77616E746564207061757365CD
:1020E000732E0A0020466C6F773A200000010F150E
:1020F0000E12FFFFFFFF16170E13FFFFFFFF030275
:102100001A14FFFFFFFFFFFFFF0C04FFFFFF01009A
:102110000EFFFFFF0C190D05183A200020536572C1
:10212000766F2000206F7574206F662072616E6775
:10213000650A00536572766F200050726F626520E9
:102140005A204F66667365743A2000496E76616C5A
:1021500069642065787472756465720A0020643A57
:102160000020693A0020703A0043290A0061626C3D
:10217000656420286D696E2074656D702000436F62
:102180006C64206578747275646573206172652073
:10219000004E6F2063617365206C696768740A0084
:1021A0004D65736820706F696E742063616E6E6F29
:1021B00074206265207265736F6C7665640A004DE9
:1021C00034323120696E636F72726563742070619E
:1021D00072616D657465722075736167650A00458B
:1021E0004550524F4D204F4B0A003F5A206F757497
:1021F000206F662072616E676520282D3230207452
:102200006F203230290A003A200050726F62652038
:102210005A204F6666736574004163746976652061
:1022200045787472756465723A2000496E76616C07
:1022300069642065787472756465720A005265730A
:10224000656E643A20006F6B0020636F6C642065DC
:102250007874727573696F6E2070726576656E74CE
:1022600065640A00627573793A20706175736564FC
:1022700020666F7220696E7075740A0062757379DA
:102280003A2070617573656420666F72207573659E
:10229000720A00627573793A2070726F63657373A6
:1022A000696E670A004B494C4C45442E20004B494F
:1022B0004C4C2063617573656420627920746F6F84
:1022C000206D75636820696E61637469766520743A
:1022D000696D65202D2063757272656E7420636F61
:1022E0006D6D616E643A2000506C6561736520729B
:1022F00065736574005052494E5445522048414C14
:10230000544544005072696E7465722068616C7443
:1023100065642E206B696C6C28292063616C6C6588
:1023200064210A000000000000000000000000001E
:1023300000002042000020420000E04000000000B9
:102340005761726E696E673A20486F6D696E6720DB
:1023500042756D702044697669736F72203C20313C
:102360000A000303050000A0400000A04000000098
:1023700040000048430000434300002043FFFFFFAC
:102380007C3C3E5E2B3D3F2F5B5D3B2C2A225C005C
:102390004572726F722077726974696E6720746F0C
:1023A00020454550524F4D210A004D6F766520580B
:1023B000004D6F76652059004D6F7665205A0045B7
:1023C00078747275646572004D6F766520302E31B9
:1023D0006D6D004D6F766520316D6D004D6F7665CA
:1023E0002031306D6D004D6F766520617869730026
:1023F0004578747275646572004D6F7665205A0079
:102400004D6F76652059004D6F76652058004578F0
:10241000747275646572004D6F7665205A004D6F59
:1024200076652059004D6F766520580050726570B2
:10243000617265004C6F61642073657474696E67C6
:102440007300526573746F7265206661696C7361A5
:1024500066650053746F72652073657474696E6786
:102460007300424C546F7563680046696C616D651A
:102470006E74004D6F74696F6E0054656D70657297
:102480006174757265004D61696E005049442D4458
:10249000005049442D44005049442D4900504944BE
:1024A0002D49005049442D50005049442D500046BC
:1024B000616E2073706565640046616E207370659F
:1024C00065640042656400426564004E6F7A7A6C10
:1024D00065004E6F7A7A6C6500436F6E74726F6C34
:1024E0000050726F6265205A204F666673657400F3
:1024F000436F6E74726F6C004C6F6164206D6D0081
:102500004C6F6164206D6D00556E6C6F6164206D61
:102510006D00556E6C6F6164206D6D0046696C2EA8
:10252000204469612E0046696C2E204469612E00AA
:102530004F6666004F6E20004520696E206D6D333A
:1025400000436F6E74726F6C0043616E6E6F742027
:10255000656E746572207375626469723A20000258
:102560002E2E000152656672657368004D61696EBA
:102570000000002100240027002A0000002200257E
:102580000028002B00000020002300260029000264
:10259000020202020202020404040404040404030A
:1025A000030303030303030101010101010101010D
:1025B000020408102040800102040810204080011D
:1025C000020408102040808040201008040201000E
:1025D0000000010200090A000000000403080700CF
:1025E00000000000000000000000000000000020CB
:1025F00020506C616E6E65724275666665724279D6
:102600007465733A20002046726565204D656D6FD4
:1026100072793A2000312E312E390A004D61726CE8
:10262000696E0020536F667477617265205265731E
:1026300065740A00205761746368646F672052658F
:102640007365740A002042726F776E206F75742074
:1026500052657365740A002045787465726E616C0A
:102660002052657365740A00506F77657255700A61
:102670000073746172740A006175746F25692E6746
:10268000006572726F722077726974696E67207468
:102690006F2066696C650A00456E6473746F7073B1
:1026A00020256320256320256320256300205A3AD6
:1026B0000020593A0020583A00656E6473746F70B8
:1026C00073206869743A2000446F6E6520736176E8
:1026D000696E672066696C652E0A004D32390043C9
:1026E00068616E67652066696C616D656E74005522
:1026F0006E6C6F61642066696C616D656E74004C10
:102700006F61642066696C616D656E7400507265FE
:102710006865617420504554470050726568656172
:102720007420414253005072656865617420504CBA
:1027300041004368616E67652066696C616D656E16
:1027400074004D3234004D323320257300556E6BCA
:102750006E6F776E20636F6D6D616E643A2022003C
:10276000496E736572742066696C616D656E742064
:10277000616E6420707265737320627574746F6E1D
:1027800020286F72204D313038290A0050726F6254
:10279000696E67206661696C65640A0050726F62D9
:1027A000696E67206661696C656400205A3A200092
:1027B00020593A200042656420583A200053544F73
:1027C000505045442E20005072696E74657220731B
:1027D000746F707065642064756520746F20657215
:1027E000726F72732E204669782074686520657256
:1027F000726F7220616E6420757365204D393939AE
:1028000020746F20726573746172742E2028546571
:102810006D7065726174757265206973207265737D
:1028200065742E2053657420697420616674657226
:102830002072657374617274696E67290A0053545B
:102840004F502063616C6C656420626563617573D1
:1028500065206F6620424C546F7563682065727204
:102860006F72202D207265737461727420776974A1
:1028700068204D3939390A0053442063617264205D
:102880006F6B0A006F70656E526F6F7420666169BE
:102890006C65640A00766F6C756D652E696E69747F
:1028A000206661696C65640A00534420696E69742E
:1028B000206661696C0A00486F6D65202573257379
:1028C0002573206669727374002066697273740AD6
:1028D000005A0059005800486F6D65200057726912
:1028E00074696E6720746F2066696C653A20006FAA
:1028F00070656E206661696C65642C2046696C6544
:102900003A20006F70656E206661696C65642C20EA
:1029100046696C653A200046696C652073656C6594
:10292000637465640A002053697A653A2000466939
:102930006C65206F70656E65643A20002066696C76
:10294000653A2000646F696E67006672657368009F
:102950004E6F772000454E4420535542524F5554F8
:10296000494E450A002220706F7300222070617268
:10297000656E743A2200535542524F5554494E45A4
:102980002043414C4C207461726765743A22004BBD
:10299000494C4C45442E2000747279696E6720744E
:1029A0006F2063616C6C207375622D67636F646563
:1029B0002066696C6573207769746820746F6F2076
:1029C0006D616E79206C6576656C732E204D415873
:1029D000206C6576656C2069733A004572726F727F
:1029E0003A006F70656E206661696C65642C2046E4
:1029F000696C653A200043616E6E6F74206F70657C
:102A00006E2073756264697220006563686F3A00B6
:102A100000060900FE0701920321207FFF07FF0740
:102A2000FF0000000600000107070602008080800A
:102A300080800080030202060105A0A005070706AA
:102A400000005050F850F8505005070706000020CD
:102A500078A07028F020050707060000C0C81020E5
:102A60004098180507070600006090A040A89068ED
:102A7000020303060104C04080030707060100208B
:102A8000408080804020030707060100804020200E
:102A900020408005050506000120A870A820050536
:102AA000050600012020F820200203030602FFC0D3
:102AB0004080050101060003F8020202060200C080
:102AC000C00505050600010810204080050707061F
:102AD0000000708888888888700307070601004016
:102AE000C040404040E005070706000070880870BD
:102AF0008080F8050707060000F81020100808F08D
:102B000005070706000010305090F8101005070761
:102B1000060000F880F00808887005070706000026
:102B2000708080F0888870050707060000F808109C
:102B300020202020050707060000708888708888FC
:102B4000700507070600007088887808087002057D
:102B500005060200C0C000C0C00206060602FFC093
:102B6000C000C040800407070600001020408040DD
:102B70002010050303060002F800F8040707060109
:102B80000080402010204080050707060000708864
:102B9000081020002005070706000070880868A8B4
:102BA000A870050707060000708888F888888805DF
:102BB0000707060000F08888F08888F005070706F8
:102BC000000070888080808870050707060000F08C
:102BD0008888888888F0050707060000F88080F05C
:102BE0008080F8050707060000F88080F08080806C
:102BF000050707060000708880B8888870050707F9
:102C0000060000888888F88888880107070602007F
:102C100080808080808080050707060000381010C3
:102C2000101090600507070600008890A0C0A090D3
:102C300088050707060000808080808080F80507EF
:102C40000706000088D8A888888888050707060036
:102C5000008888C8A898888805070706000070883B
:102C60008888888870050707060000F08888F0804B
:102C7000808005070706000070888888A89068058E
:102C80000707060000F08888F0A09088050707066F
:102C90000000788080700808F0050707060000F83B
:102CA000202020202020050707060000888888882B
:102CB0008888700507070600008888888888502063
:102CC0000507070600008888888888A85005070738
:102CD00006000088885020508888050707060000F5
:102CE00088888850202020050707060000F8081073
:102CF000204080F8030707060100E0808080808084
:102D0000E0050505060001804020100803070706BE
:102D10000100E02020202020E0050303060004201D
:102D20005088050101060000F80202020602058033
:102D30004005050506000070087888780507070635
:102D400000008080B0C88888F00505050600007086
:102D50008080887005070706000008086898888842
:102D6000780505050600007088F8807005070706DD
:102D700000003048E0404040400506060600FF7075
:102D800088887808700507070600008080B0C8882A
:102D90008888010707060200800080808080800309
:102DA00008080601FF200020202020A0400407077B
:102DB000060000808090A0C0A090030707060100D5
:102DC000C04040404040E0050505060000D0A8A8EE
:102DD000A8A8050505060000B0C88888880505056F
:102DE00006000070888888700506060600FFF088D7
:102DF00088F080800506060600FF78888878080835
:102E0000050505060000B0C88080800505050600A0
:102E10000070807008F00407070600004040E040A2
:102E2000404030050505060000888888986805053B
:102E300005060000888888502005050506000088E2
:102E400088A8A85005050506000088502050880570
:102E500006060600FF8888887808700505050600C4
:102E600000F8102040F803070706010020404080CA
:102E7000404020010707060200808080808080801B
:102E80000307070601008040402040408005020201
:102E9000060002689000000006000000060900FE1F
:102EA000000000000001090008FE000005080806F7
:102EB000000040F0C88888987810050808060000CF
:102EC000C0F88888888888F8050505060001203044
:102ED000F830200508080600002070F82020202087
:102EE000E00509090600FF2070A8A8B888887020AE
:102EF0000509090600FFE080C0B0A8283028280591
:102F000009090600FFF8A88888888888A8F8050AB3
:102F10000A0600FE205050505088A8A8887003036D
:102F20000306000340A040007FECAAEA11241FBE64
:102F3000CFEFD0E4DEBFCDBF12E0A0E0B1E0E8E328
:102F4000FAEF01E00BBF02C007900D92AE34B1075B
:102F5000D9F723E1AEE4B2E001C01D92A03BB20775
:102F6000E1F717E1C5E9D7E104C02197FE010E940E
:102F700080FCC439D107C9F70E947FED0C940FFD86
:102F80000C9400006091120170911301072E000C47
:102F9000880B990B0E94EEF52AE037ED43E25CE3E3
:102FA0000E944DF62091AE073091AF074091B007D7
:102FB0005091B1070E944DF660930E0170930F017E
:102FC0008093100190931101089580915B0C8130E2
:102FD00041F0823019F480E093E1089583EF92E1AB
:102FE000089580E193E108955B9887FD54C040986F
:102FF0000000000091E09A950000E9F75B9A5B9869
:1030000086FD55C040980000000091E09A950000B0
:10301000E9F75B9A5B9885FD48C040980000000086
:1030200091E09A950000E9F75B9A5B9884FD3BC0BC
:1030300040980000000091E09A950000E9F75B9A43
:103040005B9883FD2EC040980000000091E09A95A7
:103050000000E9F75B9A5B9882FD21C04098000070
:10306000000091E09A950000E9F75B9A5B9881FD7A
:1030700014C040980000000081E0982F9A9500004D
:10308000E9F75B9A5B984098000000008A95000081
:10309000E9F75B9A0895409AABCF409AEBCF409AFC
:1030A000DECF409AD1CF409AC4CF409AB7CF409A52
:1030B000AACF90916F00292F227091FF05C09091A7
:1030C0006F009D7F90936F0034E0839FC0011124B7
:1030D000FC01E956F14F4081518162817381885E24
:1030E000974FFC01408351836283738381E0809317
:1030F0009207222329F080916F00826080936F00F5
:103100000895BC01209116083091170840911608C7
:10311000509117082417350731F481E02617370737
:1031200009F080E008959A01F1CFCF92DF92EF92FB
:10313000FF928091760A882309F457C0C090720AE2
:10314000D090730AE090740AF090750A20E030E0A5
:10315000A901C701B6010E94E7F5882309F445C01B
:1031600020E030E040E05FE3C701B6010E944DF689
:103170009B01AC010E944DF62BED3FE049E450E489
:103180000E944DF69B01AC0160E070E080E89FE397
:103190000E94C2FA6B017C01C092AE07D092AF07C9
:1031A000E092B007F092B1076091120170911301A3
:1031B000072E000C880B990B0E94EEF52AE037EDE4
:1031C00043E25CE30E944DF6A70196010E944DF692
:1031D00060930E0170930F01809310019093110181
:1031E000FF90EF90DF90CF900895C12CD12C80E814
:1031F000E82E8FE3F82ED0CFCF93DF938091900A03
:10320000811105C08091910A882309F459C08091E9
:10321000C40732994FC081608093C4078091C4076E
:1032200033994AC082608093C4078091C40734995F
:1032300045C08B7F8093C407C0910908C0FF10C0B0
:103240008091CF0780FF0CC08091C40780FF08C029
:1032500080918A0C816080938A0C80E00E945918CA
:10326000C1FF10C08091CF0781FF0CC08091C407BF
:1032700081FF08C080918A0C826080938A0C81E073
:103280000E945918C2FF1CC08091CF0782FF18C04E
:103290008091910A8823A1F08091C40782FF10C019
:1032A00080918A0C846080938A0C82E0DF91CF91B8
:1032B0000C9459188E7FB0CF8D7FB5CF8460BACF74
:1032C000DF91CF9108950C9427CA81E00C941DDF03
:1032D00082E00C941DDF80E00C941DDFFF920F93C1
:1032E0001F93CF93DF93CDB7DEB72B970FB6F8942C
:1032F000DEBF0FBECDBFF82E20912B0C422F022E29
:10330000000C550B80912C0C813091F1823049F1E9
:103310008DE792E15F932F939F938F938E010F5FC1
:103320001F4F1F930F930E947EF50F900F900F90E9
:103330000F900F900F9081E0F816E9F080EF90E089
:1033400090930C0F80930B0F0E9427CA81E080930B
:10335000860AC8010E94B285811110C00E9442896C
:10336000F8CF89E892E127FDD5CF84E792E1D2CF6B
:1033700082E992E1CFCF87ED90E0E2CF1092860A0A
:103380002B960FB6F894DEBF0FBECDBFDF91CF9165
:103390001F910F91FF90089583E00C946E1982E0C5
:1033A0000C946E1981E00C946E199F92AF92BF92AB
:1033B000CF92DF92EF92FF920F931F93CF93DF9301
:1033C0005B01E9014A3009F4C4C0453109F067C026
:1033D000DB011296ED91FC91F280C681D781419A72
:1033E00088E290E00197F1F7EF2CE29420EFE222DF
:1033F00030E1932E9F0C48E2C42ED12C88EF0E941E
:10340000F417C6010197F1F7BFE1BF1508F488C0B2
:103410008F2D807780680E94F4178E2D0E94F417FC
:10342000C6010197F1F780E80E94F41780E00E943E
:10343000F417C6010197F1F78AEF0E94F417C6014D
:103440000197F1F78E01005F1F4F8881807F0E94F6
:10345000F41789918295807F0E94F417C017D107D5
:10346000A1F7C6010197F1F7F394E0E1EE0EF91030
:10347000C5CF4198D50112960D911C91C8010E94AB
:1034800051CC8111FFC1DF91CF911F910F91FF901E
:10349000EF90DF90CF90BF90AF909F900895FB0189
:1034A00002811381ECEEE40FE43308F050C0F0E049
:1034B000E45AF54E0C9480FCEA1B3E1AA71A321C03
:1034C000A71AA71AA71AA71AA71AA71AA71AA71AF4
:1034D000A71AA71AA71AA71AA71AA71AA71AA71AE4
:1034E000A71AA71AA71AA71AA71AA71AA71AA71AD4
:1034F000A71AA71A2C1CA71AA71AA71AA71AA71A3D
:10350000A71AA71AA71AFD1BA71AA71AA71AA71A5C
:10351000A71AA71AA71AA71AA71AA71A4F1CA31AFD
:1035200080EE8F0D8068807F0E94F4178F2D82952A
:10353000807F0E94F417C6010197F1F780E80E948E
:10354000F41780E874CFD80111968C91888381E0BC
:103550009ACF399A4198389A4098539A5B9A419AEF
:1035600088E290E00197F1F788E790E0CEE9DFE0AC
:10357000FE013197F1F70197D9F788EF0E94F41710
:1035800008E210E0C8010197F1F780E20E94F41709
:1035900080E00E94F417C8010197F1F780E00E94D3
:1035A000F41780E80E94F417C8010197F1F780E052
:1035B0000E94F41780E10E94F417C8010197F1F707
:1035C000CE010197F1F7CE010197F1F7CE010197F6
:1035D000F1F7CE010197F1F7CE010197F1F7CE0196
:1035E0000197F1F7CE010197F1F7CE010197F1F7BD
:1035F000CE010197F1F7CE010197F1F7CE010197C6
:10360000F1F7CE010197F1F7CE010197F1F7CE0165
:103610000197F1F72197F1F780E20E94F41780E417
:103620000E94F417C8010197F1F780E20E94F41795
:1036300080E60E94F417C8010197F1F7F12CD0E061
:10364000C1E08D2F807780680E94F4178F2D0E9433
:10365000F417C8010197F1F780E80E94F41780E0A1
:103660000E94F417C8010197F1F78AEF0E94F4173E
:10367000C8010197F1F780E25B98409800000000D4
:103680009C2F9A950000E9F75B9A5B9840980000A0
:1036900000009C2F9A950000E9F75B9A5B98409890
:1036A000000000009C2F9A950000E9F75B9A5B9858
:1036B0004098000000009C2F9A950000E9F75B9A63
:1036C0005B984098000000009C2F9A950000E9F755
:1036D0005B9A5B984098000000009C2F9A95000030
:1036E000E9F75B9A5B984098000000009C2F9A9540
:1036F0000000E9F75B9A5B984098000000009C2F5F
:103700009A950000E9F75B9A5B98409800000000EA
:103710009C2F9A950000E9F75B9A5B98409800000F
:1037200000009C2F9A950000E9F75B9A5B984098FF
:10373000000000009C2F9A950000E9F75B9A5B98C7
:103740004098000000009C2F9A950000E9F75B9AD2
:103750005B984098000000009C2F9A950000E9F7C4
:103760005B9A5B984098000000009C2F9A9500009F
:10377000E9F75B9A5B984098000000009C2F9A95AF
:103780000000E9F75B9A5B984098000000009C2FCE
:103790009A950000E9F75B9AF8013197F1F78150AB
:1037A00009F06ACF88EF0E94F417C8010197F1F77A
:1037B000DF5F80E1F80ED03209F043CF80E00E9455
:1037C000F41780EC0E94F417C8010197F1F74198B3
:1037D00081E059CED80115964C91159750E0440FD1
:1037E000551F70E060E016968D919C910E94A7FC99
:1037F000C8010E9467CC81E046CE89812B81D80127
:1038000012966C91129713964C91213009F467C06F
:10381000233009F048C038EF380F582F91E0431794
:1038200008F490E041E0531708F040E031E056170B
:1038300008F430E0592F542B352319F4942309F45C
:1038400086CEFA8030E0F901E352FE4FD080275255
:103850003E4FF901E08040C0B901C8010E943BCC55
:1038600081E011CE1882D80112968C91129789832B
:1038700015968C91159781508A8313968C918B8322
:1038800081E001CEF801458150E0440F551F70E002
:1038900060E0868197810E94A7FC81E0F4CDF80169
:1038A0008581888354CE481708F451CE861708F4D2
:1038B0004ECEFA80E12CD12C243070F4C3CFBE015F
:1038C000C8010E943BCC898198819D0D98838E0D03
:1038D0008983FF0C09F43BCEF7FEF6CFF0CF58E01A
:1038E000580F382F9BCF3F924F925F926F927F92EB
:1038F0008F929F92AF92BF92CF92DF92EF92FF9200
:103900000F931F93CF93DF93EC01162FDCAC5BACCE
:103910005C0124E0A20EB11CE98DFA8DC501099568
:10392000982EE884F984C7010E941FCE082F88854D
:1039300099850E9422CE782E88248A94013011F431
:103940008FE0882E888599850E9415CE082F88855E
:1039500099850E9411CEC82E888599850E9419CE1E
:10396000113670F0009761F0E80EF91E01E6C116FD
:10397000B8F41C8A1F8A188E1D8A1E8A80E05BC0DC
:10398000888599850E941CCE113430F0009721F073
:10399000E80EF91E01E4EBCF81E1E80EF11CE7CF60
:1039A000C01638F3872D90E0F70124912F3F39F4AA
:1039B000FFEFEF1AFF0AC016E1F20F5FF5CF101309
:1039C00068C0888599850E941FCE97012F5F3F4F61
:1039D000F701882319F0823009F044C084918F8B5D
:1039E000F9012491288FF7013396E491EC8BF701CC
:1039F0003496E491ED8BF7013596E491EE8BE1146A
:103A0000F10409F4BBCF888599850E9422CE782ED7
:103A1000CF88388C8D89580E1D2D13198E89181B4F
:103A2000190D032D2C2D412F652DC5010E942CCE83
:103A3000811138C08C899BAD890F8BAF81E090E0FC
:103A4000DF91CF911F910F91FF90EF90DF90CF907A
:103A5000BF90AF909F908F907F906F905F904F90AE
:103A60003F9008958491982F9F7092509E8B8295DD
:103A70008F708D8BF9012491822F8F70888F229502
:103A80002F702F8BF7013296E491E295EF70EC8B5B
:103A9000B6CF3296E491E821E80FF92FF11DEE0E32
:103AA000FF1E89CFE70CF11C07E00C0D069506956B
:103AB0000695310E4E01F0E28F0E911C602E712C96
:103AC000131509F4B7CF452C670112C0F601849194
:103AD0006E817F8148A219A31BA28AA394014BE3A4
:103AE000C5010E946ECCFFEFCF1ADF0A28E0420E1C
:103AF0008C2D8E19801750F3E60CF71C1F5FE0CF5A
:103B00001F93CF93DF93182FEB01FE018491219631
:103B100081110AC0C9E4D5E0FE0184912196882371
:103B200031F00E940681F8CF0E940681EECFC4E4F6
:103B3000D5E0112311F0CAE3D5E0FE01849121966E
:103B4000882319F00E940681F8CF8AE0DF91CF9197
:103B50001F910C940681CF93DF9385399240A1F099
:103B6000CBEDD9E2FE018491219681110AC0C1E515
:103B7000D1E0FE0184912196882351F00E940681B4
:103B8000F8CF0E940681EECF80E0DF91CF910895BB
:103B900081E0FBCF4F925F926F927F928F929F92C4
:103BA000AF92BF92CF92DF92EF92FF92CF93DF93CB
:103BB000CDB7DEB76A970FB6F894DEBF0FBECDBFA4
:103BC0009A8F898F5B014A01DC01D7966D917D91B7
:103BD0008D919C91DA970E94ECF56B017C01F501C7
:103BE00020813181428153810E944DF60E94ABFABF
:103BF0000E943BFB3B015C01D4012D913D914D9115
:103C00005C91C701B6010E944DF60E94ABFA0E947A
:103C10003BFB6D827E82AF82B8862D813E814F81D3
:103C20005885283731054105510540F428E730E033
:103C300040E050E02D833E834F83588769837A8329
:103C40008B839C8389819A81AB81BC818837910564
:103C5000A105B10540F428E730E040E050E02983B9
:103C60003A834B835C83E98DFA8DED5BFF4F808156
:103C70009181A281B38189879A87AB87BC87BC0178
:103C8000CD010E94EEF52B013C016D817E818F817B
:103C900098850E94ECF5698B7A8B8B8B9C8B20E04E
:103CA00030E0A901C301B2010E94E7F5882309F4BD
:103CB0003BC1A7019601C701B6010E944DF64B0119
:103CC0005C0129893A894B895C89CA01B9010E9442
:103CD0004DF69B01AC01C501B4010E943EFA4B01B7
:103CE0005C01A3019201C301B2010E943FFA9B0152
:103CF000AC01C501B4010E94C2FA0E94ABFA0E9455
:103D00003BFB6D877E878F87988B69857A858B854E
:103D10009C8590958095709561957F4F8F4F9F4FB3
:103D20000E94EEF54B015C0169817A818B819C8157
:103D30000E94ECF569877A878B879C8720E030E0CA
:103D4000A901C501B4010E94E7F5882309F4F0C078
:103D500029853A854B855C85CA01B9010E944DF6DB
:103D60006D8B7E8B8F8B988FA7019601C701B60153
:103D70000E944DF69B01AC016D897E898F89988DDB
:103D80000E943EFA6B017C01A5019401C501B401BA
:103D90000E943FFA9B01AC01C701B6010E94C2FA22
:103DA0000E946AFBA98DBA8D95968D909D90AD90DD
:103DB000BC909897750164012D853E854F85588983
:103DC000C21AD30AE40AF50A0E943BFBC61AD70AB4
:103DD000E80AF90AF7FE6EC020E030E0A901C3014D
:103DE000B2010E94E7F5882309F4A6C0C501B40119
:103DF0000E94ECF56B017C01A3019201C301B201A9
:103E00000E943FFA9B01AC01C701B6010E944DF62A
:103E10006B017C0129893A894B895C89CA01B90106
:103E20000E944DF69B01AC01C701B6010E943EFA0B
:103E30006B017C0129853A854B855C85CA01B901F6
:103E40000E944DF69B01AC01C701B6010E943FFAEA
:103E50006B017C0120E030E040E850E4C301B20196
:103E60000E944DF69B01AC01C701B6010E94C2FA47
:103E70000E94ABFA6B017C0120E030E0A9010E94B6
:103E8000C2FB18161CF0C12CD12C7601C701B6015B
:103E90000E943BFB6D877E878F87988B86169706DF
:103EA000A806B90620F48D869E86AF86B88AC12CF6
:103EB000D12C76018D859E85AF85B889E98DFA8DE7
:103EC00082A793A7A4A7B5A7C80ED91EEA1EFB1EFA
:103ED000DF01C6A6D7A6E0AAF1AA2D813E814F81B7
:103EE000588523AF34AF45AF56AFDF9629813A816D
:103EF0004B815C812D933D934D935C9313976A9610
:103F00000FB6F894DEBF0FBECDBFDF91CF91FF900B
:103F1000EF90DF90CF90BF90AF909F908F907F9069
:103F20006F905F904F90089560E070E0CB01E5CE18
:103F300060E070E0CB0134CF60E070E0CB0198CF5F
:103F4000CF92DF92EF92FF92CF93C82F0E941BCAAD
:103F50006B017C0124EA30E74DE75FE360915A0A88
:103F600070915B0A80915C0A90915D0A0E94E7F56E
:103F700087FD18C08AEF90E0A0E0B0E08C0D9D1D99
:103F8000AE1DBF1D8093770A9093780AA093790A9B
:103F9000B0937A0AC0933E01CF91FF90EF90DF90EB
:103FA000CF90089580E090E0DC01E8CFCF93DF93DD
:103FB00000D000D0CDB7DEB7882349F00E94CAD127
:103FC0000F900F900F900F90DF91CF91089588EB95
:103FD00091E09C838B8384E190E09A838983BE0186
:103FE0006D5F7F4FCE0101960E9464C2E9CF809140
:103FF000A6078230B1F09091C20F992359F08091B9
:10400000D20F811104C085EC9FE00C9498C282ED20
:104010009FE0FBCF813041F089E492E16FEF0C9497
:1040200025D887E692E1FACF8BE592E1F7CF282FEA
:104030001092840A80912D0C90912E0CA0912F0C3F
:10404000B091300C81309048A105B10540F010923C
:104050002D0C10922E0C10922F0C1092300C80917F
:104060007F0A882331F080912D0C8093290C1092C7
:10407000270C8091260C1816FCF4082E000C990BC6
:10408000821B91092091290C022E000C330B28175A
:10409000390794F097FF02C090E080E08093290CEC
:1040A000092E000CAA0BBB0B80932D0C90932E0CA9
:1040B000A0932F0CB093300C8091290C6623A9F0AB
:1040C00090912A0C891714F480932A0C20912A0CC1
:1040D000022E000C330B2C5F3F4F482F082E000C94
:1040E000550B241735071CF4845080932A0C08952F
:1040F000CF93DF9360E085E00E941720D0912A0CD7
:10410000C0E0D1110DC080915801882399F00E9420
:10411000E51721E041E0BC018C2F0E944CDE0AC073
:10412000D13091F48091580120E041E06CE774E1D6
:104130008111F2CFDF5FCF5FC53019F783E0809345
:10414000260CDF91CF910895D230A1F780915801CC
:10415000882381F320E041E062E774E1DDCFDF9264
:10416000EF92FF920F931F93CF93DF9361E081E073
:104170000E941720C0912A0C15E01C0F81E001E07D
:10418000D2E0FD2EFC1AE82EEC1ADC2ED194C111DF
:1041900030C08823D9F08091290C1816BCF04091CA
:1041A0002D0C50912E0C60912F0C7091300C4F5FA4
:1041B0005F4F6F4F7F4F40932D0C50932E0C6093A9
:1041C0002F0C7093300C8F5F8093290C80915801D5
:1041D000882339F020E041E062E373E18D2D0E94F5
:1041E0004CDE80E0CF5F1C13D2CF83E08093260C9F
:1041F00021C0C13039F59091290C913079F080912E
:104200005801882371F381E0913009F080E020E2C9
:1042100049E253E16E2D0E94FAD1E3CF8091280C40
:10422000882369F31092280CD093590C8091270CA5
:10423000882329F3DF91CF911F910F91FF90EF9089
:10424000DF900895C23069F69091290C923069F0A0
:1042500080915801882329F281E0923009F080E0B2
:1042600020E24EE153E16F2DD6CF8091280C8823B8
:1042700079F31092280C0093590C8091270C882315
:1042800039F3D8CF809197088630D8F496E0899F8B
:10429000F0011124ED58F74F20914701309148016A
:1042A0003183208340912D0C50912E0C60912F0C66
:1042B0007091300C42835383648375838F5F809346
:1042C00097080895CF92DF92EF92FF920F931F937A
:1042D000CF93DF93EC016A017B01809147019091BC
:1042E00048018C179D0781F128E3C837D207A9F54B
:1042F0008F53924371F40E941BCA6E517B4F8F4FB4
:104300009F4F60936F08709370088093710890932B
:104310007208D0934801C0934701C0922D0CD092EF
:104320002E0CE0922F0CF092300CCF53D24321F49C
:104330001092580C1092970882E08093580181E007
:104340008093270C1092850ADF91CF911F910F91D6
:10435000FF90EF90DF90CF90089522E3CF33D20704
:10436000C1F68857984319F0CFE3D2E3D2CF0E9429
:104370001BCA00916F08109170082091710830914C
:104380007208601B710B820B930B97FFEDCF80912E
:10439000540F9091550F891B8F7021F48091C20F9B
:1043A000882311F3CCE3DAE2B4CF40E050E0BA0165
:1043B0008FE392E30C94622160935B0C40935A0C60
:1043C0008A3078F5E82F880FFF0BE751FE4D0C94EB
:1043D00080FC1322F3211622FD2100220C2203224D
:1043E00011220622092284EB9DE221E02093580C41
:1043F00040E050E0BA010C94622186E69EE2F5CFDF
:104400008FEB9EE2F2CF88E790E2EFCF88E19FE268
:10441000ECCF81E79FE2E9CF1092590C8FEA90E24E
:10442000E4CF0C94D5218BE59DE2DFCF8DE09EE2B9
:10443000DCCFE0919708EE2389F0E150E0939708F4
:1044400086E0E89FF0011124ED58F74F4281538137
:1044500064817581808191810C9462210C94D521B5
:104460009F92AF92BF92CF92DF92EF92FF920F9303
:104470001F93CF93DF9361E081E00E941720C091EA
:104480002A0CDC2F85E0982E9C0E9AE1C92E97E12C
:10449000D92E19E01C1B08E00C1B87E0F82EFC1A33
:1044A00086E0E82EEC1A85E0B82EBC1A84E0A82E2F
:1044B000AC1AC1113CC08091290C882301F1809174
:1044C0005801882361F06D2F619581E09091290C4E
:1044D000911180E024E04BE857E10E94FAD18091ED
:1044E000910A811190C1349B8EC1CA3009F461C117
:1044F0008BE0CF5F9C12DDCF8093260C0CC08091A7
:10450000280C8823E1F21092280C0E941922809135
:10451000270C8823A1F2DF91CF911F910F91FF907B
:10452000EF90DF90CF90BF90AF909F900895C130F3
:1045300019F58091290C813081F0809158018823F0
:1045400071F261E06D1B81E09091290C913009F0CE
:1045500080E023E041E857E1C0CF8091280C882318
:1045600061F31092280C83ED91EE0E9410DF809190
:10457000270C882311F3CFCFC23009F046C18091B8
:10458000290C823089F080915801882309F4A7CF43
:1045900062E06D1B81E09091290C923009F080E07F
:1045A00020E243E757E199CF8091280C882359F303
:1045B0001092280C8DE797E190933E0C80933D0C70
:1045C0000E94EB858091270C8823E9F2A4CF80918B
:1045D000290C833089F080915801882309F47FCF1A
:1045E00063E06D1B81E09091290C933009F080E02D
:1045F00020E246E657E171CF8091280C882359F3D9
:104600001092280C8DE697E190933E0C80933D0C20
:104610000E94EB858091270C8823E9F27CCF809162
:10462000290C843081F080915801882309F457CFF8
:1046300081E09091290C943009F080E020E249E576
:1046400057E16A2D4ACF8091280C882361F310929C
:10465000280C80E697E190933E0C80933D0C0E94DD
:10466000EB858091270C8823F1F255CF8091290C9E
:10467000853081F080915801882309F430CF81E0A2
:104680009091290C953009F080E020E24CE457E14C
:104690006B2D23CF8091280C882361F31092280C76
:1046A00083E597E190933E0C80933D0C0E94EB854F
:1046B0008091270C8823F1F22ECF8091290C86302F
:1046C00081F080915801882309F409CF81E090910D
:1046D000290C963009F080E023E040E457E16E2D8C
:1046E000FCCE8091280C882361F31092280C8FE275
:1046F00094E20E9410DF8091270C882311F30BCFE6
:104700008091290C873081F080915801882309F429
:10471000E6CE81E09091290C973009F080E023E00B
:1047200044E357E16F2DD9CE8091280C882361F3A3
:104730001092280C8FEF94E20E9410DF8091270CDA
:10474000882311F3E8CE8091290C883081F0809184
:104750005801882309F4C3CE81E09091290C983048
:1047600009F080E023E047E257E1602FB6CE809168
:10477000280C882361F31092280C8FEC95E20E949C
:1047800010DF8091270C882311F3C5CE8091280C6F
:10479000882309F454C01092280CD0923E0CC09289
:1047A0003D0C0E94EB858091270C882309F447C0BB
:1047B000B2CE8091290C8A3099F0809158018823DB
:1047C00009F496CE6AE06D1B81E09091290C9A3035
:1047D00009F080E020E24DEE56E10E94FAD188CE49
:1047E0008091280C882349F31092280C8BEF96E1D6
:1047F00090933E0C80933D0C0E94EB858091270C9A
:104800008823D9F288CE8AE074CEC33009F4DFCE93
:10481000C43009F404CFC53009F428CFC63009F4F8
:104820004CCFC73009F46CCFC83009F48CCFC930F5
:1048300009F055CE8091290C893009F4A7CF8091D9
:104840005801882309F44BCE81E09091290C9930CE
:1048500009F080E020E248E057E1612F3ECEEF9280
:10486000FF920F931F93CF93DF9361E081E00E944B
:104870001720C0912A0C85E0F82EFC0ED3E0DC1B3B
:1048800012E01C1B01E00C1BEC2EE194C1112DC0A9
:104890008091290C8823B1F080915801882359F028
:1048A00081E09091290C911180E024E04AE756E1E3
:1048B0006E2D0E94FAD1CF5FFC12E8CF84E0809386
:1048C000260C0CC08091280C882331F31092280C00
:1048D0000E9419228091270C8823F1F2DF91CF9159
:1048E0001F910F91FF90EF900895C13061F5809175
:1048F000290C813079F0809158018823E1F281E020
:104900009091290C913009F080E020E24EE656E1CA
:10491000602FCFCF8091280C882369F31092280C48
:104920004091BE075091BF076091B8077091B907D9
:104930008091B2079091B3070E9471CA8091270CB1
:104940008823C9F2CBCFC23009F042C08091290C34
:10495000823081F080915801882309F4ACCF81E046
:104960009091290C923009F080E020E24EE556E16A
:10497000612F9FCF8091280C882361F31092280C1F
:104980004091BE075091BF076FEF7FEF8091B20754
:104990009091B3070E9471CA8091270C8823D1F2AD
:1049A0009DCF8091280C8823D1F01092280C409143
:1049B000BE075091BF076091B8077091B90790E0AA
:1049C00080E00E9471CA8091270C882341F086CF35
:1049D000C33009F070CF8091290C833011F380919E
:1049E0005801882309F467CF81E09091290C933016
:1049F00009F080E020E24EE456E16D2F5ACFEF92AD
:104A0000FF920F931F93CF93DF9361E081E00E94A9
:104A10001720C0912A0C85E0F82EFC0ED3E0DC1B99
:104A200012E01C1B01E00C1BEC2EE194C1112DC007
:104A30008091290C8823B1F080915801882359F086
:104A400081E09091290C911180E024E04EEA56E13A
:104A50006E2D0E94FAD1CF5FFC12E8CF84E08093E4
:104A6000260C0CC08091280C882331F31092280C5E
:104A70000E9419228091270C8823F1F2DF91CF91B7
:104A80001F910F91FF90EF900895C13061F58091D3
:104A9000290C813079F0809158018823E1F281E07E
:104AA0009091290C913009F080E020E242EA56E131
:104AB000602FCFCF8091280C882369F31092280CA7
:104AC0004091C0075091C1076091BA077091BB0730
:104AD0008091B4079091B5070E9471CA8091270C0C
:104AE0008823C9F2CBCFC23009F042C08091290C93
:104AF000823081F080915801882309F4ACCF81E0A5
:104B00009091290C923009F080E020E242E956E1D0
:104B1000612F9FCF8091280C882361F31092280C7D
:104B20004091C0075091C1076FEF7FEF8091B407AC
:104B30009091B5070E9471CA8091270C8823D1F209
:104B40009DCF8091280C8823D1F01092280C4091A1
:104B5000C0075091C1076091BA077091BB0790E000
:104B600080E00E9471CA8091270C882341F086CF93
:104B7000C33009F070CF8091290C833011F38091FC
:104B80005801882309F467CF81E09091290C933074
:104B900009F080E020E242E856E16D2F5ACFEF9213
:104BA000FF920F931F93CF93DF9361E081E00E9408
:104BB0001720C0912A0C85E0F82EFC0ED3E0DC1BF8
:104BC00012E01C1B01E00C1BEC2EE194C1112DC066
:104BD0008091290C8823B1F080915801882359F0E5
:104BE00081E09091290C911180E024E045EE56E19E
:104BF0006E2D0E94FAD1CF5FFC12E8CF84E0809343
:104C0000260C0CC08091280C882331F31092280CBC
:104C10000E9419228091270C8823F1F2DF91CF9115
:104C20001F910F91FF90EF900895C13061F5809131
:104C3000290C813079F0809158018823E1F281E0DC
:104C40009091290C913009F080E020E247EC56E188
:104C5000602FCFCF8091280C882369F31092280C05
:104C60004091C2075091C3076091BC077091BD0786
:104C70008091B6079091B7070E9471CA8091270C66
:104C80008823C9F2CBCFC23009F042C08091290CF1
:104C9000823081F080915801882309F4ACCF81E003
:104CA0009091290C923009F080E020E246EB56E129
:104CB000612F9FCF8091280C882361F31092280CDC
:104CC0004091C2075091C3076FEF7FEF8091B60705
:104CD0009091B7070E9471CA8091270C8823D1F266
:104CE0009DCF8091280C8823D1F01092280C409100
:104CF000C2075091C3076091BC077091BD0790E057
:104D000080E00E9471CA8091270C882341F086CFF1
:104D1000C33009F070CF8091290C833011F380915A
:104D20005801882309F467CF81E09091290C9330D2
:104D300009F080E020E244ED56E16D2F5ACF8F92CA
:104D40009F92AF92BF92CF92DF92EF92FF920F931A
:104D50001F93CF93DF9361E081E00E941720C09101
:104D60002A0C85E0982E9C0E8C2E819403ED12E186
:104D7000D1E0DC1B83E0B82EBC1A9BEBE92E92E15C
:104D8000F92E20ECC22E22E1D22E82E0A82EAC1AFF
:104D9000C11114C08091290C882309F47AC0809134
:104DA0005801882359F081E09091290C911180E0FD
:104DB00024E04BEE52E1682D0E94FAD18091A707C2
:104DC000811193C020910C0130910D0180910B0F46
:104DD00090910C0F821793070CF087C0C130A9F493
:104DE0008091290C813009F46FC08091580188238B
:104DF00061F081E09091290C913009F080E023E08E
:104E00004BED52E16D2F0E94FAD18091540F909199
:104E1000550F891B8F7009F007C18091B411811162
:104E200003C18091A707811116C180910B0F90914A
:104E30000C0F20910C0130910D01821793070CF09B
:104E4000F5C0C23009F09AC08091290C823009F473
:104E500071C080915801882361F081E09091290C04
:104E6000923009F080E023E045EC52E16A2D0E9487
:104E7000FAD180910B0F90910C0F2091A70722235C
:104E800009F47CC084E0CF5F9C1282CF8093260C13
:104E90000EC08091280C882309F481CF1092280C31
:104EA0000E9419228091270C882309F478CFDF9182
:104EB000CF911F910F91FF90EF90DF90CF90BF9017
:104EC000AF909F908F9008958091280C882309F4CB
:104ED0008CCF1092280C8BE699E10E9410DF809114
:104EE000270C882309F481CFE2CFC13009F08DCFA0
:104EF0008091290C813069F080915801882309F450
:104F000084CF81E09091290C913009F080E020E27B
:104F100077CF8091280C882379F31092280C109376
:104F20003E0C00933D0C0E94EB858091270C88235A
:104F300019F3BDCF8091280C882309F48ACF1092F1
:104F4000280C85E699E10E9410DF8091270C8823C8
:104F500009F47FCFACCF8091280C882309F46EC070
:104F60001092280CD0923E0CC0923D0C0E94EB8512
:104F70008091270C882309F461C099CF20910C01FE
:104F800030910D018217930754F1C33009F07ACFA5
:104F90008091290C833091F080915801882309F485
:104FA00071CF81E09091290C933009F080E020E2EC
:104FB0004BEA52E16B2D0E94FAD164CF8091280C0C
:104FC000882351F31092280CF0923E0CE0923D0C95
:104FD0000E94EB858091270C8823F1F268CFC330C3
:104FE00009F050CF8091290C833079F080915801DD
:104FF000882309F447CF81E09091290C933009F080
:1050000080E023E04BE952E1D5CF8091280C882342
:1050100069F31092280C88E699E10E9410DF8091D4
:10502000270C882319F343CF82E02DCFC23009F03B
:10503000A5CF8091290C823009F48DCF8091580141
:10504000882309F416CF81E09091290C923009F061
:1050500080E020E209CFC23009F097CFEACF5F921B
:105060006F927F928F929F92AF92BF92CF92DF9278
:10507000EF92FF920F931F93CF93DF9361E081E054
:105080000E941720C0912A0C85E0682E6C0E98E9CA
:10509000E92E94E1F92ED4E0DC1B23EBC22E24E1AF
:1050A000D22E13E01C1B31EDA32E34E1B32E02E00F
:1050B0000C1B4CEE842E44E1942E81E0782E7C1A59
:1050C0005C2E5194C11136C08091290C8823B1F017
:1050D00080915801882359F081E09091290C911119
:1050E00080E024E049EF54E1652D0E94FAD1CF5FC2
:1050F0006C12E8CF85E08093260C0CC08091280CC0
:10510000882331F31092280C0E9419228091270CD9
:105110008823F1F2DF91CF911F910F91FF90EF90D3
:10512000DF90CF90BF90AF909F908F907F906F90C7
:105130005F900895C13021F58091290C813079F07C
:1051400080915801882399F281E09091290C913047
:1051500009F080E020E24EED54E1672DC6CF80914A
:10516000280C882369F31092280C90923E0C8092B0
:105170003D0C0E94EB858091270C882309F3CACF50
:10518000C23009F05BC08091290C823081F080919F
:105190005801882309F4ABCF81E09091290C92301B
:1051A00009F080E020E24FEB54E1602F9ECF809128
:1051B000280C882361F31092280CB0923E0CA09228
:1051C0003D0C0E94EB858091270C882301F3A2CF30
:1051D0008091290C833081F080915801882309F453
:1051E00086CF81E09091290C933009F080E020E295
:1051F00044EA54E1612F79CF8091280C882361F330
:105200001092280CD0923E0CC0923D0C0E94EB856F
:105210008091270C882301F37DCF8091280C88236F
:10522000B1F01092280CF0923E0CE0923D0C0E94DE
:10523000EB858091270C882351F06CCFC33041F26D
:10524000C43009F054CF8091290C843031F380911F
:105250005801882309F44BCF81E09091290C9430B8
:1052600009F080E020E24BE854E16D2F3ECF9CE056
:10527000899F802D112491E0980F9093030F2CE0CB
:10528000280F2093040F40914B0F30E02E5F3F4FCB
:105290004217130609F0A4F420914D0F921780F4E1
:1052A000662341F08E5F0E944ECE8091040F8E5F88
:1052B0000E944ECE8091040F10924E0F80934F0F9C
:1052C0000895CF93DF931F92CDB7DEB78091500F33
:1052D000811105C081E08093500F0E94D3CC609172
:1052E000190F70911A0F19829E012F5F3F4F4FE0E7
:1052F00087E19FE00E946ECC0F90DF91CF910895DF
:105300000F931F93CF93C62F8C01CC2349F0F80144
:1053100081918F01882321F00E9401C2C150F5CFF5
:10532000CF911F910F9108959FEF980F993020F41E
:105330000E94BED781E008950E9401C2FBCF9FEF7B
:10534000980F993010F40C94BED70C9401C2CF93EF
:10535000DF93EC01FE018491882321F00E949F29B4
:105360002196F8CFDF91CF910895CF93DF93EC0191
:105370008991882319F00E949F29FACFDF91CF915C
:105380000895AF92BF92CF92DF92EF92FF920F9368
:105390001F93CF93DF935C017B010E943EDEC82FF9
:1053A000C7010E9496DE04E110E0081B1109DD240C
:1053B000D394C017110619F014F082E0D82E809112
:1053C000180F90E06D2D70E06F5F7F4F0E946CFCB6
:1053D000C62EC6E0C60F80914B0FC81788F12091EA
:1053E0004D0F4C2F4B50550B241715064CF11092B6
:1053F0004E0FC0934F0FC5010E9406C2D1E0E114C9
:10540000F10499F08AE30E9401C252E0D5121AC059
:10541000CC0D80914B0FC81740F020914D0F4C2FB1
:105420004B50550B241715067CF4DF91CF911F913B
:105430000F91FF90EF90DF90CF90BF90AF900895C5
:10544000D0E0DDCFDD2389F3802F880F800F880F18
:1054500080934E0FC0934F0F80E20E9401C2C7019C
:10546000DF91CF911F910F91FF90EF90DF90CF9040
:10547000BF90AF900C94B5298F929F92AF92BF923C
:10548000CF92DF92EF92FF928091280C1092280C1D
:10549000882361F01092580CFF90EF90DF90CF902E
:1054A000BF90AF909F908F900C94192281E08093D1
:1054B000580C80902D0C90902E0CA0902F0CB0903A
:1054C000300C81149104A104B10409F450C010926D
:1054D0002D0C10922E0C10922F0C1092300CB40147
:1054E000092C000C880B990B0E94EEF52091B30853
:1054F0003091B4084091B5085091B6080E944DF61D
:1055000020916A0C30916B0C40916C0C50916D0C99
:105510000E943FFA6B017C0120E030E040EA51EC50
:105520000E94C2FB87FD23C020E030E040EA51E446
:10553000C701B6010E94E7F51816CCF080915D0C0A
:1055400082FF0AC08091AC079091AD07880D991D2C
:105550009093AD078093AC07C0926A0CD0926B0C0D
:10556000E0926C0CF0926D0C82E080935801809177
:105570005801882389F08AE69CE00E948FC5BC010F
:105580008BED95E1FF90EF90DF90CF90BF90AF90C3
:105590009F908F900C94C129FF90EF90DF90CF9057
:1055A000BF90AF909F908F900895CF92DF92EF922F
:1055B000FF920F93CF93DF93982F862F6A01790183
:1055C000692F0E94372990914B0F8091040F891702
:1055D00008F445C090914D0F8091030F981708F47F
:1055E0003EC0C701002381F00E943EDEC82FD4E1F7
:1055F000D81BF6018491882351F00E949429D81B6E
:10560000FFEFCF1ADF0AF5CF0E9496DEEFCF8AE3D5
:105610000E9401C2D15010F080E2FACF8091040FB5
:105620009C2F990F990FC91BCC0FC058C0934E0FD8
:1056300080934F0FC701002349F0DF91CF910F9165
:10564000FF90EF90DF90CF900C94A729DF91CF913E
:105650000F91FF90EF90DF90CF900C94B529DF91E0
:10566000CF910F91FF90EF90DF90CF9008957F92B0
:105670008F929F92AF92BF92CF92DF92EF92FF9262
:105680000F931F93CF93DF9361E081E00E94172077
:10569000C0912A0C9C2E85E0A82EAC0E87E0F82E37
:1056A000FC1AD1E086E0E82EEC1A85E0D82EDC1A50
:1056B00084E0C82ECC1A82E0B82EBC1A8D2E8C1A2B
:1056C0007C2E7194C1112FC08091290C882389F000
:1056D00080915801882309F444C081E09091290CFD
:1056E000911180E024E049E456E1672D0E94FAD14F
:1056F00038C08091280C882359F31092280C0E94FE
:1057000019228091270C882319F3DF91CF911F91E3
:105710000F91FF90EF90DF90CF90BF90AF909F9050
:105720008F907F900895C130D1F58091290C813000
:10573000F9F0809158018823A1F011E08091290CA3
:10574000813009F010E080911401909115010E94C0
:10575000B1CF00E09C014DE356E1682D812F0E94FE
:10576000D52ACF5FAC12AECF88E08093260CCDCF88
:105770008091280C8823E9F21092280C10E000E0B8
:1057800027EE33E04AE050E064E171E083E496E123
:105790000E9425C88091270C882359F2B6CFC230C9
:1057A00009F018C18091290C8230B1F08091580124
:1057B0008823B9F211E08091290C823009F010E0C1
:1057C00080910B0F90910C0F0E94B1CF00E09C01D3
:1057D0004FE256E16B2DC2CF8091280C882331F324
:1057E0001092280CD093840A1092800A1092810A99
:1057F0001092820A1092830A03E619E12EE031E04A
:1058000050E040E06BE07FE086E396E10E9425C82F
:105810008091270C882351F278CF8091290C833016
:10582000C1F080915801882309F49BCF11E0809149
:10583000290C833009F010E08091310C9091320CEA
:105840000E94B1CF63E0691900E09C0147E256E194
:1058500085CF8091280C882321F31092280CD093B7
:10586000840A1092800A1092810A1092820A109281
:10587000830A03EF10E325E530E050E040E061E308
:105880007CE08BE296E10E9425C88091270C88235A
:1058900041F23BCF8091290C8430B9F080915801BE
:1058A000882309F45ECF11E08091290C843009F03F
:1058B00010E08091330C9091340C0E94B1CF00E045
:1058C0009C0143E156E16C2D49CF8091280C88233F
:1058D00029F31092280CD093840A1092800A109217
:1058E000810A1092820A1092830A10E000E02FEFE2
:1058F00030E050E040E063E37CE08DE196E10E941F
:1059000025C88091270C882349F2FFCE8091290C6D
:105910008530B9F080915801882309F422CF11E035
:105920008091290C853009F010E08091120190914E
:1059300013010E94B1CF00E09C0149E056E16D2DBA
:105940000DCF8091280C882329F31092280C02ECAB
:1059500017E127EE33E04AE050E062E171E08EE0CB
:1059600096E10E9425C88091270C882399F2CDCE1C
:105970008091290C863081F080915801882309F4A8
:10598000F0CE81E09091290C963009F080E023E080
:105990004AEF55E16E2DAACE8091280C882361F341
:1059A0001092280C8CE39AE20E9410DF8091270C61
:1059B000882311F3AACE8091280C8823E9F0109255
:1059C000280C8FE996E20E9410DF8091270C882333
:1059D00099F09BCEC33009F420CFC43009F45ACFDC
:1059E000C53009F493CFC63019F2C73009F0B9CEEB
:1059F0008091290C8730F9F280915801882309F4AD
:105A0000B0CE81E09091290C973009F080E023E03E
:105A10004AEE55E16F2D6ACECF939CE0899F802D91
:105A2000112491E0980F9093030F845F8093040FEB
:105A300040914B0F282F30E02E5F3F4F4217130647
:105A400009F0BCF520914D0F921798F5C62F9EE3F3
:105A500090934E0F80934F0F85E40E949F2981E31E
:105A60008C0F0E949F2980E20E949F2960910D0F58
:105A700070910E0F80910F0F9091100F0E9434FBC8
:105A8000CB010E94B1CF0E94B5298FE20E949F29CD
:105A90000E9406DE811104C08091A407811109C013
:105AA00080910B0F90910C0F0E94B1CFCF910C946D
:105AB000B529CF9108951F93CF93DF9360E085E0E0
:105AC0000E941720D0912A0CC0E012E0D1110DC025
:105AD00080915801882399F00E94E51721E041E068
