:100000000C94A4180C94CE180C94CE180C94CE1802
:100010000C94CE180C94CE180C94CE180C94CE18C8
:100020000C94CE180C94CE180C94CE180C94CE18B8
:100030000C94CE180C94CEC20C94CE180C94CE18FE
:100040000C94CE180C940A650C941FD20C94CE1804
:100050000C946D290C94CE180C94CE180C94CE18D8
:100060000C94CE180C94CE180C94CE180C94CE1878
:100070000C94CE180C94CE180C94CE180C94CE1868
:100080000C94CE180C94CE180C94CE184855F853F6
:100090002F5484552F542F542F542F542F542F54F2
:1000A0002F542F542F542F542F542F542F542F5438
:1000B0002F542F542F542F542F542F542F542F5428
:1000C0002F542F542F542F547E552F542F542F54C8
:1000D0002F542F542F542F542F5457552F542F54DF
:1000E0002F542F542F542F542F542F542F542F54F8
:1000F0009B552C54189CFE9B019C049C079C139CB4
:100100000A9C249C0D9C109CF3CEF6CEE9CEEDCE3D
:100110000DCF0DCFFACEFECE04CF08CF8ED193D126
:1001200098D1A2D1D0D1D0D1ACD1B4D1BCD1C6D18B
:10013000084AD73B3BCE016E84BCBFFDC12F3D6C4E
:1001400074319ABD56833DDA3D00C77F11BED9E4B4
:10015000BB4C3E916BAAAABE000000803F05A84C94
:10016000CDB2D44EB93836A9020C50B99186880860
:100170003CA6AAAA2ABE000000803F004E414E497C
:100180004E495459494E46CDCCCC3D0AD7233C1755
:10019000B7D13877CC2B329595E6241FB14F0A00A2
:1001A0000020410000C84200401C4620BCBE4CCA92
:1001B0001B0E5AAEC59D74434F4D4D554E4943419C
:1001C00054494F4E0044525952554E004552524FD9
:1001D000525300494E464F004543484F0047322F87
:1001E00047332062616420706172616D657465726D
:1001F000730A00536C6565702E2E2E00206F6620EA
:10020000004D424C2047323920706F696E742000D7
:1002100059206F7574206F662072616E67652028A3
:10022000312D35292E0A0058206F7574206F6620F5
:1002300072616E67652028312D35292E0A004D65C3
:1002400073682070726F62696E6720646F6E652ECE
:100250000A005374617274206D6573682070726F48
:1002600062696E67207769746820224732392053AB
:1002700031222066697273742E0A004732380A47A9
:1002800032392053320053746174653A20004D6551
:10029000736820626564206C6576656C696E6720A2
:1002A000686173206E6F20646174612E0A005320B0
:1002B0006F7574206F662072616E67652028302D1F
:1002C00035292E0A004D65736820706F696E7420A1
:1002D00063616E6E6F74206265207265736F6C76F9
:1002E00065640A00436C69636B20746F20726573E8
:1002F000756D652E2E2E004E6F206D6F76652E006B
:100300005072696E742074696D653A2000D801D30B
:1003100001CC01C501B7016F6666004445425547EF
:100320003A004B494C4C45442E20004D313133208E
:1003300053006F6B003344205072696E74657220F5
:100340004F66662E00544845524D414C5F50524F07
:1003500054454354494F4E004155544F5245504F18
:1003600052545F53445F53544154555300454D45D7
:100370005247454E43595F50415253455200434105
:1003800053455F4C494748545F4252494748544E91
:1003900045535300544F47474C455F4C49474854D9
:1003A0005300534F4654574152455F504F574552A3
:1003B000004255494C445F50455243454E54004C11
:1003C0004556454C494E475F44415441005A5F50A1
:1003D000524F4245004155544F4C4556454C0050F4
:1003E00052494E545F4A4F420050524F4752455374
:1003F00053004155544F5245504F52545F54454D50
:100400005000564F4C554D455452494300454550B8
:10041000524F4D0053455249414C5F584F4E5F5823
:100420004F4646004649524D574152455F4E414D59
:10043000453A4D61726C696E20312E312E3920287B
:100440004769746875622920534F555243455F438D
:100450004F44455F55524C3A68747470733A2F2F6D
:100460006769746875622E636F6D2F4D61726C6978
:100470006E4669726D776172652F4D61726C696E3F
:100480002050524F544F434F4C5F56455253494FA3
:100490004E3A312E30204D414348494E455F545924
:1004A00050453A3344205072696E74657220455845
:1004B0005452554445525F434F554E543A3120559E
:1004C0005549443A63656465326132662D34316161
:1004D000322D343734382D396231322D633535635E
:1004E00036326633363766660A002F2F20004D31CC
:1004F000343520533C696E6465783E206F757420F6
:100500006F662072616E67652028302D31290A00E0
:10051000205400205200416363656C657261746908
:100520006F6E3A2050005741524E494E4721204CA1
:100530006F77205A204A65726B206D6179206C6557
:10054000616420746F20756E77616E7465642070CD
:1005500061757365732E0A00000000000000000042
:10056000000000004F666673657473206170706CE4
:10057000696564004572723A20546F6F206661723B
:100580002100546F6F206661722066726F6D207259
:1005900065666572656E636520706F696E740A00CA
:1005A000FFFFFF20466C6F773A200000010F150E09
:1005B00012FFFFFFFF16170E13FFFFFFFF03021AC4
:1005C00014FFFFFFFFFFFFFF0C04FFFFFF01000E02
:1005D000FFFFFF0C190DFF1820643A0020693A0054
:1005E00020703A00496E76616C6964206578747297
:1005F000756465720A0043290A0061626C656420B3
:10060000286D696E2074656D702000436F6C6420E6
:1006100065787472756465732061726520004E6F31
:100620002063617365206C696768740A00454550F2
:10063000524F4D204F4B0A00416374697665204547
:10064000787472756465723A2000496E76616C69DF
:10065000642065787472756465720A006F6B00457A
:100660006E6473746F707320256320256320256387
:1006700020256300205A3A0020593A0020583A00B9
:10068000656E6473746F7073206869743A20002516
:1006900069730025696D2025697300256968202527
:1006A000696D202569730025696420256968202506
:1006B000696D2025697300256979202569642025E5
:1006C00069682025696D20256973004B494C4C45AC
:1006D000442E200053544F505045442E2000507259
:1006E000696E7465722073746F70706564206475D0
:1006F0006520746F206572726F72732E2046697860
:1007000020746865206572726F7220616E64207556
:100710007365204D39393920746F207265737461A7
:1007200072742E202854656D7065726174757265DF
:100730002069732072657365742E20536574206977
:100740007420616674657220726573746172746975
:100750006E67290A004E6F20436865636B73756D81
:100760002077697468206C696E65206E756D6265AE
:10077000722C204C617374204C696E653A200063C2
:100780006865636B73756D206D69736D6174636803
:100790002C204C617374204C696E653A20004C69C2
:1007A0006E65204E756D626572206973206E6F7480
:1007B000204C617374204C696E65204E756D6265C6
:1007C000722B312C204C617374204C696E653A2079
:1007D000004D3131300020496E76616C69642065CE
:1007E00078747275646572200000000000000000DB
:1007F00000000000000000484300004343000020C8
:1008000043486F6D696E67206661696C656400209E
:100810006E6F7420656E74657265642E0A002C20FC
:10082000002C200050726F746563746564205069F9
:100830006E0A0020573A004520436F6F6C696E675F
:100840002E2E2E00452048656174696E672E2E2E6F
:100850000020573A0042656420636F6F6C696E67D1
:100860002E2E2E004265642068656174696E672EC5
:100870002E2E00205A3A0020593A0020436F756E00
:100880007420583A0020453A00205A3A0020593A3C
:1008900000583A004E65787420506F696E740025D8
:1008A00069202F2025750047323920533100473207
:1008B0003920533200436C69636B20746F204265AA
:1008C00067696E00486F6D696E672058595A004716
:1008D00032380053746F72652073657474696E6783
:1008E00073004C6F61642073657474696E67730084
:1008F0004C6576656C20636F726E6572730042653D
:1009000064205A00426564205A00466164652048AC
:100910006569676874004661646520486569676851
:1009200074004661646520486569676874004F66B5
:1009300066004F6E2000426564204C6576656C69E8
:100940006E67004C6576656C206265640050726568
:1009500070617265004D34323800507265686561AF
:100960007420414253005072656865617420504C98
:100970004100436F6F6C646F776E005072656865FD
:10098000617420504554470044697361626C65206E
:100990007374657070657273004D383400536574FC
:1009A00020686F6D65206F666673657473004265BD
:1009B00064204C6576656C696E6700486F6D6520D4
:1009C0005A00473238205A00486F6D652059004759
:1009D0003238205900486F6D652058004732382062
:1009E00058004175746F20686F6D6500473238009C
:1009F0004D6F76652061786973004D61696E004DB9
:100A00006F76652058004D6F76652059004D6F76E2
:100A100065205A004578747275646572004D6F7672
:100A20006520302E316D6D004D6F766520316D6D16
:100A3000004D6F76652031306D6D004D6F7665200D
:100A400061786973004578747275646572004D6FE2
:100A50007665205A004D6F76652059004D6F76659A
:100A600020580020746F6F206C6F6E67206578745B
:100A7000727573696F6E2070726576656E746564E9
:100A80000A0020636F6C6420657874727573696FF7
:100A90006E2070726576656E7465640A00426162EC
:100AA0007973746570205A004368616E67652066CB
:100AB000696C616D656E74004368616E6765206680
:100AC000696C616D656E74004D36303020423000C7
:100AD0004261627973746570205A00466C6F7700CA
:100AE000466C6F7700466C6F770046616E207370BE
:100AF0006565640046616E207370656564004661DB
:100B00006E20737065656400426564004265640030
:100B1000426564004E6F7A7A6C65004E6F7A7A6C2B
:100B200065004E6F7A7A6C650046616465204865A1
:100B30006967687400466164652048656967687420
:100B400000466164652048656967687400426564B1
:100B5000205A00426564205A005370656564005352
:100B600070656564005370656564004D61696E0071
:100B70005072656865617420504C4120456E640078
:100B80005072656865617420504C41204265640074
:100B90005072656865617420504C410050726570F8
:100BA000617265005072656865617420414253202E
:100BB000456E64005072656865617420414253203F
:100BC000426564005072656865617420414253005B
:100BD000507265706172650050726568656174205D
:100BE0005045544720456E640050726568656174D5
:100BF0002050455447204265640050726568656125
:100C0000742050455447005072657061726500420F
:100C100061636B004E65787420506F696E74004C90
:100C20006576656C696E6720446F6E6521004D6F57
:100C30007665205A004732392053320020204E6F0B
:100C40007A7A6C653A2000200066696C616D656E89
:100C500074206C6F6164005761697420666F720064
:100C600020204E6F7A7A6C653A2000200066696C0D
:100C7000616D656E74207075726765005761697487
:100C800020666F7200746F20726573756D65005712
:100C900061697420666F72207072696E740000065C
:100CA0000900FE000000000001090008FE00000528
:100CB000080806000040F0C88888987810050808E1
:100CC000060000C0F88888888888F80505050600B1
:100CD000012030F830200508080600002070F820B8
:100CE000202020E00509090600FF2070A8A8B88888
:100CF0008870200509090600FFE080C0B0A82830F0
:100D000028280509090600FFF8A88888888888A887
:100D1000F8050A0A0600FE205050505088A8A888FE
:100D20007003030306000340A04025753A253032C6
:100D30007500253032753A253032750025756420EE
:100D4000253032753A2530327500202020202020B1
:100D5000005A0059002020202000580009200000DF
:100D600000000000000000000000003FFFF0000055
:100D700000000000000000000000380070000000CB
:100D800000000000000000000030FC300000000007
:100D9000000000000000000020FC10000000000027
:100DA000000000000000002078100000000000009B
:100DB00000000000000020301000000000000000D3
:100DC00000000000002C00D03FC000000000000028
:100DD000002082002E31D07FE000000000000000E3
:100DE0001041002F7BD07FE00000000000000010C9
:100DF00041002F7BD07FE000000000000000208237
:100E0000002E31D03FC0000000000000004104006F
:100E10002C00D03FC000000000000000820800202D
:100E200030107FE000000000000000820800207801
:100E3000107FE00000000000000041040020FC10D2
:100E40007FE00000000000000020820030FC301F26
:100E500080000000000000000000003800700F005B
:100E600000000000000000FFFFC03FFFF006000090
:100E7000000000000000FFFFC000000000000000B4
:100E800000000000000000003FFFF0000000000034
:100E900000000000000000380070000000000000AA
:100EA000000000000000318630000000000000005B
:100EB0000000000000238710000000000000000078
:100EC00000000000278790000000000000000000E4
:100ED0000000002F87D0000000000000000000008C
:100EE00000002F03D03FC00000000000000020825F
:100EF000002030107FE000000000000000104100E2
:100F00002078107FE0000000000000001041002069
:100F100078107FE0000000000000002082002030F8
:100F2000103FC0000000000000004104002F03D06B
:100F30003FC0000000000000008208002F87D07F23
:100F4000E0000000000000008208002787907FE09A
:100F5000000000000000004104002387107FE00033
:100F60000000000000002082003186301F80000059
:100F700000000000000000003800700F00000000BA
:100F800000000000FFFFC03FFFF00600000000006F
:100F9000000000FFFFC00000003344205072696E63
:100FA0007465722052656164792E005072696E74A6
:100FB000696E672E2E2E005072696E7420706175F6
:100FC00073656400473238200A4731205A32302096
:100FD00046323030300A4D3131372055736572203A
:100FE00053637269707420446F6E65004732382015
:100FF0000A473930200A4731205A313730204633EA
:10100000303030200A4731205A31383020463130D4
:1010100030200A4734205331200A4731205A3137D3
:10102000302046313030200A473238205A200A47D3
:1010300031205A32302046323030300A4D3131378B
:1010400020557365722053637269707420446F6E0B
:1010500065004C6576656C20582043617272696149
:10106000676500486F6D65202620526169736520B1
:101070005A004D61696E00436F6E74726F6C005060
:101080007265706172650054756E65004368616ECB
:1010900067652066696C616D656E74004368616E9A
:1010A00067652066696C616D656E74004D36303021
:1010B00020423000437573746F6D20436F6D6D6116
:1010C0006E647300496E666F2073637265656E00AF
:1010D0001000C90210012C01400122017001180109
:1010E000B0010E01F00104015002FA00B002F0005C
:1010F0003003E600D003DC009004D2007005C80085
:10110000A006BE000008B400B009AA00D00BA000E1
:10111000600E960060118C00001582002019780086
:10112000C01D6E00A0226400B0275A00902C500011
:1011300000314600E0343C0010383200903A28007C
:10114000603C1E00A03D1400803E0A00203F0000CD
:101150004265642068656174696E67206661696CC8
:1011600065640048656174696E67206661696C65D5
:10117000640045312048656174696E672066616965
:101180006C65640048656174696E67206661696CAE
:1011900065640070012C0190012701B0012201C09B
:1011A000011D01F00118011002130130020E01604F
:1011B00002090190020401C002FF000003FA00408E
:1011C00003F5008003F000D003EB002004E600707C
:1011D00004E100E004DC004005D700C005D2004077
:1011E00006CD00D006C8008007C3003008BE00F05E
:1011F00008B900C009B400B00AAF00B00BAA00D013
:101200000CA500000EA000500F9B00C010960050CF
:1012100012910000148C00C0158700B0178200B036
:10122000197D00D01B7800001E730040206E0090D6
:10123000226900F024640040275F0090295A00E0F2
:101240002B5500102E500020304B0010324600E08D
:1012500033410090353C001037370070383200A021
:10126000392D00B03A2800A03B2300603C1E00103E
:101270003D1900903D1400103E0F00703E0A00C062
:101280003E0500003F0000403FFBFF803FF6FFC0EF
:101290003FF1FF453120544845524D414C205255B5
:1012A0004E415741590042454420544845524D4112
:1012B0004C2052554E4157415900546865726D613A
:1012C0006C2052756E6177617900453120457272EC
:1012D0003A204D415854454D50004572723A204DC8
:1012E000415854454D5020424544004D41585445C5
:1012F0004D502074726967676572656400453120DE
:101300004572723A204D494E54454D500045727217
:101310003A204D494E54454D5020424544004D49D8
:101320004E54454D5020747269676765726564005C
:10133000202F002042403A0020403A00565472616B
:1013400076206D696E005654726176206D696E006C
:101350005654726176206D696E00566D696E005646
:101360006D696E00566D696E00566D61782045009E
:10137000566D6178204500566D6178204500566DA8
:101380006178205A00566D6178205A00566D617858
:10139000205A00566D6178205900566D61782059A9
:1013A00000566D6178205900566D617820580056BE
:1013B0006D6178205800566D61782058004D6F742B
:1013C000696F6E00416D6178204500416D61782044
:1013D0004500416D6178205A00416D6178205A00C6
:1013E000416D6178205900416D6178205900416D4F
:1013F0006178205800416D6178205800412D747249
:101400006176656C00412D74726176656C00412DCA
:101410007265747261637400412D726574726163E8
:101420007400416363656C00416363656C004D6FDC
:1014300074696F6E0056652D6A65726B0056652D76
:101440006A65726B0056652D6A65726B00567A2D5F
:101450006A65726B00567A2D6A65726B0056792D3B
:101460006A65726B0056792D6A65726B0056792D2C
:101470006A65726B0056782D6A65726B0056782D1E
:101480006A65726B0056782D6A65726B004D6F74D9
:10149000696F6E004573746570732F6D6D004573D1
:1014A000746570732F6D6D005A73746570732F6D52
:1014B0006D005A73746570732F6D6D005973746588
:1014C00070732F6D6D005973746570732F6D6D009F
:1014D0005873746570732F6D6D00587374657073F5
:1014E0002F6D6D004D6F74696F6E003A004361702F
:1014F0003A00205A00205900580020204D61783AC7
:101500002000205A00205900580020204D696E3AD2
:1015100020004F6E20004F666600536F6674206592
:101520006E6473746F70733A20004F66660A0046EB
:1015300061646520486569676874200042656420BD
:101540004C6576656C696E6720004661696C656400
:1015500020746F20656E61626C6520426564204C6A
:101560006576656C696E670A004D65736820426533
:1015700064204C6576656C20646174613A0A004DA4
:1015800065736820706F696E742063616E6E6F742E
:10159000206265207265736F6C7665640A004D3455
:1015A000323120696E636F7272656374207061728C
:1015B000616D657465722075736167650A004D36EB
:1015C00030303A20546F6F20636F6C6400486F7442
:1015D000656E6420746F6F20636F6C640A00496EDF
:1015E000736572742066696C616D656E7420616EDE
:1015F0006420707265737320627574746F6E0A0074
:10160000507265737320627574746F6E20746F20EE
:1016100068656174206E6F7A7A6C650A00496E7332
:101620006572742066696C616D656E7420616E64AC
:1016300020707265737320627574746F6E20286FEA
:1016400072204D313038290A00496E73657274205A
:1016500066696C616D656E7420616E642070726580
:10166000737320627574746F6E20286F72204D3111
:101670003038290A00454550524F4D20646174614D
:1016800073697A65206572726F722E0A00290A00EA
:101690002062797465733B20637263200053657424
:1016A00074696E67732053746F7265642028002913
:1016B0000A002062797465733B2063726320002006
:1016C00073746F7265642073657474696E677320D8
:1016D00072657472696576656420280020286361EC
:1016E0006C63756C6174656429210A0020213D20BA
:1016F00000454550524F4D20435243206D69736D54
:1017000061746368202D202873746F7265642920CA
:10171000002053697A653A2000496E6465783A2062
:1017200000204D61726C696E3D563535290A0028DE
:10173000454550524F4D3D00454550524F4D207646
:10174000657273696F6E206D69736D617463682073
:101750000024F4D43050C38E20C2A24017828B7074
:1017600011127A910D816CD90AA861E108C75866F7
:1017700007615143061E4B5D05C145A7041A41117F
:1017800004093D9803713931034036DB026533911A
:1017900002D4305402802E1D02632CEE01752AC53E
:1017A00001B028A001102781018F2564012B244B53
:1017B00001E0223401AC211F018D200D01801FFCAE
:1017C00000841EED00971DDF00B81CD200E61BC68A
:1017D00000201BBC00641AB200B219A8000A19A0AC
:1017E000006A189900D117910040178B00B5168434
:1017F0000031167E00B31579003A157300C7146FD7
:101800000058146A00EE1366008813630025135E07
:1018100000C7125B006C12570015125400C1115121
:101820000070114F0021114B00D61049008D104758
:10183000004610440002104200C00F4000800F3EDE
:1018400000420F3C00060F3B00CB0E3800930E37D2
:10185000005C0E3500270E3400F30D3200C10D314F
:1018600000900D3000600D2E00320D2D00050D2C66
:1018700000D90C2B00AE0C2900850C29005C0C272C
:1018800000350C27000E0C2600E80B2400C40B24A6
:1018900000A00B23007D0B23005A0B2100390B21E4
:1018A00000180B2000F80A1F00D90A1E00BB0A1EF0
:1018B000009D0A1D00800A1D00630A1C00470A1BC8
:1018C000002C0A1B00110A1A00F7091A00DD091979
:1018D00000C4091900AB091900920917007B091807
:1018E00000630917004C0916003609160020091676
:1018F000000A091500F5081500E0081400CC0814CA
:1019000000B8081400A4081400900813007D081201
:10191000006B081300580812004608120034081122
:1019200000230811001208110001081100F007102F
:1019300000E0071000D0071000C0071000B0070F2C
:1019400000A107100091070E0083070F0074070F16
:101950000065070E0057070E0049070E003B070DF4
:10196000002E070E0020070D0013070D0006070DBF
:1019700000F9060C00ED060D00E0060C00D4060C84
:1019800000C8060C00BC060C00B0060C00A4060B38
:101990000099060C008D060B0082060B0077060BE3
:1019A000006C060B0061060A0057060B004C060A85
:1019B0000042060A0038060A002E060A0024060A1B
:1019C000001A060A001006090007060A00FD0509AC
:1019D00000F4050900EB050900E2050900D9050935
:1019E00000D0050900C7050900BE050900B50508B6
:1019F00000AD050800A50509009C05080094050830
:101A0000008C050800840508007C050800740508A2
:101A1000006C050700650508005D05070056050810
:101A2000004E050700470507004005080038050778
:101A300000310507002A050700230507001C0506DD
:101A400000160507000F0507000805060002050738
:101A500000FB040600F5040700EE040600E8040697
:101A600000E2040700DB040600D5040600CF0406EC
:101A700000C9040600C3040600BD040600B704063E
:101A800000B1040500AC040600A6040600A004058D
:101A9000009B04060095040500900406008A0405D6
:101AA0000085040500800406007A0405007504051D
:101AB00000700405006B0405006604050061040560
:101AC000005C04050057040500520405004D0405A0
:101AD0000048040500430405003E0404003A0405E0
:101AE0000035040500300404002C0405002704041C
:101AF00000230405001E0404001A04040016040553
:101B000000110404000D0404000904050004040489
:101B10000000040400FC030400F8030400F40304C0
:101B200000F0030400EC030400E8030400E40304F1
:101B300000E0030400DC030400D8030400D4030421
:101B400000D0030400CC030400C8030300C5030352
:101B50000024F404D9201BC40C5C0E9804C4095F53
:101B60000265077101F405F900FB04B3004804871E
:101B700000C10369005803550003034500BE023A43
:101B8000008402310053022A0029022500040220A9
:101B900000E4011C00C8011900AF011700980114EE
:101BA0000084011300710110006101100051010E49
:101BB0000043010D0036010B002B010B0020010B2F
:101BC00000150109000C01090003010800FB0008D1
:101BD00000F3000800EB000700E4000600DE00064A
:101BE00000D8000600D2000600CC000500C70005A2
:101BF00000C2000500BD000400B9000400B50004E7
:101C000000B1000400AD000400A9000400A5000319
:101C100000A20003009F0004009B00030098000343
:101C2000009500020093000300900003008D000265
:101C3000008B00030088000200860002008400037D
:101C400000810002007F0002007D0002007B000294
:101C500000790002007700010076000200740002A3
:101C60000072000100710002006F0002006D0001AF
:101C7000006C0002006A00010069000200670001B8
:101C800000660001006500010064000200620001BE
:101C90000061000100600001005F0002005D0001C2
:101CA000005C0001005B0001005A000100590001C6
:101CB00000580001005700010056000100550001C6
:101CC00000540001005300000053000100520001C5
:101CD0000051000100500001004F0001004E0000C3
:101CE000004E0001004D0001004C0001004B0000BF
:101CF000004B0001004A00010049000100480000BB
:101D000000480001004700010046000000460001B5
:101D100000450000004500010044000100430000B0
:101D200000430001004200000042000100410000A9
:101D30000041000100400001003F0000003F0001A1
:101D4000003E0000003E0001003D0000003D00019B
:101D5000003C0000003C0000003C0001003B000093
:101D6000003B0001003A0000003A00010039000089
:101D70000039000100380000003800000038000180
:101D80000037000000370001003600000036000078
:101D9000003600010035000000350000003500016C
:101DA0000034000000340000003400010033000063
:101DB0000033000000330001003200000032000058
:101DC000003200010031000000310000003100014C
:101DD000003000000030000000300001002F000043
:101DE000002F0000002F0000002F0001002E000037
:101DF000002E0000002E0001002D0000002D00002C
:101E0000002D0000002D0001002C0000002C00001F
:101E1000002C0000002C0001002B0000002B000013
:101E2000002B0000002B0001002A0000002A000007
:101E3000002A0000002A00010029000000290000FB
:101E400000290000002900000029000100280000EE
:101E500000280000002800000028000000280001E1
:101E600000270000002700000027000000270000D6
:101E700000270001002600000026000000260000C8
:101E800000260000002600010025000000250000BB
:101E900000250000002500000025000000250001AD
:101EA00000240000002400000024000000240000A2
:101EB0000024000100230000002300000023000094
:101EC0000023000000230000002300000023000185
:101ED000002200000022000000220000002200007A
:101EE000002200000022000100210000002100006B
:101EF000002100000021000000210000002100005E
:101F0000002100010020000000200000002000004F
:101F10000020000000200000002000000020000041
:101F200000200001001F0000001F0000001F000033
:101F3000001F0000001F0000001F0000001F000124
:101F4000001E0000001E0000001E0000001E000019
:101F500000043700001E290000511B00005810002B
:101F60000010090000CC04000078020000410100CC
:101F70000023646566696E652044454641554C54AE
:101F80005F4B64200023646566696E6520444546A6
:101F900041554C545F4B69200023646566696E654A
:101FA0002044454641554C545F4B702000504944F5
:101FB000204175746F74756E652066696E6973680B
:101FC0006564212050757420746865206C61737499
:101FD000204B702C204B6920616E64204B64206381
:101FE0006F6E7374616E74732066726F6D206265BC
:101FF0006C6F7720696E746F20436F6E66696775CA
:10200000726174696F6E2E680A00504944204175F0
:10201000746F74756E65206661696C6564212074E7
:10202000696D656F75740A00453120544845524DFD
:10203000414C2052554E4157415900546865726DCC
:10204000616C2052756E6177617900453120486579
:102050006174696E67206661696C656400486561DA
:1020600074696E67206661696C656400504944203C
:102070004175746F74756E65206661696C65642165
:102080002054656D706572617475726520746F6F30
:1020900020686967680A00204B643A2000204B6979
:1020A0003A2000204B703A20000A20436C61737381
:1020B000696320504944200A002054753A200020CA
:1020C0004B753A2000206D61783A2000206D696ED2
:1020D0003A200020643A200020626961733A2000AF
:1020E000504944204175746F74756E65206661694E
:1020F0006C65642120426164206578747275646542
:1021000072206E756D6265720A00504944204175F7
:10211000746F74756E652073746172740A00626501
:10212000640A002C2073797374656D2073746F706A
:1021300070656421204865617465725F49443A2086
:10214000004578747275646572004D6F7665205A2B
:10215000004D6F76652059004D6F76652058005010
:1021600072657061726500496E697469616C697A43
:102170006520454550524F4D00436F6E74726F6C31
:1021800000526573746F7265206661696C73616675
:1021900065004C6F61642073657474696E677300C9
:1021A000496E697469616C697A6520454550524F82
:1021B0004D0053746F72652073657474696E677334
:1021C0000046696C616D656E74004D6F74696F6E69
:1021D0000054656D7065726174757265004D61695A
:1021E0006E00507265686561742041425320636FD0
:1021F0006E66005072656865617420504C412063C2
:102200006F6E66005049442D44005049442D4400EF
:102210005049442D49005049442D49005049442D0E
:1022200050005049442D500020082046616374003E
:1022300020082046616374002008204D617800204A
:1022400008204D6178002008204D6178002008208A
:102250004D696E002008204D696E002008204D69F0
:102260006E004F6666004F6E20004175746F746596
:102270006D700046616E2073706565640046616E26
:102280002073706565640046616E207370656564D7
:10229000004265640042656400426564004E6F7AE6
:1022A0007A6C65004E6F7A7A6C65004E6F7A7A6C44
:1022B0006500436F6E74726F6C0053746F726520AB
:1022C00073657474696E6773004265640042656487
:1022D00000426564004E6F7A7A6C65004E6F7A7AC0
:1022E0006C65004E6F7A7A6C650046616E20737083
:1022F0006565640046616E207370656564004661C3
:102300006E2073706565640054656D7065726174EC
:1023100075726500556E6B6E6F776E20636F6D6DB5
:10232000616E643A202200486F74656E6420746F99
:102330006F20636F6C640A00486F6D6520257325FC
:1023400073257320666972737400206669727374F2
:102350000A005A0059005800486F6D6520006563F7
:10236000686F3A004572726F723A00537465707309
:102370002F6D6D004A65726B00416363656C657219
:102380006174696F6E0056656C6F636974790043A0
:102390006F6E74726F6C004C6F6164206D6D004CD9
:1023A0006F6164206D6D004C6F6164206D6D005530
:1023B0006E6C6F6164206D6D00556E6C6F61642092
:1023C0006D6D00556E6C6F6164206D6D0046696CBB
:1023D0002E204469612E0046696C2E204469612ECE
:1023E000004F6666004F6E20004520696E206D6DBF
:1023F0003300436F6E74726F6C004D37303220546F
:102400002564004D36303020423020542564004D84
:10241000373032203B2564004D373031205425645D
:10242000004368616E67652066696C616D656E74F6
:1024300000507265686561742050455447005072C1
:10244000656865617420414253005072656865613A
:102450007420504C41004368616E67652066696C6A
:10246000616D656E74005052494E54205041555371
:10247000454400554E4C4F41442046494C414D4542
:102480004E54004C4F41442046494C414D454E541A
:10249000005075726765206D6F726500436F6E74D2
:1024A000696E756500524553554D45204F5054494E
:1024B0004F4E533A0020204E6F7A7A6C653A2000D6
:1024C0006368616E6765006F662074686520666981
:1024D0006C616D656E74005761697420666F72205F
:1024E00073746172740020204E6F7A7A6C653A20A2
:1024F00000200066696C616D656E7420756E6C6F8E
:102500006164005761697420666F720020204E6F0D
:102510007A7A6C653A20002000506C656173652002
:10252000776169742E2E2E0048656174696E67208C
:102530006E6F7A7A6C650020204E6F7A7A6C653AFD
:102540002000200068656174206E6F7A7A6C652EB9
:1025500000507265737320627574746F6E20746FAF
:102560000020204E6F7A7A6C653A2000746F2063E9
:102570006F6E74696E75652E2E2E00616E6420700C
:102580007265737320627574746F6E00496E736543
:1025900072742066696C616D656E740000060900D6
:1025A000FE0701920321207FFF07FF07FF000000C5
:1025B00006000001070706020080808080800080FE
:1025C000030202060105A0A00507070600005050FF
:1025D000F850F850500507070600002078A0702832
:1025E000F020050707060000C0C810204098180515
:1025F00007070600006090A040A890680203030649
:102600000104C0408003070706010020408080804D
:10261000402003070706010080402020204080055D
:10262000050506000120A870A82005050506000183
:102630002020F820200203030602FFC0408005018D
:1026400001060003F8020202060200C0C0050505EB
:10265000060001081020408005070706000070886A
:10266000888888887003070706010040C040404002
:1026700040E0050707060000708808708080F805B4
:102680000707060000F81020100808F005070706E5
:10269000000010305090F81010050707060000F8F1
:1026A00080F008088870050707060000708080F039
:1026B000888870050707060000F8081020202020F1
:1026C000050707060000708888708888700507076E
:1026D0000600007088887808087002050506020068
:1026E000C0C000C0C00206060602FFC0C000C04055
:1026F00080040707060000102040804020100503DA
:1027000003060002F800F8040707060100804020D5
:102710001020408005070706000070880810200080
:102720002005070706000070880868A8A87005073C
:1027300007060000708888F8888888050707060063
:1027400000F08888F08888F0050707060000708888
:102750008080808870050707060000F088888888D8
:1027600088F0050707060000F88080F08080F805F3
:102770000707060000F88080F080808005070706C4
:102780000000708880B888887005070706000088F8
:102790008888F88888880107070602008080808082
:1027A0008080800507070600003810101010906028
:1027B0000507070600008890A0C0A09088050707BD
:1027C000060000808080808080F8050707060000F2
:1027D00088D8A8888888880507070600008888C8E0
:1027E000A898888805070706000070888888888868
:1027F00070050707060000F08888F08080800507D4
:102800000706000070888888A890680507070600FA
:1028100000F08888F0A090880507070600007880FF
:1028200080700808F0050707060000F82020202027
:10283000202005070706000088888888888870059A
:102840000707060000888888888850200507070643
:1028500000008888888888A8500507070600008837
:10286000885020508888050707060000888888500F
:10287000202020050707060000F80810204080F8F7
:10288000030707060100E08080808080E0050505E1
:102890000600018040201008030707060100E02021
:1028A00020202020E00503030600042050880501B5
:1028B00001060000F8020202060205804005050537
:1028C00006000070087888780507070600008080F9
:1028D000B0C88888F0050505060000708080887003
:1028E0000507070600000808689888887805050528
:1028F0000600007088F88070050707060000304861
:10290000E0404040400506060600FF7088887808D1
:10291000700507070600008080B0C8888888010716
:10292000070602008000808080808003080806017E
:10293000FF200020202020A0400407070600008080
:102940008090A0C0A090030707060100C04040404F
:102950004040E0050505060000D0A8A8A8A8050588
:1029600005060000B0C888888805050506000070C7
:10297000888888700506060600FFF08888F0808049
:102980000506060600FF788888780808050505060C
:102990000000B0C8808080050505060000708070CA
:1029A00008F00407070600004040E04040403005C2
:1029B000050506000088888898680505050600005A
:1029C00088888850200505050600008888A8A8503A
:1029D00005050506000088502050880506060600FB
:1029E000FF888888780870050505060000F8102023
:1029F00040F80307070601002040408040402001C6
:102A00000707060200808080808080800307070619
:102A1000010080404020404080050202060002681C
:102A200090000000060000506C65617365207265BF
:102A3000736574005052494E5445522048414C54DD
:102A40004544005072696E7465722068616C7465EB
:102A5000642E206B696C6C28292063616C6C656442
:102A6000210A001FFFFFFFFFFFFF600000000001C1
:102A7000FF400000000000FF8000000000007F8396
:102A8000CF00000C303F87FF80000C301F8679801C
:102A9000000C000F8C30C7838C30E78C30CFC7CC54
:102AA00031F38C30DCECEC33B98C30D86C6C3319EE
:102AB0008C30D06C0C33198C30D86C0C33198C30B2
:102AC000DC6C0E3B198C30CF7C079F198C30C77C97
:102AD000038F1940000000000002600000000000A9
:102AE000061FFFFFFFFFFFF82020506C616E6E6530
:102AF0007242756666657242797465733A20002089
:102B000046726565204D656D6F72793A2000436F9E
:102B10006D70696C65643A204465632032312032FF
:102B20003031380A00207C20417574686F723A2079
:102B3000286E6F6E652C2064656661756C74206309
:102B40006F6E666967290A00323031382D30382DB2
:102B5000303100204C617374205570646174656479
:102B60003A2000312E312E390A004D61726C696EA7
:102B70000020536F667477617265205265736574C7
:102B80000A00205761746368646F6720526573653B
:102B9000740A002042726F776E206F757420526540
:102BA0007365740A002045787465726E616C2052FA
:102BB000657365740A00506F77657255700A00730B
:102BC000746172740A00656E7175657565696E670A
:102BD00020220000002042000020420000E04000CF
:102BE0000000005761726E696E673A20486F6D6928
:102BF0006E672042756D702044697669736F72202C
:102C00003C20310A000303050000A0400000A04062
:102C10000000004000004843000043430000204300
:102C20004572726F722077726974696E6720746F73
:102C300020454550524F4D210A0048617264636F30
:102C40006465642044656661756C742053657474B2
:102C5000696E6773204C6F616465640A00D0070079
:102C600000D00700006400000010270000000048AA
:102C7000430000484300007041000048420000A0AB
:102C8000420000A0423373C8430000BC4220286DBC
:102C90006D290020204D36303320002055004C0097
:102CA00046696C616D656E74206C6F61642F756E22
:102CB0006C6F6164206C656E677468733A0A0020FB
:102CC000440020490020204D33303120500050492D
:102CD000442073657474696E67733A0A0020460075
:102CE00020420020480020204D3134352053004D33
:102CF0006174657269616C206865617475702070BB
:102D00006172616D65746572733A0A00205A002021
:102D100059002020473239205333205800205A00D0
:102D200020204D3432302053004D657368204265B9
:102D300064204C6576656C696E673A0A00205A001B
:102D400020590020204D323036205800486F6D65E4
:102D5000206F66667365743A0A00204500205A00A9
:102D600020590020580020540020530020204D32CC
:102D7000303520510020453C6D61785F655F6A65A4
:102D8000726B3E0020583C6D61785F785F6A6572B7
:102D90006B3E20593C6D61785F795F6A65726B3E6E
:102DA000205A3C6D61785F7A5F6A65726B3E0041C4
:102DB0006476616E6365643A20513C6D696E5F7341
:102DC00065676D656E745F74696D655F75733E20D0
:102DD000533C6D696E5F66656564726174653E2023
:102DE000543C6D696E5F74726176656C5F66656593
:102DF00064726174653E0020540020520020204D12
:102E0000323034205000416363656C6572617469CF
:102E10006F6E2028756E6974732F7332293A2050B3
:102E20003C7072696E745F616363656C3E20523CF6
:102E3000726574726163745F616363656C3E205494
:102E40003C74726176656C5F616363656C3E0A0019
:102E5000204500205A0020590020204D32303120DA
:102E600058004D6178696D756D20416363656C65CF
:102E7000726174696F6E2028756E6974732F733276
:102E8000293A0A00204500205A0020590020204DF0
:102E90003230332058004D6178696D756D2066655C
:102EA000656472617465732028756E6974732F731D
:102EB000293A0A00204500205A0020590020204DC0
:102EC0003932205800537465707320706572207514
:102ED0006E69743A0A0020204D3230302044300AA6
:102EE0000020204D3230302044002044697361625C
:102EF0006C65640A0046696C616D656E742073656B
:102F00007474696E67733A0020204D313439204360
:102F1000203B20556E69747320696E2043656C7385
:102F20006975730A002020473231202020203B00A1
:102F3000526573656E643A200020746F6F206C6F69
:102F40006E6720657874727573696F6E2070726534
:102F500076656E7465640A0020636F6C6420657822
:102F600074727573696F6E2070726576656E7465C4
:102F7000640A00627573793A207061757365642024
:102F8000666F7220696E7075740A00627573793AA3
:102F90002070617573656420666F72207573657249
:102FA0000A00627573793A2070726F636573736992
:102FB0006E670A004B494C4C45442E20004B494C4F
:102FC0004C2063617573656420627920746F6F2093
:102FD0006D75636820696E616374697665207469D4
:102FE0006D65202D2063757272656E7420636F6D40
:102FF0006D616E643A200046696C616D656E742087
:10300000757365643A200053746174733A20002C20
:10301000204C6F6E67657374206A6F623A200054AB
:103020006F74616C2074696D653A2000537461742B
:10303000733A20002C204661696C65643A20002CAC
:103040002046696E69736865643A20005072696E43
:1030500074733A200053746174733A2000545249D7
:10306000474745524544006F70656E003A20007A2C
:103070005F6D696E00795F6D696E00785F6D696E76
:10308000005265706F7274696E6720656E64737448
:103090006F70207374617475730A000A4D656173F3
:1030A0007572656420706F696E74733A0A005A20F5
:1030B0006F66667365743A20004E756D20582C5902
:1030C0003A20352C350A0000002100240027002A70
:1030D0000000002200250028002B00000020002313
:1030E0000026002900020202020202020204040475
:1030F00004040404040303030303030303010101A1
:1031000001010101010102040810204080010204B4
:1031100008102040800102040810204080804020D8
:103120001008040201000000010200090A0000006A
:103130000004030807000000000000000000000079
:1031400000000000000023E811241FBECFEFD0E4F0
:10315000DEBFCDBF12E0A0E0B1E0EEEFFCEE01E09B
:103160000BBF02C007900D92AE34B107D9F72FE024
:10317000AEE4B2E001C01D92A932B207E1F718E156
:10318000C4EAD8E104C02197FE010E9404F6C33AC4
:10319000D107C9F70E9494D20C947DF60C940000DC
:1031A0008091D0089091D108981759F0E92FF0E05C
:1031B000E05BF74F80819F5F9F779093D10890E00D
:1031C00008958FEF9FEF08950F931F93CF93DF9391
:1031D000EC010E9413D20E811F81288539850115CB
:1031E00011052105310559F52C852223A9F13A85D0
:1031F00021502C8721E0230F2A874D85241301C0FD
:103200001A86FE0124E0329FE00DF11D112406858F
:103210001785208931890A831B832C833D83DC0138
:10322000CB01800F911FA11DB11D8E839F83A887A5
:10323000B9878C819D81892B79F0149A0DC0DC01AE
:10324000CB01801B910BA20BB30BB7FD05C01498EB
:103250001E821F8218861986DF91CF911F910F91D0
:1032600008958F929F92AF92BF92CF92DF92EF928A
:10327000FF920F931F93CF93DF9300D000D0CDB771
:10328000DEB7F82E662351F010929905109295053D
:103290001092960510929705109298050E9413D2ED
:1032A0008090950590909605A0909705B090980510
:1032B0009B01AC01281939094A095B0957FD4CC02B
:1032C00020919905F7FC16C04F2D0F2C000C550BC3
:1032D0004C5F5F4FE22F022E000CFF0B4E175F0773
:1032E000DCF12F153CF044EFC42EDD24D394E12C07
:1032F000F12C06C038EEC32E33E0D32EE12CF12C96
:10330000DC01CB018C0D9D1DAE1DBF1D809395056D
:1033100090939605A0939705B0939805022F01709E
:1033200010E024E2209FC001219F900D901B1124EA
:1033300080599C4F9C838B8382E390E09A8389839E
:10334000BE016D5F7F4FCE0101960E943A9A809137
:1033500099058F5F809399050F900F900F900F90B4
:10336000DF91CF911F910F91FF90EF90DF90CF9061
:10337000BF90AF909F908F900895EF92FF921F9310
:10338000CF93DF9380E7E82E82E0F82E15E0C0E0CF
:10339000D0E020E030E0A901F701EC0FFD1F6081D3
:1033A0007181828193810E9427EE81110CC0249645
:1033B000C431D10571F7115084E1E80EF11C1111EF
:1033C000E6CF80E001C081E0DF91CF911F91FF90B7
:1033D000EF900895CF93909192039817D1F0C82F52
:1033E0000E94CE3FC11112C04EE157E06AE177E082
:1033F00086E197E00E9412CC80E0809392038823BC
:1034000041F086E197E0CF910C944B400E94BD19AA
:10341000F4CFCF910895CF92DF92EF920F931F9345
:10342000CF93DF93CDB7DEB760970FB6F894DEBFCA
:103430000FBECDBFE0902A07E6E1F7E080859185D9
:10344000A285B38544815581668177810081118190
:103450002281338109831A832B833C834D835E83CE
:103460006F83788789879A87AB87BC871D861E867E
:103470001F86188AAE01475F5F4FBE016B5F7F4FAB
:10348000CE0101960E9412CCCE010D966C010BE389
:1034900011E022E237E0AE01475F5F4FBE016B5F94
:1034A0007F4F0C970E94FF3160960FB6F894DEBFF5
:1034B0000FBECDBFDF91CF911F910F91EF90DF90A5
:1034C000CF9008952F923F924F925F926F927F928A
:1034D0008F929F92AF92BF92CF92DF92EF92FF9224
:1034E0000F931F93CF93DF93CDB7DEB72A970FB615
:1034F000F894DEBF0FBECDBF2B013C012D833E8370
:103500004F83588747015801DA86C98680913B016D
:1035100090913C01A0913D01B0913E0189839A8335
:10352000AB83BC83D6011C9111960C911197129616
:103530003C90129713962C9020E030E0A901612F67
:10354000702F832D922D0E9427EE81110AC0EBED82
:10355000FBE285919591A591B491182F092F3A2EF0
:103560002B2EA501940160911E0770911F07809179
:103570002007909121070E9427EE87FF16C0812F18
:10358000902FA32DB22D80933B0190933C01A093EB
:103590003D01B0933E0180921E0790921F07A092BA
:1035A0002007B09221070E940B1AE985FA85C08096
:1035B000D180E280F38020E030E0A901C701B601AC
:1035C0000E9427EE811107C085E5C82EDC2C85E01E
:1035D000E82E83E4F82EC0923B01D0923C01E092A9
:1035E0003D01F0923E0140921607509217076092FB
:1035F0001807709219078D819E81AF81B8858093DD
:103600001A0790931B07A0931C07B0931D070E94F5
:103610000B1A20911E0730911F07409120075091EF
:103620002107C501B4010E9427EE87FF16C0812F34
:10363000902FA32DB22D80933B0190933C01A0933A
:103640003D01B0933E0180921E0790921F07A09209
:103650002007B09221070E940B1A0E94CE3F898159
:103660009A81AB81BC8180933B0190933C01A093F4
:103670003D01B0933E012A960FB6F894DEBF0FBE0F
:10368000CDBFDF91CF911F910F91FF90EF90DF9011
:10369000CF90BF90AF909F908F907F906F905F90F2
:1036A0004F903F902F900895CF92DF92EF92FF922C
:1036B0000F931F936B01FC01E080F1800281138165
:1036C000E6E1F7E02481358146815781608171818F
:1036D000828193810E94621A1F910F91FF90EF9057
:1036E000DF90CF9008950F931F93CF93DF9394E0D3
:1036F000899FE00111248E010D511D4FFE01EB59F0
:10370000FC4FDE01A952BD4F2D913D914D915C9131
:1037100060817181828193810E949DF2F8016083B2
:10372000718382839383FE01E751F84F85919591D0
:10373000A591B491FE01E156FA4F80839183A28353
:10374000B383FE01EB50F84F85919591A591B4910B
:10375000C25FDE4F88839983AA83BB83DF91CF91B9
:103760001F910F910895FF920F931F93CF93DF93B3
:10377000FC0120812B3319F1D0911F05D430F8F4CE
:10378000F62EBC01C09129050C2F10E0F0E6CF9F6A
:10379000C001112483569C4F0E944EF6F801ED564D
:1037A000FC4FF082CF5FC43018F4C093290502C0EB
:1037B00010922905DF5FD0931F0581E001C080E0F2
:1037C000DF91CF911F910F91FF900895DF92EF92BB
:1037D000FF920F931F93CF93DF93CDB7DEB76E9712
:1037E0000FB6F894DEBF0FBECDBF6091D4027091CA
:1037F000D5026115710509F14DE150E0CE01019648
:103800007C010E9496ED1E8EF7018F010E191F0993
:10381000D190DD2019F09AE0D912F7CFF701E00F2F
:10382000F11F108260E0C7010E94B31B882329F0BA
:10383000C7010E943CB2811109C081E02091D402ED
:103840003091D502232BA1F480E012C0DD2049F095
:103850000F5F1F4F8091D4029091D502080F191F5E
:1038600002C000E010E01093D5020093D402E5CF2F
:103870006E960FB6F894DEBF0FBECDBFDF91CF912D
:103880001F910F91FF90EF90DF9008950F931F937A
:10389000CF93DF93CDB7DEB72C970FB6F894DEBF8A
:1038A0000FBECDBFE6E1F7E080859185A285B385A7
:1038B0004481558166817781008111812281338124
:1038C00009831A832B833C834D835E836F837887C0
:1038D00089879A87AB87BC87AE01475F5F4FBE0180
:1038E0006B5F7F4FCE0101960E9412CC22E237E03F
:1038F000AE01475F5F4FBE016B5F7F4FCE01019608
:103900000E9462C62C960FB6F894DEBF0FBECDBFE4
:10391000DF91CF911F910F9108952F923F924F9277
:103920005F926F927F929F92AF92BF92CF92DF92FF
:10393000EF92FF920F931F93CF93DF93CDB7DEB734
:1039400064970FB6F894DEBF0FBECDBF1A012B01EE
:10395000922EF32EC82ED12CF601E056FA4FE491A8
:10396000AA24A3941E160CF4A12CBB24B39420E02B
:1039700030E0A901C201B1010E94FDF418160CF05B
:10398000B12CCC0CDD1CCC0CDD1CC6018A5E984F22
:103990003C01FC0110821182128213820E94461C9B
:1039A000F3012082318242825382E0902A0720E094
:1039B00030E0A901B801892D9F2D0E9427EE8111C9
:1039C0000AC0F601ED52F44D85919591A591B491FF
:1039D0008C019A2EFB2EC801A92DBF2D898B9A8BA5
:1039E000AB8BBC8B80911E0790911F07A091200785
:1039F000B091210740911A0750911B0760911C0755
:103A000070911D0700911607109117072091180754
:103A10003091190709831A832B833C834D835E837E
:103A20006F83788789879A87AB87BC871D861E86B8
:103A30001F86188AAE01475F5F4FBE016B5F7F4FE5
:103A4000CE0101960E9412CCCE010D966C018E0122
:103A50000F5E1F4F22E237E0AE01475F5F4FBE01AE
:103A60006B5F7F4F0C970E94FF310E94CE3FAB14DB
:103A700059F080911D05882319F010921D0504C08E
:103A800081E098E00E94E8B464960FB6F894DEBF37
:103A90000FBECDBFDF91CF911F910F91FF90EF909F
:103AA000DF90CF90BF90AF909F907F906F905F908E
:103AB0004F903F902F900895809127059091280571
:103AC000009731F04AE050E060E070E00C945FEC69
:103AD00060E070E0CB010895809127059091280562
:103AE000009731F04AE050E060E070E00C9431EB78
:103AF00060E070E0CB0108950E946C1D97FD0CC042
:103B00000E946C1D6F3F71058105910509F034F429
:103B10000E946C1D862F089580E008958FEF089510
:103B20008091270590912805892B39F00E947C1DF2
:103B300091E0811103C090E001C091E0892F0895C8
:103B40000F931F93CF93809127059091280500979D
:103B5000F1F0FC018F01C1912C2F2F7D89F0C5342C
:103B600011F0C536B9F7F801108260E070E00E94EC
:103B7000D5E9F801C083562F472F382F292F0BC0C6
:103B800060E070E0CF911F910F910C94D5E950E067
:103B900040E030E020E0652F742F832F922FCF91EB
:103BA0001F910F91089581548A3108F042C0E82F87
:103BB000F0E0409168025091690260916A02709150
:103BC0006B0204C076956795579547958A95D2F70D
:103BD000842F817040FF2FC0E25BFD4F90819923BD
:103BE00009F1E0910407F0910507E90FF11D9081BB
:103BF00020ED290F2A3098F09E3211F491810CC0EB
:103C00009D3211F09B3271F4918120ED290F2A3001
:103C100030F09E3239F4928190539A3018F42E2F5E
:103C20009F2F02C020E090E0209327059093280565
:103C3000089580E0089508950E94D31D882341F0DF
:103C400081E02091270530912805232B09F480E09D
:103C500008959F92AF92BF92CF92DF92EF92FF9220
:103C60000F931F93CF93DF9389E5A82E81E0B82EA1
:103C700006E017E0C6E1D7E093EEC92E92E0D92E18
:103C800027E9E22E23E0F22E912CF50181915F01CC
:103C90000E94D31D882309F10E94A01DF7012081F5
:103CA000211104C020919B03222339F028813981FE
:103CB0004A815B810E949DF20AC0F3E09F1639F0B1
:103CC000F60120813181428153810E949CF2F801EA
:103CD000608371838283938309C088819981AA81DB
:103CE000BB81F80180839183A283B38393940C5F9B
:103CF0001F4F2496F4E0CF0ED11C2FEFE21AF20AE8
:103D000084E09812C2CF86E40E941C1E8823C9F06A
:103D10000E94A01D20E030E0A9010E94FDF41816C9
:103D200084F40E94A01D20E030E040E752E40E94AD
:103D300097F360933B0170933C0180933D01909316
:103D40003E0180912E0783FD28C0809113098823AE
:103D500021F12091220730912307409124075091AF
:103D600025076091120770911307809114079091B5
:103D700015070E949CF22091240930912509409159
:103D80002609509127090E949DF26093240970939F
:103D900025098093260990932709DF91CF911F91E0
:103DA0000F91FF90EF90DF90CF90BF90AF909F90DA
:103DB00008952F923F924F925F926F927F928F92CF
:103DC0009F92AF92BF92CF92DF92EF92FF920F93AA
:103DD0001F93CF93DF93EB01FC0180809180A28041
:103DE000B380C501B40120E831E541E050E00E9414
:103DF00060F2C9016DE671E00E94BDF56B017C01C6
:103E0000C501B40120E13EE040E050E00E9460F2D4
:103E1000CA01B90128E130E040E050E00E9460F2C0
:103E2000362E272E062F172F8CE3482E512C612C6F
:103E3000712CC501B401A30192010E9460F2B62E5B
:103E4000A72ECA01B901A30192010E9460F2CB0121
:103E5000C114D104D9F0AF92BF927F936F932F9288
:103E60003F92FF92EF92DF92CF9287EB96E09F9383
:103E70008F93DF93CF930E94BFED8DB79EB70E96C1
:103E80000FB6F8949EBF0FBE8DBF5CC0E114F10465
:103E9000C9F0AF92BF927F936F932F923F92FF92A0
:103EA000EF9287EA96E09F938F93DF93CF930E94E0
:103EB000BFEDEDB7FEB73C960FB6F894FEBF0FBE50
:103EC000EDBF40C0012BB9F0AF92BF927F936F93CB
:103ED0002F923F928BE996E09F938F93DF93CF933E
:103EE0000E94BFED8DB79EB70A960FB6F8949EBF9D
:103EF0000FBE8DBF27C0892BA9F0AF92BF927F93D1
:103F00006F9383E996E09F938F93DF93CF930E9403
:103F1000BFEDEDB7FEB738960FB6F894FEBF0FBEF3
:103F2000EDBF10C0AF92BF928FE896E09F938F9342
:103F3000DF93CF930E94BFED0F900F900F900F90E3
:103F40000F900F90DF91CF911F910F91FF90EF9005
:103F5000DF90CF90BF90AF909F908F907F906F90A9
:103F60005F904F903F902F90089580E1E6E1F7E059
:103F7000A6E0B7E001900D928A95E1F7089580E1FF
:103F8000E6E0F7E0A6E1B7E001900D928A95E1F74F
:103F90000895AF92BF92CF92DF92EF920F931F934B
:103FA000CF93DF93CDB7DEB760970FB6F894DEBF3F
:103FB0000FBECDBF5C018B010E94B51FE0902A07A8
:103FC00086E0C82E87E0D82E84E0E89EF001112418
:103FD000E95FFE4F2081318142815381F50160818B
:103FE0007181828193810E9497F3F6012485358542
:103FF000468557850E949DF2F601648775878687FE
:1040000097871D861E861F86188A80819181A281CE
:10401000B38189839A83AB83BC8384819581A68194
:10402000B7818D839E83AF83B88780859185A28574
:10403000B38589879A87AB87BC87AE01475F5F4F9F
:10404000BE016B5F7F4FCE0101960E9412CCCE0164
:104050000D966C0122E137E0AE01475F5F4FBE0174
:104060006B5F7F4F0C970E94FF310E94BF1F0E9421
:10407000CE3F60960FB6F894DEBF0FBECDBFDF9186
:10408000CF911F910F91EF90DF90CF90BF90AF90A5
:1040900008959091C00095FFFCCF8093C6000895CD
:1040A000CF93DF93E4E6F3E28491EF012196882336
:1040B00021F00E944920FE01F7CFE4E2F8E084916C
:1040C000EF012196882321F00E944920FE01F7CFBD
:1040D000DF91CF910895CF93DF93EFE0F8E08491E3
:1040E000EF012196882321F00E944920FE01F7CF9D
:1040F000DF91CF910895CF92DF92EF92FF920F93CD
:104100001F93CF93DF9380911F05843008F027C160
:104110000E94D018AC0197FD22C1982F20918307EF
:10412000309184078A3019F09D3009F0E6C0109272
:104130008E052115310519F40E94AC66E4CFF90112
:10414000E25DFA4F10821092840710928307CEE24C
:10415000D5E0FE018191803211F4EF01FACF8E3467
:1041600009F07EC0209709F47BC061ED77E0CE01B5
:104170000E94A5ED8C01892B41F06EE470E0CE0128
:1041800004960E943AF6009709F4CE014AE050E006
:1041900060E070E001960E9431EB60932A05709315
:1041A0002B0580932C0590932D05C0908507D0900A
:1041B0008607E0908707F09088072FEFC21AD20A8F
:1041C000E20AF20A6C157D058E059F0529F0012B88
:1041D00019F48EE997E02AC06AE270E0CE010E94ED
:1041E00072F69C01009701F1982F9C1B10E0992317
:1041F00039F09150FE01E90FF11D80811827F7CFAA
:104200004AE050E060E070E0C90101960E9431EBA5
:10421000012F10E020E030E060177107820793075C
:1042200079F08FE797E002C085E597E0DF91CF91C5
:104230001F910F91FF90EF90DF90CF900C94089A10
:1042400080912A0590912B05A0912C05B0912D0508
:104250008093850790938607A0938707B09388077C
:1042600080910D01811124C067E470E0CE010E94AD
:104270003AF60097E9F04AE050E060E070E001961D
:104280000E9431EB643071058105910588F4EEEDF3
:10429000F6E084918F010F5F1F4F882321F00E9469
:1042A0004920F801F6CF60E084ED96E00E9455AF1A
:1042B0006AE172E0CE010E9445F6892B21F410924A
:1042C00041011092EF026FE172E0CE010E9445F6CB
:1042D000892B21F48BEC96E00E94E8B464E272E052
:1042E000CE010E9445F6892B11F40E94FB7861E013
:1042F0008EE295E00E94B31B06CF2F3531050CF0FE
:1043000002CF9C35C1F40E94D01897FDFCCE2091BD
:104310008E052111F8CE2091830730918407A901E1
:104320004F5F5F4F5093840740938307F901E25D2D
:10433000FA4F8083E8CE9B3319F481E080938E0599
:1043400080918E058111DFCEC9010196909384077B
:1043500080938307F901E25DFA4F4083D4CEDF9169
:10436000CF911F910F91FF90EF90DF90CF90089524
:104370008F929F92AF92BF92EF92FF920F931F93F3
:10438000CF93DF93CDB7DEB7A0970FB6F894DEBF1B
:104390000FBECDBF611571058105910591F100E05A
:1043A000842E912CA12CB12C102FEE24E394F12C0F
:1043B000EC0EFD1EE00EF11C07FDFA94A501940120
:1043C0000E9460F2F7016083B901CA010F5F6115B5
:1043D00071058105910541F71F3F31F1E1E0F0E002
:1043E000EC0FFD1FE10FF11D17FDFA9580818A305A
:1043F00010F097E301C090E3890F0E94492011500B
:10440000EBCF80E3A0960FB6F894DEBF0FBECDBF12
:10441000DF91CF911F910F91FF90EF90BF90AF90E0
:104420009F908F900C944920A0960FB6F894DEBF11
:104430000FBECDBFDF91CF911F910F91FF90EF90F5
:10444000BF90AF909F908F900895EF92FF920F933F
:104450001F93CF93DF937C0184E50E941C1ED82F0D
:10446000882349F10E947C1DC82F181604F5EEE53B
:10447000F3E284918F010F5F1F4F882321F00E9488
:104480004920F801F6CF8DE40E944920B70180E071
:1044900090E04AE00E94B8216C2FCC0F770B86ED9C
:1044A00097E00E94D0C38AE00E94492008C0809310
:1044B0009103D0E004C080912A07809391038D2F4F
:1044C000DF91CF911F910F91FF90EF900895CF92C0
:1044D000DF92EF92FF926B017C0197FF0BC08DE2A0
:1044E0000E944920F094E094D094C094C11CD11C47
:1044F000E11CF11C4AE0C701B601FF90EF90DF908C
:10450000CF900C94B8214F925F926F927F928F92CE
:104510009F92AF92BF92CF92DF92EF92FF92CF9392
:10452000DF932091E3023091E4024091E502509143
:10453000E602609116077091170780911807909115
:1045400019070E949DF2AB01BC0181E998E00E942D
:10455000B3C32091E7023091E8024091E902509103
:10456000EA0260911A0770911B0780911C079091D5
:104570001D070E949DF2AB01BC018DE898E00E94EE
:10458000B3C32091EB023091EC024091ED025091C7
:10459000EE0260911E0770911F0780912007909195
:1045A00021070E949DF2AB01BC0189E898E00E94BE
:1045B000B3C3409122075091230760912407709163
:1045C000250785E898E00E94B3C380916F00982F7B
:1045D000927081FF05C080916F008D7F80936F0086
:1045E000409063075090640760906507709066077D
:1045F0008090670790906807A0906907B0906A075D
:10460000C0906B07D0906C07E0906D07F0906E073C
:10461000992329F080916F00826080936F00EBE70F
:10462000F8E08491EF012196882321F00E9449202F
:10463000FE01F7CFC301B2010E946722E7E7F8E06D
:104640008491EF012196882321F00E944920FE01E8
:10465000F7CFC501B4010E946722E3E7F8E0849137
:10466000EF012196882321F00E944920FE01F7CF17
:10467000C701B6010E9467228AE0DF91CF91FF90C7
:10468000EF90DF90CF90BF90AF909F908F907F90F2
:104690006F905F904F900C9449208F929F92AF92B1
:1046A000BF92EF92FF920F931F93CF93DF9300D0AF
:1046B00000D0CDB7DEB7182F80917B03877087308D
:1046C00069F48FE40E941C1E882319F00E94901D3B
:1046D00003C08FE40E94D31D8111C2C00E94CE3F4F
:1046E00080E00E94EA1980913B0190913C01A091E9
:1046F0003D01B0913E018093910590939205A09366
:104700009305B093940580913F019091400190935F
:10471000900580938F0584E690E09093400180930C
:104720003F0181E080930B0311111BC088E50E94BB
:10473000D31DF82E89E50E94D31D082F8AE50E941B
:10474000D31DE82EF11006C0011109C0811107C068
:10475000F02E0CC0002319F0F02E182F08C010E026
:1047600006C0FF24F39401E0EE24E39411E00E94DC
:10477000B51F82E50E941C1E882361F00E94A01DC7
:104780004B015C0120E030E0A9010E9427EE882364
:1047900071F106C0812C912C80EAA82E80E4B82EFD
:1047A000111104C0F11002C0002391F180920E0794
:1047B00090920F07A0921007B0921107A5019401E3
:1047C00060911E0770911F0780912007909121072B
:1047D0000E9427EE87FF0BC019821A821B821C825F
:1047E000BE016F5F7F4F8EE097E00E94541B111156
:1047F00005C0011103C0F11006C00AC081E00E948B
:104800005BB11123C1F380E00E945BB1111102C0C2
:10481000EE2019F082E00E945BB10E94461C80915C
:104820000A0380930B038091910590919205A091CA
:104830009305B091940580933B0190933C01A09324
:104840003D01B0933E0180918F059091900590932A
:10485000400180933F0183E0809344010E948322C2
:104860000F900F900F900F90DF91CF911F910F91AC
:10487000FF90EF90BF90AF909F908F900895CF9250
:10488000DF92EF92FF920F931F93CF93DF93CDB7F9
:10489000DEB72C970FB6F894DEBF0FBECDBF7B01FD
:1048A0008C01D42E9B01AC016091EE057091EF0557
:1048B0008091F0059091F1050E9427EE882309F47C
:1048C00096C0C090920380E00E94EA1920E030E098
:1048D000A901B701C8010E94FDF4181624F0E12CCB
:1048E000F12C00E010E0C701D8018093EE05909311
:1048F000EF05A093F005B093F1052DEB37E346E803
:1049000055EBB701C8010E94FDF487FD0AC02DEBED
:1049100037E346E855E3B701C8010E9427EE1816B1
:104920004CF49701A80160E070E080E89FE30E94EA
:1049300097F303C060E070E0CB016093F80D7093D3
:10494000F90D8093FA0D9093FB0D80EF9FEFA9E78F
:10495000B4EC8093FC0D9093FD0DA093FE0DB093ED
:10496000FF0DCC2009F443C08091160790911707E2
:10497000A0911807B091190789839A83AB83BC83F0
:1049800080911A0790911B07A0911C07B0911D07F9
:104990008D839E83AF83B88780911E0790911F07F8
:1049A000A0912007B091210789879A87AB87BC87A0
:1049B00081E00E94EA19DD20D1F04CE050E066E190
:1049C00077E0CE0101960E9426F6892B81F02C9685
:1049D0000FB6F894DEBF0FBECDBFDF91CF911F9110
:1049E0000F91FF90EF90DF90CF900C9483222C9644
:1049F0000FB6F894DEBF0FBECDBFDF91CF911F91F0
:104A00000F91FF90EF90DF90CF9008952F923F92FB
:104A10004F925F926F927F928F929F92AF92BF92CE
:104A2000CF92DF92EF92FF920F931F93CF93DF937A
:104A3000CDB7DEB762970FB6F894DEBF0FBECDBF1D
:104A400080912E0783FDA3C183E50E941C1E8C87E5
:104A5000811106C082E50E941C1E882309F497C1BB
:104A60000E94A01D0E9409F4643671050CF08CC1EF
:104A70007093170E6093160E0E9442650E94A01D4F
:104A800020E030E040E251E40E94FDF4181614F4F6
:104A90000E9404C46091160E7091170E072E000C30
:104AA000880B990B0E942EEE2091F7053091F805A6
:104AB0004091F9055091FA050E94FDF418161CF07A
:104AC00085E598E002C084E698E060E00E9455AF7A
:104AD00081E08093410180912A07809391031A829B
:104AE0001B821C821D82188619861A861B861982D3
:104AF0001D862CE32E873CE13F8746E4488B312C12
:104B0000212C50E8598B8FEB8A8B812C912C5401EE
:104B10006091160E7091170E072E000C880B990BE2
:104B20000E942EEE7B018C019B01AC01632D722D46
:104B300089899A890E9427EE882309F442C020912E
:104B4000F7053091F8054091F9055091FA059C85DB
:104B5000B701802F91110CC0912F0E9427EE881F62
:104B60008827881F89833E2C2F2C098B1A8B29C0FC
:104B7000912F0E9427EE87FF1FC08091410188235B
:104B800009F405C162960FB6F894DEBF0FBECDBF23
:104B9000DF91CF911F910F91FF90EF90DF90CF9019
:104BA000BF90AF909F908F907F906F905F904F904D
:104BB0003F902F900C942D5E3E2C2F2C098B1A8B3E
:104BC00019820E9413D26B017C01DC01CB01288584
:104BD00039854A855B85821B930BA40BB50BB7FD0A
:104BE0003BC0D701C60188519C4FAF4FBF4F88874C
:104BF0009987AA87BB870E941063E1E5F8E084915A
:104C00003F019FEF691A790A882321F00E94492009
:104C1000F301F5CF81149104A104B104B9F0D501D9
:104C2000C401805F984DAF4FBF4FBC01CD016C19DF
:104C30007D098E099F0928EE33E040E050E00E9494
:104C400060F2CA01B9010E94672203C08FE30E948B
:104C500049208AE00E94492080E00E943DBB0E94DA
:104C600013D26093DF087093E0088093E10890937B
:104C7000E208A091F705AE83B091F805BF830091DB
:104C8000F9051091FA059D01A801632D722D8989FE
:104C90009A890E949CF22B013C0120E030E0A9019E
:104CA0000E94FDF487FF04C077FA709477F870943F
:104CB00081149104A104B10459F420E030E040E8EB
:104CC0005FE3C301B2010E9427EE87FF0DC00AC057
:104CD00020E030E040E450E4C301B2010E94FDF462
:104CE000181614F44601570129812223A9F18A815B
:104CF0009B81AC81BD81892B8A2B8B2B61F0D701E5
:104D0000C6012A813B814C815D81821B930BA40BE0
:104D1000B50BB7FD21C02E813F81A8016D857E8531
:104D20008F8598890E949CF220E030E040EC5FE3A0
:104D30000E9427EE87FD21CFD701C601805A9541F9
:104D4000AF4FBF4F8A839B83AC83BD839E819D877A
:104D5000AF81AE870F87188B80914101882309F4BA
:104D60000CCF81149104A104B10409F4D1CEB0E1B7
:104D7000CB1AB7E2DB0AE108F108C818D908EA083B
:104D8000FB08F7FEFACEC4CE64E670E071CE629600
:104D90000FB6F894DEBF0FBECDBFDF91CF911F914C
:104DA0000F91FF90EF90DF90CF90BF90AF909F90CA
:104DB0008F907F906F905F904F903F902F900895CD
:104DC0002F923F924F925F926F927F928F929F921B
:104DD000AF92BF92CF92DF92EF92FF920F931F9309
:104DE000CF93DF93CDB7DEB762970FB6F894DEBFEF
:104DF0000FBECDBF8DE690E00E9425228111B7C184
:104E000080912E0783FDB3C183E50E941C1E8F8312
:104E1000811107C082E50E941C1E8983882309F442
:104E200044C00E94A01D0E9409F4CB010E94FAAE6A
:104E30000E94A01D20E030E04AEA52E40E9427EEE2
:104E400018160CF48BC10E9455C50E942D5E60910E
:104E50002C0770912D07072E000C880B990B0E94D0
:104E60002EEE6B017C018090260790902707A09082
:104E70002807B0902907A50194010E94FDF4181697
:104E80000CF46FC12F8121116FC1A5019401C701DD
:104E9000B6010E94FDF418160CF463C187E398E094
:104EA00060E00E9455AF31E039830E94D7C5598137
:104EB000552309F45CC181E0809341011B821C826F
:104EC0001D821E8219861A861B861C861A821D86E2
:104ED0008CE38E879CE19F87A6E4A88B1A8A312CED
:104EE000B0E8B9832FEB298B812C912C5401609170
:104EF0002C0770912D07072E000C880B990B0E9430
:104F00002EEE7B018C019B01AC016A89732D898196
:104F100099890E9427EE882309F441C02091260731
:104F20003091270740912807509129078F81B701B9
:104F300081110CC0C8010E9427EE881F8827881F96
:104F40008A83EA8A3F2C0983198B29C0C8010E94F1
:104F500027EE87FF1FC080914101882309F407C114
:104F600062960FB6F894DEBF0FBECDBFDF91CF9132
:104F70001F910F91FF90EF90DF90CF90BF90AF9077
:104F80009F908F907F906F905F904F903F902F9069
:104F90000C942D5EEA8A3F2C0983198B1A820E9499
:104FA00013D26B017C01DC01CB0129853A854B854D
:104FB0005C85821B930BA40BB50BB7FD3BC0D701DF
:104FC000C60188519C4FAF4FBF4F89879A87AB87E7
:104FD000BC870E941063E3E3F8E084913F019FEFF8
:104FE000691A790A882321F00E944920F301F5CF3C
:104FF00081149104A104B104B9F0D501C401805F0A
:10500000984DAF4FBF4FBC01CD016C197D098E0982
:105010009F0928EE33E040E050E00E9460F2CA01B0
:10502000B9010E94672203C08FE30E9449208AE0F1
:105030000E94492080E00E943DBB0E9413D26093F1
:10504000DF087093E0088093E1089093E2082090D5
:105050002607A0912707A887009128071091290704
:10506000222D3A2FA8016A89732D898199890E947E
:105070009CF22B013C0120E030E0A9010E94FDF4EC
:1050800087FF04C077FA709477F8709481149104C4
:10509000A104B10459F420E030E040E85FE3C3012B
:1050A000B2010E9427EE87FF0DC00AC020E030E069
:1050B00040E450E4C301B2010E94FDF4181614F458
:1050C00046015701BA81BB2389F12B813C814D8177
:1050D0005E81211531054105510541F0D701C60119
:1050E000821B930BA40BB50BB7FD20C0222D388576
:1050F000A8016D857E858F8598890E949CF220E0AD
:1051000030E040EC5FE30E9427EE87FD24CFD7011B
:10511000C601805A9541AF4FBF4F8B839C83AD83AF
:10512000BE832D8698859E870F87188B80914101BD
:10513000882309F410CF81149104A104B10409F467
:10514000D6CEA0E1CA1AA7E2DA0AE108F108C81827
:10515000D908EA08FB08F7FEFECEC9CE0E9404C4B7
:1051600076CE84E498E09CCE41E049839ECE629660
:105170000FB6F894DEBF0FBECDBFDF91CF911F9168
:105180000F91FF90EF90DF90CF90BF90AF909F90E6
:105190008F907F906F905F904F903F902F900895E9
:1051A0008F929F92AF92BF92CF92DF92EF92FF9237
:1051B000CF936B017C01B42E20E030E0A9010E9466
:1051C00027EE87FF07C08DE20E944920F7FAF0948E
:1051D000F7F8F094C0E060E070E080E09FE3CB156A
:1051E00041F02DEC3CEC4CEC5DE30E948DEECF5F8A
:1051F000F6CF9B01AC01C701B6010E949DF26B0185
:105200007C010E9410F44B015C014AE00E94B8212D
:10521000CC2389F1C501B4010E942CEE9B01AC01A5
:10522000C701B6010E949CF26B017C018EE20E94D4
:10523000492020E030E040E251E4C701B6010E947D
:105240008DEE4B015C010E9409F46B01770FEE08B3
:10525000FF08C701B6010E946722C701B6010E947C
:105260002EEE9B01AC01C501B4010E949CF26B01C2
:105270007C01C150F1F6CF91FF90EF90DF90CF907D
:10528000BF90AF909F908F900895CF93DF930E942F
:105290007FC28BE50E944920C2EDD8E06881798108
:1052A0008A819B8142E00E94D0284C815D816E8181
:1052B0007F8181E298E00E94B3C3488559856A8561
:1052C0007B858EE198E00E94B3C38DE50E94492062
:1052D0008AE0DF91CF910C9449201F920F920FB674
:1052E0000F9211240BB60F922F938F939F93EF93EE
:1052F000FF932091D108E091D00881E08E0F8F7745
:105300009091C600281729F0F0E0E05BF74F9083FA
:10531000E82FE093D008FF91EF919F918F912F910B
:105320000F900BBE0F900FBE0F901F90189521E0AD
:1053300020932F076093AB057093AC058093AD0568
:105340009093AE0540E050E0BA018091AF05909196
:10535000B0050C94EB5560E070E080E291E40C94B1
:10536000972960E070E080E89FE30C9497296DEC4A
:105370007CEC8CEC9DE30C9497298091440188236C
:1053800031F060E070E084EC98E00E944D5784E0DA
:1053900080934401809133078770873039F440E06F
:1053A00050E0BA018AEE91E30C94EB550895CF9248
:1053B000DF92EF92FF92CF93C82F0E9413D26B011E
:1053C0007C0124EA30E74DE75FE36091AB05709123
:1053D000AC058091AD059091AE050E9427EE87FD4A
:1053E00005C08AEF90E0A0E0B0E003C080E090E06C
:1053F000DC01C80ED91EEA1EFB1EC092CD05D0925C
:10540000CE05E092CF05F092D005C0931A01CF915E
:10541000FF90EF90DF90CF9008958091DC0510927F
:10542000DC05882321F010922F070C94C65E609152
:10543000010E7091020E8091030E9091040E611581
:1054400071058105910561F10E942EEE2091AB0559
:105450003091AC054091AD055091AE050E948DEEA6
:10546000209122073091230740912407509125076E
:105470000E949DF260932207709323078093240774
:105480009093250783E00E94D72981E0809344010F
:105490001092010E1092020E1092030E1092040E42
:1054A00080914401882349F082E297E00E94EFABAB
:1054B000BC0184E19AE00C944D5708953F924F92BD
:1054C0005F926F927F928F929F92AF92BF92CF9294
:1054D000DF92EF92FF920F931F93CF93DF93CDB79D
:1054E000DEB72A970FB6F894DEBF0FBECDBF9A87FE
:1054F0008987362E8091DC051092DC05882329F0FF
:1055000010922F070E94C65EF8C08091010E909104
:10551000020EA091030EB091040E8D839E83AF8383
:10552000B887892B8A2B8B2B09F4A4C094E0699F40
:1055300080011124F801EA5EF84F408051806280BA
:10554000738020E030E04AE754E4C301B2010E94D6
:105550009CF24B015C0120E030E04AE754E4C301D7
:10556000B2010E949DF26B017C0180913A01882377
:10557000D1F1A1E03A1639F13A16A0F0B2E03B12AF
:1055800032C08090A7059090A805A090A905B09082
:10559000AA05C0901601D0901701E0901801F09074
:1055A000190121C080909F059090A005A090A105B1
:1055B000B090A205C0900E01D0900F01E0901001B4
:1055C000F090110110C08090A3059090A405A090C8
:1055D000A505B090A605C0901201D0901301E090EF
:1055E0001401F09015016D817E818F8198850E9454
:1055F0002EEE2091AB053091AC054091AD05509158
:10560000AE050E948DEEA30192010E949DF22B0136
:105610003C018D819E81AF81B885A3019201B7FFC6
:1056200016C0C501B4010E94FDF4181644F0F8013B
:10563000EA5EF84F408251826282738215C0F8019F
:10564000EA5EF84F80829182A282B3820DC0C701C8
:10565000B6010E9427EE87FFEACFF801EA5EF84F15
:10566000C082D182E282F382832D0E94D72981E019
:10567000809344011092010E1092020E1092030EBC
:105680001092040E809144018823B9F1A4E03A9E5F
:10569000C0011124FC01EA5EF84FDC01AD51BD4FA1
:1056A0002D913D914D915C916081718182819381B9
:1056B0000E949DF269837A838B839C832DEC3CEC62
:1056C0004CEC5DE36091AB057091AC058091AD054C
:1056D0009091AE050E94FDF487FD05C0CE010196B4
:1056E0000E94EFAB05C060E2CE0101960E9457AB6D
:1056F000BC0189859A850E944D572A960FB6F89469
:10570000DEBF0FBECDBFDF91CF911F910F91FF90F4
:10571000EF90DF90CF90BF90AF909F908F907F9051
:105720006F905F904F903F90089562E08DE09AE017
:105730000C945E2A61E086E09AE00C945E2A60E0B8
:105740008FEF99E00C945E2A81E080932F071092EE
:10575000330740E050E0BA018DEB99E20E94EB552F
:105760008FEC98E09093D5028093D4020C94E61BC2
:105770002F923F925F926F928F929F92AF92BF92C1
:10578000CF92DF92EF92FF920F931F93CF9361E03E
:1057900081E00E943E5EC091CC05612C39E9232E48
:1057A00039E0332E05E519E042ECE42E49E0F42E11
:1057B0005FECC52E59E0D52E6CEDA62E69E0B62E15
:1057C0007CEE872E79E0972EC11120C08091390898
:1057D000882331F080914401882309F47AC00DC0F8
:1057E0008091DC058823B1F31092DC050E94C65E2F
:1057F00080913808882371F300C281E090913908C4
:10580000911180E024E04AEF59E060C0C13019F501
:1058100080913908813031F080914401882309F466
:1058200058C00FC08091DC058823B1F31092DC05CD
:1058300089E091E90E947C5380913808882361F3C4
:10584000DCC181E090913908913009F080E023E0DB
:1058500040EF59E03BC0C23021F5809139088230D9
:1058600029F0809144018823A1F111C08091DC05C9
:105870008823B9F31092DC059092D5028092D4026D
:105880000E94E61B80913808882359F3B6C181E055
:1058900090913908923009F080E020E242EE59E020
:1058A00015C0C33009F0E2C080913908833009F493
:1058B000CAC080914401882361F081E09091390849
:1058C000933009F080E020E245ED59E0662D0E941A
:1058D000B3AE80912C0790912D072091160E309138
:1058E000170E232B11F4892B61F1C93069F58091D2
:1058F0003908893031F080914401882309F47AC154
:1059000013C08091DC058823B1F31092DC0510925E
:10591000190E1092180E0E948E650E94BF5E809133
:105920003808882341F369C181E0909139089930A2
:1059300009F080E020E242E759E0662D0E94B3AE14
:1059400059C129E0522E02C09AE0592E5C1223C0A0
:1059500080913908851529F0809144018823D9F078
:105960000FC08091DC058823B9F31092DC0580E636
:1059700095E40E947C5380913808882369F33DC1E7
:1059800081E0909139089C1380E023E046E659E0DD
:10599000662D0E94B3AE81E0850D8C1323C08091EB
:1059A00039088C1729F0809144018823D9F00FC061
:1059B0008091DC058823B9F31092DC0582EA94E437
:1059C0000E947C5380913808882369F316C181E0D6
:1059D000909139089C1380E023E04AE559E0662D58
:1059E0000E94B3AE82E0850D8C1323C080913908EC
:1059F0008C1729F0809144018823D9F00FC0809141
:105A0000DC058823B9F31092DC0584EE93E40E9450
:105A10007C5380913808882369F3EFC081E090912E
:105A200039089C1380E023E04BE759E0662D0E9483
:105A3000B3AE6394CF5F85E06812C6CE83E0850D78
:105A40008093CB05DAC08091DC05882309F431CF3F
:105A50001092DC05B092D502A092D4020E94E61BFF
:105A600080913808882309F424CFC7C0C43029F5B1
:105A700080913908843031F080914401882309F401
:105A800028CF11C08091DC058823B1F31092DC058A
:105A9000D092D502C092D4020E94E61B80913808B1
:105AA000882351F3AAC081E090913908943009F01D
:105AB00080E020E248EC59E009CFC53029F580911B
:105AC0003908853031F080914401882309F401CFF1
:105AD00011C08091DC058823B1F31092DC05F092AF
