:100000000C94CC170C94F6170C94F6170C94F61766
:100010000C94F6170C94F6170C94F6170C94F6172C
:100020000C94F6170C94F6170C94F6170C94F6171C
:100030000C94F6170C9445410C94F6170C94F61793
:100040000C94F6170C9479300C94CACB0C94F617D8
:100050000C948BBC0C94F6170C94F6170C94F617B2
:100060000C94F6170C94F6170C94F6170C94F617DC
:100070000C94F6170C94F6170C94F6170C94F617CC
:100080000C945A420C94F6170C94F6174E414E49B4
:100090004E495459494E46CDCCCC3D0AD7233C1746
:1000A000B7D13877CC2B329595E6241FB14F0A0093
:1000B0000020410000C84200401C4620BCBE4CCA83
:1000C0001B0E5AAEC59D741000C90210012C0140D0
:1000D00001220170011801B0010E01F0010401506C
:1000E00002FA00B002F0003003E600D003DC00901A
:1000F00004D2007005C800A006BE000008B400B01D
:1001000009AA00D00BA000600E960060118C0000C0
:1001100015820020197800C01D6E00A0226400B076
:10012000275A00902C500000314600E0343C00106B
:10013000383200903A2800603C1E00A03D14008038
:100140003E0A00203F00004D6F76696E672E2E2E0E
:1001500000454550524F4D206461746173697A6562
:10016000206572726F722E0A00290A00206279746B
:1001700065733B20637263200053657474696E6716
:10018000732053746F726564202800290A0020626E
:10019000797465733B2063726320002073746F72FF
:1001A00065642073657474696E6773207265747218
:1001B0006965766564202800202863616C63756C2E
:1001C0006174656429210A0020213D2000454550C5
:1001D000524F4D20435243206D69736D61746368C3
:1001E000202D202873746F726564292000205369C4
:1001F0007A653A2000496E6465783A2000204D61A6
:10020000726C696E3D563535290A002845455052B5
:100210004F4D3D00454550524F4D207665727369F4
:100220006F6E206D69736D61746368200048617240
:1002300064636F6465642044656661756C74205303
:10024000657474696E6773204C6F616465640A003D
:10025000282300002823000064000000102700006D
:100260000000FA430000FA43000040410000484209
:1002700048E1A04214AE9F423373C843F6E82443DA
:100280003A0A0020286D6D290020204D3630332099
:10029000002055004C0046696C616D656E74206CE1
:1002A0006F61642F756E6C6F6164206C656E67742E
:1002B00068733A0A0020204D383531205A005A2DF3
:1002C00050726F6265204F6666736574002044004B
:1002D00020490020204D3330312050005049442027
:1002E00073657474696E67733A0A00204600204291
:1002F0000020480020204D3134352053004D6174DA
:10030000657269616C2068656174757020706172D6
:10031000616D65746572733A0A00205A00204A00C4
:100320002020473239205720490020204D343230D8
:100330002053004175746F20426564204C657665DA
:100340006C696E673A0A00205A0020590020204D3F
:10035000323036205800486F6D65206F66667365D1
:10036000743A0A00204500205A0020590020580005
:1003700020540020530020204D32303520510020E1
:10038000453C6D61785F655F6A65726B3E00205821
:100390003C6D61785F785F6A65726B3E20593C6D99
:1003A00061785F795F6A65726B3E205A3C6D617857
:1003B0005F7A5F6A65726B3E00416476616E636569
:1003C000643A20513C6D696E5F7365676D656E744C
:1003D0005F74696D655F75733E20533C6D696E5F38
:1003E00066656564726174653E20543C6D696E5F3C
:1003F00074726176656C5F66656564726174653E92
:100400000020540020520020204D32303420500073
:10041000416363656C65726174696F6E2028756EE7
:100420006974732F7332293A20503C7072696E746C
:100430005F616363656C3E20523C726574726163F8
:10044000745F616363656C3E20543C7472617665D1
:100450006C5F616363656C3E0A00204500205A00B2
:1004600020590020204D3230312058004D617869EC
:100470006D756D20416363656C65726174696F6E43
:100480002028756E6974732F7332293A0A0020454B
:1004900000205A0020590020204D323033205800CF
:1004A0004D6178696D756D2066656564726174650E
:1004B000732028756E6974732F73293A0A002045DA
:1004C00000205A0020590020204D39322058005376
:1004D000746570732070657220756E69743A0A00D5
:1004E00020204D3230302044300A0020204D323060
:1004F000302044002044697361626C65640A0046E0
:10050000696C616D656E742073657474696E677370
:100510003A0020204D3134392043203B20556E696C
:10052000747320696E2043656C736975730A0020CB
:1005300020473231202020203B0054524947474574
:10054000524544006F70656E003A20007A5F6D6915
:100550006E00795F6D696E00785F6D696E0052653F
:10056000706F7274696E6720656E6473746F70204B
:100570007374617475730A0020636F6C642065780E
:1005800074727573696F6E2070726576656E7465CE
:10059000640A0024F4D43050C38E20C2A2401782D3
:1005A0008B7011127A910D816CD90AA861E108C78C
:1005B000586607615143061E4B5D05C145A7041AE5
:1005C000411104093D9803713931034036DB02655E
:1005D000339102D4305402802E1D02632CEE01753B
:1005E0002AC501B028A001102781018F2564012BA5
:1005F000244B01E0223401AC211F018D200D01802C
:100600001FFC00841EED00971DDF00B81CD200E621
:100610001BC600201BBC00641AB200B219A8000A55
:1006200019A0006A189900D117910040178B00B5E6
:1006300016840031167E00B31579003A157300C791
:10064000146F0058146A00EE1366008813630025C7
:10065000135E00C7125B006C12570015125400C1E4
:1006600011510070114F0021114B00D61049008D1F
:100670001047004610440002104200C00F400080A6
:100680000F3E00420F3C00060F3B00CB0E3800939C
:100690000E37005C0E3500270E3400F30D3200C11A
:1006A0000D3100900D3000600D2E00320D2D000533
:1006B0000D2C00D90C2B00AE0C2900850C29005CF8
:1006C0000C2700350C27000E0C2600E80B2400C474
:1006D0000B2400A00B23007D0B23005A0B210039B3
:1006E0000B2100180B2000F80A1F00D90A1E00BBBE
:1006F0000A1E009D0A1D00800A1D00630A1C004797
:100700000A1B002C0A1B00110A1A00F7091A00DD47
:10071000091900C4091900AB091900920917007BD7
:10072000091800630917004C091600360916002045
:100730000916000A091500F5081500E0081400CC98
:10074000081400B8081400A4081400900813007DD1
:100750000812006B081300580812004608120034F3
:10076000081100230811001208110001081100F0FF
:10077000071000E0071000D0071000C0071000B0FD
:10078000070F00A107100091070E0083070F0074E8
:10079000070F0065070E0057070E0049070E003BC4
:1007A000070D002E070E0020070D0013070D000691
:1007B000070D00F9060C00ED060D00E0060C00D454
:1007C000060C00C8060C00BC060C00B0060C00A409
:1007D000060B0099060C008D060B0082060B0077B5
:1007E000060B006C060B0061060A0057060B004C56
:1007F000060A0042060A0038060A002E060A0024ED
:10080000060A001A060A001006090007060A00FD7B
:10081000050900F4050900EB050900E2050900D906
:10082000050900D0050900C7050900BE050900B586
:10083000050800AD050800A50509009C0508009401
:100840000508008C050800840508007C0508007474
:100850000508006C050700650508005D05070056E2
:100860000508004E05070047050700400508003849
:10087000050700310507002A050700230507001CAE
:10088000050600160507000F05070008050600020B
:10089000050700FB040600F5040700EE040600E867
:1008A000040600E2040700DB040600D5040600CFBE
:1008B000040600C9040600C3040600BD040600B710
:1008C000040600B1040500AC040600A6040600A05E
:1008D0000405009B04060095040500900406008AA8
:1008E00004050085040500800406007A04050075EF
:1008F000040500700405006B040500660405006132
:100900000405005C04050057040500520405004D71
:1009100004050048040500430405003E0404003AB1
:1009200004050035040500300404002C04050027EC
:10093000040400230405001E0404001A0404001625
:10094000040500110404000D04040009040500045A
:1009500004040000040400FC030400F8030400F491
:10096000030400F0030400EC030400E8030400E4C3
:10097000030400E0030400DC030400D8030400D4F3
:10098000030400D0030400CC030400C8030300C523
:1009900003030024F404D9201BC40C5C0E9804C487
:1009A000095F0265077101F405F900FB04B3004813
:1009B000048700C10369005803550003034500BEC6
:1009C000023A008402310053022A00290225000461
:1009D000022000E4011C00C8011900AF01170098B3
:1009E0000114008401130071011000610110005115
:1009F000010E0043010D0036010B002B010B0020FE
:100A0000010B00150109000C01090003010800FB9E
:100A1000000800F3000800EB000700E4000600DE19
:100A2000000600D8000600D2000600CC000500C772
:100A3000000500C2000500BD000400B9000400B5B7
:100A4000000400B1000400AD000400A9000400A5EA
:100A5000000300A20003009F0004009B0003009815
:100A60000003009500020093000300900003008D36
:100A70000002008B00030088000200860002008450
:100A8000000300810002007F0002007D0002007B65
:100A90000002007900020077000100760002007475
:100AA00000020072000100710002006F0002006D80
:100AB0000001006C0002006A00010069000200678A
:100AC0000001006600010065000100640002006290
:100AD00000010061000100600001005F0002005D94
:100AE0000001005C0001005B0001005A0001005998
:100AF0000001005800010057000100560001005598
:100B00000001005400010053000000530001005296
:100B100000010051000100500001004F0001004E93
:100B20000000004E0001004D0001004C0001004B90
:100B30000000004B0001004A00010049000100488C
:100B40000000004800010047000100460000004688
:100B50000001004500000045000100440001004381
:100B6000000000430001004200000042000100417B
:100B700000000041000100400001003F0000003F74
:100B80000001003E0000003E0001003D0000003D6D
:100B90000001003C0000003C0000003C0001003B64
:100BA0000000003B0001003A0000003A000100395B
:100BB0000000003900010038000000380000003853
:100BC0000001003700000037000100360000003649
:100BD000000000360001003500000035000000353F
:100BE0000001003400000034000000340001003334
:100BF000000000330000003300010032000000322A
:100C0000000000320001003100000031000000311E
:100C10000001003000000030000000300001002F13
:100C20000000002F0000002F0000002F0001002E08
:100C30000000002E0000002E0001002D0000002DFD
:100C40000000002D0000002D0001002C0000002CF1
:100C50000000002C0000002C0001002B0000002BE5
:100C60000000002B0000002B0001002A0000002AD9
:100C70000000002A0000002A0001002900000029CD
:100C800000000029000000290000002900010028C0
:100C900000000028000000280000002800000028B4
:100CA00000010027000000270000002700000027A7
:100CB000000000270001002600000026000000269A
:100CC000000000260000002600010025000000258D
:100CD0000000002500000025000000250000002580
:100CE0000001002400000024000000240000002473
:100CF0000000002400010023000000230000002366
:100D00000000002300000023000000230000002357
:100D1000000100220000002200000022000000224A
:100D2000000000220000002200010021000000213C
:100D3000000000210000002100000021000000212F
:100D40000000002100010020000000200000002021
:100D50000000002000000020000000200000002013
:100D6000000000200001001F0000001F0000001F05
:100D70000000001F0000001F0000001F0000001FF7
:100D80000001001E0000001E0000001E0000001EEA
:100D9000000000043700001E290000511B0000580D
:100DA00010000010090000CC04000078020000418F
:100DB00001000005FFFFFFFFFF00010101010162CB
:100DC00065640A002C2073797374656D2073746FE9
:100DD0007070656421204865617465725F49443AAA
:100DE00020004265642068656174696E67206661F1
:100DF000696C65640048656174696E672066616945
:100E00006C65640045312048656174696E672066D1
:100E100061696C65640048656174696E672066612C
:100E2000696C65640070012C0190012701B00122FA
:100E300001C0011D01F00118011002130130020E62
:100E4000016002090190020401C002FF000003FAE0
:100E5000004003F5008003F000D003EB002004E61F
:100E6000007004E100E004DC004005D700C005D2BA
:100E7000004006CD00D006C8008007C3003008BE81
:100E800000F008B900C009B400B00AAF00B00BAA66
:100E900000D00CA500000EA000500F9B00C01096C3
:100EA000005012910000148C00C0158700B017820A
:100EB00000B0197D00D01B7800001E730040206E2A
:100EC0000090226900F024640040275F0090295AB6
:100ED00000E02B5500102E500020304B0010324601
:100EE00000E033410090353C001037370070383255
:100EF00000A0392D00B03A2800A03B2300603C1E22
:100F000000103D1900903D1400103E0F00703E0A85
:100F100000C03E0500003F0000403FFBFF803FF661
:100F2000FFC03FF1FF453120544845524D414C2010
:100F300052554E415741590042454420544845526C
:100F40004D414C2052554E415741590054686572ED
:100F50006D616C2052756E61776179004531204575
:100F600072723A204D415854454D50004572723AC4
:100F7000204D415854454D5020424544004D415864
:100F800054454D5020747269676765726564004509
:100F900031204572723A204D494E54454D5000451E
:100FA00072723A204D494E54454D502042454400FE
:100FB0004D494E54454D502074726967676572659E
:100FC00064004D383420582059205A204500202FE5
:100FD000002042403A0020403A0025753A25303240
:100FE0007500253032753A2530327500257564203C
:100FF000253032753A2530327500202020202020FF
:10100000005A00590020202020005800092000002C
:1010100000000000000000000000003FFFF00000A2
:101020000000000000000000000038007000000018
:1010300000000000000000000030FC300000000054
:10104000000000000000000020FC10000000000074
:1010500000000000000000207810000000000000E8
:101060000000000000002030100000000000000020
:1010700000000000002C00D03FC000000000000075
:10108000002082002E31D07FE00000000000000030
:101090001041002F7BD07FE0000000000000001016
:1010A00041002F7BD07FE000000000000000208284
:1010B000002E31D03FC000000000000000410400BD
:1010C0002C00D03FC000000000000000820800207B
:1010D00030107FE00000000000000082080020784F
:1010E000107FE00000000000000041040020FC1020
:1010F0007FE00000000000000020820030FC301F74
:1011000080000000000000000000003800700F00A8
:1011100000000000000000FFFFC03FFFF0060000DD
:10112000000000000000FFFFC00000000000000001
:1011300000000000000000003FFFF0000000000081
:1011400000000000000000380070000000000000F7
:1011500000000000000031863000000000000000A8
:1011600000000000002387100000000000000000C5
:101170000000000027879000000000000000000031
:101180000000002F87D000000000000000000000D9
:1011900000002F03D03FC0000000000000002082AC
:1011A000002030107FE0000000000000001041002F
:1011B0002078107FE00000000000000010410020B7
:1011C00078107FE000000000000000208200203046
:1011D000103FC0000000000000004104002F03D0B9
:1011E0003FC0000000000000008208002F87D07F71
:1011F000E0000000000000008208002787907FE0E8
:10120000000000000000004104002387107FE00080
:101210000000000000002082003186301F800000A6
:1012200000000000000000003800700F0000000007
:1012300000000000FFFFC03FFFF0060000000000BC
:10124000000000FFFFC00000003344205072696EB0
:101250007465722052656164792E005072696E74F3
:10126000696E672E2E2E005072696E742070617543
:10127000736564004D37303220542564004D36309C
:101280003020423020542564004D373032203B2539
:1012900064004D3730312054256400556E6C6F6109
:1012A000642066696C616D656E7400556E6C6F616B
:1012B000642066696C616D656E74004D3730320074
:1012C0004D373031004C6F61642066696C616D652B
:1012D0006E74004D363030204230004368616E67D6
:1012E000652066696C616D656E7400507265706131
:1012F0007265005052494E542050415553454400A8
:10130000554E4C4F41442046494C414D454E5400AA
:101310004C4F41442046494C414D454E5400507578
:10132000726765206D6F726500436F6E74696E75CC
:101330006500524553554D45204F5054494F4E532B
:101340003A0020204E6F7A7A6C653A20006368611B
:101350006E6765006F66207468652066696C616DF4
:10136000656E74005761697420666F7220737461D2
:1013700072740020204E6F7A7A6C653A200020004B
:1013800066696C616D656E7420756E6C6F6164006A
:101390005761697420666F720020204E6F7A7A6CF4
:1013A000653A20002000506C6561736520776169A3
:1013B000742E2E2E0048656174696E67206E6F7AF8
:1013C0007A6C650020204E6F7A7A6C653A20002096
:1013D0000068656174206E6F7A7A6C652E005072B9
:1013E00065737320627574746F6E20746F002020B3
:1013F0004E6F7A7A6C653A2000746F20636F6E745A
:10140000696E75652E2E2E00616E64207072657394
:101410007320627574746F6E00496E736572742008
:1014200066696C616D656E740020204E6F7A7A6C0F
:10143000653A2000200066696C616D656E74206CF1
:101440006F6164005761697420666F720020204EDE
:101450006F7A7A6C653A2000200066696C616D6570
:101460006E74207075726765005761697420666FCD
:101470007200746F20726573756D650057616974D1
:1014800020666F72207072696E740053746F7720DB
:10149000424C546F756368004D3238302050302014
:1014A000533930004465706C6F7920424C546F752D
:1014B0006368004D323830205030205331300042C4
:1014C0004C546F7563682053656C662D5465737456
:1014D000004D3238302050302053313230005265C8
:1014E00073657420424C546F756368004D32383018
:1014F0002050302053313630004D61696E005072FB
:10150000696E742061626F72746564004D323100DF
:101510004E6F2053442063617264004368616E67BC
:10152000652053442063617264004D323100507273
:10153000696E742066726F6D2053440053746F702F
:10154000207072696E7400526573756D65207072DB
:10155000696E74005061757365207072696E7400F5
:10156000496E69742E205344206361726400556E85
:101570006C6F61642066696C616D656E74004C6FA0
:1015800061642066696C616D656E74004368616EAC
:1015900067652066696C616D656E7400446973618E
:1015A000626C65207374657070657273004D3834B9
:1015B00000436F6F6C646F776E00436F6E74726F71
:1015C0006C00507265706172650054756E650049FB
:1015D0006E666F2073637265656E0050726F626530
:1015E000205A204F6666736574004368616E6765B4
:1015F0002066696C616D656E740050726F62652063
:101600005A204F666673657400466C6F7700466CAF
:101610006F770046616E2073706565640046616E89
:101620002073706565640042656400426564004E25
:101630006F7A7A6C65004E6F7A7A6C6500537065CC
:101640006564005370656564004D61696E00507299
:10165000656865617420504C4120456E640050728D
:10166000656865617420504C412042656400507289
:10167000656865617420504C4100507265706172FC
:101680006500507265686561742041425320456E63
:101690006400507265686561742041425320426560
:1016A0006400507265686561742041425300507255
:1016B000657061726500507265686561742050459F
:1016C000544720456E64005072656865617420500F
:1016D0004554472042656400507265686561742016
:1016E0005045544700507265706172650053746FC5
:1016F00072652073657474696E6773004C6F616402
:101700002073657474696E67730050726F62652030
:101710005A204F6666736574004F6666004F6E20F0
:1017200000426564204C6576656C696E67004C65A7
:1017300076656C20626564004732380A47323900AA
:10174000473239004175746F20686F6D650047320C
:10175000380050726570617265005265736574205F
:10176000424C546F756368004D3238302050302041
:101770005331363000424C546F7563682053656CAA
:10178000662D54657374004D32383020503020532C
:10179000313230005072656865617420504554479D
:1017A0000050726568656174204142530050726553
:1017B0006865617420504C4100426564204C657638
:1017C000656C696E6700486F6D65205A0047323856
:1017D000205A00486F6D6520590047323820590063
:1017E000486F6D65205800473238205800417574A5
:1017F0006F20686F6D6500473238004D6F76652049
:1018000061786973004D61696E00434F4D4D554ECF
:1018100049434154494F4E0044525952554E004598
:1018200052524F525300494E464F004543484F00D5
:10183000656E7175657565696E672022004B494C50
:101840004C45442E200053544F505045442E200008
:101850005072696E7465722073746F707065642065
:1018600064756520746F206572726F72732E2046E6
:10187000697820746865206572726F7220616E6489
:1018800020757365204D39393920746F2072657366
:10189000746172742E202854656D70657261747560
:1018A00072652069732072657365742E20536574A8
:1018B0002069742061667465722072657374617248
:1018C00074696E67290A004E6F20436865636B7305
:1018D000756D2077697468206C696E65206E756D12
:1018E0006265722C204C617374204C696E653A20DD
:1018F000004E6F20436865636B73756D2077697464
:1019000068206C696E65206E756D6265722C204C66
:10191000617374204C696E653A2000636865636B7F
:1019200073756D206D69736D617463682C204C61F3
:101930007374204C696E653A20004C696E65204EC8
:10194000756D626572206973206E6F74204C6173CF
:1019500074204C696E65204E756D6265722B312C5A
:10196000204C617374204C696E653A20004D313112
:1019700030004D333100534420726561642065723C
:10198000726F720A00446F6E65207072696E7469BE
:101990006E672066696C650A0020496E76616C6925
:1019A0006420657874727564657220000000000020
:1019B000000000000000000000004D430000434311
:1019C00000000C4342696C696E656172204C65765B
:1019D000656C696E6720477269643A0A00486F6DEA
:1019E000696E67206661696C656400473120583014
:1019F000205930204635303030002028445259528A
:101A0000554E2900473239204175746F2042656474
:101A1000204C6576656C696E67003F20284C2C521F
:101A20002C462C4229206F7574206F6620626F75DA
:101A30006E64732E0A003F2856296572626F7365C3
:101A4000206C6576656C20697320696D706C6175BA
:101A50007369626C652028302D34292E0A0042619A
:101A600064205A2076616C75650A004E6F206269A9
:101A70006C696E65617220677269640A00486F74F0
:101A8000656E6420746F6F20636F6C640A00446538
:101A90006C6574696F6E206661696C65642C2046A4
:101AA000696C653A200046696C652064656C6574F4
:101AB00065643A0050726F746563746564205069A0
:101AC0006E0A0020573A004520436F6F6C696E67BD
:101AD0002E2E2E00452048656174696E672E2E2ECD
:101AE0000020573A0042656420636F6F6C696E672F
:101AF0002E2E2E004265642068656174696E672E23
:101B00002E2E00205A3A0020593A0020436F756E5D
:101B10007420583A0020453A00205A3A0020593A99
:101B200000583A003A004361703A00205A002059A8
:101B300000580020204D61783A2000205A0020599A
:101B400000580020204D696E3A20004F6E20004F53
:101B5000666600536F667420656E6473746F70738D
:101B60003A200023646566696E6520444546415508
:101B70004C545F4B64200023646566696E652044A5
:101B8000454641554C545F4B6920002364656669A6
:101B90006E652044454641554C545F4B70200050C3
:101BA0004944204175746F74756E652066696E696D
:101BB00073686564212050757420746865206C61B9
:101BC0007374204B702C204B6920616E64204B6431
:101BD00020636F6E7374616E74732066726F6D2014
:101BE00062656C6F7720696E746F20436F6E6669F3
:101BF0006775726174696F6E2E680A0050494420DF
:101C00004175746F74756E65206661696C656421D9
:101C10002074696D656F75740A004531205448451C
:101C2000524D414C2052554E415741590054686520
:101C3000726D616C2052756E61776179004531205B
:101C400048656174696E67206661696C6564004807
:101C5000656174696E67206661696C6564005049EE
:101C600044204175746F74756E65206661696C659A
:101C700064212054656D706572617475726520749D
:101C80006F6F20686967680A00204B643A20002063
:101C90004B693A2000204B703A20000A20436C61C7
:101CA0007373696320504944200A002054753A2018
:101CB00000204B753A2000206D61783A2000206D9D
:101CC000696E3A200020643A200020626961733A0C
:101CD0002000504944204175746F74756E652073FF
:101CE000746172740A00504944204175746F7475B0
:101CF0006E65206661696C656421204261642065BF
:101D000078747275646572206E756D6265720A0012
:101D1000426564204C6576656C696E67200046619B
:101D2000696C656420746F20656E61626C65204229
:101D30006564204C6576656C696E670A004D3630C7
:101D4000303A20546F6F20636F6C6400486F746585
:101D50006E6420746F6F20636F6C640A00496E7349
:101D60006572742066696C616D656E7420616E6465
:101D700020707265737320627574746F6E0A005000
:101D80007265737320627574746F6E20746F20684F
:101D9000656174206E6F7A7A6C650A00496E7365AE
:101DA00072742066696C616D656E7420616E64206A
:101DB000707265737320627574746F6E20286F7211
:101DC000204D313038290A00536C6565702E2E2E57
:101DD00000205A3A200020593A20004265642058D9
:101DE0003A20004D65736820706F696E74206361DE
:101DF0006E6E6F74206265207265736F6C766564B9
:101E00000A00436C69636B20746F20726573756D93
:101E1000652E2E2E004E6F206D6F76652E00456E5E
:101E2000642066696C65206C6973740A004265679A
:101E3000696E2066696C65206C6973740A00286E8F
:101E40006F2066696C65290043757272656E742037
:101E500066696C653A20005344207072696E74693B
:101E60006E67206279746520004E6F7420534420A1
:101E70007072696E74696E670A002569730025695E
:101E80006D20256973002569682025696D20256905
:101E90007300256964202569682025696D202569FE
:101EA00073002569792025696420256968202569E2
:101EB0006D20256973005072696E742074696D65B8
:101EC0003A20006F6666002B1826181F1818180A8B
:101ED0001844454255473A004B494C4C45442E2046
:101EE000004D3131332053006F6B0033442050726A
:101EF000696E746572204F66662E002C20002C20BF
:101F000000544845524D414C5F50524F5445435444
:101F1000494F4E004155544F5245504F52545F5314
:101F2000445F53544154555300454D455247454E27
:101F300043595F50415253455200434153455F4C12
:101F4000494748545F4252494748544E455353000D
:101F5000544F47474C455F4C494748545300534FF3
:101F60004654574152455F504F57455200425549DC
:101F70004C445F50455243454E54004C4556454CE9
:101F8000494E475F44415441005A5F50524F4245C9
:101F9000004155544F4C4556454C005052494E5403
:101FA0005F4A4F420050524F4752455353004155EC
:101FB000544F5245504F52545F54454D5000564F68
:101FC0004C554D455452494300454550524F4D00E4
:101FD00053455249414C5F584F4E5F584F4646005B
:101FE0004649524D574152455F4E414D453A4D612C
:101FF000726C696E20312E312E3920284769746841
:1020000075622920534F555243455F434F44455F06
:1020100055524C3A68747470733A2F2F676974681C
:1020200075622E636F6D2F4D61726C696E466972B9
:102030006D776172652F4D61726C696E2050524FE1
:10204000544F434F4C5F56455253494F4E3A312EF1
:1020500030204D414348494E455F545950453A332D
:1020600044205072696E746572204558545255442C
:1020700045525F434F554E543A3120555549443AE5
:1020800063656465326132662D343161322D3437D7
:1020900034382D396231322D63353563363266334B
:1020A000363766660A002F2F20004D313435205315
:1020B0003C696E6465783E206F7574206F6620728F
:1020C000616E67652028302D31290A0020540020D8
:1020D0005200416363656C65726174696F6E3A208A
:1020E00050005741524E494E4721204C6F77205A9D
:1020F000204A65726B206D6179206C656164207483
:102100006F20756E77616E7465642070617573659C
:10211000732E0A004F666673657473206170706C6D
:10212000696564004572723A20546F6F206661726F
:102130002100546F6F206661722066726F6D20728D
:1021400065666572656E636520706F696E740A00FE
:1021500020466C6F773A200000010F150E12FFFF2A
:10216000FFFF16170E13FFFFFFFF03021A14FFFFF6
:10217000FFFFFFFFFF0C04FFFFFF01000EFFFFFF4B
:102180000C190D05183A200020536572766F200057
:10219000206F7574206F662072616E67650A005348
:1021A0006572766F200050726F6265205A204F660C
:1021B000667365743A2000496E76616C69642065C7
:1021C000787472756465720A0020643A0020693A76
:1021D0000020703A0043290A0061626C656420287F
:1021E0006D696E2074656D702000436F6C642065AE
:1021F000787472756465732061726520004E6F207B
:1022000063617365206C696768740A004D65736863
:1022100020706F696E742063616E6E6F74206265EA
:10222000207265736F6C7665640A004D343231201C
:10223000696E636F727265637420706172616D653F
:102240007465722075736167650A00454550524F89
:102250004D204F4B0A003F5A206F7574206F662047
:1022600072616E676520282D323020746F20323005
:10227000290A003A200050726F6265205A204F668A
:10228000667365740041637469766520457874727D
:10229000756465723A2000496E76616C69642065E8
:1022A000787472756465720A00526573656E643A7B
:1022B00020006F6B0020636F6C642065787472750A
:1022C00073696F6E2070726576656E7465640A005E
:1022D000627573793A2070617573656420666F72F8
:1022E00020696E7075740A00627573793A207061A6
:1022F0007573656420666F7220757365720A00627B
:102300007573793A2070726F63657373696E670ACB
:10231000004B494C4C45442E20004B494C4C20630B
:10232000617573656420627920746F6F206D7563C9
:102330006820696E6163746976652074696D6520D3
:102340002D2063757272656E7420636F6D6D616EA2
:10235000643A2000506C6561736520726573657422
:10236000005052494E5445522048414C5445440077
:102370005072696E7465722068616C7465642E2099
:102380006B696C6C28292063616C6C6564210A00A0
:1023900000000000000000000000000000002042DB
:1023A0000000204200004041000000005761726EB2
:1023B000696E673A20486F6D696E672042756D706F
:1023C0002044697669736F72203C20310A00030350
:1023D000050000A0400000A0400000004000004DAB
:1023E000430000434300000C43FFFFFF7C3C3E5E84
:1023F0002B3D3F2F5B5D3B2C2A225C004572726FA8
:10240000722077726974696E6720746F2045455039
:10241000524F4D210A004D6F76652058004D6F7662
:10242000652059004D6F7665205A004578747275A5
:10243000646572004D6F766520302E316D6D004DF4
:102440006F766520316D6D004D6F76652031306D92
:102450006D004D6F76652061786973004578747200
:1024600075646572004D6F7665205A004D6F766514
:102470002059004D6F766520580045787472756458
:102480006572004D6F7665205A004D6F7665205954
:10249000004D6F766520580050726570617265005E
:1024A0004C6F61642073657474696E677300526564
:1024B00073746F7265206661696C73616665005341
:1024C000746F72652073657474696E677300424C33
:1024D000546F7563680046696C616D656E74004D7C
:1024E0006F74696F6E0054656D706572617475729A
:1024F00065004D61696E005049442D4400504944C7
:102500002D44005049442D49005049442D49005064
:1025100049442D50005049442D500046616E2073AF
:10252000706565640046616E207370656564004285
:10253000656400426564004E6F7A7A6C65004E6F88
:102540007A7A6C6500436F6E74726F6C0050726FB4
:102550006265205A204F666673657400436F6E741F
:10256000726F6C004C6F6164206D6D004C6F616424
:10257000206D6D00556E6C6F6164206D6D00556E41
:102580006C6F6164206D6D0046696C2E204469613A
:102590002E0046696C2E204469612E004F6666004D
:1025A0004F6E20004520696E206D6D3300436F6EC5
:1025B00074726F6C0043616E6E6F7420656E74652B
:1025C00072207375626469723A2000022E2E000137
:1025D00052656672657368004D61696E0000002186
:1025E00000240027002A0000002200250028002BDC
:1025F000000000200023002600290002020202023F
:102600000202020404040404040404030303030395
:10261000030303010101010101010101020408108A
:1026200020408001020408102040800102040810AC
:1026300020408080402010080402010000000102B8
:1026400000090A0000000004030807000000000061
:1026500000000000000000000000002020506C611D
:102660006E6E657242756666657242797465733A1C
:1026700020002046726565204D656D6F72793A20A5
:1026800000312E312E390A004D61726C696E0020C6
:10269000536F6674776172652052657365740A00C2
:1026A000205761746368646F672052657365740AAC
:1026B000002042726F776E206F75742052657365CB
:1026C000740A002045787465726E616C20526573DF
:1026D00065740A00506F77657255700A00737461F3
:1026E00072740A006175746F25692E6700657272D5
:1026F0006F722077726974696E6720746F206669E3
:102700006C650A00456E6473746F707320256320D6
:10271000256320256320256300205A3A0020593A7A
:102720000020583A00656E6473746F707320686996
:10273000743A2000446F6E6520736176696E67207D
:1027400066696C652E0A004D3239004368616E6718
:10275000652066696C616D656E7400556E6C6F61A5
:10276000642066696C616D656E74004C6F616420F5
:1027700066696C616D656E74005072656865617440
:10278000205045544700507265686561742041428D
:1027900053005072656865617420504C4100436875
:1027A000616E67652066696C616D656E74004D329F
:1027B00034004D323320257300556E6B6E6F776E8B
:1027C00020636F6D6D616E643A20220050726F62FB
:1027D000696E67206661696C65640A0050726F6299
:1027E000696E67206661696C656400205A3A200052
:1027F00020593A200042656420583A200053544F33
:10280000505045442E20005072696E7465722073DA
:10281000746F707065642064756520746F206572D4
:10282000726F72732E204669782074686520657215
:10283000726F7220616E6420757365204D3939396D
:1028400020746F20726573746172742E2028546531
:102850006D7065726174757265206973207265733D
:1028600065742E20536574206974206166746572E6
:102870002072657374617274696E67290A0053541B
:102880004F502063616C6C65642062656361757391
:1028900065206F6620424C546F75636820657272C4
:1028A0006F72202D20726573746172742077697461
:1028B00068204D3939390A00496E73657274206693
:1028C000696C616D656E7420616E642070726573F1
:1028D0007320627574746F6E20286F72204D3130D2
:1028E00038290A0053442063617264206F6B0A0028
:1028F0006F70656E526F6F74206661696C65640AF3
:1029000000766F6C756D652E696E697420666169FD
:102910006C65640A00534420696E697420666169BD
:102920006C0A00486F6D652025732573257320663A
:1029300069727374002066697273740A005A0059D0
:10294000005800486F6D65200057726974696E67A2
:1029500020746F2066696C653A20006F70656E2088
:102960006661696C65642C2046696C653A20006F6D
:1029700070656E206661696C65642C2046696C65C3
:102980003A200046696C652073656C656374656404
:102990000A002053697A653A200046696C65206F09
:1029A00070656E65643A20002066696C653A2000A7
:1029B000646F696E67006672657368004E6F77209A
:1029C00000454E4420535542524F5554494E450AF6
:1029D000002220706F73002220706172656E743A5D
:1029E0002200535542524F5554494E452043414CC5
:1029F0004C207461726765743A22004B494C4C4517
:102A0000442E2000747279696E6720746F206361B0
:102A10006C6C207375622D67636F64652066696CEA
:102A20006573207769746820746F6F206D616E79AB
:102A3000206C6576656C732E204D4158206C657650
:102A4000656C2069733A004572726F723A006F705C
:102A5000656E206661696C65642C2046696C653A18
:102A6000200043616E6E6F74206F70656E20737509
:102A70006264697220006563686F3A0000060900AD
:102A8000FE0701920321207FFF07FF07FF000000E0
:102A90000600000107070602008080808080008019
:102AA000030202060105A0A005070706000050501A
:102AB000F850F850500507070600002078A070284D
:102AC000F020050707060000C0C810204098180530
:102AD00007070600006090A040A890680203030664
:102AE0000104C04080030707060100204080808069
:102AF0004020030707060100804020202040800579
:102B0000050506000120A870A8200505050600019E
:102B10002020F820200203030602FFC040800501A8
:102B200001060003F8020202060200C0C005050506
:102B30000600010810204080050707060000708885
:102B4000888888887003070706010040C04040401D
:102B500040E0050707060000708808708080F805CF
:102B60000707060000F81020100808F00507070600
:102B7000000010305090F81010050707060000F80C
:102B800080F008088870050707060000708080F054
:102B9000888870050707060000F80810202020200C
:102BA0000507070600007088887088887005070789
:102BB0000600007088887808087002050506020083
:102BC000C0C000C0C00206060602FFC0C000C04070
:102BD00080040707060000102040804020100503F5
:102BE00003060002F800F8040707060100804020F1
:102BF000102040800507070600007088081020009C
:102C00002005070706000070880868A8A870050757
:102C100007060000708888F888888805070706007E
:102C200000F08888F08888F00507070600007088A3
:102C30008080808870050707060000F088888888F3
:102C400088F0050707060000F88080F08080F8050E
:102C50000707060000F88080F080808005070706DF
:102C60000000708880B88888700507070600008813
:102C70008888F8888888010707060200808080809D
:102C80008080800507070600003810101010906043
:102C90000507070600008890A0C0A09088050707D8
:102CA000060000808080808080F80507070600000D
:102CB00088D8A8888888880507070600008888C8FB
:102CC000A898888805070706000070888888888883
:102CD00070050707060000F08888F08080800507EF
:102CE0000706000070888888A89068050707060016
:102CF00000F08888F0A0908805070706000078801B
:102D000080700808F0050707060000F82020202042
:102D100020200507070600008888888888887005B5
:102D2000070706000088888888885020050707065E
:102D300000008888888888A8500507070600008852
:102D4000885020508888050707060000888888502A
:102D5000202020050707060000F80810204080F812
:102D6000030707060100E08080808080E0050505FC
:102D70000600018040201008030707060100E0203C
:102D800020202020E00503030600042050880501D0
:102D900001060000F8020202060205804005050552
:102DA0000600007008788878050707060000808014
:102DB000B0C88888F005050506000070808088701E
:102DC0000507070600000808689888887805050543
:102DD0000600007088F8807005070706000030487C
:102DE000E0404040400506060600FF7088887808ED
:102DF000700507070600008080B0C8888888010732
:102E00000706020080008080808080030808060199
:102E1000FF200020202020A040040707060000809B
:102E20008090A0C0A090030707060100C04040406A
:102E30004040E0050505060000D0A8A8A8A80505A3
:102E400005060000B0C888888805050506000070E2
:102E5000888888700506060600FFF08888F0808064
:102E60000506060600FF7888887808080505050627
:102E70000000B0C8808080050505060000708070E5
:102E800008F00407070600004040E04040403005DD
:102E90000505060000888888986805050506000075
:102EA00088888850200505050600008888A8A85055
:102EB0000505050600008850205088050606060016
:102EC000FF888888780870050505060000F810203E
:102ED00040F80307070601002040408040402001E1
:102EE0000707060200808080808080800307070635
:102EF0000100804040204040800502020600026838
:102F00009000000006000000060900FE000000001E
:102F10000001090008FE000005080806000040F056
:102F2000C88888987810050808060000C0F88888C6
:102F3000888888F80505050600012030F83020054E
:102F400008080600002070F820202020E00509096C
:102F50000600FF2070A8A8B8888870200509090617
:102F600000FFE080C0B0A828302828050909060025
:102F7000FFF8A88888888888A8F8050A0A0600FE4D
:102F8000205050505088A8A88870030303060003FF
:102F900040A04000BBEBE6E911241FBECFEFD0E418
:102FA000DEBFCDBF12E0A0E0B1E0EEE7F8EF01E058
:102FB0000BBF02C007900D92A834B107D9F723E1E7
:102FC000A8E4B2E001C01D92A738B207E1F717E10B
:102FD000CBECD7E104C02197FE010E94A3FBCA3CC1
:102FE000D107C9F70E94A2EC0C9432FC0C940000AB
:102FF0006091120170911301072E000C880B990B40
:103000000E9411F52AE037ED43E25CE30E9470F57F
:103010002091A3073091A4074091A5075091A607DE
:103020000E9470F560930E0170930F018093100160
:103030009093110108958091760C813041F0823097
:1030400019F480E093E1089583EF92E1089580E11F
:1030500093E108955B9887FD54C0409800000000FC
:1030600091E09A950000E9F75B9A5B9886FD55C060
:1030700040980000000091E09A950000E9F75B9A03
:103080005B9885FD48C040980000000091E09A954B
:103090000000E9F75B9A5B9884FD3BC04098000014
:1030A000000091E09A950000E9F75B9A5B9883FD38
:1030B0002EC040980000000091E09A950000E9F7CA
:1030C0005B9A5B9882FD21C040980000000091E06F
:1030D0009A950000E9F75B9A5B9881FD14C04098CF
:1030E0000000000081E0982F9A950000E9F75B9AB4
:1030F0005B984098000000008A950000E9F75B9A11
:103100000895409AABCF409AEBCF409ADECF409AD9
:10311000D1CF409AC4CF409AB7CF409AAACF9091CE
:103120006F00292F227091FF05C090916F009D7F45
:1031300090936F0034E0839FC0011124FC01EC5791
:10314000F14F40815181628173818E5E974FFC0106
:10315000408351836283738381E0809387072223B6
:1031600029F080916F00826080936F000895BC0108
:1031700020911008309111084091100850911108C9
:103180002417350731F481E02617370709F080E06E
:1031900008959A01F1CFCF92DF92EF92FF92809142
:1031A000730A882309F457C0C0906F0AD090700A40
:1031B000E090710AF090720A20E030E0A901C701A6
:1031C000B6010E940AF5882309F445C020E030E0EA
:1031D00040E05FE3C701B6010E9470F59B01AC01BE
:1031E0000E9470F52BED3FE049E450E40E9470F539
:1031F0009B01AC0160E070E080E89FE30E94E5F98C
:103200006B017C01C092A307D092A407E092A507AE
:10321000F092A6076091120170911301072E000C25
:10322000880B990B0E9411F52AE037ED43E25CE32D
:103230000E9470F5A70196010E9470F560930E013F
:1032400070930F018093100190931101FF90EF9004
:10325000DF90CF900895C12CD12C80E8E82E8FE329
:10326000F82ED0CFCF93DF938091890A811105C0CA
:1032700080918A0A882309F459C08091BE07329947
:103280004FC081608093BE078091BE0733994AC0CA
:1032900082608093BE078091BE07349945C08B7FC2
:1032A0008093BE07C0910308C0FF10C08091C9077A
:1032B00080FF0CC08091BE0780FF08C080919C0AEF
:1032C000816080939C0A80E00E948F18C1FF10C02B
:1032D0008091C90781FF0CC08091BE0781FF08C0A3
:1032E00080919C0A826080939C0A81E00E948F18E2
:1032F000C2FF1CC08091C90782FF18C080918A0A52
:103300008823A1F08091BE0782FF10C080919C0AA3
:10331000846080939C0A82E0DF91CF910C948F1897
:103320008E7FB0CF8D7FB5CF8460BACFDF91CF9144
:1033300008950C9439C881E00C945FDE82E00C940F
:103340005FDE80E00C945FDEFF920F931F93CF93BC
:10335000DF93CDB7DEB72B970FB6F894DEBF0FBE65
:10336000CDBFF82E2091250C422F022E000C550BBC
:103370008091260C813091F1823049F18DE792E104
:103380005F932F939F938F938E010F5F1F4F1F9318
:103390000F930E94A1F40F900F900F900F900F9039
:1033A0000F9081E0F816E9F080EF90E09093F90E2D
:1033B0008093F80E0E9439C881E080937F0AC8018B
:1033C0000E94A786811110C00E94378AF8CF89E831
:1033D00092E127FDD5CF84E792E1D2CF82E992E155
:1033E000CFCF87ED90E0E2CF10927F0A2B960FB6F9
:1033F000F894DEBF0FBECDBFDF91CF911F910F912B
:10340000FF90089583E00C94A41982E00C94A41911
:1034100081E00C94A4199F92AF92BF92CF92DF9259
:10342000EF92FF920F931F93CF93DF935B01E9011C
:103430004A3009F4C4C0453109F067C0DB01129677
:10344000ED91FC91F280C681D781419A88E290E0AB
:103450000197F1F7EF2CE29420EFE22230E1932E76
:103460009F0C48E2C42ED12C88EF0E942A18C60176
:103470000197F1F7BFE1BF1508F488C08F2D807761
:1034800080680E942A188E2D0E942A18C601019772
:10349000F1F780E80E942A1880E00E942A18C601ED
:1034A0000197F1F78AEF0E942A18C6010197F1F7F8
:1034B0008E01005F1F4F8881807F0E942A188991AA
:1034C0008295807F0E942A18C017D107A1F7C601F4
:1034D0000197F1F7F394E0E1EE0EF910C5CF4198B2
:1034E000D50112960D911C91C8010E942ACC811120
:1034F000FFC1DF91CF911F910F91FF90EF90DF906F
:10350000CF90BF90AF909F900895FB0102811381EF
:10351000ECEEE40FE43308F050C0F0E0EE56F54E68
:103520000C94A3FB201C741ADD1A681CDD1ADD1A2A
:10353000DD1ADD1ADD1ADD1ADD1ADD1ADD1ADD1AD3
:10354000DD1ADD1ADD1ADD1ADD1ADD1ADD1ADD1AC3
:10355000DD1ADD1ADD1ADD1ADD1ADD1ADD1ADD1AB3
:10356000621CDD1ADD1ADD1ADD1ADD1ADD1ADD1A1C
:10357000DD1A331CDD1ADD1ADD1ADD1ADD1ADD1A3B
:10358000DD1ADD1ADD1ADD1A851CD91A80EE8F0DC1
:103590008068807F0E942A188F2D8295807F0E94EC
:1035A0002A18C6010197F1F780E80E942A1880E8DE
:1035B00074CFD80111968C91888381E09ACF399A83
:1035C0004198389A4098539A5B9A419A88E290E0E1
:1035D0000197F1F788E790E0CEE9DFE0FE0131974F
:1035E000F1F70197D9F788EF0E942A1808E210E056
:1035F000C8010197F1F780E20E942A1880E00E943A
:103600002A18C8010197F1F780E00E942A1880E883
:103610000E942A18C8010197F1F780E00E942A1839
:1036200080E10E942A18C8010197F1F7CE010197A5
:10363000F1F7CE010197F1F7CE010197F1F7CE0135
:103640000197F1F7CE010197F1F7CE010197F1F75C
:10365000CE010197F1F7CE010197F1F7CE01019765
:10366000F1F7CE010197F1F7CE010197F1F7CE0105
:103670000197F1F7CE010197F1F7CE010197F1F72C
:103680002197F1F780E20E942A1880E40E942A180C
:10369000C8010197F1F780E20E942A1880E60E9493
:1036A0002A18C8010197F1F7F12CD0E0C1E08D2F65
:1036B000807780680E942A188F2D0E942A18C801DE
:1036C0000197F1F780E80E942A1880E00E942A18EA
:1036D000C8010197F1F78AEF0E942A18C8010197E3
:1036E000F1F780E25B984098000000009C2F9A95CB
:1036F0000000E9F75B9A5B984098000000009C2F5F
:103700009A950000E9F75B9A5B98409800000000EA
:103710009C2F9A950000E9F75B9A5B98409800000F
:1037200000009C2F9A950000E9F75B9A5B984098FF
:10373000000000009C2F9A950000E9F75B9A5B98C7
:103740004098000000009C2F9A950000E9F75B9AD2
:103750005B984098000000009C2F9A950000E9F7C4
:103760005B9A5B984098000000009C2F9A9500009F
:10377000E9F75B9A5B984098000000009C2F9A95AF
:103780000000E9F75B9A5B984098000000009C2FCE
:103790009A950000E9F75B9A5B984098000000005A
:1037A0009C2F9A950000E9F75B9A5B98409800007F
:1037B00000009C2F9A950000E9F75B9A5B9840986F
:1037C000000000009C2F9A950000E9F75B9A5B9837
:1037D0004098000000009C2F9A950000E9F75B9A42
:1037E0005B984098000000009C2F9A950000E9F734
:1037F0005B9A5B984098000000009C2F9A9500000F
:10380000E9F75B9AF8013197F1F7815009F06ACF37
:1038100088EF0E942A18C8010197F1F7DF5F80E165
:10382000F80ED03209F043CF80E00E942A1880ECD5
:103830000E942A18C8010197F1F7419881E059CEFA
:10384000D80115964C91159750E0440F551F70E024
:1038500060E016968D919C910E94CAFBC8010E945F
:1038600040CC81E046CE89812B81D80112966C91A3
:10387000129713964C91213009F467C0233009F058
:1038800048C038EF380F582F91E0431708F490E004
:1038900041E0531708F040E031E0561708F430E0FB
:1038A000592F542B352319F4942309F486CEFA802A
:1038B00030E0F901E352FE4FD08027523E4FF9012C
:1038C000E08040C0B901C8010E9414CC81E011CE53
:1038D0001882D80112968C911297898315968C9133
:1038E000159781508A8313968C918B8381E001CE4A
:1038F000F801458150E0440F551F70E060E086817B
:1039000097810E94CAFB81E0F4CDF801858188830C
:1039100054CE481708F451CE861708F44ECEFA80DC
:10392000E12CD12C243070F4C3CFBE01C8010E9419
:1039300014CC898198819D0D98838E0D8983FF0C0D
:1039400009F43BCEF7FEF6CFF0CF58E0580F382FF2
:103950009BCF3F924F925F926F927F928F929F92F6
:10396000AF92BF92CF92DF92EF92FF920F931F938D
:10397000CF93DF93EC01162FDCAC5BAC5C0124E051
:10398000A20EB11CE98DFA8DC5010995982EE88427
:10399000F984C7010E94F8CD082F888599850E9477
:1039A000FBCD782E88248A94013011F48FE0882E84
:1039B000888599850E94EECD082F888599850E947B
:1039C000EACDC82E888599850E94F2CD113670F017
:1039D000009761F0E80EF91E01E6C116B8F41C8AE2
:1039E0001F8A188E1D8A1E8A80E05BC08885998593
:1039F0000E94F5CD113430F0009721F0E80EF91E49
:103A000001E4EBCF81E1E80EF11CE7CFC01638F3FB
:103A1000872D90E0F70124912F3F39F4FFEFEF1A43
:103A2000FF0AC016E1F20F5FF5CF101368C088855A
:103A300099850E94F8CD97012F5F3F4FF7018823AA
:103A400019F0823009F044C084918F8BF9012491E0
:103A5000288FF7013396E491EC8BF7013496E491CB
:103A6000ED8BF7013596E491EE8BE114F10409F446
:103A7000BBCF888599850E94FBCD782ECF88388C66
:103A80008D89580E1D2D13198E89181B190D032DA4
:103A90002C2D412F652DC5010E9405CE811138C006
:103AA0008C899BAD890F8BAF81E090E0DF91CF9146
:103AB0001F910F91FF90EF90DF90CF90BF90AF904C
:103AC0009F908F907F906F905F904F903F90089560
:103AD0008491982F9F7092509E8B82958F708D8BC2
:103AE000F9012491822F8F70888F22952F702F8B50
:103AF000F7013296E491E295EF70EC8BB6CF3296F7
:103B0000E491E821E80FF92FF11DEE0EFF1E89CF99
:103B1000E70CF11C07E00C0D069506950695310E95
:103B20004E01F0E28F0E911C602E712C131509F4DA
:103B3000B7CF452C670112C0F60184916E817F8159
:103B400048A219A31BA28AA394014BE3C5010E94BA
:103B500047CCFFEFCF1ADF0A28E0420E8C2D8E19DA
:103B6000801750F3E60CF71C1F5FE0CF1F93CF9335
:103B7000DF93182FEB01FE018491219681110AC079
:103B8000C9E4D5E0FE0184912196882331F00E949A
:103B9000FA81F8CF0E94FA81EECFC4E4D5E0112378
:103BA00011F0CAE3D5E0FE0184912196882319F033
:103BB0000E94FA81F8CF8AE0DF91CF911F910C9497
:103BC000FA81CF93DF9385399240A1F0C7E4DAE21E
:103BD000FE018491219681110AC0C1E5D1E0FE0168
:103BE00084912196882351F00E94FA81F8CF0E9497
:103BF000FA81EECF80E0DF91CF91089581E0FBCF95
:103C00004F925F926F927F928F929F92AF92BF92EC
:103C1000CF92DF92EF92FF92CF93DF93CDB7DEB7D3
:103C20006A970FB6F894DEBF0FBECDBF9A8F898F0B
:103C30005B014A01DC01D7966D917D918D919C913C
:103C4000DA970E940FF56B017C01F501208131812B
:103C5000428153810E9470F50E94CEF90E945EFA63
:103C60003B015C01D4012D913D914D915C91C701C7
:103C7000B6010E9470F50E94CEF90E945EFA6D8234
:103C80007E82AF82B8862D813E814F81588528374C
:103C900031054105510540F428E730E040E050E0AF
:103CA0002D833E834F83588769837A838B839C83DC
:103CB00089819A81AB81BC8188379105A105B105C5
:103CC00040F428E730E040E050E029833A834B831A
:103CD0005C83E98DFA8DED5BFF4F80819181A2813C
:103CE000B38189879A87AB87BC87BC01CD010E94CD
:103CF00011F52B013C016D817E818F8198850E9499
:103D00000FF5698B7A8B8B8B9C8B20E030E0A901BF
:103D1000C301B2010E940AF5882309F43BC1A7013F
:103D20009601C701B6010E9470F54B015C0129891B
:103D30003A894B895C89CA01B9010E9470F59B01DF
:103D4000AC01C501B4010E9461F94B015C01A30102
:103D50009201C301B2010E9462F99B01AC01C5014D
:103D6000B4010E94E5F90E94CEF90E945EFA6D87C7
:103D70007E878F87988B69857A858B859C859095C2
:103D80008095709561957F4F8F4F9F4F0E9411F5E1
:103D90004B015C0169817A818B819C810E940FF5C6
:103DA00069877A878B879C8720E030E0A901C5016D
:103DB000B4010E940AF5882309F4F0C029853A85E8
:103DC0004B855C85CA01B9010E9470F56D8B7E8BB5
:103DD0008F8B988FA7019601C701B6010E9470F5DD
:103DE0009B01AC016D897E898F89988D0E9461F954
:103DF0006B017C01A5019401C501B4010E9462F927
:103E00009B01AC01C701B6010E94E5F90E948DFA41
:103E1000A98DBA8D95968D909D90AD90BC909897F8
:103E2000750164012D853E854F855889C21AD30AD4
:103E3000E40AF50A0E945EFAC61AD70AE80AF90AE5
:103E4000F7FE6EC020E030E0A901C301B2010E947C
:103E50000AF5882309F4A6C0C501B4010E940FF534
:103E60006B017C01A3019201C301B2010E9462F9BE
:103E70009B01AC01C701B6010E9470F56B017C018A
:103E800029893A894B895C89CA01B9010E9470F578
:103E90009B01AC01C701B6010E9461F96B017C0175
:103EA00029853A854B855C85CA01B9010E9470F568
:103EB0009B01AC01C701B6010E9462F96B017C0154
:103EC00020E030E040E850E4C301B2010E9470F508
:103ED0009B01AC01C701B6010E94E5F90E94CEF931
:103EE0006B017C0120E030E0A9010E94E5FA181680
:103EF0001CF0C12CD12C7601C701B6010E945EFADC
:103F00006D877E878F87988B86169706A806B906D9
:103F100020F48D869E86AF86B88AC12CD12C76017E
:103F20008D859E85AF85B889E98DFA8D82A793A787
:103F3000A4A7B5A7C80ED91EEA1EFB1EDF01C6A6A0
:103F4000D7A6E0AAF1AA2D813E814F81588523AFE3
:103F500034AF45AF56AFDF9629813A814B815C8102
:103F60002D933D934D935C9313976A960FB6F894F7
:103F7000DEBF0FBECDBFDF91CF91FF90EF90DF90FE
:103F8000CF90BF90AF909F908F907F906F905F90F9
:103F90004F90089560E070E0CB01E5CE60E070E006
:103FA000CB0134CF60E070E0CB0198CF80919B07CC
:103FB0008230B1F09091910F992359F08091A10F27
:103FC000811104C084E99FE00C94DCC181EA9FE088
:103FD000FBCF813041F089E492E16FEF0C94CED7B2
:103FE00087E692E1FACF8BE592E1F7CF282F109286
:103FF0007D0A8091270C9091280CA091290CB091FA
:104000002A0C81309048A105B10540F01092270C90
:104010001092280C1092290C10922A0C8091780A88
:10402000882331F08091270C8093230C1092210C6F
:104030008091200C1816FCF4082E000C990B821BA2
:1040400091092091230C022E000C330B28173907FD
:1040500094F097FF02C090E080E08093230C092E3B
:10406000000CAA0BBB0B8093270C9093280CA093F9
:10407000290CB0932A0C8091230C6623A9F090910F
:10408000240C891714F48093240C2091240C022E04
:10409000000C330B2C5F3F4F482F082E000C550BA4
:1040A000241735071CF484508093240C0895CF9373
:1040B000DF9360E085E00E94F61FD091240CC0E001
:1040C000D1110DC080915801882399F00E941B18CE
:1040D00021E041E0BC018C2F0E948EDD0AC0D1306E
:1040E00091F48091580120E041E06CE774E1811186
:1040F000F2CFDF5FCF5FC53019F783E08093200CEC
:10410000DF91CF910895D230A1F780915801882393
:1041100081F320E041E062E774E1DDCFDF92EF92CE
:10412000FF920F931F93CF93DF9361E081E00E9492
:10413000F61FC091240C15E01C0F81E001E0D2E0D5
:10414000FD2EFC1AE82EEC1ADC2ED194C11130C0E1
:104150008823D9F08091230C1816BCF04091270CCD
:104160005091280C6091290C70912A0C4F5F5F4F81
:104170006F4F7F4F4093270C5093280C6093290C6E
:1041800070932A0C8F5F8093230C809158018823B1
:1041900039F020E041E062E373E18D2D0E948EDD75
:1041A00080E0CF5F1C13D2CF83E08093200C21C02E
:1041B000C13039F59091230C913079F080915801FC
:1041C000882371F381E0913009F080E020E249E238
:1041D00053E16E2D0E94A3D1E3CF8091220C88235E
:1041E00069F31092220CD093740C8091210C8823D7
:1041F00029F3DF91CF911F910F91FF90EF90DF9006
:104200000895C23069F69091230C923069F0809144
:104210005801882329F281E0923009F080E020E201
:104220004EE153E16F2DD6CF8091220C882379F394
:104230001092220C0093740C8091210C882339F386
:10424000D8CF809191088630D8F496E0899FF0010C
:104250001124E359F74F20914701309148013183F0
:1042600020834091270C5091280C6091290C70916B
:104270002A0C42835383648375838F5F80939108F4
:104280000895CF92DF92EF92FF920F931F93CF93F7
:10429000DF93EC016A017B01809147019091480115
:1042A0008C179D0781F128E3CE37D207A9F58554F5
:1042B000924371F40E942DC86E517B4F8F4F9F4FD8
:1042C0006093690870936A0880936B0890936C08F8
:1042D000D0934801C0934701C092270CD092280C7C
:1042E000E092290CF0922A0CC554D24321F410928A
:1042F000730C1092910882E08093580181E08093C2
:10430000210C10927E0ADF91CF911F910F91FF90A7
:10431000EF90DF90CF90089522E3C534D207C1F625
:104320008E57984319F0C5E4D2E3D2CF0E942DC82E
:104330000091690810916A0820916B0830916C080F
:10434000601B710B820B930B97FFEDCF8091410F98
:104350009091420F891B8F7021F48091910F8823D7
:1043600011F3C2E4DAE2B4CF40E050E0BA0185E4F0
:1043700092E30C9441216093760C4093750C8A3043
:1043800078F5E82F880FFF0BE853FE4D0C94A3FB44
:10439000F221D221F521DC21DF21EB21E221F021E4
:1043A000E521E8218AEB9DE221E02093730C40E0B7
:1043B00050E0BA010C9441218CE69EE2F5CF85ECE9
:1043C0009EE2F2CF87E590E2EFCF8EE19FE2ECCF65
:1043D00087E79FE2E9CF1092740C8EE890E2E4CF79
:1043E0000C94B42181E69DE2DFCF83E19EE2DCCF35
:1043F000E0919108EE2389F0E150E093910886E086
:10440000E89FF0011124E359F74F42815381648101
:104410007581808191810C9441210C94B4219F92EB
:10442000AF92BF92CF92DF92EF92FF920F931F93C2
:10443000CF93DF9361E081E00E94F61FC091240CCE
:10444000DC2F85E0982E9C0E97E8C92E97E1D92E97
:104450001AE01C1B09E00C1B88E0F82EFC1A87E010
:10446000E82EEC1A86E0B82EBC1A85E0A82EAC1A0D
:10447000C1113CC08091230C882301F18091580127
:10448000882361F06D2F619581E09091230C91114B
:1044900080E024E045E058E10E94A3D180918A0A9F
:1044A0008111B4C1349BB2C1CB3009F485C18CE019
:1044B000CF5F9C12DDCF8093200C0CC08091220C2A
:1044C0008823E1F21092220C0E94F8218091210CA5
:1044D0008823A1F2DF91CF911F910F91FF90EF9070
:1044E000DF90CF90BF90AF909F900895C13019F5A5
:1044F0008091230C813081F080915801882371F2E2
:1045000061E06D1B81E09091230C913009F080E017
:1045100023E04BEF57E1C0CF8091220C882361F359
:104520001092220C8FE091EE0E9452DE8091210CBD
:10453000882311F3CFCFC23009F06AC18091230CD8
:10454000823089F080915801882309F4A7CF62E076
:104550006D1B81E09091230C923009F080E020E205
:104560004DEE57E199CF8091220C882359F3109298
:10457000220C87EF97E19093380C8093370C0E94C0
:10458000E0868091210C8823E9F2A4CF8091230C4E
:10459000833089F080915801882309F47FCF63E04C
:1045A0006D1B81E09091230C933009F080E020E2B4
:1045B00040EE57E171CF8091220C882359F310927D
:1045C000220C87EE97E19093380C8093370C0E9471
:1045D000E0868091210C8823E9F27CCF8091230C26
:1045E000843089F080915801882309F457CF64E022
:1045F0006D1B81E09091230C943009F080E020E263
:1046000043ED57E149CF8091220C882359F3109252
:10461000220C8AED97E19093380C8093370C0E941E
:10462000E0868091210C8823E9F254CF8091230CFD
:10463000853081F080915801882309F42FCF81E0E3
:104640009091230C953009F080E020E246EC57E190
:104650006A2D22CF8091220C882361F31092220CC4
:104660008DEC97E19093380C8093370C0E94E08694
:104670008091210C8823F1F22DCF8091230C86307C
:1046800081F080915801882309F408CF81E090914E
:10469000230C963009F080E023E049EB57E16B2DC5
:1046A000FBCE8091220C882361F31092220C80ECC7
:1046B0009BE60E9452DE8091210C882311F30ACFE1
:1046C0008091230C873081F080915801882309F470
:1046D000E5CE81E09091230C973009F080E023E053
:1046E0004DEA57E16E2DD8CE8091220C882361F3DC
:1046F0001092220C85E394E20E9452DE8091210CFC
:10470000882311F3E7CE8091230C883081F08091CB
:104710005801882309F4C2CE81E09091230C98308F
:1047200009F080E023E041EA57E16F2DB5CE80919A
:10473000220C882361F31092220C85E095E20E94FE
:1047400052DE8091210C882311F3C4CE8091230C7A
:10475000893081F080915801882309F49FCE81E04F
:104760009091230C993009F080E023E044E957E16F
:10477000602F92CE8091220C882361F31092220C3C
:1047800085ED95E20E9452DE8091210C882311F381
:10479000A1CE8091220C882309F457C01092220CDC
:1047A000D092380CC092370C0E94E0868091210C88
:1047B000882309F44AC08ECE8091230C8B3099F067
:1047C00080915801882309F472CE6BE06D1B81E063
:1047D0009091230C9B3009F080E020E24AE557E1FC
:1047E0000E94A3D164CE8091220C882349F31092B9
:1047F000220C88E697E19093380C8093370C0E9446
:10480000E0868091210C8823D9F264CE8BE050CED3
:10481000C33009F4BBCEC43009F4E0CEC53009F48E
:1048200005CFC63009F429CFC73009F449CFC830C5
:1048300009F469CFC93009F489CFCA3009F02ECE06
:104840008091230C8A3009F4A4CF809158018823E9
:1048500009F424CE81E09091230C9A3009F080E095
:1048600020E245E757E1612F17CEEF92FF920F93B9
:104870001F93CF93DF9361E081E00E94F61FC09108
:10488000240C85E0F82EFC0ED3E0DC1B12E01C1B90
:1048900001E00C1BEC2EE194C1112DC08091230C82
:1048A0008823B1F080915801882359F081E09091DC
:1048B000230C911180E024E04AE756E16E2D0E941E
:1048C000A3D1CF5FFC12E8CF84E08093200C0CC012
:1048D0008091220C882331F31092220C0E94F8213F
:1048E0008091210C8823F1F2DF91CF911F910F91DC
:1048F000FF90EF900895C13061F58091230C8130D5
:1049000079F0809158018823E1F281E09091230CA5
:10491000913009F080E020E24EE656E1602FCFCFE3
:104920008091220C882369F31092220C4091B307E6
:104930005091B4076091AD077091AE078091A707C1
:104940009091A8070E9483C88091210C8823C9F206
:10495000CBCFC23009F042C08091230C823081F06D
:1049600080915801882309F4ACCF81E09091230C09
:10497000923009F080E020E24EE456E1612F9FCFB3
:104980008091220C882361F31092220C4091B3078E
:104990005091B4076FEF7FEF8091A7079091A80720
:1049A0000E9483C88091210C8823D1F29DCF8091F1
:1049B000220C8823D1F01092220C4091B307509121
:1049C000B4076091AD077091AE0790E080E00E945F
:1049D00083C88091210C882341F086CFC33009F031
:1049E00070CF8091230C833011F38091580188237C
:1049F00009F467CF81E09091230C933009F080E0B7
:104A000020E24EE556E16D2F5ACFEF92FF920F93C1
:104A10001F93CF93DF9361E081E00E94F61FC09166
:104A2000240C85E0F82EFC0ED3E0DC1B12E01C1BEE
:104A300001E00C1BEC2EE194C1112DC08091230CE0
:104A40008823B1F080915801882359F081E090913A
:104A5000230C911180E024E04EEA56E16E2D0E9475
:104A6000A3D1CF5FFC12E8CF84E08093200C0CC070
:104A70008091220C882331F31092220C0E94F8219D
:104A80008091210C8823F1F2DF91CF911F910F913A
:104A9000FF90EF900895C13061F58091230C813033
:104AA00079F0809158018823E1F281E09091230C04
:104AB000913009F080E020E242EA56E1602FCFCF4A
:104AC0008091220C882369F31092220C4091B50743
:104AD0005091B6076091AF077091B0078091A90718
:104AE0009091AA070E9483C88091210C8823C9F263
:104AF000CBCFC23009F042C08091230C823081F0CC
:104B000080915801882309F4ACCF81E09091230C67
:104B1000923009F080E020E242E856E1612F9FCF19
:104B20008091220C882361F31092220C4091B507EA
:104B30005091B6076FEF7FEF8091A9079091AA0778
:104B40000E9483C88091210C8823D1F29DCF80914F
:104B5000220C8823D1F01092220C4091B50750917D
:104B6000B6076091AF077091B00790E080E00E94B7
:104B700083C88091210C882341F086CFC33009F08F
:104B800070CF8091230C833011F3809158018823DA
:104B900009F467CF81E09091230C933009F080E015
:104BA00020E242E956E16D2F5ACFEF92FF920F9328
:104BB0001F93CF93DF9361E081E00E94F61FC091C5
:104BC000240C85E0F82EFC0ED3E0DC1B12E01C1B4D
:104BD00001E00C1BEC2EE194C1112DC08091230C3F
:104BE0008823B1F080915801882359F081E0909199
:104BF000230C911180E024E045EE56E16E2D0E94D9
:104C0000A3D1CF5FFC12E8CF84E08093200C0CC0CE
:104C10008091220C882331F31092220C0E94F821FB
:104C20008091210C8823F1F2DF91CF911F910F9198
:104C3000FF90EF900895C13061F58091230C813091
:104C400079F0809158018823E1F281E09091230C62
:104C5000913009F080E020E248ED56E1602FCFCF9F
:104C60008091220C882369F31092220C4091B7079F
:104C70005091B8076091B1077091B2078091AB076E
:104C80009091AC070E9483C88091210C8823C9F2BF
:104C9000CBCFC23009F042C08091230C823081F02A
:104CA00080915801882309F4ACCF81E09091230CC6
:104CB000923009F080E020E246EB56E1612F9FCF71
:104CC0008091220C882361F31092220C4091B70747
:104CD0005091B8076FEF7FEF8091AB079091AC07D1
:104CE0000E9483C88091210C8823D1F29DCF8091AE
:104CF000220C8823D1F01092220C4091B7075091DA
:104D0000B8076091B1077091B20790E080E00E940F
:104D100083C88091210C882341F086CFC33009F0ED
:104D200070CF8091230C833011F380915801882338
:104D300009F467CF81E09091230C933009F080E073
:104D400020E247EC56E16D2F5ACF8F929F92AF929F
:104D5000BF92CF92DF92EF92FF920F931F93CF9368
:104D6000DF9361E081E00E94F61FC091240C85E092
:104D7000982E9C0E8C2E819403ED12E1D1E0DC1B69
:104D800083E0B82EBC1A9BEBE92E92E1F92E20ECC1
:104D9000C22E22E1D22E82E0A82EAC1AC11114C07C
:104DA0008091230C882309F47AC0809158018823CC
:104DB00059F081E09091230C911180E024E04BEEBA
:104DC00052E1682D0E94A3D180919C07811193C06C
:104DD00020910C0130910D018091F80E9091F90E07
:104DE000821793070CF087C0C130A9F48091230C7F
:104DF000813009F46FC080915801882361F081E00F
:104E00009091230C913009F080E023E04BED52E1CA
:104E10006D2F0E94A3D18091410F9091420F891B69
:104E20008F7009F007C180918311811103C18091B6
:104E30009C07811116C18091F80E9091F90E209176
:104E40000C0130910D01821793070CF0F5C0C230B0
:104E500009F09AC08091230C823009F471C08091CE
:104E60005801882361F081E09091230C923009F081
:104E700080E023E045EC52E16A2D0E94A3D18091AD
:104E8000F80E9091F90E20919C07222309F47CC022
:104E900084E0CF5F9C1282CF8093200C0EC0809163
:104EA000220C882309F481CF1092220C0E94F82151
:104EB0008091210C882309F478CFDF91CF911F9145
:104EC0000F91FF90EF90DF90CF90BF90AF909F90A9
:104ED0008F9008958091220C882309F48CCF109232
:104EE000220C81EA99E10E9452DE8091210C8823F4
:104EF00009F481CFE2CFC13009F08DCF8091230C2E
:104F0000813069F080915801882309F484CF81E0D1
:104F10009091230C913009F080E020E277CF8091CE
:104F2000220C882379F31092220C1093380C0093F2
:104F3000370C0E94E0868091210C882319F3BDCFA5
:104F40008091220C882309F48ACF1092220C8BE9DD
:104F500099E10E9452DE8091210C882309F47FCFD1
:104F6000ACCF8091220C882309F46EC01092220CE1
:104F7000D092380CC092370C0E94E0868091210CB0
:104F8000882309F461C099CF20910C0130910D0163
:104F90008217930754F1C33009F07ACF8091230C24
:104FA000833091F080915801882309F471CF81E01A
:104FB0009091230C933009F080E020E24BEA52E11B
:104FC0006B2D0E94A3D164CF8091220C882351F3D2
:104FD0001092220CF092380CE092370C0E94E0867E
:104FE0008091210C8823F1F268CFC33009F050CFB3
:104FF0008091230C833079F080915801882309F443
:1050000047CF81E09091230C933009F080E023E0BA
:105010004BE952E1D5CF8091220C882369F310929D
:10502000220C8EE999E10E9452DE8091210C8823A6
:1050300019F343CF82E02DCFC23009F0A5CF809184
:10504000230C823009F48DCF80915801882309F414
:1050500016CF81E09091230C923009F080E020E29D
:1050600009CFC23009F097CFEACF5F926F927F925B
:105070008F929F92AF92BF92CF92DF92EF92FF9268
:105080000F931F93CF93DF9361E081E00E94F61F9F
:10509000C091240C85E0682E6C0E98E9E92E94E10D
:1050A000F92ED4E0DC1B23EBC22E24E1D22E13E038
:1050B0001C1B31EDA32E34E1B32E02E00C1B4CEE91
:1050C000842E44E1942E81E0782E7C1A5C2E51943B
:1050D000C11136C08091230C8823B1F08091580112
:1050E000882359F081E09091230C911180E024E015
:1050F00049EF54E1652D0E94A3D1CF5F6C12E8CF38
:1051000085E08093200C0CC08091220C882331F321
:105110001092220C0E94F8218091210C8823F1F238
:10512000DF91CF911F910F91FF90EF90DF90CF9083
:10513000BF90AF909F908F907F906F905F900895F9
:10514000C13021F58091230C813079F08091580194
:10515000882399F281E09091230C913009F080E04E
:1051600020E24EED54E1672DC6CF8091220C8823BA
:1051700069F31092220C9092380C8092370C0E94A6
:10518000E0868091210C882309F3CACFC23009F050
:105190005BC08091230C823081F08091580188237C
:1051A00009F4ABCF81E09091230C923009F080E0BC
:1051B00020E24FEB54E1602F9ECF8091220C882398
:1051C00061F31092220CB092380CA092370C0E941E
:1051D000E0868091210C882301F3A2CF8091230CDB
:1051E000833081F080915801882309F486CF81E0D3
:1051F0009091230C933009F080E020E244EA54E1DE
:10520000612F79CF8091220C882361F31092220CB8
:10521000D092380CC092370C0E94E0868091210C0D
:10522000882301F37DCF8091220C8823B1F0109266
:10523000220CF092380CE092370C0E94E0868091AC
:10524000210C882351F06CCFC33041F2C43009F0F7
:1052500054CF8091230C843031F3809158018823FE
:1052600009F44BCF81E09091230C943009F080E059
:1052700020E24BE854E16D2F3ECF9CE0899F802DCA
:10528000112491E0980F9093F00E2CE0280F2093BA
:10529000F10E4091380F30E02E5F3F4F421713065A
:1052A00009F0A4F420913A0F921780F4662341F09C
:1052B0008E5F0E9427CE8091F10E8E5F0E9427CED6
:1052C0008091F10E10923B0F80933C0F0895CF9385
:1052D000DF931F92CDB7DEB780913D0F811105C0DE
:1052E00081E080933D0F0E94ACCC6091060F7091DD
:1052F000070F19829E012F5F3F4F4FE084E09FE030
:105300000E9447CC0F90DF91CF9108950F931F9388
:10531000CF93C62F8C01CC2349F0F80181918F01E6
:10532000882321F00E9479C1C150F5CFCF911F9100
:105330000F9108959FEF980F993020F40E9467D73E
:1053400081E008950E9479C1FBCF9FEF980F9930BB
:1053500010F40C9467D70C9479C1CF93DF93EC01D0
:10536000FE018491882321F00E94A5292196F8CF7F
:10537000DF91CF910895CF93DF93EC01899188233A
:1053800019F00E94A529FACFDF91CF910895AF922D
:10539000BF92CF92DF92EF92FF920F931F93CF9322
:1053A000DF935C017B010E9480DDC82FC7010E9452
:1053B000D8DD04E110E0081B1109DD24D394C017E7
:1053C000110619F014F082E0D82E8091050F90E0BC
:1053D0006D2D70E06F5F7F4F0E948FFBC62EC6E081
:1053E000C60F8091380FC81788F120913A0F4C2FC3
:1053F0004B50550B241715064CF110923B0FC093E0
:105400003C0FC5010E947EC1D1E0E114F10499F086
:105410008AE30E9479C152E0D5121AC0CC0D809166
:10542000380FC81740F020913A0F4C2F4B50550BB6
:10543000241715067CF4DF91CF911F910F91FF90F7
:10544000EF90DF90CF90BF90AF900895D0E0DDCF88
:10545000DD2389F3802F880F800F880F80933B0F07
:10546000C0933C0F80E20E9479C1C701DF91CF91C8
:105470001F910F91FF90EF90DF90CF90BF90AF9072
:105480000C94BB298F929F92AF92BF92CF92DF92E2
:10549000EF92FF928091220C1092220C882361F0EF
:1054A0001092730CFF90EF90DF90CF90BF90AF9071
:1054B0009F908F900C94F82181E08093730C8090E2
:1054C000270C9090280CA090290CB0902A0C8114E5
:1054D0009104A104B10409F450C01092270C109259
:1054E000280C1092290C10922A0CB401092C000CE3
:1054F000880B990B0E9411F52091AD083091AE08F0
:105500004091AF085091B0080E9470F52091490C6D
:1055100030914A0C40914B0C50914C0C0E9462F916
:105520006B017C0120E030E040EA51EC0E94E5FA9A
:1055300087FD23C020E030E040EA51E4C701B60116
:105540000E940AF51816CCF080913C0C82FF0AC02C
:105550008091A1079091A207880D991D9093A207B1
:105560008093A107C092490CD0924A0CE0924B0C58
:10557000F0924C0C82E0809358018091580188236E
:1055800089F089E49CE00E94E1C4BC018BED95E1C7
:10559000FF90EF90DF90CF90BF90AF909F908F9053
:1055A0000C94C729FF90EF90DF90CF90BF90AF9001
:1055B0009F908F900895CF92DF92EF92FF920F937A
:1055C000CF93DF93982F862F6A017901692F0E946C
:1055D0003D299091380F8091F10E891708F445C04C
:1055E00090913A0F8091F00E981708F43EC0C701D1
:1055F000002381F00E9480DDC82FD4E1D81BF60182
:105600008491882351F00E949A29D81BFFEFCF1A6A
:10561000DF0AF5CF0E94D8DDEFCF8AE30E9479C17F
:10562000D15010F080E2FACF8091F10E9C2F990FAB
:10563000990FC91BCC0FC058C0933B0F80933C0FF0
:10564000C701002349F0DF91CF910F91FF90EF90B8
:10565000DF90CF900C94AD29DF91CF910F91FF9007
:10566000EF90DF90CF900C94BB29DF91CF910F91F9
:10567000FF90EF90DF90CF9008957F928F929F924E
:10568000AF92BF92CF92DF92EF92FF920F931F9350
:10569000CF93DF9361E081E00E94F61FC091240C5C
:1056A0009C2E85E0A82EAC0E87E0F82EFC1AD1E0E7
:1056B00086E0E82EEC1A85E0D82EDC1A84E0C82EAD
:1056C000CC1A82E0B82EBC1A8D2E8C1A7C2E7194C6
:1056D000C1112FC08091230C882389F0809158013B
:1056E000882309F444C081E09091230C911180E05B
:1056F00024E049E456E1672D0E94A3D138C080918F
:10570000220C882359F31092220C0E94F8218091D8
:10571000210C882319F3DF91CF911F910F91FF90F6
:10572000EF90DF90CF90BF90AF909F908F907F9041
:105730000895C130D1F58091230C8130F9F080912A
:1057400058018823A1F011E08091230C813009F0E9
:1057500010E080911401909115010E948ACF00E021
:105760009C014DE356E1682D812F0E94DB2ACF5F1B
:10577000AC12AECF88E08093200CCDCF8091220C6C
:105780008823E9F21092220C10E000E027EE33E0CB
:105790004AE050E064E171E083E496E10E9437C69C
:1057A0008091210C882359F2B6CFC23009F018C17C
:1057B0008091230C8230B1F0809158018823B9F296
:1057C00011E08091230C823009F010E08091F80EF6
:1057D0009091F90E0E948ACF00E09C014FE256E1C1
:1057E0006B2DC2CF8091220C882331F31092220CB2
:1057F000D0937D0A1092790A10927A0A10927B0A4D
:1058000010927C0A09E919E12EE031E050E040E015
:1058100068EF7EE086E396E10E9437C68091210C16
:10582000882351F278CF8091230C8330C1F080918E
:105830005801882309F49BCF11E08091230C833019
:1058400009F010E080912B0C90912C0C0E948ACFD3
:1058500063E0691900E09C0147E256E185CF809141
:10586000220C882321F31092220CD0937D0A1092EF
:10587000790A10927A0A10927B0A10927C0A09EF38
:1058800010E325E530E050E040E06BE27CE08BE2A5
:1058900096E10E9437C68091210C882341F23BCFCC
:1058A0008091230C8430B9F080915801882309F449
:1058B0005ECF11E08091230C843009F010E08091DC
:1058C0002D0C90912E0C0E948ACF00E09C0143E1A8
:1058D00056E16C2D49CF8091220C882329F3109238
:1058E000220CD0937D0A1092790A10927A0A1092B3
:1058F0007B0A10927C0A10E000E02FEF30E050E0CD
:1059000040E06DE27CE08DE196E10E9437C6809137
:10591000210C882349F2FFCE8091230C8530B9F009
:1059200080915801882309F422CF11E08091230C43
:10593000853009F010E080911201909113010E94CE
:105940008ACF00E09C0149E056E16D2D0DCF80919A
:10595000220C882329F31092220C08EF17E127EE7E
:1059600033E04AE050E062E171E08EE096E10E94AF
:1059700037C68091210C882399F2CDCE8091230CDB
:10598000863081F080915801882309F4F0CE81E0BF
:105990009091230C963009F080E023E04AEF55E126
:1059A0006E2DAACE8091220C882361F31092220CD6
:1059B00082E49AE20E9452DE8091210C882311F346
:1059C000AACE8091220C8823E9F01092220C85EA5D
:1059D00096E20E9452DE8091210C882399F09BCEA2
:1059E000C33009F420CFC43009F45ACFC53009F4CC
:1059F00093CFC63019F2C73009F0B9CE8091230C8D
:105A00008730F9F280915801882309F4B0CE81E003
:105A10009091230C973009F080E023E04AEE55E1A5
:105A20006F2D6ACECF939CE0899F802D112491E049
:105A3000980F9093F00E845F8093F10E4091380F91
:105A4000282F30E02E5F3F4F4217130609F0BCF5B8
:105A500020913A0F921798F5C62F9EE390933B0F33
:105A600080933C0F85E40E94A52981E38C0F0E945E
:105A7000A52980E20E94A5296091FA0E7091FB0E83
:105A80008091FC0E9091FD0E0E9457FACB010E946E
:105A90008ACF0E94BB298FE20E94A5290E9448DD7F
:105AA000811104C080919907811109C08091F80E7D
:105AB0009091F90E0E948ACFCF910C94BB29CF917F
:105AC00008951F93CF93DF9360E085E00E94F61F57
:105AD000D091240CC0E012E0D1110DC0809158018A
