:100000000C94A3180C94CD180C94CD180C94CD1806
:100010000C94CD180C94CD180C94CD180C94CD18CC
:100020000C94CD180C94CD180C94CD180C94CD18BC
:100030000C94CD180C9484C00C94CD180C94CD184D
:100040000C94CD180C94DA450C9463D60C94CD180E
:100050000C9489BA0C94CD180C94CD180C94CD182E
:100060000C94CD180C94CD180C94CD180C94CD187C
:100070000C94CD180C94CD180C94CD180C94CD186C
:100080000C94CD180C94CD180C94CD185A3E0A3D02
:10009000413D963E413D413D413D413D413D413D1A
:1000A000413D413D413D413D413D413D413D413D60
:1000B000413D413D413D413D413D413D413D413D50
:1000C000413D413D413D413D903E413D413D413DF0
:1000D000413D413D413D413D413D693E413D413D07
:1000E000413D413D413D413D413D413D413D413D20
:1000F000AD3E3E3D738F5A8F768F5D8F608F6C8FD4
:10010000638F718F668F698F79C57CC56FC573C525
:1001100093C593C580C584C58AC58EC5CCC8D1C8D2
:10012000D6C8E0C80EC90EC9EAC8F2C8FAC804C9E0
:10013000084AD73B3BCE016E84BCBFFDC12F3D6C4E
:1001400074319ABD56833DDA3D00C77F11BED9E4B4
:10015000BB4C3E916BAAAABE000000803F05A84C94
:10016000CDB2D44EB93836A9020C50B99186880860
:100170003CA6AAAA2ABE000000803F004E414E497C
:100180004E495459494E46CDCCCC3D0AD7233C1755
:10019000B7D13877CC2B329595E6241FB14F0A00A2
:1001A0000020410000C84200401C4620BCBE4CCA92
:1001B0001B0E5AAEC59D74434F4D4D554E4943419C
:1001C00054494F4E0044525952554E004552524FD9
:1001D000525300494E464F004543484F0047322F87
:1001E00047332062616420706172616D657465726D
:1001F000730A00536C6565702E2E2E00206F6620EA
:10020000004D424C2047323920706F696E742000D7
:1002100059206F7574206F662072616E67652028A3
:10022000312D36292E0A0058206F7574206F6620F4
:1002300072616E67652028312D36292E0A004D65C2
:1002400073682070726F62696E6720646F6E652ECE
:100250000A005374617274206D6573682070726F48
:1002600062696E67207769746820224732392053AB
:1002700031222066697273742E0A004732380A47A9
:1002800032392053320053746174653A20004D6551
:10029000736820626564206C6576656C696E6720A2
:1002A000686173206E6F20646174612E0A005320B0
:1002B0006F7574206F662072616E67652028302D1F
:1002C00035292E0A004D65736820706F696E7420A1
:1002D00063616E6E6F74206265207265736F6C76F9
:1002E00065640A00436C69636B20746F20726573E8
:1002F000756D652E2E2E004E6F206D6F76652E006B
:100300005072696E742074696D653A2000D801D30B
:1003100001CC01C501B7016F6666004445425547EF
:100320003A004B494C4C45442E20004D313133208E
:1003300053006F6B003344205072696E74657220F5
:100340004F66662E00544845524D414C5F50524F07
:1003500054454354494F4E004155544F5245504F18
:1003600052545F53445F53544154555300454D45D7
:100370005247454E43595F50415253455200434105
:1003800053455F4C494748545F4252494748544E91
:1003900045535300544F47474C455F4C49474854D9
:1003A0005300534F4654574152455F504F574552A3
:1003B000004255494C445F50455243454E54004C11
:1003C0004556454C494E475F44415441005A5F50A1
:1003D000524F4245004155544F4C4556454C0050F4
:1003E00052494E545F4A4F420050524F4752455374
:1003F00053004155544F5245504F52545F54454D50
:100400005000564F4C554D455452494300454550B8
:10041000524F4D0053455249414C5F584F4E5F5823
:100420004F4646004649524D574152455F4E414D59
:10043000453A4D61726C696E20312E312E3920287B
:100440004769746875622920534F555243455F438D
:100450004F44455F55524C3A68747470733A2F2F6D
:100460006769746875622E636F6D2F4D61726C6978
:100470006E4669726D776172652F4D61726C696E3F
:100480002050524F544F434F4C5F56455253494FA3
:100490004E3A312E30204D414348494E455F545924
:1004A00050453A3344205072696E74657220455845
:1004B0005452554445525F434F554E543A3120559E
:1004C0005549443A63656465326132662D34316161
:1004D000322D343734382D396231322D633535635E
:1004E00036326633363766660A002F2F20004D31CC
:1004F000343520533C696E6465783E206F757420F6
:100500006F662072616E67652028302D31290A00E0
:10051000205400205200416363656C657261746908
:100520006F6E3A2050005741524E494E4721204CA1
:100530006F77205A204A65726B206D6179206C6557
:10054000616420746F20756E77616E7465642070CD
:1005500061757365732E0A0020466C6F773A200030
:1005600000010F150E12FFFFFFFF16170E13FFFFFE
:10057000FFFF03021A14FFFFFFFFFFFFFF0C04FF42
:10058000FFFF01000EFFFFFF0C190DFF1820643A5A
:100590000020693A0020703A00496E76616C696407
:1005A0002065787472756465720A0043290A0061D7
:1005B000626C656420286D696E2074656D70200022
:1005C000436F6C6420657874727564657320617222
:1005D0006520004E6F2063617365206C69676874E5
:1005E0000A00454550524F4D204F4B0A004163745D
:1005F0006976652045787472756465723A200049A1
:100600006E76616C69642065787472756465720ACF
:10061000006F6B00456E6473746F707320256320E8
:10062000256320256320256300205A3A0020593A8B
:100630000020583A00656E6473746F7073206869A7
:10064000743A20004C6576656C696E6720446F6E65
:100650006521004D6F7665205A00473239205332AC
:10066000004E65787420506F696E74002569202FE4
:100670002025750047323920533100473239205345
:100680003200436C69636B20746F20426567696E4A
:1006900000486F6D696E672058595A00473238001C
:1006A00053746F72652073657474696E6773004C60
:1006B0006F61642073657474696E6773004C65764E
:1006C000656C20636F726E65727300426564205AB8
:1006D00000426564205A0046616465204865696788
:1006E00068740046616465204865696768740046FF
:1006F00061646520486569676874004F6666004FED
:100700006E2000426564204C6576656C696E6700FA
:100710004C6576656C20626564005072657061722C
:1007200065004D3432380050726568656174205040
:10073000455447005072656865617420414253001A
:100740005072656865617420504C41005365742097
:10075000686F6D65206F66667365747300426564CB
:10076000204C6576656C696E6700486F6D65205A30
:1007700000473238205A00486F6D652059004732D3
:1007800038205900486F6D6520580047323820588E
:10079000004175746F20686F6D6500473238004DF9
:1007A0006F76652061786973004D61696E004D6FE9
:1007B00076652058004D6F76652059004D6F76653F
:1007C000205A004578747275646572004D6F7665C5
:1007D00020302E316D6D004D6F766520316D6D00CE
:1007E0004D6F76652031306D6D004D6F76652061FF
:1007F000786973004578747275646572004D6F7620
:1008000065205A004D6F76652059004D6F76652042
:10081000580020746F6F206C6F6E6720657874725B
:100820007573696F6E2070726576656E7465640AA3
:100830000020636F6C6420657874727573696F6EE5
:100840002070726576656E7465640A0020496E7664
:10085000616C69642065787472756465722000004B
:1008600000000000000000000000000000484300FD
:1008700000434300002043486F6D696E6720666146
:10088000696C656400206E6F7420656E74657265B6
:10089000642E0A002C20002C2000486F74656E64C2
:1008A00020746F6F20636F6C640A0050726F746500
:1008B000637465642050696E0A0020573A00452031
:1008C000436F6F6C696E672E2E2E00452048656160
:1008D00074696E672E2E2E0020573A004265642000
:1008E000636F6F6C696E672E2E2E00426564206800
:1008F000656174696E672E2E2E00205A3A002059C9
:100900003A0020436F756E7420583A0020453A0033
:10091000205A3A0020593A00583A0000060900FED1
:10092000000000000001090008FE0000050808069C
:10093000000040F0C8888898781005080806000074
:10094000C0F88888888888F80505050600012030E9
:10095000F830200508080600002070F8202020202C
:10096000E00509090600FF2070A8A8B88888702053
:100970000509090600FFE080C0B0A8283028280536
:1009800009090600FFF8A88888888888A8F8050A59
:100990000A0600FE205050505088A8A88870030313
:1009A0000306000340A0401000C90210012C0140C2
:1009B00001220170011801B0010E01F00104015083
:1009C00002FA00B002F0003003E600D003DC009031
:1009D00004D2007005C800A006BE000008B400B034
:1009E00009AA00D00BA000600E960060118C0000D8
:1009F00015820020197800C01D6E00A0226400B08E
:100A0000275A00902C500000314600E0343C001082
:100A1000383200903A2800603C1E00A03D1400804F
:100A20003E0A00203F0000426564206865617469E9
:100A30006E67206661696C65640048656174696E03
:100A400067206661696C65640045312048656174A2
:100A5000696E67206661696C6564004865617469E8
:100A60006E67206661696C65640070012C019001FD
:100A70002701B0012201C0011D01F001180110027F
:100A8000130130020E016002090190020401C0024C
:100A9000FF000003FA004003F5008003F000D003DC
:100AA000EB002004E6007004E100E004DC004005F7
:100AB000D700C005D2004006CD00D006C800800790
:100AC000C3003008BE00F008B900C009B400B00A85
:100AD000AF00B00BAA00D00CA500000EA000500F74
:100AE0009B00C01096005012910000148C00C0159D
:100AF0008700B0178200B0197D00D01B7800001E5F
:100B0000730040206E0090226900F02464004027AA
:100B10005F0090295A00E02B5500102E5000203025
:100B20004B0010324600E033410090353C00103756
:100B3000370070383200A0392D00B03A2800A03BB1
:100B40002300603C1E00103D1900903D1400103E33
:100B50000F00703E0A00C03E0500003F0000403F0D
:100B6000FBFF803FF6FFC03FF1FF45312054484571
:100B7000524D414C2052554E415741590042454437
:100B800020544845524D414C2052554E41574159F1
:100B900000546865726D616C2052756E6177617981
:100BA000004531204572723A204D415854454D5010
:100BB000004572723A204D415854454D50204245EF
:100BC00044004D415854454D502074726967676523
:100BD000726564004531204572723A204D494E5489
:100BE000454D50004572723A204D494E54454D5086
:100BF00020424544004D494E54454D502074726981
:100C000067676572656400202F002042403A00202B
:100C1000403A0025753A2530327500253032753A54
:100C2000253032750025756420253032753A25301F
:100C3000327500202020202020005A00590020205A
:100C400020200058000920000000000000000000E3
:100C5000000000003FFFF000000000000000000066
:100C600000000038007000000000000000000000DC
:100C7000000030FC30000000000000000000000018
:100C80000020FC1000000000000000000000000038
:100C9000207810000000000000000000000000208C
:100CA00030100000000000000000000000002C00D8
:100CB000D03FC0000000000000002082002E31D094
:100CC0007FE0000000000000001041002F7BD07F7B
:100CD000E0000000000000001041002F7BD07FE00A
:100CE000000000000000002082002E31D03FC00034
:100CF0000000000000004104002C00D03FC00000B4
:100D000000000000008208002030107FE00000009A
:100D1000000000008208002078107FE00000000042
:100D200000000041040020FC107FE00000000000F3
:100D3000000020820030FC301F8000000000000016
:100D4000000000003800700F0000000000000000EC
:100D5000FFFFC03FFFF0060000000000000000FFA2
:100D6000FFC00000000000000000000000000000C4
:100D7000003FFFF000000000000000000000000045
:100D8000380070000000000000000000000000318A
:100D900086300000000000000000000000002387F3
:100DA00010000000000000000000000000278790F5
:100DB0000000000000000000000000002F87D000AD
:100DC00000000000000000000000002F03D03FC022
:100DD000000000000000002082002030107FE000B2
:100DE0000000000000001041002078107FE00000AB
:100DF00000000000001041002078107FE00000009B
:100E0000000000002082002030103FC000000000E1
:100E10000000004104002F03D03FC000000000008C
:100E200000008208002F87D07FE000000000000053
:100E3000008208002787907FE0000000000000008B
:100E40004104002387107FE0000000000000002024
:100E500082003186301F800000000000000000008A
:100E6000003800700F0000000000000000FFFFC00D
:100E70003FFFF0060000000000000000FFFFC00080
:100E800000003344205072696E74657220526561AF
:100E900064792E005072696E74696E672E2E2E0072
:100EA0005072696E7420706175736564004D3730DF
:100EB0003220542564004D363030204230205425F5
:100EC00064004D373032203B2564004D37303120EF
:100ED00054256400556E6C6F61642066696C616DA9
:100EE000656E7400556E6C6F61642066696C616D2F
:100EF000656E74004D373032004D373031004C6F25
:100F000061642066696C616D656E74004D363030C9
:100F1000204230004368616E67652066696C616DD0
:100F2000656E740050726570617265005052494E72
:100F3000542050415553454400554E4C4F41442098
:100F400046494C414D454E54004C4F414420464982
:100F50004C414D454E54004578747275646572007D
:100F60004D6F7665205A004D6F76652059004D6FA4
:100F700076652058005072657061726500496E692F
:100F80007469616C697A6520454550524F4D004344
:100F90006F6E74726F6C00526573746F7265206649
:100FA00061696C73616665004C6F61642073657480
:100FB00074696E677300496E697469616C697A65FA
:100FC00020454550524F4D0053746F726520736534
:100FD0007474696E67730046696C616D656E740048
:100FE0004D6F74696F6E0054656D706572617475D4
:100FF0007265004D61696E005072656865617420AC
:101000005045544720636F6E660050726568656195
:10101000742041425320636F6E66005072656865AC
:10102000617420504C4120636F6E66005049442D1E
:1010300044005049442D44005049442D4900504932
:10104000442D49005049442D50005049442D500032
:101050002008204661637400200820466163740004
:101060002008204D6178002008204D61780020087C
:10107000204D6178002008204D696E002008204D29
:10108000696E002008204D696E004F6666004F6E45
:1010900020004175746F74656D700046616E207339
:1010A000706565640046616E207370656564004616
:1010B000616E20737065656400426564004265641A
:1010C00000426564004E6F7A7A6C65004E6F7A7AE2
:1010D0006C65004E6F7A7A6C6500436F6E74726F48
:1010E0006C0053746F72652073657474696E6773F6
:1010F000004265640042656400426564004E6F7A98
:101100007A6C65004E6F7A7A6C65004E6F7A7A6CF5
:10111000650046616E2073706565640046616E20EF
:1011200073706565640046616E2073706565640068
:1011300054656D706572617475726500556E6B6E85
:101140006F776E20636F6D6D616E643A2022004987
:101150006E736572742066696C616D656E74206172
:101160006E6420707265737320627574746F6E2084
:10117000286F72204D313038290A00486F6D652084
:101180002573257325732066697273740020666960
:101190007273740A005A0059005800486F6D652038
:1011A000006563686F3A004572726F723A00454598
:1011B00050524F4D206461746173697A6520657285
:1011C000726F722E0A00290A002062797465733BDF
:1011D00020637263200053657474696E67732053D3
:1011E000746F726564202800290A00206279746592
:1011F000733B2063726320002073746F72656420F8
:1012000073657474696E677320726574726965764C
:101210006564202800202863616C63756C617465C7
:101220006429210A0020213D2000454550524F4DA0
:1012300020435243206D69736D61746368202D20D3
:101240002873746F7265642920002053697A653AA7
:101250002000496E6465783A2000204D61726C6907
:101260006E3D563535290A0028454550524F4D3DB3
:1012700000454550524F4D2076657273696F6E2060
:101280006D69736D61746368200024F4D43050C3B9
:101290008E20C2A24017828B7011127A910D816C40
:1012A000D90AA861E108C7586607615143061E4B79
:1012B0005D05C145A7041A411104093D9803713920
:1012C00031034036DB0265339102D4305402802E64
:1012D0001D02632CEE01752AC501B028A00110275C
:1012E00081018F2564012B244B01E0223401AC21C4
:1012F0001F018D200D01801FFC00841EED00971D35
:10130000DF00B81CD200E61BC600201BBC00641A1C
:10131000B200B219A8000A19A0006A189900D117E2
:10132000910040178B00B516840031167E00B3156E
:1013300079003A157300C7146F0058146A00EE1351
:1013400066008813630025135E00C7125B006C12F1
:10135000570015125400C111510070114F00211196
:101360004B00D61049008D10470046104400021073
:101370004200C00F4000800F3E00420F3C00060FAD
:101380003B00CB0E3800930E37005C0E3500270E65
:101390003400F30D3200C10D3100900D3000600DAE
:1013A0002E00320D2D00050D2C00D90C2B00AE0C9B
:1013B0002900850C29005C0C2700350C27000E0C39
:1013C0002600E80B2400C40B2400A00B23007D0B97
:1013D00023005A0B2100390B2100180B2000F80ABA
:1013E0001F00D90A1E00BB0A1E009D0A1D00800AAC
:1013F0001D00630A1C00470A1B002C0A1B00110A6F
:101400001A00F7091A00DD091900C4091900AB090F
:101410001900920917007B091800630917004C098D
:10142000160036091600200916000A091500F508ED
:101430001500E0081400CC081400B8081400A40833
:101440001400900813007D0812006B081300580860
:101450001200460812003408110023081100120877
:10146000110001081100F0071000E0071000D0077C
:101470001000C0071000B0070F00A107100091076F
:101480000E0083070F0074070F0065070E00570753
:101490000E0049070E003B070D002E070E00200727
:1014A0000D0013070D0006070D00F9060C00ED06F0
:1014B0000D00E0060C00D4060C00C8060C00BC06AB
:1014C0000C00B0060C00A4060B0099060C008D065B
:1014D0000B0082060B0077060B006C060B00610602
:1014E0000A0057060B004C060A0042060A0038069E
:1014F0000A002E060A0024060A001A060A00100630
:10150000090007060A00FD050900F4050900EB05BE
:101510000900E2050900D9050900D0050900C70541
:101520000900BE050900B5050800AD050800A505C0
:1015300009009C050800940508008C050800840536
:1015400008007C050800740508006C0507006505A7
:1015500008005D050700560508004E050700470511
:1015600007004005080038050700310507002A0577
:101570000700230507001C050600160507000F05D8
:1015800007000805060002050700FB040600F50435
:101590000700EE040600E8040600E2040700DB048E
:1015A0000600D5040600CF040600C9040600C304E3
:1015B0000600BD040600B7040600B1040500AC0433
:1015C0000600A6040600A00405009B04060095047E
:1015D0000500900406008A040500850405008004C7
:1015E00006007A04050075040500700405006B040C
:1015F000050066040500610405005C04050057044D
:101600000500520405004D0405004804050043048C
:1016100005003E0404003A040500350405003004CA
:1016200004002C04050027040400230405001E0404
:1016300004001A04040016040500110404000D043B
:101640000400090405000404040000040400FC0371
:101650000400F8030400F4030400F0030400EC03A6
:101660000400E8030400E4030400E0030400DC03D6
:101670000400D8030400D4030400D0030400CC0306
:101680000400C8030300C503030024F404D9201B8D
:10169000C40C5C0E9804C4095F0265077101F4056F
:1016A000F900FB04B30048048700C1036900580334
:1016B000550003034500BE023A0084023100530284
:1016C0002A002902250004022000E4011C00C801B0
:1016D0001900AF0117009801140084011300710173
:1016E00010006101100051010E0043010D00360190
:1016F0000B002B010B0020010B00150109000C0150
:10170000090003010800FB000800F3000800EB00DB
:101710000700E4000600DE000600D8000600D20044
:101720000600CC000500C7000500C2000500BD0092
:101730000400B9000400B5000400B1000400AD00CD
:101740000400A9000400A5000300A20003009F00FC
:1017500004009B0003009800030095000200930022
:101760000300900003008D0002008B00030088003E
:1017700002008600020084000300810002007F0056
:1017800002007D0002007B00020079000200770069
:101790000100760002007400020072000100710076
:1017A00002006F0002006D0001006C0002006A0080
:1017B0000100690002006700010066000100650089
:1017C000010064000200620001006100010060008D
:1017D00001005F0002005D0001005C0001005B0091
:1017E00001005A0001005900010058000100570093
:1017F0000100560001005500010054000100530093
:10180000000053000100520001005100010050008F
:1018100001004F0001004E0000004E0001004D008D
:1018200001004C0001004B0000004B0001004A0089
:101830000100490001004800000048000100470085
:101840000100460000004600010045000000450080
:101850000100440001004300000043000100420079
:101860000000420001004100000041000100400072
:1018700001003F0000003F0001003E0000003E006C
:1018800001003D0000003D0001003C0000003C0064
:1018900000003C0001003B0000003B0001003A005A
:1018A00000003A0001003900000039000100380052
:1018B0000000380000003800010037000000370049
:1018C000010036000000360000003600010035003F
:1018D0000000350000003500010034000000340035
:1018E000000034000100330000003300000033002A
:1018F000010032000000320000003200010031001F
:101900000000310000003100010030000000300014
:101910000000300001002F0000002F0000002F0009
:1019200000002F0001002E0000002E0000002E00FD
:1019300001002D0000002D0000002D0000002D00F2
:1019400001002C0000002C0000002C0000002C00E6
:1019500001002B0000002B0000002B0000002B00DA
:1019600001002A0000002A0000002A0000002A00CE
:1019700001002900000029000000290000002900C2
:1019800000002900010028000000280000002800B5
:1019900000002800000028000100270000002700A8
:1019A000000027000000270000002700010026009B
:1019B000000026000000260000002600000026008F
:1019C0000100250000002500000025000000250082
:1019D0000000250000002500010024000000240074
:1019E0000000240000002400000024000100230067
:1019F000000023000000230000002300000023005B
:101A0000000023000000230001002200000022004B
:101A1000000022000000220000002200000022003E
:101A20000100210000002100000021000000210031
:101A30000000210000002100000021000100200022
:101A40000000200000002000000020000000200016
:101A500000002000000020000000200001001F0006
:101A600000001F0000001F0000001F0000001F00FA
:101A700000001F0000001F0001001E0000001E00EB
:101A800000001E0000001E000000043700001E2998
:101A90000000511B00005810000010090000CC0489
:101AA0000000780200004101000023646566696E51
:101AB000652044454641554C545F4B6420002364E7
:101AC0006566696E652044454641554C545F4B69D7
:101AD000200023646566696E652044454641554C87
:101AE000545F4B702000504944204175746F7475E9
:101AF0006E652066696E697368656421205075742F
:101B000020746865206C617374204B702C204B69C5
:101B100020616E64204B6420636F6E7374616E7419
:101B2000732066726F6D2062656C6F7720696E74CA
:101B30006F20436F6E66696775726174696F6E2E90
:101B4000680A00504944204175746F74756E6520B1
:101B50006661696C6564212074696D656F75740ACE
:101B600000453120544845524D414C2052554E417C
:101B700057415900546865726D616C2052756E61F1
:101B80007761790045312048656174696E67206628
:101B900061696C65640048656174696E672066619F
:101BA000696C656400504944204175746F74756EAA
:101BB00065206661696C6564212054656D7065728D
:101BC000617475726520746F6F20686967680A00B8
:101BD000204B643A2000204B693A2000204B703A99
:101BE00020000A20436C61737369632050494420CC
:101BF0000A002054753A2000204B753A2000206DD1
:101C000061783A2000206D696E3A200020643A2005
:101C10000020626961733A20005049442041757484
:101C20006F74756E65206661696C65642120426120
:101C300064206578747275646572206E756D626576
:101C4000720A00504944204175746F74756E6520A6
:101C500073746172740A006265640A002C207379DF
:101C60007374656D2073746F7070656421204865AE
:101C7000617465725F49443A20003A004361703AEA
:101C800000205A00205900580020204D61783A2049
:101C900000205A00205900580020204D696E3A203B
:101CA000004F6E20004F666600536F667420656EAD
:101CB0006473746F70733A20004F66660A00466161
:101CC0006465204865696768742000426564204C3B
:101CD0006576656C696E6720004661696C65642095
:101CE000746F20656E61626C6520426564204C658E
:101CF00076656C696E670A004D657368204265649D
:101D0000204C6576656C20646174613A0A004D650B
:101D1000736820706F696E742063616E6E6F7420DB
:101D20006265207265736F6C7665640A004D3432AB
:101D30003120696E636F72726563742070617261C5
:101D40006D657465722075736167650A004F66661C
:101D500073657473206170706C696564004572729C
:101D60003A20546F6F206661722100546F6F2066B5
:101D700061722066726F6D207265666572656E6352
:101D80006520706F696E740A004D3630303A205409
:101D90006F6F20636F6C6400486F74656E642074AD
:101DA0006F6F20636F6C640A00496E7365727420F4
:101DB00066696C616D656E7420616E642070726519
:101DC000737320627574746F6E0A0050726573735A
:101DD00020627574746F6E20746F20686561742062
:101DE0006E6F7A7A6C650A00496E7365727420664C
:101DF000696C616D656E7420616E642070726573CC
:101E00007320627574746F6E20286F72204D3130AC
:101E100038290A004261627973746570205A004360
:101E200068616E67652066696C616D656E740042FD
:101E300061627973746570205A00466C6F77004652
:101E40006C6F7700466C6F770046616E207370652B
:101E500065640046616E2073706565640046616E5E
:101E600020737065656400426564004265640042E9
:101E70006564004E6F7A7A6C65004E6F7A7A6C6595
:101E8000004E6F7A7A6C650046616465204865692A
:101E90006768740046616465204865696768740016
:101EA000466164652048656967687400426564201E
:101EB0005A00426564205A0053706565640053708F
:101EC000656564005370656564004D61696E00501E
:101ED00072656865617420504C4120456E64005005
:101EE00072656865617420504C4120426564005001
:101EF00072656865617420504C4100507265706174
:101F000072650050726568656174204142532045D6
:101F10006E640050726568656174204142532042CE
:101F200065640050726568656174204142530050D9
:101F300072657061726500507265686561742050E9
:101F400045544720456E6400507265686561742091
:101F5000504554470050726568656174205045547F
:101F6000472042656400507265706172650042618D
:101F7000636B004E65787420506F696E7400507505
:101F8000726765206D6F726500436F6E74696E7560
:101F90006500524553554D45204F5054494F4E53BF
:101FA0003A0020204E6F7A7A6C653A2000636861AF
:101FB0006E6765006F66207468652066696C616D88
:101FC000656E74005761697420666F722073746166
:101FD00072740020204E6F7A7A6C653A20002000DF
:101FE00066696C616D656E7420756E6C6F616400FE
:101FF0005761697420666F720020204E6F7A7A6C88
:10200000653A20002000506C656173652077616936
:10201000742E2E2E0048656174696E67206E6F7A8B
:102020007A6C650020204E6F7A7A6C653A20002029
:102030000068656174206E6F7A7A6C652E0050724C
:1020400065737320627574746F6E20746F00202046
:102050004E6F7A7A6C653A2000746F20636F6E74ED
:10206000696E75652E2E2E00616E64207072657328
:102070007320627574746F6E00496E73657274209C
:1020800066696C616D656E740020204E6F7A7A6CA3
:10209000653A2000200066696C616D656E74206C85
:1020A0006F6164005761697420666F720020204E72
:1020B0006F7A7A6C653A2000200066696C616D6504
:1020C0006E74207075726765005761697420666F61
:1020D0007200746F20726573756D65005761697465
:1020E00020666F72207072696E7400473238200A61
:1020F0004731205A32302046323030300A4D3131AB
:102100003720557365722053637269707420446F71
:102110006E6500486F6D65202620526169736520E9
:102120005A004D61696E00437573746F6D20436F83
:102130006D6D616E647300556E6C6F6164206669CD
:102140006C616D656E74004C6F61642066696C61D2
:102150006D656E74004368616E67652066696C61C9
:102160006D656E740044697361626C65207374659B
:102170007070657273004D383400436F6F6C646F1C
:10218000776E00436F6E74726F6C00507265706191
:1021900072650054756E6500496E666F20736372D8
:1021A00065656E0000060900FE0701920321207F8D
:1021B000FF07FF07FF0000000600000107070602F7
:1021C0000080808080800080030202060105A0A0BC
:1021D0000507070600005050F850F8505005070753
:1021E0000600002078A07028F020050707060000F0
:1021F000C0C810204098180507070600006090A08E
:1022000040A89068020303060104C040800307074A
:10221000060100204080808040200307070601005F
:102220008040202020408005050506000120A87080
:10223000A8200505050600012020F8202002030340
:102240000602FFC04080050101060003F8020202F9
:10225000060200C0C00505050600010810204080E8
:1022600005070706000070888888888870030707BC
:1022700006010040C040404040E00507070600005E
:10228000708808708080F8050707060000F81020A5
:10229000100808F005070706000010305090F810ED
:1022A00010050707060000F880F008088870050789
:1022B00007060000708080F0888870050707060018
:1022C00000F808102020202005070706000070886D
:1022D000887088887005070706000070888878086D
:1022E0000870020505060200C0C000C0C002060654
:1022F0000602FFC0C000C0408004070706000010AF
:10230000204080402010050303060002F800F80476
:1023100007070601008040201020408005070706BF
:1023200000007088081020002005070706000070D4
:10233000880868A8A870050707060000708888F854
:10234000888888050707060000F08888F08888F0EC
:1023500005070706000070888080808870050707E1
:10236000060000F08888888888F0050707060000C6
:10237000F88080F08080F8050707060000F880806C
:10238000F0808080050707060000708880B8888884
:1023900070050707060000888888F8888888010784
:1023A0000706020080808080808080050707060085
:1023B0000038101010109060050707060000889084
:1023C000A0C0A0908805070706000080808080805C
:1023D00080F805070706000088D8A888888888053F
:1023E00007070600008888C8A89888880507070698
:1023F000000070888888888870050707060000F04C
:102400008888F0808080050707060000708888882B
:10241000A89068050707060000F08888F0A090885B
:10242000050707060000788080700808F005070798
:10243000060000F8202020202020050707060000C5
:10244000888888888888700507070600008888883B
:10245000888850200507070600008888888888A893
:102460005005070706000088885020508888050717
:1024700007060000888888502020200507070600EE
:1024800000F80810204080F8030707060100E080EC
:1024900080808080E005050506000180402010084E
:1024A000030707060100E02020202020E0050303A9
:1024B000060004205088050101060000F80202020F
:1024C000060205804005050506000070087888783A
:1024D0000507070600008080B0C88888F00505055C
:1024E0000600007080808870050707060000080855
:1024F00068988888780505050600007088F880705F
:102500000507070600003048E04040404005060649
:102510000600FF70888878087005070706000080AD
:1025200080B0C88888880107070602008000808084
:102530008080800308080601FF200020202020A0C2
:1025400040040707060000808090A0C0A090030709
:1025500007060100C04040404040E0050505060078
:1025600000D0A8A8A8A8050505060000B0C888885E
:10257000880505050600007088888870050606062F
:1025800000FFF08888F080800506060600FF788846
:1025900088780808050505060000B0C88080800519
:1025A000050506000070807008F0040707060000AB
:1025B0004040E0404040300505050600008888881E
:1025C00098680505050600008888885020050505DF
:1025D0000600008888A8A850050505060000885058
:1025E0002050880506060600FF8888887808700550
:1025F0000505060000F8102040F803070706010053
:102600002040408040402001070706020080808073
:102610008080808003070706010080404020404002
:1026200080050202060002689000000006000052C9
:102630006573656E643A200020746F6F206C6F6E56
:102640006720657874727573696F6E207072657635
:10265000656E7465640A0020636F6C64206578742D
:10266000727573696F6E2070726576656E746564DD
:102670000A00627573793A2070617573656420662B
:102680006F7220696E7075740A00627573793A20F2
:1026900070617573656420666F7220757365720A68
:1026A00000627573793A2070726F63657373696E37
:1026B000670A004B494C4C45442E20004B494C4C7A
:1026C0002063617573656420627920746F6F206D7B
:1026D00075636820696E6163746976652074696DDD
:1026E00065202D2063757272656E7420636F6D6D49
:1026F000616E643A2000506C656173652072657389
:102700006574005052494E5445522048414C54453E
:1027100044005072696E7465722068616C746564FF
:102720002E206B696C6C28292063616C6C656421B8
:102730000A001FFFFFFFFFFFFF600000000001FF16
:10274000400000000000FF8000000000007F83CFF9
:1027500000000C303F87FF80000C301F867980001E
:102760000C000F8C30C7838C30E78C30CFC7CC3156
:10277000F38C30DCECEC33B98C30D86C6C33198CC6
:1027800030D06C0C33198C30D86C0C33198C30DC95
:102790006C0E3B198C30CF7C079F198C30C77C03A3
:1027A0008F194000000000000260000000000006D9
:1027B0001FFFFFFFFFFFF82020506C616E6E6572F7
:1027C00042756666657242797465733A20002046E8
:1027D000726565204D656D6F72793A2000436F6DAB
:1027E00070696C65643A204465632033312032306F
:1027F00031380A00207C20417574686F723A2028B5
:102800006E6F6E652C2064656661756C7420636FF5
:102810006E666967290A00323031382D30382D3024
:102820003100204C61737420557064617465643AA2
:102830002000312E312E390A004D61726C696E0014
:1028400020536F6674776172652052657365740AF0
:1028500000205761746368646F6720526573657404
:102860000A002042726F776E206F75742052657374
:1028700065740A002045787465726E616C2052653B
:102880007365740A00506F77657255700A0073742F
:102890006172740A00656E7175657565696E672091
:1028A0002200000000000000000000000000000006
:1028B0002042000020420000E0400000000057617C
:1028C000726E696E673A20486F6D696E6720427557
:1028D0006D702044697669736F72203C20310A0064
:1028E0000303050000A0400000A0400000004000DD
:1028F0000048430000434300002043FFFFFF4572B0
:10290000726F722077726974696E6720746F2045E8
:102910004550524F4D210A0048617264636F6465EF
:10292000642044656661756C742053657474696EC7
:102930006773204C6F616465640A00D0070000D0A3
:10294000070000640000001027000000004843005A
:1029500000484300007041000048420000A04200CF
:1029600000A0423373C843F6E8244320286D6D2944
:102970000020204D36303320002055004C004669A1
:102980006C616D656E74206C6F61642F756E6C6F19
:102990006164206C656E677468733A0A00204400B5
:1029A00020490020204D3330312050005049442030
:1029B00073657474696E67733A0A0020460020429A
:1029C0000020480020204D3134352053004D6174E3
:1029D000657269616C2068656174757020706172E0
:1029E000616D65746572733A0A00205A00205900BF
:1029F0002020473239205333205800205A0020200D
:102A00004D3432302053004D657368204265642098
:102A10004C6576656C696E673A0A00205A00205949
:102A20000020204D323036205800486F6D65206FF1
:102A300066667365743A0A00204500205A002059E2
:102A40000020580020540020530020204D32303503
:102A500020510020453C6D61785F655F6A65726B4F
:102A60003E0020583C6D61785F785F6A65726B3E0E
:102A700020593C6D61785F795F6A65726B3E205AC0
:102A80003C6D61785F7A5F6A65726B3E0041647687
:102A9000616E6365643A20513C6D696E5F73656772
:102AA0006D656E745F74696D655F75733E20533C30
:102AB0006D696E5F66656564726174653E20543C45
:102AC0006D696E5F74726176656C5F666565647270
:102AD0006174653E0020540020520020204D3230A9
:102AE00034205000416363656C65726174696F6E78
:102AF0002028756E6974732F7332293A20503C7008
:102B000072696E745F616363656C3E20523C7265EE
:102B100074726163745F616363656C3E20543C74DE
:102B2000726176656C5F616363656C3E0A00204587
:102B300000205A0020590020204D3230312058000A
:102B40004D6178696D756D20416363656C65726177
:102B500074696F6E2028756E6974732F7332293A09
:102B60000A00204500205A0020590020204D323014
:102B7000332058004D6178696D756D206665656418
:102B800072617465732028756E6974732F73293AA6
:102B90000A00204500205A0020590020204D3932DB
:102BA00020580053746570732070657220756E69CB
:102BB000743A0A0020204D3230302044300A002080
:102BC000204D3230302044002044697361626C65CE
:102BD000640A0046696C616D656E74207365747477
:102BE000696E67733A0020204D3134392043203B11
:102BF00020556E69747320696E2043656C73697526
:102C0000730A002020473231202020203B00256914
:102C1000730025696D202569730025696820256981
:102C20006D20256973002569642025696820256960
:102C30006D2025697300256979202569642025693F
:102C4000682025696D20256973004B494C4C45442B
:102C50002E200053544F505045442E20005072698E
:102C60006E7465722073746F70706564206475652E
:102C700020746F206572726F72732E2046697820FF
:102C8000746865206572726F7220616E642075735E
:102C900065204D39393920746F2072657374617203
:102CA000742E202854656D7065726174757265208C
:102CB00069732072657365742E205365742069747E
:102CC0002061667465722072657374617274696ED6
:102CD00067290A004E6F20436865636B73756D202A
:102CE00077697468206C696E65206E756D626572B7
:102CF0002C204C617374204C696E653A2000636827
:102D000065636B73756D206D69736D617463682C99
:102D1000204C617374204C696E653A20004C696EDA
:102D200065204E756D626572206973206E6F742028
:102D30004C617374204C696E65204E756D626572CE
:102D40002B312C204C617374204C696E653A200045
:102D50004D3131300056652D6A65726B0056652D18
:102D60006A65726B0056652D6A65726B00567A2D26
:102D70006A65726B00567A2D6A65726B0056792D02
:102D80006A65726B0056792D6A65726B0056792DF3
:102D90006A65726B0056782D6A65726B0056782DE5
:102DA0006A65726B0056782D6A65726B004D6F74A0
:102DB000696F6E004573746570732F6D6D00457398
:102DC000746570732F6D6D005A73746570732F6D19
:102DD0006D005A73746570732F6D6D00597374654F
:102DE00070732F6D6D005973746570732F6D6D0066
:102DF0005873746570732F6D6D00587374657073BC
:102E00002F6D6D004D6F74696F6E00537465707334
:102E10002F6D6D004A65726B00416363656C65726E
:102E20006174696F6E0056656C6F636974790043F5
:102E30006F6E74726F6C004C6F6164206D6D004C2E
:102E40006F6164206D6D004C6F6164206D6D005585
:102E50006E6C6F6164206D6D00556E6C6F616420E7
:102E60006D6D00556E6C6F6164206D6D0046696C10
:102E70002E204469612E0046696C2E204469612E23
:102E8000004F6666004F6E20004520696E206D6D14
:102E90003300436F6E74726F6C0046696C616D65D0
:102EA0006E7420757365643A200053746174733ACC
:102EB00020002C204C6F6E67657374206A6F623A35
:102EC0002000546F74616C2074696D653A20005362
:102ED000746174733A20002C204661696C65643A11
:102EE00020002C2046696E69736865643A200050A2
:102EF00072696E74733A200053746174733A2000DF
:102F000000002100240027002A00000022002500E4
:102F100028002B00000020002300260029000202C8
:102F2000020202020202040404040404040403036F
:102F30000303030303030101010101010101010274
:102F40000408102040800102040810204080010283
:102F50000408102040808040201008040201000076
:102F600000010200090A0000000004030807000035
:102F700000000000000000000000000000004368A6
:102F8000616E67652066696C616D656E7400556E73
:102F90006C6F61642066696C616D656E74004C6F66
:102FA00061642066696C616D656E7400507265685D
:102FB00065617420504554470050726568656174BE
:102FC00020414253005072656865617420504C4145
:102FD000004368616E67652066696C616D656E743B
:102FE000005654726176206D696E00565472617697
:102FF000206D696E005654726176206D696E0056C0
:103000006D696E00566D696E00566D696E00566D85
:103010006178204500566D6178204500566D6178D5
:10302000204500566D6178205A00566D6178205A0F
:1030300000566D6178205A00566D6178205900560F
:103040006D6178205900566D6178205900566D6188
:1030500078205800566D6178205800566D617820B0
:1030600058004D6F74696F6E00416D6178204500A6
:10307000416D6178204500416D6178205A00416DB5
:103080006178205A00416D6178205900416D617866
:10309000205900416D6178205800416D61782058B9
:1030A00000412D74726176656C00412D74726176F9
:1030B000656C00412D7265747261637400412D72FC
:1030C00065747261637400416363656C004163639E
:1030D000656C004D6F74696F6E00545249474745E7
:1030E000524544006F70656E003A20007A5F6D694A
:1030F0006E00795F6D696E00785F6D696E00526574
:10310000706F7274696E6720656E6473746F70207F
:103110007374617475730A000A4D65617375726525
:103120006420706F696E74733A0A005A206F666685
:103130007365743A20004E756D20582C593A20362C
:103140002C360A00D9EB11241FBECFEFD0E4DEBF2E
:10315000CDBF12E0A0E0B1E0ECE5F5EF01E00BBF80
:1031600002C007900D92AE34B107D9F72FE0AEE45C
:10317000B2E001C01D92A336B207E1F718E1C3EA3D
:10318000D8E104C02197FE010E9433FAC23AD10768
:10319000C9F70E94ADD60C94ACFA0C94000021E063
:1031A0002093EC076093560570935705809358055C
:1031B0009093590540E050E0BA0180915A059091F2
:1031C0005B050C94FD3E60E070E080E291E40C94BD
:1031D000CF1860E070E080E89FE30C94CF186DECAE
:1031E0007CEC8CEC9DE30C94CF1880913901882302
:1031F00031F060E070E081E996E00E945F4084E099
:103200008093390180914C068770873039F440E013
:1032100050E0BA0183EE9CE10C94FD3E0895CF92FC
:10322000DF92EF92FF92CF93C82F0E9457D66B0187
:103230007C0124EA30E74DE75FE360915605709129
:10324000570580915805909159050E9456F287FDC7
:1032500005C08AEF90E0A0E0B0E003C080E090E01D
:10326000DC01C80ED91EEA1EFB1EC092E407D092F4
:10327000E507E092E607F092E707C0934301CF919C
:10328000FF90EF90DF90CF90089580912D0E1092D7
:103290002D0E882321F01092EC070C948050609141
:1032A000320E7091330E8091340E9091350E61156F
:1032B00071058105910561F10E945DF2209156052D
:1032C0003091570540915805509159050E94BCF224
:1032D00020913006309131064091320650913306EC
:1032E0000E94CCF6609330067093310680933206CC
:1032F0009093330683E00E940F1981E08093390197
:103300001092320E1092330E1092340E1092350E2F
:1033100080913901882349F080E396E00E94359D31
:10332000BC0183EC97E00C945F4008953F924F926C
:103330005F926F927F928F929F92AF92BF92CF9245
:10334000DF92EF92FF920F931F93CF93DF93CDB74E
:10335000DEB72A970FB6F894DEBF0FBECDBF9A87AF
:103360008987362E80912D0E10922D0E882329F0FC
:103370001092EC070E948050F8C08091320E90911C
:10338000330EA091340EB091350E8D839E83AF83A2
:10339000B887892B8A2B8B2B09F4A4C094E0699FF2
:1033A00080011124F801EC5DF94F4080518062806A
:1033B000738020E030E04AE754E4C301B2010E9488
:1033C000CBF64B015C0120E030E04AE754E4C30156
:1033D000B2010E94CCF66B017C01809132018823FE
:1033E000D1F1A1E03A1639F13A16A0F0B2E03B1261
:1033F00032C08090510590905205A0905305B09036
:103400005405C0901901D0901A01E0901B01F09072
:103410001C0121C08090490590904A05A0904B0561
:10342000B0904C05C0901101D0901201E0901301B2
:10343000F090140110C080904D0590904E05A09022
:103440004F05B0905005C0901501D0901601E09046
:103450001701F09018016D817E818F8198850E94FF
:103460005DF22091560530915705409158055091D5
:1034700059050E94BCF2A30192010E94CCF62B01D7
:103480003C018D819E81AF81B885A3019201B7FF78
:1034900016C0C501B4010E942CF9181644F0F801B9
:1034A000EC5DF94F408251826282738215C0F8014F
:1034B000EC5DF94F80829182A282B3820DC0C70178
:1034C000B6010E9456F287FFEACFF801EC5DF94F92
:1034D000C082D182E282F382832D0E940F1981E0A3
:1034E000809339011092320E1092330E1092340EE6
:1034F0001092350E809139018823B9F1A4E03A9EEB
:10350000C0011124FC01EC5DF94FDC01A15FBC4F4F
:103510002D913D914D915C9160817181828193816A
:103520000E94CCF669837A838B839C832DEC3CECE0
:103530004CEC5DE3609156057091570580915805FC
:10354000909159050E942CF987FD05C0CE01019686
:103550000E94359D05C060E2CE0101960E949D9CAF
:10356000BC0189859A850E945F402A960FB6F8941F
:10357000DEBF0FBECDBFDF91CF911F910F91FF90A6
:10358000EF90DF90CF90BF90AF909F908F907F9003
:103590006F905F904F903F90089562E08CEB97E0C2
:1035A0000C94961961E085EB97E00C94961960E015
:1035B0008EEA97E00C9496198F929F92AF92BF92E9
:1035C000CF92DF92EF92FF920F931F93CF93DF93EF
:1035D00061E081E00E94F84FD0912F0EC0E002E23E
:1035E00017E081E7E82E87E0F82E9EE7C92E97E0E6
:1035F000D92E2BE8A22E27E0B22E3BE9832E37E00E
:10360000932ED11120C080912E0E882331F080910D
:103610003901882309F478C00DC080912D0E8823CC
:10362000B1F310922D0E0E94805080912C0E8823B1
:1036300071F38FC181E090912E0E911180E024E012
:1036400049EA57E05EC0D13019F580912E0E8130E5
:1036500031F080913901882309F456C00FC0809160
:103660002D0E8823B1F310922D0E80EA92E50E9470
:10367000969880912C0E882361F36BC181E0909124
:103680002E0E913009F080E023E04FE957E039C079
:10369000D23021F580912E0E823029F080913901AF
:1036A000882391F111C080912D0E8823B9F31092D7
:1036B0002D0E90920103809200030E94E3B5809149
:1036C0002C0E882359F345C181E090912E0E923043
:1036D00009F080E020E241E957E013C0D33071F5F2
:1036E00080912E0E8330C9F080913901882361F0DA
:1036F00081E090912E0E933009F080E020E244E8C2
:1037000057E06C2F0E94F99FCF5FDF5FC53009F053
:1037100078CF8BE080932B0E1CC180912D0E8823D7
:1037200019F310922D0EB0920103A09200030E9493
:10373000E3B580912C0E8823B9F20BC1D43021F56A
:1037400080912E0E843029F0809139018823E1F296
:1037500011C080912D0E8823B9F310922D0ED092B6
:103760000103C09200030E94E3B580912C0E8823D0
:1037700059F3EFC081E090912E0E943009F080E073
:1037800020E247E757E0BDCFD53029F580912E0ED6
:10379000853031F080913901882309F4B5CF11C00B
:1037A00080912D0E8823B1F310922D0EF09201031B
:1037B000E09200030E94E3B580912C0E882351F320
:1037C000C8C081E090912E0E953009F080E020E293
:1037D0004AE657E096CFD63019F580912E0E863006
:1037E00031F080913901882309F48ECF0FC0809188
:1037F0002D0E8823B1F310922D0E88EF9CE10E94CC
:10380000969880912C0E882361F3A3C081E090915B
:103810002E0E963009F080E023E04DE557E071CFA1
:10382000D73039F580912E0E873031F080913901F3
:10383000882309F469CF13C080912D0E8823B1F33A
:1038400010922D0E10930103009300030E94E3B524
:103850000E94795080912C0E882341F37AC081E038
:1038600090912E0E973009F080E020E24CE457E072
:1038700048CFD83019F580912E0E883031F08091E4
:103880003901882309F440CF0FC080912D0E882381
:10389000B1F310922D0E84E995E80E9496988091DC
:1038A0002C0E882361F355C081E090912E0E983044
:1038B00009F080E023E040E457E023CFD93019F548
:1038C00080912E0E893031F080913901882309F4DE
:1038D0001BCF0FC080912D0E8823B1F310922D0EB7
:1038E00086ED94E80E94969880912C0E882361F3CF
:1038F00030C081E090912E0E993009F080E023E0F5
:1039000044E357E0FECEDA3009F0FECE80912E0E71
:103910008A3031F080913901882309F4F5CE0FC047
:1039200080912D0E8823B1F310922D0E88E194E83A
:103930000E94969880912C0E882361F30AC081E042
:1039400090912E0E9A3009F080E023E047E257E094
:10395000D8CEDF91CF911F910F91FF90EF90DF9024
:10396000CF90BF90AF909F908F90089581E080930B
:10397000EC0710924C0640E050E0BA0185EF98E168
:103980000E94FD3E8CE996E0909301038093000332
:103990000C94E3B540E050E0BA018AE19FE10E9457
:1039A000FD3E81E08093020380915505811103C0A3
:1039B00084E796E002C08BE796E090930103809342
:1039C00000030C94E3B580913901882331F060E065
:1039D00070E082E896E00E945F4080912D0E109288
:1039E0002D0E882321F0109255050C94CA1C0895C1
:1039F0002F923F924F925F926F927F928F929F92FF
:103A0000AF92BF92CF92DF92EF92FF920F931F93EC
:103A1000CF93DF9361E081E00E94F84FC0912F0EB9
:103A2000D0E0AA24A39464E6862E73E0972EE0EDFE
:103A30004E2EE7E05E2E612C712CF7E92F2EF2E975
:103A40003F2EC11122C080912E0E882331F080912B
:103A50003901882309F444C00DC080912D0E8823BC
:103A6000B1F310922D0E0E94805080912C0E88236D
:103A700071F3CDC181E090912E0E911180E024E090
:103A80004AE157E06D2F0E94F99F1091980317703B
:103A9000C13049F580912E0E813031F0809139018D
:103AA000882309F4AEC10FC080912D0E8823B1F395
:103AB00010922D0E86EB9CE10E94969880912C0E20
:103AC000882361F3A4C181E090912E0E913009F01A
:103AD00080E023E040E157E06D2F0E94F99F91C103
:103AE000109198031770173021F40E94B33681119A
:103AF00052C152E0B52EBC1255C080912E0E8B15CE
:103B000031F080913901882309F44CC026C080919E
:103B10002D0E8823B1F310922D0EA092F207109271
:103B2000EE071092EF071092F0071092F1073BE9B1
:103B3000C32E3CE3D32EE12CF12C08EC12E420E060
:103B400030E0A90165E475E08FEE96E00E94C0C602
:103B500080912C0E8823A9F25AC18BE99CE39F9394
:103B60008F931F928F921F921F9285E495E09F93EF
:103B70008F9387ED96E09F938F9383EE96E09F93CC
:103B80008F93DF9381E090912E0E9C1380E08F93B2
:103B90000E9443418DB79EB70E960FB6F8949EBF14
:103BA0000FBE8DBF81E08B0D8C1374C080912E0EE3
:103BB0008C1731F080913901882309F46BC058C00B
:103BC00080912D0E8823B1F310922D0E0E94595032
:103BD00090923901A1EDB6E0B093410EA093400E52
:103BE0008CE692E090933F0E80933E0E88E19CEF2E
:103BF000AFEFBFEF80933A0E90933B0EA0933C0E35
:103C0000B0933D0E4092360E5092370E6092380EB1
:103C10007092390E20E030E04AE754E460916C0283
:103C200070916D0280916E0290916F020E94BCF2C1
:103C300020E030E04AE754E40E94CCF60E943FF8CE
:103C40006093320E7093330E8093340E9093350E42
:103C500030924E0120924D011092440E1092430E6C
:103C60001092420E80912C0E882309F4A3CFCFC06E
:103C700011E080912E0E8C1310E060E28CE692E051
:103C80000E949D9C00E09C014BEC56E06D2F812F23
:103C90000E94DE4012E01B0D80914C068770873039
:103CA00039F51C1323C080912E0E8C1729F08091BA
:103CB00039018823D9F00FC080912D0E8823B9F3E4
:103CC00010922D0E8FEA93E80E94969880912C0E08
:103CD000882369F39CC081E090912E0E9C1380E0B4
:103CE00023E04DEB56E06D2F0E94F99F13E01B0D72
:103CF0001C1323C080912E0E811729F08091390169
:103D00008823D9F00FC080912D0E8823B9F310922B
:103D10002D0E0E9441B50E94C64F80912C0E882323
:103D200069F375C081E090912E0E9C1380E020E233
:103D30004FEA56E06D2F0E94F99F81E0810F8C13AE
:103D400021C080912E0E8C1729F080913901882393
:103D5000C9F00DC080912D0E8823B9F310922D0E5D
:103D60000E94D28680912C0E882379F350C081E086
:103D700090912E0E9C1380E020E240EA56E06D2FD9
:103D80000E94F99FDF5FCF5FD53009F05ACE1E5FEA
:103D900010932B0E3CC0C23071F51091B00380918E
:103DA0002E0E823081F480912D0E882361F01092C6
:103DB0002D0E1A2590923901812F0E94E0368091B4
:103DC0002C0E811124C0809139018823B9F0111182
:103DD00003C02BEF36E002C02FEF36E081E0909178
:103DE0002E0E923009F080E001E043E057E06D2FA5
:103DF0000E94DE4003C023E0B22E7DCE93E0B92EB8
:103E0000D1CE173009F471CE82E0B82ECBCEDF913F
:103E1000CF911F910F91FF90EF90DF90CF90BF90C7
:103E2000AF909F908F907F906F905F904F903F905A
:103E30002F9008950F931F93CF93DF93CDB7DEB7E5
:103E40002A970FB6F894DEBF0FBECDBF809139011F
:103E50008823F1F01F9284E28F938091550590E0C2
:103E600001969F938F938CE696E09F938F938E019C
:103E70000F5F1F4F1F930F930E94EEF1B80181E671
:103E800096E00E945F400FB6F894DEBF0FBECDBF34
:103E900084E08093390180910203811107C040E0E2
:103EA00050E0BA018AE79FE10E94FD3E2A960FB6D4
:103EB000F894DEBF0FBECDBFDF91CF911F910F9160
:103EC000089580910203811106C01092EC070E94B0
:103ED00080500E94A59F80913901882339F020E00D
:103EE00041E064E476E081E00E9477C682E080935E
:103EF00039010895CF92DF92EF92FF920F931F93B3
:103F0000CF93DF9300D000D0CDB7DEB780912D0ED8
:103F100010922D0E8823E9F0809155058F5F8093D4
:103F20005505843298F081E08093020340E050E030
:103F3000BA0181E69FE10E94FD3E8AE596E09093FA
:103F40000103809300030E94E3B587C00E94CA1C4E
:103F500084C06091320E7091330E8091340E909136
:103F6000350E611571058105910509F446C00E9461
:103F70005DF22AE037ED43E25CE30E94BCF220915F
:103F80002C0630912D0640912E0650912F060E944E
:103F9000CCF67B018C0120E030E040E050EC0E9448
:103FA00056F287FD0FC020E030E040E050E4B7015A
:103FB000C8010E942CF918164CF4E12CF12C00E0F9
:103FC00010E404C0E12CF12C00E010ECC701D80192
:103FD00080932C0690932D06A0932E06B0932F0667
:103FE0000E94664F82E0809339011092320E109247
:103FF000330E1092340E1092350E809139018823C1
:1040000061F1C0902C06D0902D06E0902E06F09025
:104010002F0620E030E0A901C701B6010E9456F248
:1040200087FD05C027E137EB41ED58E304C027E1E8
:1040300037EB41ED58EBC701B6010E94CCF669831E
:104040007A838B839C836BE2CE0101960E949D9CB8
:10405000BC0183E596E00E945F400F900F900F90A7
:104060000F90DF91CF911F910F91FF90EF90DF9014
:10407000CF9008951F93CF93DF93182F70935B0514
:1040800060935A0561E081E00E94F84FD0912F0EB5
:10409000C0E081E0113071F120F0123009F453C01A
:1040A0007BC0D111A5C08823D9F080912E0E18169F
:1040B000BCF04091320E5091330E6091340E7091ED
:1040C000350E4F5F5F4F6F4F7F4F4093320E5093CF
:1040D000330E6093340E7093350E8F5F80932E0EE7
:1040E00080913901882309F4E0C021E041E06BE0D0
:1040F00078E07AC0D1117CC08823D9F080912E0E4F
:104100001816BCF04091320E5091330E6091340E6F
:104110007091350E4F5F5F4F6F4F7F4F4093320E60
:104120005093330E6093340E7093350E8F5F8093EF
:104130002E0E80913901882309F4B7C021E041E0B7
:1041400064E078E051C0D11153C08823D9F0809148
:104150002E0E1816BCF04091320E5091330E609125
:10416000340E7091350E4F5F5F4F6F4F7F4F40930E
:10417000320E5093330E6093340E7093350E8F5F72
:1041800080932E0E80913901882309F48EC021E09E
:1041900041E06DEF77E028C0D1112AC08823D9F023
:1041A00080912E0E1816BCF04091320E5091330EB5
:1041B0006091340E7091350E4F5F5F4F6F4F7F4FA0
:1041C0004093320E5093330E6093340E7093350E3D
:1041D0008F5F80932E0E80913901882309F465C08A
:1041E00021E041E064EF77E08C2F0E9477C65DC04C
:1041F000D13009F580912E0E813031F08091390156
:10420000882309F452C00DC080912D0E8823B1F38C
:1042100010922D0E0E94805080912C0E882371F3F5
:1042200080C081E090912E0E913009F080E024E072
:104230004AEE57E037C0D23011F580912E0E823011
:1042400029F080913901882381F10FC080912D0ED2
:104250008823B9F310922D0E83EE98E10E94969870
:1042600080912C0E882369F35CC081E090912E0E22
:10427000923009F080E023E040EE57E013C0D330E5
:1042800061F580912E0E8330C9F080913901882329
:1042900061F081E090912E0E933009F080E023E0F0
:1042A00047ED57E06C2F0E94F99FCF5FDF5F80E002
:1042B000C53009F0EFCEC0932B0E33C080912D0E88
:1042C000882319F310922D0E89EE98E10E9496989A
:1042D00080912C0E8823C9F224C0D43031F780910C
:1042E0002E0E843029F0809139018823F1F20FC01D
:1042F00080912D0E8823B9F310922D0E8FEE98E148
:104300000E94969880912C0E882369F30AC081E060
:1043100090912E0E943009F080E023E04CEC57E0B1
:10432000C1CFDF91CF911F9108952F923F924F926D
:104330005F926F927F928F929F92AF92BF92CF9235
:10434000DF92EF92FF920F931F93CF93DF93CDB73E
:10435000DEB7C956D1090FB6F894DEBF0FBECDBF88
:10436000E0917F05F0918005EF2B11F00C94A929C5
:10437000DEAECDAEE9AE79016A015B01FC012091B0
:104380008C0630918D0640918E0650918F0660818B
:104390007181828193810E94BCF20E9439F9A196B9
:1043A0006CAF7DAF8EAF9FAFA197209190063091FB
:1043B00091064091920650919306D5016D917D91A1
:1043C0008D919C910E94BCF20E9439F9A5966CAF28
:1043D0007DAF8EAF9FAFA597209194063091950643
:1043E0004091960650919706F60160817181828115
:1043F00093810E94BCF20E9439F9A9966CAF7DAFFF
:104400008EAF9FAFA9972091980630919906409161
:104410009A0650919B06D7016D917D918D919C914B
:104420000E94BCF20E9439F92B966CAF7DAF8EAF23
:104430009FAF2B978091BA0383FF0EC02B964CAC95
:104440005DAC6EAC7FAC2B9740920707509208078B
:104450006092090770920A07D8013C9011964C901F
:1044600011974DA612965C90129759AA13962C900C
:104470008091E5069091E606891B8F708F3021F4BC
:1044800080E00E94D7A0F4CF6090E506AA966FAEB8
:10449000AA978091E506082F10E01CA30BA380913A
:1044A000FB069091FC06A091FD06B091FE06A19638
:1044B0008CAC9DACAEACBFACA197881A990AAA0A85
:1044C000BB0A8091FF0690910007A0910107B0916F
:1044D0000207A5964CAC5DAC6EAC7FACA597481AB4
:1044E000590A6A0A7B0A4DA25EA26FA278A6809141
:1044F000030790910407A0910507B0910607A996BC
:104500004CAC5DAC6EAC7FACA997481A590A6A0AEC
:104510007B0A49A65AA66BA67CA6809107079091B4
:104520000807A0910907B0910A072B964CAC5DAC27
:104530006EAC7FAC2B97481A590A6A0A7B0A09F4B9
:104540009DC08091A50381113BC06091C70570910A
:10455000C8058091C9059091CA050E9438F820913C
:104560000D0130910E016217730754F52B964CAC78
:104570005DAC6EAC7FAC2B9740920707509208075A
:104580006092090770920A07E1EAF1E184918F01D4
:104590000F5F1F4F811103C0E1E3F8E004C00E94E8
:1045A00047B8F801F3CF84918F010F5F1F4F882325
:1045B00021F00E9447B8F801F6CF412C512C32016E
:1045C00039AD24E0329F80011124095F1E4FC301E1
:1045D000B2010E945DF2D8012D913D914D915C9107
:1045E0000E94BCF26B017C0120E030E0A9010E9436
:1045F0002CF987FF04C0F7FAF094F7F8F094609173
:1046000098067091990680919A0690919B060E9457
:1046100038F89B01AC01AAEFB0E00E94B1F60E940D
:104620005DF2A70196010E9456F287FF2AC02B96E1
:104630004CAC5DAC6EAC7FAC2B97409207075092B0
:1046400008076092090770920A07E1EAF1E1849194
:104650008F010F5F1F4F811103C0E2E1F8E004C03A
:104660000E9447B8F801F3CF84918F010F5F1F4F6D
:10467000882321F00E9447B8F801F6CF412C512C35
:104680003201D501C4018827B7FD83959927AA2750
:10469000BB27182F2DA13EA14FA158A557FD126091
:1046A00089A59AA5ABA5BCA5B7FD146077FC1860D9
:1046B00009ADA4E00A9FC00111249C01295F3E4F6F
:1046C0007901C301B2010E945DF2D7012D913D91A4
:1046D0004D915C910E94BCF26B017C0120E030E0C6
:1046E000A9010E942CF987FF04C0C701B6019058A8
:1046F00002C0C701B60120E030E040E05FE30E9465
:10470000CCF60E943FF86DAB7EAB8FAB98AF8DE4DB
:104710004BA05CA0849DF001859DF00D1124E55A0D
:10472000F64F108216ABB501A401B7FE07C04427AF
:104730005527BA01481959096A097B098DE46BA00C
:104740007CA0869DF001879DF00D1124E55AF64F5F
:10475000458B568B678B708F8DA19EA1AFA1B8A59D
:10476000B7FF07C0B095A095909581959F4FAF4F2B
:10477000BF4F2DE40BA11CA1209FF001219FF00D44
:104780001124E55AF64F818F928FA38FB48F09A51C
:104790001AA52BA53CA537FF07C03095209510958D
:1047A00001951F4F2F4F3F4FEDE47E2E4BA05CA095
:1047B000749CF001759CF00D1124E55AF64F058F9D
:1047C000168F278F30A34DA85EA86FA878AC41A2A2
:1047D00052A263A274A23A01F62FE72F4817590795
:1047E0006A077B0718F43C01FA2FEB2FC301AF2FA8
:1047F000BE2F80179107A207B30710F4D901C80193
:104800004DA85EA86FA878AC84159505A605B705D8
:1048100010F4D301C2012DE46BA07CA0269DF00111
:10482000279DF00D1124E55AF64F85A396A3A7A363
:10483000B0A70697A105B10508F484C5DF01A95BFF
:10484000BF4F8091470E9091480E8D939C9379AC09
:1048500071A6452B462B472B09F05E988DE40BA1E2
:104860001CA1809FF001819FF00D1124E55AF64FA5
:10487000818D928DA38DB48D892B8A2B8B2B09F082
:104880005E988DE44BA05CA0849DF001859DF00DA9
:104890001124E55AF64F858D968DA78DB0A1892BF1
:1048A0008A2B8B2B09F015984DA85EA86FA878ACC1
:1048B00045284628472809F44EC58091600588237D
:1048C00019F081508093600559AC511004C05E9876
:1048D00080E28093600560907A0370907B03009182
:1048E0007C0310917D039301A801632D7DA589A907
:1048F000922D0E9456F287FF04C0362C7DA609AB8C
:10490000212EC501B4010E945DF22091CD073091A6
:10491000CE074091CF075091D0070E94BCF269AFFB
:104920007AAF8BAF9CAF698B7A8B8B8B9C8B6DA195
:104930007EA18FA198A50E945DF22091D1073091B0
:10494000D2074091D3075091D4070E94BCF22B01AB
:104950003C016D8B7E8B8F8B988F69A57AA58BA57B
:104960009CA50E945DF22091D5073091D607409119
:10497000D7075091D8070E94BCF24B015C01698FA8
:104980007A8F8B8F9C8F2091D9073091DA074091D5
:10499000DB075091DC07C701B6010E94BCF26B0136
:1049A0007C016D8F7E8F8F8F98A38DE40BA11CA14E
:1049B000809FF001819FF00D1124E55AF64F858903
:1049C0009689A789B08D0697A105B10508F4CCC4D6
:1049D000ADADBEADCD90DD90ED90FC9020E030E02F
:1049E000A901C701B6010E9456F28111E5C429ADA3
:1049F0003AAD4BAD5CADCA01B9010E94BCF26B018E
:104A00007C01A3019201C301B2010E94BCF29B018F
:104A1000AC01C701B6010E94CCF66B017C01A50177
:104A20009401C501B4010E94BCF29B01AC01C70115
:104A3000B6010E94CCF60E947AF92DE44BA05CA04E
:104A4000249DF001259DF00D1124E55AF64F658750
:104A500076878787908B8DE40BA11CA1809FF00146
:104A6000819FF00D1124E55AF64F2585368547853F
:104A7000508960E070E080E89FE30E94C6F72396CB
:104A80006CAF7DAF8EAF9FAF2397232D3DA549A976
:104A9000522D0E94BCF24B015C018091E506909181
:104AA000E306891B8F708DAFA501940160E074E26D
:104AB00084E799E40E94C6F70E9439F96B017C01F2
:104AC0008DAD8250863008F486C480916F00982F97
:104AD000927081FF05C080916F008D7F80936F0081
:104AE0004091E8075091E9076091EA077091EB0760
:104AF000C40ED51EE61EF71EC092E807D092E90745
:104B0000E092EA07F092EB07992329F080916F0079
:104B1000826080936F008DE46BA07CA0869D8001F5
:104B2000879D100D1124055A164FD8011D964D90E2
:104B30005D906D907C9050976B964CAE5DAE6EAE76
:104B40007FAE6B97A5019401C301B2010E94BCF234
:104B50009B01AC010E94BCF22F966CAF7DAF8EAF73
:104B60009FAF2F97F801618372838383948345A05D
:104B700056A067A070A44DA65EA66FA678AAC30132
:104B8000B2010E945BF269AB7AAB8BAB9CAB9B0131
:104B9000AC01C501B4010E94BCF20E94AAF70E94B8
:104BA0003FF863966CAF7DAF8EAF9FAF6397F80110
:104BB00067AB70AF81AF92AF8E010F5E1F4F25962E
:104BC0001FAF0EAF2597005111091AAF09AF0BE3C4
:104BD00016E06D961FAF0EAF6D978E010F5D1F4FE4
:104BE0001AA309A349AC5AAC65965FAE4EAE659761
:104BF000212C312C00E80DA31FE319A72596AEAD9B
:104C0000BFAD25972D913D914D915D912596BFAFFB
:104C1000AEAF2597C501B4010E94BCF26B017C01C7
:104C20006596EEADFFAD6597619371938193919316
:104C30006596FFAFEEAF659720E030E0A9010E94D6
:104C40002CF987FF04C0F7FAF094F7F8F0946D960A
:104C5000AEADBFAD6D974D905D906D907D906D96B2
:104C6000BFAFAEAF6D97A7019601C301B2010E941D
:104C700056F287FDEAC349A05AA025966EAC7FACD8
:104C800025974614570409F0B9CF20E030E040E8FA
:104C90005FE3B1018DA199A50E9456F287FF4EC036
:104CA0007E0101E1E00EF11C09AD1AAD91014DA1AB
:104CB00059A5D8016D917D918D919C910E94BCF276
:104CC000F80161937193819391938F01EE16FF0622
:104CD00069F78DE44BA05CA0849D8001859D100D3B
:104CE0001124055A164F63966CAD7DAD8EAD9FAD08
:104CF00063970E945BF291014DA159A50E94BCF2FD
:104D00000E943FF8D801D7966D937D938D939C9325
:104D1000DA9791014DA159A5B1018DA199A50E94E4
:104D2000BCF22F962CAD3DAD4EAD5FAD2F970E94DE
:104D3000BCF2F801618372838383948329A93AA921
:104D40004BA95CA923966CAD7DAD8EAD9FAD23972D
:104D50000E94BCF26DA37EA38FA398A78DE44BA005
:104D60005CA0849DF001859DF00D1124E55AF64F5D
:104D700085889688A788B08C81149104A104B10419
:104D800009F479C34DA85EA86FA878AC45284628D9
:104D9000472809F493C32091620330916303409143
:104DA0006403509165036DA17EA18FA198A50E9417
:104DB000BCF20E94AAF70E943FF86B017C0180912F
:104DC000420990914309A0914409B09145094DA42D
:104DD0005EA46FA478A884159505A605B70508F408
:104DE00018C481149104A104B10409F070C38DE4C6
:104DF0006BA07CA0869DF001879DF00D1124E55AE3
:104E0000F64F818C928CA38CB48C81149104A104F4
:104E1000B10409F083C38DE40BA11CA1809FF001B4
:104E2000819FF00D1124E55AF64F858C968CA78C46
:104E3000B0A081149104A104B10409F098C38DE4D9
:104E40004BA05CA0849DF001859DF00D1124E55AD6
:104E5000F64F81A092A0A3A0B4A081149104A10454
:104E6000B10409F0ADC38DE46BA07CA0869D8001E8
:104E7000879D100D1124055A164FF801ED5BFF4F69
:104E8000C082D182E282F382C701B6010E945BF246
:104E90006B017C012DA13EA14FA158A50E94C6F730
:104EA0002F966CAF7DAF8EAF9FAF2F97D8015196E5
:104EB0006D937D938D939C9354972DEB37E346E050
:104EC00051E4C701B6010E94BCF20E943FF8F8010C
:104ED00062AB73AB84AB95AB4180528063807480CE
:104EE00027964CAE5DAE6EAE7FAE2797C301B20182
:104EF0000E947AF9362E272E8C01E6E6F3E06196C1
:104F0000FFAFEEAF61973E01F1E16F0E711C26E637
:104F100033E021963FAF2EAF219749AC5AAC6DA339
:104F200079A78DA719AB1DAAD201CD90DD90ED9088
:104F3000FD902D0120E030E0A901C701B6010E94DB
:104F40002CF987FF04C0F7FAF094F7F8F094219653
:104F5000EEADFFAD219781909190A190B1902196F7
:104F6000FFAFEEAF2197A7019601C501B4010E94E2
:104F700056F287FD6BC464147504B1F64DAC442041
:104F800009F4DDC4C090E706D090E806E090E90699
:104F9000F090EA062DEB37E346E855E3C701B6018A
:104FA0000E9456F287FDCBC4C701B6010E947AF970
:104FB0006B017C019B01AC01632D722DC8010E9425
:104FC00056F287FD03C03C2C2D2C87019601A701CA
:104FD000632D722DC8010E94C6F767966CAF7DAF36
:104FE0008EAF9FAF67972BEE36E021963FAF2EAF87
:104FF0002197412C512C30E8632E3FE3732E4DAAAC
:105000005EAA6FAA78AE1DAE2196AEADBFAD219758
:105010002D913D914D915D912196BFAFAEAF2197FE
:1050200067966CAD7DAD8EAD9FAD67970E94BCF26B
:105030004B015C01E9ADFAADC190D190E190F190E6
:10504000FAAFE9AF4DAC442091F02DA93EA94FA98C
:1050500058AD0E94BCF24B015C012DA93EA94FA99D
:1050600058ADC701B6010E94BCF26B017C01A701DB
:105070009601C501B4010E942CF920E030E0A9019D
:1050800018160CF029C4C701B6010E942CF9181695
:105090000CF41DC420E030E0A901C501B4010E9458
:1050A00056F287FD14C42601370177FA709477F819
:1050B0007094A3019201C501B4010E942CF9181645
:1050C00014F4240135016196AEADBFAD6197CD906A
:1050D000DD90ED90FD906196BFAFAEAF6197A301FB
:1050E0009201C701B6010E9456F287FF15C0A301C5
:1050F0009201C701B6010E94C6F79B01AC016DA9E0
:105100007EA98FA998AD0E94BCF26DAB7EAB8FAB30
:1051100098AFBDADBF5FBDAFEBEFF6E021964EACF3
:105120005FAC2197E415F50509F06ECF5DAC552015
:1051300061F02DA93EA94FA958AD632D722DC8016C
:105140000E94BCF2362E272E8C0124EA30E74DE770
:105150005FE3632D722DC8010E94BCF26B017C01DC
:1051600020915C0530915D0540915E0550915F0591
:105170000E9456F287FDD9C38DA199A5ADA5B9A905
:1051800080935C0590935D05A0935E05B0935F05E9
:105190002DE46BA07CA0269DC001279D900D1124BD
:1051A0009C01255A364F7901232D322DA801632DFC
:1051B000722DC8010E94BCF2D70119966D937D93A0
:1051C0008D939C931C978BE097EDA3E2BBE3F701D3
:1051D00085839683A783B08710812F966CAD7DADB4
:1051E0008EAD9FAD2F9790589B01AC010E94CCF6DD
:1051F0006B962CAD3DAD4EAD5FAD6B970E94BCF292
:105200009B01AC016BE077ED83E29BE30E94CBF660
:105210009B01AC0127966CAD7DAD8EAD9FAD279700
:105220000E9456F218160CF48FC383E0182B8DE4FD
:105230004BA05CA0849DF001859DF00D1124E55AE2
:10524000F64F108380E1FE013196ABEEB6E001909F
:105250000D928A95E1F727964CAC5DAC6EAC7FACB5
:1052600027974092E7065092E8066092E90670920E
:10527000EA06A1964CAC5DAC6EAC7FACA1974092B7
:10528000FB065092FC066092FD067092FE06A59603
:105290004CAC5DAC6EAC7FACA5974092FF065092D3
:1052A00000076092010770920207A9964CAC5DACB2
:1052B0006EAC7FACA99740920307509204076092AE
:1052C0000507709206072B964CAC5DAC6EAC7FACBC
:1052D0002B97409207075092080760920907709237
:1052E0000A079091E5068091E606981303C084E6CC
:1052F0008093E206AA968FADAA978F5F8F708093F6
:10530000E5068091E5069091E40681508F7089133F
:105310001DC3D090E6068090E5062DE4D810A4C306
:10532000212C312C412C512C1BA21DA2712C612C43
:1053300000E010E0E12CF12C8D10A3C30115110544
:1053400009F014C480916F00826080936F0081E047
:1053500042C580E040C5609076037090770300916D
:10536000780310917903BFCA818D928DA38DB48D7E
:105370000697A105B10508F02BCB858D968DA78DDD
:10538000B0A10697A105B10508F022CB20E030E0DE
:10539000A901C701B6010E942CF987FF04C0F7FAE2
:1053A000F094F7F8F0948DE44BA05CA0849DF0019C
:1053B000859DF00D112408C08DE46BA07CA0869D16
:1053C000F001879DF00D1124E55AF64FC586D6866B
:1053D000E786F08A40CB80917E0390917F03A09175
:1053E0008003B0918103C816D906EA06FB0608F0CF
:1053F0006CCB8C199D09AE09BF09BC01CD01660FAC
:10540000771F881F991F4DAC042D10E020E030E07D
:10541000A90198010E948FF6CA01B9010E945BF2AE
:105420000E9439F9C60ED71EE81EF91EC701B60143
:105430000E945BF29B01AC0160E074E284E799E4B6
:105440000E94C6F74B015C0140CBA7019601C30146
:10545000B2010E94C6F77B018C019B01AC01B10136
:105460008DA199A50E942CF918160CF004CC1701F7
:105470000DA319A700CC818D928DA38DB48D892B9E
:105480008A2B8B2B09F07ECC858D968DA78DB0A1B4
:10549000892B8A2B8B2B09F075CC20913706309104
:1054A00038064091390650913A066DA17EA18FA130
:1054B00098A50E94BCF20E94AAF7C3C120915E0386
:1054C00030915F0340916003509161036CCC609117
:1054D00025037091260380912703909128036C1572
:1054E0007D058E059F0508F082CCA30192010E94E4
:1054F0007FF62B013C01A5019401C701B6010E9472
:105500007FF6461657066806790608F070CCC30188
:10551000B2010E948FF669017A0169CC609129037A
:1055200070912A0380912B0390912C036C157D05BB
:105530008E059F0508F06FCC2DA53EA54FA558A957
:105540000E947FF62B013C01A5019401C701B60121
:105550000E947FF6461657066806790608F05BCC6F
:10556000C301B2010E948FF669017A0154CC6091A7
:105570002D0370912E0380912F03909130036C15B1
:105580007D058E059F0508F05ACC2DA53EA54FA59B
:1055900058A90E947FF62B013C01A5019401C70187
:1055A000B6010E947FF6461657066806790608F08F
:1055B00046CCC301B2010E948FF669017A013FCC4B
:1055C00060913103709132038091330390913403E1
:1055D0006C157D058E059F0508F045CC2DA53EA5D3
:1055E0004FA558A90E947FF62B013C01A50194010B
:1055F000C701B6010E947FF646165706680679066F
:1056000008F031CCC301B2010E948FF669017A0122
:105610002ACC81149104A104B104B9F1609125034D
:105620007091260380912703909128036C157D05C6
:105630008E059F0550F50E945BF229A93AA94BA956
:105640005CA90E94BCF22B013C01C501B4010E947F
:105650005BF24B015C01C701B6010E945BF2A50140
:1056600094010E94BCF29B01AC01C301B2010E94F3
:1056700056F287FF0AC0A5019401C301B2010E943E
:10568000C6F70E943FF86B017C018DE46BA07CA003
:10569000869DF001879DF00D1124E55AF64F418C4F
:1056A000528C638C748C4114510461047104B9F1FF
:1056B0006091290370912A0380912B0390912C0310
:1056C0006C157D058E059F0550F50E945BF229A99A
:1056D0003AA94BA95CA90E94BCF24B015C01C30131
:1056E000B2010E945BF22B013C01C701B6010E948E
:1056F0005BF2A30192010E94BCF29B01AC01C501C7
:10570000B4010E9456F287FF0AC0A3019201C501AD
:10571000B4010E94C6F70E943FF86B017C018DE442
:105720000BA11CA1809FF001819FF00D1124E55A6F
:10573000F64F458C568C678C70A04114510461045F
:105740007104B9F160912D0370912E0380912F03A4
:10575000909130036C157D058E059F0550F50E94D4
:105760005BF229A93AA94BA95CA90E94BCF24B01A2
:105770005C01C301B2010E945BF22B013C01C70135
:10578000B6010E945BF2A30192010E94BCF29B0150
:10579000AC01C501B4010E9456F287FF0AC0A30103
:1057A0009201C501B4010E94C6F70E943FF86B0147
:1057B0007C018DE44BA05CA0849DF001859DF00DE3
:1057C0001124E55AF64F81A092A0A3A0B4A08114A1
:1057D0009104A104B10409F446CB609131037091A6
:1057E000320380913303909134036C157D058E054F
:1057F0009F0508F038CB0E945BF229A93AA94BA972
:105800005CA90E94BCF22B013C01C501B4010E94BD
:105810005BF24B015C01C701B6010E945BF2A5017E
:1058200094010E94BCF29B01AC01C301B2010E9431
:1058300056F287FF18CBA5019401C301B2010E9463
:10584000C6F70E943FF86B017C010DCBFDA9FF2339
:1058500031F1A5019401632D722DC8010E94BCF2A3
:105860004B015C012DA139A54DA559A9C701B60170
:105870000E94BCF29B01AC01C501B4010E9456F22A
:1058800087FF22C0A7019601C501B4010E94C6F797
:105890006DA379A78DA799AB21E02DAB6CCBA701A8
:1058A0009601C501B4010E94C6F79B01AC016DA130
:1058B00079A58DA599A90E94BCF26DA379A78DA7A2
:1058C00099AB31E03DAB57CB41E04DAB54CBA70199
:1058D0009601C501B40113C0C701B6010E9456F27A
:1058E00087FD09C020E030E0A901C501B4010E9494
:1058F0002CF918164CF4A5019401C701B6010E94B9
:10590000CBF62B013C01DFCB2401350177FA7094F3
:1059100077F87094A3019201C701B6010E9456F274
:1059200087FDD1CB26013701CECB2DA139A54DA5C1
:1059300059A9C701B6010E9456F287FF1DCC3DA0B0
:1059400029A40DA519A918CC81E070CCF090E5062A
:105950008FEF8F0D8F708BA3B090E4068091E506DA
:10596000B81609F456C0C12CD12C5BA05B1409F405
:1059700050C0652C712C2DE4269D8001279D100DB3
:105980001124055A164FD8018C9183FD2DC00DAB03
:1059900019AF0115110551F119964C9019974DA2A7
:1059A0001A965C901A9759A61B964C901B974DA679
:1059B0001C965C901C9759AA15962D903D904D9081
:1059C0005C901897A20191016DA179A58DA599A967
:1059D0000E9456F2811108C1C114D10439F0D601D8
:1059E0008C9180FD01C102C0CDAAD9AE8BA181509E
:1059F0008F708BA38091E4068B1103C0CDA8D9AC26
:105A0000B4CF4BA04B1429F081E08B0D8F70B82ED2
:105A1000F1CF5090E4065BA2C12CD12C8091E50619
:105A20006BA0861509F475CC862C912C9DE4792EFB
:105A3000789C8001799C100D1124055A164FD801CD
:105A40008C9183FD0AC05801C114D10439F0C601FC
:105A50000E947F73811102C045C156018BA18F5FE7
:105A60008F708BA36501DACF8FEF880D8F70289F21
:105A7000F0011124E55AF64F908193FF51CC882E06
:105A80004DCC2DE42D9D80011124055A164FD801CF
:105A90008C9183FD19C015966D917D918D919C918E
:105AA00018970E947AF9C62EB72EA82E992EE114C7
:105AB000F10409F44DC0F701808180FD0AC0D801CE
:105AC0008C9180FD06C044C0CBA0BDA0A72C962C15
:105AD00044C0F701808181608083C7010E947F7389
