:100000000C94AD180C94D7180C94D7180C94D718DE
:100010000C94D7180C94D7180C94D7180C94D718A4
:100020000C94D7180C94D7180C94D7180C94D71894
:100030000C94D7180C9401C30C94D7180C94D718AF
:100040000C94D7180C9414650C9452D20C94D718B5
:100050000C9476290C94D7180C94D7180C94D718B4
:100060000C94D7180C94D7180C94D7180C94D71854
:100070000C94D7180C94D7180C94D7180C94D71844
:100080000C94D7180C94D7180C94D71851550154C8
:1000900038548D55385438543854385438543854AA
:1000A00038543854385438543854385438543854F0
:1000B00038543854385438543854385438543854E0
:1000C0003854385438543854875538543854385480
:1000D0003854385438543854385460553854385497
:1000E00038543854385438543854385438543854B0
:1000F000A45535544B9C319C349C379C3A9C469C6F
:100100003D9C579C409C439C26CF29CF1CCF20CFA1
:1001100040CF40CF2DCF31CF37CF3BCFC1D1C6D18C
:10012000CBD1D5D103D203D2DFD1E7D1EFD1F9D1F1
:10013000084AD73B3BCE016E84BCBFFDC12F3D6C4E
:1001400074319ABD56833DDA3D00C77F11BED9E4B4
:10015000BB4C3E916BAAAABE000000803F05A84C94
:10016000CDB2D44EB93836A9020C50B99186880860
:100170003CA6AAAA2ABE000000803F004E414E497C
:100180004E495459494E46CDCCCC3D0AD7233C1755
:10019000B7D13877CC2B329595E6241FB14F0A00A2
:1001A0000020410000C84200401C4620BCBE4CCA92
:1001B0001B0E5AAEC59D74434F4D4D554E4943419C
:1001C00054494F4E0044525952554E004552524FD9
:1001D000525300494E464F004543484F0047322F87
:1001E00047332062616420706172616D657465726D
:1001F000730A00536C6565702E2E2E00206F6620EA
:10020000004D424C2047323920706F696E742000D7
:1002100059206F7574206F662072616E67652028A3
:10022000312D35292E0A0058206F7574206F6620F5
:1002300072616E67652028312D35292E0A004D65C3
:1002400073682070726F62696E6720646F6E652ECE
:100250000A005374617274206D6573682070726F48
:1002600062696E67207769746820224732392053AB
:1002700031222066697273742E0A004732380A47A9
:1002800032392053320053746174653A20004D6551
:10029000736820626564206C6576656C696E6720A2
:1002A000686173206E6F20646174612E0A005320B0
:1002B0006F7574206F662072616E67652028302D1F
:1002C00035292E0A004D65736820706F696E7420A1
:1002D00063616E6E6F74206265207265736F6C76F9
:1002E00065640A00436C69636B20746F20726573E8
:1002F000756D652E2E2E004E6F206D6F76652E006B
:100300005072696E742074696D653A2000D801D30B
:1003100001CC01C501B7016F6666004445425547EF
:100320003A004B494C4C45442E20004D313133208E
:1003300053006F6B003344205072696E74657220F5
:100340004F66662E00544845524D414C5F50524F07
:1003500054454354494F4E004155544F5245504F18
:1003600052545F53445F53544154555300454D45D7
:100370005247454E43595F50415253455200434105
:1003800053455F4C494748545F4252494748544E91
:1003900045535300544F47474C455F4C49474854D9
:1003A0005300534F4654574152455F504F574552A3
:1003B000004255494C445F50455243454E54004C11
:1003C0004556454C494E475F44415441005A5F50A1
:1003D000524F4245004155544F4C4556454C0050F4
:1003E00052494E545F4A4F420050524F4752455374
:1003F00053004155544F5245504F52545F54454D50
:100400005000564F4C554D455452494300454550B8
:10041000524F4D0053455249414C5F584F4E5F5823
:100420004F4646004649524D574152455F4E414D59
:10043000453A4D61726C696E20312E312E3920287B
:100440004769746875622920534F555243455F438D
:100450004F44455F55524C3A68747470733A2F2F6D
:100460006769746875622E636F6D2F4D61726C6978
:100470006E4669726D776172652F4D61726C696E3F
:100480002050524F544F434F4C5F56455253494FA3
:100490004E3A312E30204D414348494E455F545924
:1004A00050453A3344205072696E74657220455845
:1004B0005452554445525F434F554E543A3120559E
:1004C0005549443A63656465326132662D34316161
:1004D000322D343734382D396231322D633535635E
:1004E00036326633363766660A002F2F20004D31CC
:1004F000343520533C696E6465783E206F757420F6
:100500006F662072616E67652028302D31290A00E0
:10051000205400205200416363656C657261746908
:100520006F6E3A2050005741524E494E4721204CA1
:100530006F77205A204A65726B206D6179206C6557
:10054000616420746F20756E77616E7465642070CD
:1005500061757365732E0A00000000000000000042
:10056000000000004F666673657473206170706CE4
:10057000696564004572723A20546F6F206661723B
:100580002100546F6F206661722066726F6D207259
:1005900065666572656E636520706F696E740A00CA
:1005A000FFFFFF20466C6F773A200000010F150E09
:1005B00012FFFFFFFF16170E13FFFFFFFF03021AC4
:1005C00014FFFFFFFFFFFFFF0C04FFFFFF01000E02
:1005D000FFFFFF0C190DFF1820643A0020693A0054
:1005E00020703A00496E76616C6964206578747297
:1005F000756465720A0043290A0061626C656420B3
:10060000286D696E2074656D702000436F6C6420E6
:1006100065787472756465732061726520004E6F31
:100620002063617365206C696768740A00454550F2
:10063000524F4D204F4B0A00416374697665204547
:10064000787472756465723A2000496E76616C69DF
:10065000642065787472756465720A006F6B00457A
:100660006E6473746F707320256320256320256387
:1006700020256300205A3A0020593A0020583A00B9
:10068000656E6473746F7073206869743A20002516
:1006900069730025696D2025697300256968202527
:1006A000696D202569730025696420256968202506
:1006B000696D2025697300256979202569642025E5
:1006C00069682025696D20256973004B494C4C45AC
:1006D000442E200053544F505045442E2000507259
:1006E000696E7465722073746F70706564206475D0
:1006F0006520746F206572726F72732E2046697860
:1007000020746865206572726F7220616E64207556
:100710007365204D39393920746F207265737461A7
:1007200072742E202854656D7065726174757265DF
:100730002069732072657365742E20536574206977
:100740007420616674657220726573746172746975
:100750006E67290A004E6F20436865636B73756D81
:100760002077697468206C696E65206E756D6265AE
:10077000722C204C617374204C696E653A200063C2
:100780006865636B73756D206D69736D6174636803
:100790002C204C617374204C696E653A20004C69C2
:1007A0006E65204E756D626572206973206E6F7480
:1007B000204C617374204C696E65204E756D6265C6
:1007C000722B312C204C617374204C696E653A2079
:1007D000004D3131300020496E76616C69642065CE
:1007E00078747275646572200000000000000000DB
:1007F00000000000000000484300004343000020C8
:1008000043486F6D696E67206661696C656400209E
:100810006E6F7420656E74657265642E0A002C20FC
:10082000002C200050726F746563746564205069F9
:100830006E0A0020573A004520436F6F6C696E675F
:100840002E2E2E00452048656174696E672E2E2E6F
:100850000020573A0042656420636F6F6C696E67D1
:100860002E2E2E004265642068656174696E672EC5
:100870002E2E00205A3A0020593A0020436F756E00
:100880007420583A0020453A00205A3A0020593A3C
:1008900000583A004E65787420506F696E740025D8
:1008A00069202F2025750047323920533100473207
:1008B0003920533200436C69636B20746F204265AA
:1008C00067696E00486F6D696E672058595A004716
:1008D00032380053746F72652073657474696E6783
:1008E00073004C6F61642073657474696E67730084
:1008F0004C6576656C20636F726E6572730042653D
:1009000064205A00426564205A00466164652048AC
:100910006569676874004661646520486569676851
:1009200074004661646520486569676874004F66B5
:1009300066004F6E2000426564204C6576656C69E8
:100940006E67004C6576656C206265640050726568
:1009500070617265004D34323800507265686561AF
:100960007420414253005072656865617420504C98
:100970004100436F6F6C646F776E005072656865FD
:10098000617420504554470044697361626C65206E
:100990007374657070657273004D383400536574FC
:1009A00020686F6D65206F666673657473004265BD
:1009B00064204C6576656C696E6700486F6D6520D4
:1009C0005A00473238205A00486F6D652059004759
:1009D0003238205900486F6D652058004732382062
:1009E00058004175746F20686F6D6500473238009C
:1009F0004D6F76652061786973004D61696E004DB9
:100A00006F76652058004D6F76652059004D6F76E2
:100A100065205A004578747275646572004D6F7672
:100A20006520302E316D6D004D6F766520316D6D16
:100A3000004D6F76652031306D6D004D6F7665200D
:100A400061786973004578747275646572004D6FE2
:100A50007665205A004D6F76652059004D6F76659A
:100A600020580020746F6F206C6F6E67206578745B
:100A7000727573696F6E2070726576656E746564E9
:100A80000A0020636F6C6420657874727573696FF7
:100A90006E2070726576656E7465640A00426162EC
:100AA0007973746570205A004368616E67652066CB
:100AB000696C616D656E74004368616E6765206680
:100AC000696C616D656E74004D36303020423000C7
:100AD0004261627973746570205A00466C6F7700CA
:100AE000466C6F7700466C6F770046616E207370BE
:100AF0006565640046616E207370656564004661DB
:100B00006E20737065656400426564004265640030
:100B1000426564004E6F7A7A6C65004E6F7A7A6C2B
:100B200065004E6F7A7A6C650046616465204865A1
:100B30006967687400466164652048656967687420
:100B400000466164652048656967687400426564B1
:100B5000205A00426564205A005370656564005352
:100B600070656564005370656564004D61696E0071
:100B70005072656865617420504C4120456E640078
:100B80005072656865617420504C41204265640074
:100B90005072656865617420504C410050726570F8
:100BA000617265005072656865617420414253202E
:100BB000456E64005072656865617420414253203F
:100BC000426564005072656865617420414253005B
:100BD000507265706172650050726568656174205D
:100BE0005045544720456E640050726568656174D5
:100BF0002050455447204265640050726568656125
:100C0000742050455447005072657061726500420F
:100C100061636B004E65787420506F696E74004C90
:100C20006576656C696E6720446F6E6521004D6F57
:100C30007665205A004732392053320020204E6F0B
:100C40007A7A6C653A2000200066696C616D656E89
:100C500074206C6F6164005761697420666F720064
:100C600020204E6F7A7A6C653A2000200066696C0D
:100C7000616D656E74207075726765005761697487
:100C800020666F7200746F20726573756D65005712
:100C900061697420666F72207072696E740000065C
:100CA0000900FE000000000001090008FE00000528
:100CB000080806000040F0C88888987810050808E1
:100CC000060000C0F88888888888F80505050600B1
:100CD000012030F830200508080600002070F820B8
:100CE000202020E00509090600FF2070A8A8B88888
:100CF0008870200509090600FFE080C0B0A82830F0
:100D000028280509090600FFF8A88888888888A887
:100D1000F8050A0A0600FE205050505088A8A888FE
:100D20007003030306000340A04025753A253032C6
:100D30007500253032753A253032750025756420EE
:100D4000253032753A2530327500202020202020B1
:100D5000005A0059002020202000580009200000DF
:100D600000000000000000000000003FFFF0000055
:100D700000000000000000000000380070000000CB
:100D800000000000000000000030FC300000000007
:100D9000000000000000000020FC10000000000027
:100DA000000000000000002078100000000000009B
:100DB00000000000000020301000000000000000D3
:100DC00000000000002C00D03FC000000000000028
:100DD000002082002E31D07FE000000000000000E3
:100DE0001041002F7BD07FE00000000000000010C9
:100DF00041002F7BD07FE000000000000000208237
:100E0000002E31D03FC0000000000000004104006F
:100E10002C00D03FC000000000000000820800202D
:100E200030107FE000000000000000820800207801
:100E3000107FE00000000000000041040020FC10D2
:100E40007FE00000000000000020820030FC301F26
:100E500080000000000000000000003800700F005B
:100E600000000000000000FFFFC03FFFF006000090
:100E7000000000000000FFFFC000000000000000B4
:100E800000000000000000003FFFF0000000000034
:100E900000000000000000380070000000000000AA
:100EA000000000000000318630000000000000005B
:100EB0000000000000238710000000000000000078
:100EC00000000000278790000000000000000000E4
:100ED0000000002F87D0000000000000000000008C
:100EE00000002F03D03FC00000000000000020825F
:100EF000002030107FE000000000000000104100E2
:100F00002078107FE0000000000000001041002069
:100F100078107FE0000000000000002082002030F8
:100F2000103FC0000000000000004104002F03D06B
:100F30003FC0000000000000008208002F87D07F23
:100F4000E0000000000000008208002787907FE09A
:100F5000000000000000004104002387107FE00033
:100F60000000000000002082003186301F80000059
:100F700000000000000000003800700F00000000BA
:100F800000000000FFFFC03FFFF00600000000006F
:100F9000000000FFFFC00000003344205072696E63
:100FA0007465722052656164792E005072696E74A6
:100FB000696E672E2E2E005072696E7420706175F6
:100FC00073656400473238200A4731205A32302096
:100FD00046323030300A4D3131372055736572203A
:100FE00053637269707420446F6E65004732382015
:100FF0000A473930200A4731205A313730204633EA
:10100000303030200A4731205A31383020463130D4
:1010100030200A4734205331200A4731205A3137D3
:10102000302046313030200A473238205A200A47D3
:1010300031205A32302046323030300A4D3131378B
:1010400020557365722053637269707420446F6E0B
:1010500065004C6576656C20582043617272696149
:10106000676500486F6D65202620526169736520B1
:101070005A004D61696E00437573746F6D20436F44
:101080006D6D616E6473004368616E6765206669AB
:101090006C616D656E74004368616E67652066699A
:1010A0006C616D656E74004D363030204230004307
:1010B0006F6E74726F6C005072657061726500546F
:1010C000756E6500496E666F2073637265656E00AC
:1010D0001000C90210012C01400122017001180109
:1010E000B0010E01F00104015002FA00B002F0005C
:1010F0003003E600D003DC009004D2007005C80085
:10110000A006BE000008B400B009AA00D00BA000E1
:10111000600E960060118C00001582002019780086
:10112000C01D6E00A0226400B0275A00902C500011
:1011300000314600E0343C0010383200903A28007C
:10114000603C1E00A03D1400803E0A00203F0000CD
:101150004265642068656174696E67206661696CC8
:1011600065640048656174696E67206661696C65D5
:10117000640045312048656174696E672066616965
:101180006C65640048656174696E67206661696CAE
:1011900065640070012C0190012701B0012201C09B
:1011A000011D01F00118011002130130020E01604F
:1011B00002090190020401C002FF000003FA00408E
:1011C00003F5008003F000D003EB002004E600707C
:1011D00004E100E004DC004005D700C005D2004077
:1011E00006CD00D006C8008007C3003008BE00F05E
:1011F00008B900C009B400B00AAF00B00BAA00D013
:101200000CA500000EA000500F9B00C010960050CF
:1012100012910000148C00C0158700B0178200B036
:10122000197D00D01B7800001E730040206E0090D6
:10123000226900F024640040275F0090295A00E0F2
:101240002B5500102E500020304B0010324600E08D
:1012500033410090353C001037370070383200A021
:10126000392D00B03A2800A03B2300603C1E00103E
:101270003D1900903D1400103E0F00703E0A00C062
:101280003E0500003F0000403FFBFF803FF6FFC0EF
:101290003FF1FF453120544845524D414C205255B5
:1012A0004E415741590042454420544845524D4112
:1012B0004C2052554E4157415900546865726D613A
:1012C0006C2052756E6177617900453120457272EC
:1012D0003A204D415854454D50004572723A204DC8
:1012E000415854454D5020424544004D41585445C5
:1012F0004D502074726967676572656400453120DE
:101300004572723A204D494E54454D500045727217
:101310003A204D494E54454D5020424544004D49D8
:101320004E54454D5020747269676765726564005C
:10133000202F002042403A0020403A00565472616B
:1013400076206D696E005654726176206D696E006C
:101350005654726176206D696E00566D696E005646
:101360006D696E00566D696E00566D61782045009E
:10137000566D6178204500566D6178204500566DA8
:101380006178205A00566D6178205A00566D617858
:10139000205A00566D6178205900566D61782059A9
:1013A00000566D6178205900566D617820580056BE
:1013B0006D6178205800566D61782058004D6F742B
:1013C000696F6E00416D6178204500416D61782044
:1013D0004500416D6178205A00416D6178205A00C6
:1013E000416D6178205900416D6178205900416D4F
:1013F0006178205800416D6178205800412D747249
:101400006176656C00412D74726176656C00412DCA
:101410007265747261637400412D726574726163E8
:101420007400416363656C00416363656C004D6FDC
:1014300074696F6E0056652D6A65726B0056652D76
:101440006A65726B0056652D6A65726B00567A2D5F
:101450006A65726B00567A2D6A65726B0056792D3B
:101460006A65726B0056792D6A65726B0056792D2C
:101470006A65726B0056782D6A65726B0056782D1E
:101480006A65726B0056782D6A65726B004D6F74D9
:10149000696F6E004573746570732F6D6D004573D1
:1014A000746570732F6D6D005A73746570732F6D52
:1014B0006D005A73746570732F6D6D005973746588
:1014C00070732F6D6D005973746570732F6D6D009F
:1014D0005873746570732F6D6D00587374657073F5
:1014E0002F6D6D004D6F74696F6E00457874727565
:1014F000646572004D6F7665205A004D6F766520E9
:1015000059004D6F766520580050726570617265A4
:1015100000496E697469616C697A6520454550526D
:101520004F4D00436F6E74726F6C00526573746F31
:101530007265206661696C73616665004C6F6164F9
:101540002073657474696E677300496E69746961AC
:101550006C697A6520454550524F4D0053746F7247
:10156000652073657474696E67730046696C616D9C
:10157000656E74004D6F74696F6E0054656D7065B3
:10158000726174757265004D61696E0050726568B4
:10159000656174205045544720636F6E6600507239
:1015A00065686561742041425320636F6E66005028
:1015B00072656865617420504C4120636F6E6600EF
:1015C0005049442D44005049442D44005049442D75
:1015D00049005049442D49005049442D500050497C
:1015E000442D5000200820466163740020082046E6
:1015F000616374002008204D6178002008204D614F
:1016000078002008204D6178002008204D696E0088
:101610002008204D696E002008204D696E004F663D
:1016200066004F6E20004175746F74656D700046E2
:10163000616E2073706565640046616E207370652D
:1016400065640046616E2073706565640042656480
:101650000042656400426564004E6F7A7A6C6500F2
:101660004E6F7A7A6C65004E6F7A7A6C6500436FC4
:101670006E74726F6C0053746F726520736574744E
:10168000696E677300426564004265640042656488
:10169000004E6F7A7A6C65004E6F7A7A6C65004EF8
:1016A0006F7A7A6C650046616E20737065656400C0
:1016B00046616E2073706565640046616E207370CC
:1016C0006565640054656D7065726174757265005E
:1016D0003A004361703A00205A0020590058002017
:1016E000204D61783A2000205A00205900580020EF
:1016F000204D696E3A20004F6E20004F6666005301
:101700006F667420656E6473746F70733A20004F57
:1017100066660A00466164652048656967687420EA
:1017200000426564204C6576656C696E67200046F2
:1017300061696C656420746F20656E61626C652000
:10174000426564204C6576656C696E670A004D657C
:10175000736820426564204C6576656C2064617412
:10176000613A0A004D65736820706F696E7420637A
:10177000616E6E6F74206265207265736F6C766542
:10178000640A004D34323120696E636F7272656392
:101790007420706172616D65746572207573616724
:1017A000650A004D3630303A20546F6F20636F6CFD
:1017B0006400486F74656E6420746F6F20636F6C93
:1017C000640A00496E736572742066696C616D65A8
:1017D0006E7420616E64207072657373206275741C
:1017E000746F6E0A00507265737320627574746F43
:1017F0006E20746F2068656174206E6F7A7A6C65F4
:101800000A00496E736572742066696C616D656E5D
:101810007420616E642070726573732062757474D5
:101820006F6E20286F72204D313038290A00496EC2
:10183000736572742066696C616D656E7420616E8B
:101840006420707265737320627574746F6E2028E3
:101850006F72204D313038290A00454550524F4DA6
:10186000206461746173697A65206572726F722E8B
:101870000A00290A002062797465733B2063726351
:10188000200053657474696E67732053746F7265BA
:1018900064202800290A002062797465733B206364
:1018A000726320002073746F7265642073657474B2
:1018B000696E677320726574726965766564202845
:1018C00000202863616C63756C6174656429210A6A
:1018D0000020213D2000454550524F4D20435243AA
:1018E000206D69736D61746368202D202873746F97
:1018F0007265642920002053697A653A2000496E98
:101900006465783A2000204D61726C696E3D5635F1
:1019100035290A0028454550524F4D3D0045455058
:10192000524F4D2076657273696F6E206D69736DCD
:1019300061746368200024F4D43050C38E20C2A2A6
:101940004017828B7011127A910D816CD90AA861AF
:10195000E108C7586607615143061E4B5D05C14546
:10196000A7041A411104093D980371393103403627
:10197000DB0265339102D4305402802E1D02632CA9
:10198000EE01752AC501B028A001102781018F251D
:1019900064012B244B01E0223401AC211F018D2076
:1019A0000D01801FFC00841EED00971DDF00B81C98
:1019B000D200E61BC600201BBC00641AB200B2199C
:1019C000A8000A19A0006A189900D11791004017C1
:1019D0008B00B516840031167E00B31579003A15D8
:1019E0007300C7146F0058146A00EE136600881362
:1019F000630025135E00C7125B006C1257001512BE
:101A00005400C111510070114F0021114B00D6102C
:101A100049008D1047004610440002104200C00FDC
:101A20004000800F3E00420F3C00060F3B00CB0EF3
:101A30003800930E37005C0E3500270E3400F30D8E
:101A40003200C10D3100900D3000600D2E00320DBE
:101A50002D00050D2C00D90C2B00AE0C2900850C97
:101A600029005C0C2700350C27000E0C2600E80B23
:101A70002400C40B2400A00B23007D0B23005A0B71
:101A80002100390B2100180B2000F80A1F00D90A89
:101A90001E00BB0A1E009D0A1D00800A1D00630A6D
:101AA0001C00470A1B002C0A1B00110A1A00F70928
:101AB0001A00DD091900C4091900AB0919009209BF
:101AC00017007B091800630917004C091600360936
:101AD0001600200916000A091500F5081500E0088F
:101AE0001400CC081400B8081400A40814009008CE
:101AF00013007D0812006B081300580812004608F6
:101B00001200340811002308110012081100010806
:101B10001100F0071000E0071000D0071000C00708
:101B20001000B0070F00A107100091070E008307F7
:101B30000F0074070F0065070E0057070E004907D6
:101B40000E003B070D002E070E0020070D001307A7
:101B50000D0006070D00F9060C00ED060D00E0066D
:101B60000C00D4060C00C8060C00BC060C00B00625
:101B70000C00A4060B0099060C008D060B008206D3
:101B80000B0077060B006C060B0061060A00570677
:101B90000B004C060A0042060A0038060A002E0610
:101BA0000A0024060A001A060A00100609000706A1
:101BB0000A00FD050900F4050900EB050900E2052E
:101BC0000900D9050900D0050900C7050900BE05AF
:101BD0000900B5050800AD050800A50509009C052C
:101BE0000800940508008C050800840508007C05A1
:101BF0000800740508006C050700650508005D0510
:101C00000700560508004E05070047050700400578
:101C1000080038050700310507002A0507002305DD
:101C200007001C050600160507000F05070008053C
:101C3000060002050700FB040600F5040700EE0499
:101C40000600E8040600E2040700DB040600D504F1
:101C50000600CF040600C9040600C3040600BD0444
:101C60000600B7040600B1040500AC040600A60493
:101C70000600A00405009B040600950405009004DE
:101C800006008A04050085040500800406007A0425
:101C9000050075040500700405006B04050066046A
:101CA0000500610405005C040500570405005204AA
:101CB00005004D04050048040500430405003E04EA
:101CC00004003A04050035040500300404002C0427
:101CD000050027040400230405001E0404001A0460
:101CE000040016040500110404000D040400090496
:101CF00005000404040000040400FC030400F803CD
:101D00000400F4030400F0030400EC030400E803FF
:101D10000400E4030400E0030400DC030400D8032F
:101D20000400D4030400D0030400CC030400C8035F
:101D30000300C503030024F404D9201BC40C5C0E6B
:101D40009804C4095F0265077101F405F900FB04FA
:101D5000B30048048700C10369005803550003031A
:101D60004500BE023A008402310053022A002902D3
:101D7000250004022000E4011C00C8011900AF0185
:101D80001700980114008401130071011000610113
:101D9000100051010E0043010D0036010B002B0114
:101DA0000B0020010B00150109000C0109000301C3
:101DB0000800FB000800F3000800EB000700E40047
:101DC0000600DE000600D8000600D2000600CC00A7
:101DD0000500C7000500C2000500BD000400B900F1
:101DE0000400B5000400B1000400AD000400A90027
:101DF0000400A5000300A20003009F0004009B0054
:101E00000300980003009500020093000300900077
:101E100003008D0002008B00030088000200860092
:101E2000020084000300810002007F0002007D00A8
:101E300002007B00020079000200770001007600BA
:101E400002007400020072000100710002006F00C5
:101E500002006D0001006C0002006A0001006900D0
:101E600002006700010066000100650001006400D7
:101E700002006200010061000100600001005F00DB
:101E800002005D0001005C0001005B0001005A00DF
:101E900001005900010058000100570001005600E0
:101EA00001005500010054000100530000005300E0
:101EB00001005200010051000100500001004F00DC
:101EC00001004E0000004E0001004D0001004C00DA
:101ED00001004B0000004B0001004A0001004900D6
:101EE00001004800000048000100470001004600D2
:101EF00000004600010045000000450001004400CC
:101F000001004300000043000100420000004200C5
:101F100001004100000041000100400001003F00BD
:101F200000003F0001003E0000003E0001003D00B7
:101F300000003D0001003C0000003C0000003C00AF
:101F400001003B0000003B0001003A0000003A00A5
:101F5000010039000000390001003800000038009D
:101F60000000380001003700000037000100360093
:101F7000000036000000360001003500000035008A
:101F8000000035000100340000003400000034007F
:101F90000100330000003300000033000100320074
:101FA000000032000000320001003100000031006A
:101FB000000031000100300000003000000030005F
:101FC00001002F0000002F0000002F0000002F0054
:101FD00001002E0000002E0000002E0001002D0048
:101FE00000002D0000002D0000002D0001002C003D
:101FF00000002C0000002C0000002C0001002B0031
:1020000000002B0000002B0000002B0001002A0024
:1020100000002A0000002A0000002A000100290018
:10202000000029000000290000002900000029000C
:1020300001002800000028000000280000002800FF
:1020400000002800010027000000270000002700F2
:1020500000002700000027000100260000002600E5
:1020600000002600000026000000260001002500D8
:1020700000002500000025000000250000002500CC
:1020800000002500010024000000240000002400BE
:1020900000002400000024000100230000002300B1
:1020A00000002300000023000000230000002300A4
:1020B0000000230001002200000022000000220096
:1020C0000000220000002200000022000100210088
:1020D000000021000000210000002100000021007C
:1020E000000021000000210001002000000020006D
:1020F0000000200000002000000020000000200060
:10210000000020000000200001001F0000001F0050
:1021100000001F0000001F0000001F0000001F0043
:1021200000001F0001001E0000001E0000001E0035
:1021300000001E000000043700001E290000511B93
:1021400000005810000010090000CC0400007802C4
:1021500000004101000023646566696E6520444506
:102160004641554C545F4B64200023646566696E9C
:10217000652044454641554C545F4B69200023641B
:102180006566696E652044454641554C545F4B7009
:102190002000504944204175746F74756E65206647
:1021A000696E697368656421205075742074686570
:1021B000206C617374204B702C204B6920616E641D
:1021C000204B6420636F6E7374616E74732066724B
:1021D0006F6D2062656C6F7720696E746F20436F3E
:1021E0006E66696775726174696F6E2E680A005059
:1021F0004944204175746F74756E65206661696C21
:102200006564212074696D656F75740A004531201D
:10221000544845524D414C2052554E41574159006A
:10222000546865726D616C2052756E6177617900DA
:1022300045312048656174696E67206661696C6527
:10224000640048656174696E67206661696C6564E5
:1022500000504944204175746F74756E6520666145
:10226000696C6564212054656D7065726174757266
:102270006520746F6F20686967680A00204B643AB4
:102280002000204B693A2000204B703A20000A20A1
:10229000436C617373696320504944200A002054E1
:1022A000753A2000204B753A2000206D61783A2065
:1022B00000206D696E3A200020643A200020626997
:1022C00061733A2000504944204175746F74756EF3
:1022D00065206661696C65642120426164206578CF
:1022E000747275646572206E756D6265720A005055
:1022F0004944204175746F74756E65207374617202
:10230000740A006265640A002C2073797374656D29
:102310002073746F70706564212048656174657204
:102320005F49443A2000556E6B6E6F776E20636F85
:102330006D6D616E643A202200486F74656E642092
:10234000746F6F20636F6C640A00486F6D652025A1
:102350007325732573206669727374002066697231
:1023600073740A005A0059005800486F6D652000C8
:102370006563686F3A004572726F723A0053746514
:1023800070732F6D6D004A65726B00416363656CFD
:1023900065726174696F6E0056656C6F63697479FC
:1023A00000436F6E74726F6C004C6F6164206D6DD2
:1023B000004C6F6164206D6D004C6F6164206D6D29
:1023C00000556E6C6F6164206D6D00556E6C6F61B1
:1023D00064206D6D00556E6C6F6164206D6D0046FC
:1023E000696C2E204469612E0046696C2E20446978
:1023F000612E004F6666004F6E20004520696E20FA
:102400006D6D3300436F6E74726F6C004D373032F8
:1024100020542564004D363030204230205425644D
:10242000004D373032203B2564004D373031205489
:102430002564004368616E67652066696C616D653F
:102440006E74005072656865617420504554470091
:10245000507265686561742041425300507265682E
:1024600065617420504C41004368616E6765206669
:10247000696C616D656E74005052494E5420504134
:102480005553454400554E4C4F41442046494C411C
:102490004D454E54004C4F41442046494C414D451A
:1024A0004E54005075726765206D6F726500436F02
:1024B0006E74696E756500524553554D45204F50F9
:1024C00054494F4E533A0020204E6F7A7A6C653A49
:1024D00020006368616E6765006F66207468652020
:1024E00066696C616D656E74005761697420666F12
:1024F000722073746172740020204E6F7A7A6C655A
:102500003A2000200066696C616D656E7420756EFE
:102510006C6F6164005761697420666F72002020DF
:102520004E6F7A7A6C653A20002000506C656173BA
:102530006520776169742E2E2E0048656174696E7E
:1025400067206E6F7A7A6C650020204E6F7A7A6C05
:10255000653A2000200068656174206E6F7A7A6C9D
:10256000652E00507265737320627574746F6E20EF
:10257000746F0020204E6F7A7A6C653A2000746F79
:1025800020636F6E74696E75652E2E2E00616E6409
:1025900020707265737320627574746F6E00496E7B
:1025A000736572742066696C616D656E74000006F7
:1025B0000900FE0701920321207FFF07FF07FF00AC
:1025C000000006000001070706020080808080806E
:1025D0000080030202060105A0A00507070600000F
:1025E0005050F850F850500507070600002078A01A
:1025F0007028F020050707060000C0C8102040988A
:10260000180507070600006090A040A89068020324
:1026100003060104C0408003070706010020408034
:1026200080804020030707060100804020202040D2
:102630008005050506000120A870A82005050506EF
:1026400000012020F820200203030602FFC0408082
:10265000050101060003F8020202060200C0C005DF
:102660000505060001081020408005070706000048
:102670007088888888887003070706010040C0407A
:10268000404040E005070706000070880870808021
:10269000F8050707060000F81020100808F00507E5
:1026A0000706000010305090F810100507070600CC
:1026B00000F880F0080888700507070600007080A1
:1026C00080F0888870050707060000F808102020B1
:1026D000202005070706000070888870888870052C
:1026E000070706000070888878080870020505064C
:1026F0000200C0C000C0C00206060602FFC0C00043
:10270000C0408004070706000010204080402010D1
:10271000050303060002F800F8040707060100801D
:102720004020102040800507070600007088081030
:1027300020002005070706000070880868A8A87018
:10274000050707060000708888F88888880507074D
:10275000060000F08888F08888F00507070600006A
:1027600070888080808870050707060000F08888E0
:10277000888888F0050707060000F88080F08080D0
:10278000F8050707060000F88080F08080800507C4
:1027900007060000708880B8888870050707060063
:1027A00000888888F88888880107070602008080EA
:1027B0008080808080050707060000381010101008
:1027C00090600507070600008890A0C0A0908805CB
:1027D0000707060000808080808080F805070706D4
:1027E000000088D8A8888888880507070600008820
:1027F00088C8A89888880507070600007088888818
:10280000888870050707060000F08888F0808080BF
:1028100005070706000070888888A89068050707E4
:10282000060000F08888F0A09088050707060000E1
:10283000788080700808F0050707060000F820205F
:1028400020202020050707060000888888888888BF
:1028500070050707060000888888888850200507CB
:10286000070600008888888888A8500507070600A2
:10287000008888502050888805070706000088884F
:102880008850202020050707060000F80810204087
:1028900080F8030707060100E08080808080E00563
:1028A0000505060001804020100803070706010007
:1028B000E02020202020E0050303060004205088AB
:1028C000050101060000F80202020602058040052B
:1028D00005050600007008788878050707060000DF
:1028E0008080B0C88888F0050505060000708080EB
:1028F000887005070706000008086898888878052A
:1029000005050600007088F88070050707060000BE
:102910003048E0404040400506060600FF708888C9
:102920007808700507070600008080B0C88888888E
:10293000010707060200800080808080800308086D
:102940000601FF200020202020A0400407070600E9
:1029500000808090A0C0A090030707060100C0403F
:1029600040404040E0050505060000D0A8A8A8A802
:10297000050505060000B0C888888805050506001D
:102980000070888888700506060600FFF08888F0C9
:1029900080800506060600FF788888780808050507
:1029A00005060000B0C8808080050505060000709F
:1029B000807008F00407070600004040E0404040F7
:1029C0003005050506000088888898680505050615
:1029D000000088888850200505050600008888A822
:1029E000A8500505050600008850205088050606F9
:1029F0000600FF888888780870050505060000F83D
:102A0000102040F8030707060100204040804040A6
:102A100020010707060200808080808080800307F5
:102A20000706010080404020404080050202060069
:102A3000026890000000060000506C65617365201C
:102A40007265736574005052494E54455220484196
:102A50004C544544005072696E7465722068616C14
:102A60007465642E206B696C6C28292063616C6C22
:102A70006564210A001FFFFFFFFFFFFF60000000E9
:102A80000001FF400000000000FF80000000000087
:102A90007F83CF00000C303F87FF80000C301F8603
:102AA0007980000C000F8C30C7838C30E78C30CFDE
:102AB000C7CC31F38C30DCECEC33B98C30D86C6C97
:102AC00033198C30D06C0C33198C30D86C0C331912
:102AD0008C30DC6C0E3B198C30CF7C079F198C300E
:102AE000C77C038F19400000000000026000000056
:102AF0000000061FFFFFFFFFFFF82020506C616EF3
:102B00006E657242756666657242797465733A20C5
:102B1000002046726565204D656D6F72793A200020
:102B2000436F6D70696C65643A204465632032328E
:102B300020323031380A00207C20417574686F7271
:102B40003A20286E6F6E652C2064656661756C7422
:102B500020636F6E666967290A00323031382D3084
:102B6000382D303100204C617374205570646174CD
:102B700065643A2000312E312E390A004D61726CA5
:102B8000696E0020536F66747761726520526573B9
:102B900065740A00205761746368646F672052652A
:102BA0007365740A002042726F776E206F7574200F
:102BB00052657365740A002045787465726E616CA5
:102BC0002052657365740A00506F77657255700AFC
:102BD0000073746172740A00656E7175657565695C
:102BE0006E6720220000002042000020420000E02A
:102BF00040000000005761726E696E673A20486FAE
:102C00006D696E672042756D702044697669736FD7
:102C100072203C20310A000303050000A0400000A0
:102C2000A040000000400000484300004343000073
:102C300020434572726F722077726974696E6720E3
:102C4000746F20454550524F4D210A00486172640F
:102C5000636F6465642044656661756C74205365B8
:102C60007474696E6773204C6F616465640A00D088
:102C7000070000D0070000640000001027000000DB
:102C800000484300004843000070410000484200F3
:102C900000A0420000A0423373C8430000BC4220A1
:102CA000286D6D290020204D36303320002055003E
:102CB0004C0046696C616D656E74206C6F61642FA9
:102CC000756E6C6F6164206C656E677468733A0A28
:102CD0000020440020490020204D33303120500096
:102CE0005049442073657474696E67733A0A002012
:102CF000460020420020480020204D31343520532A
:102D0000004D6174657269616C20686561747570ED
:102D100020706172616D65746572733A0A00205AA1
:102D200000205900202047323920533320580020FA
:102D30005A0020204D3432302053004D65736820F6
:102D4000426564204C6576656C696E673A0A0020BE
:102D50005A0020590020204D323036205800486F4C
:102D60006D65206F66667365743A0A002045002021
:102D70005A002059002058002054002053002020E1
:102D80004D32303520510020453C6D61785F655FE4
:102D90006A65726B3E0020583C6D61785F785F6AAF
:102DA00065726B3E20593C6D61785F795F6A657230
:102DB0006B3E205A3C6D61785F7A5F6A65726B3E4C
:102DC00000416476616E6365643A20513C6D696EC2
:102DD0005F7365676D656E745F74696D655F75734C
:102DE0003E20533C6D696E5F666565647261746513
:102DF0003E20543C6D696E5F74726176656C5F66EF
:102E0000656564726174653E0020540020520020A4
:102E1000204D323034205000416363656C6572612F
:102E200074696F6E2028756E6974732F7332293A36
:102E300020503C7072696E745F616363656C3E2004
:102E4000523C726574726163745F616363656C3E6A
:102E500020543C74726176656C5F616363656C3E9F
:102E60000A00204500205A0020590020204D323011
:102E7000312058004D6178696D756D20416363653F
:102E80006C65726174696F6E2028756E6974732F3A
:102E90007332293A0A00204500205A0020590020A8
:102EA000204D3230332058004D6178696D756D20AA
:102EB0006665656472617465732028756E697473E4
:102EC0002F73293A0A00204500205A00205900207B
:102ED000204D39322058005374657073207065722C
:102EE00020756E69743A0A0020204D32303020443B
:102EF000300A0020204D32303020440020446973D5
:102F000061626C65640A0046696C616D656E74206F
:102F100073657474696E67733A0020204D313439DB
:102F20002043203B20556E69747320696E204365F1
:102F30006C736975730A00202047323120202020ED
:102F40003B00526573656E643A200020746F6F20F9
:102F50006C6F6E6720657874727573696F6E207020
:102F6000726576656E7465640A0020636F6C642018
:102F7000657874727573696F6E2070726576656EB0
:102F80007465640A00627573793A207061757365BF
:102F90006420666F7220696E7075740A00627573C2
:102FA000793A2070617573656420666F722075735D
:102FB00065720A00627573793A2070726F63657387
:102FC00073696E670A004B494C4C45442E20004BF8
:102FD000494C4C2063617573656420627920746F7D
:102FE0006F206D75636820696E6163746976652012
:102FF00074696D65202D2063757272656E7420632F
:103000006F6D6D616E643A200046696C616D656E2E
:103010007420757365643A200053746174733A20A8
:10302000002C204C6F6E67657374206A6F623A20C3
:1030300000546F74616C2074696D653A200053749C
:103040006174733A20002C204661696C65643A20F3
:10305000002C2046696E69736865643A20005072DE
:10306000696E74733A200053746174733A2000548B
:103070005249474745524544006F70656E003A20FB
:10308000007A5F6D696E00795F6D696E00785F6DC3
:10309000696E005265706F7274696E6720656E6448
:1030A00073746F70207374617475730A000A4D65D0
:1030B00061737572656420706F696E74733A0A008B
:1030C0005A206F66667365743A20004E756D2058FD
:1030D0002C593A20352C350A000000210024002705
:1030E000002A0000002200250028002B00000020FC
:1030F000002300260029000202020202020202044A
:10310000040404040404040303030303030303018A
:1031100001010101010101010204081020408001A8
:103120000204081020408001020408102040808022
:1031300040201008040201000000010200090A00FA
:103140000000000403080700000000000000000069
:10315000000000000000000056E811241FBECFEF61
:10316000D0E4DEBFCDBF12E0A0E0B1E0E4E6FDEECA
:1031700001E00BBF02C007900D92AE34B107D9F742
:103180002FE0AEE4B2E001C01D92AF32B207E1F72A
:1031900018E1CDEAD8E104C02197FE010E9437F67C
:1031A000CC3AD107C9F70E94C7D20C94B0F60C9460
:1031B00000008091D6089091D708981759F0E92F10
:1031C000F0E0EA5AF74F80819F5F9F779093D7088E
:1031D00090E008958FEF9FEF08950F931F93CF9383
:1031E000DF93EC010E9446D20E811F81288539852C
:1031F000011511052105310559F52C852223A9F169
:103200003A8521502C8721E0230F2A874D852413EE
:1032100001C01A86FE0124E0329FE00DF11D112449
:1032200006851785208931890A831B832C833D837A
:10323000DC01CB01800F911FA11DB11D8E839F83E7
:10324000A887B9878C819D81892B79F0149A0DC04C
:10325000DC01CB01801B910BA20BB30BB7FD05C0AA
:1032600014981E821F8218861986DF91CF911F91B4
:103270000F9108958F929F92AF92BF92CF92DF925B
:10328000EF92FF920F931F93CF93DF9300D000D064
:10329000CDB7DEB7F82E662351F010929F0510923D
:1032A0009B0510929C0510929D0510929E050E9410
:1032B00046D280909B0590909C05A0909D05B09073
:1032C0009E059B01AC01281939094A095B0957FD84
:1032D0004CC020919F05F7FC16C04F2D0F2C000C01
:1032E000550B4C5F5F4FE22F022E000CFF0B4E1769
:1032F0005F07DCF12F153CF044EFC42EDD24D3949E
:10330000E12CF12C06C038EEC32E33E0D32EE12C95
:10331000F12CDC01CB018C0D9D1DAE1DBF1D8093DA
:103320009B0590939C05A0939D05B0939E05022F4D
:10333000017010E024E2209FC001219F900D901B9E
:10334000112480599C4F9C838B8382E390E09A8365
:103350008983BE016D5F7F4FCE0101960E946D9AF9
:1033600080919F058F5F80939F050F900F900F9026
:103370000F90DF91CF911F910F91FF90EF90DF9011
:10338000CF90BF90AF909F908F900895EF92FF9253
:103390001F93CF93DF9380E7E82E82E0F82E15E0AD
:1033A000C0E0D0E020E030E0A901F701EC0FFD1F04
:1033B00060817181828193810E945AEE81110CC0DB
:1033C0002496C431D10571F7115084E1E80EF11C47
:1033D0001111E6CF80E001C081E0DF91CF911F9114
:1033E000FF90EF900895CF93909198039817D1F0A4
:1033F000C82F0E94D73FC11112C044E257E060E2DB
:1034000077E08CE197E00E9445CC80E080939803C0
:10341000882341F08CE197E0CF910C9454400E94B6
:10342000C619F4CFCF910895CF92DF92EF920F9308
:103430001F93CF93DF93CDB7DEB760970FB6F894A5
:10344000DEBF0FBECDBFE0903007ECE1F7E0808536
:103450009185A285B38544815581668177810081FC
:1034600011812281338109831A832B833C834D830D
:103470005E836F83788789879A87AB87BC871D8631
:103480001E861F86188AAE01475F5F4FBE016B5FC5
:103490007F4FCE0101960E9445CCCE010D966C0166
:1034A0000BE311E028E237E0AE01475F5F4FBE015A
:1034B0006B5F7F4F0C970E94083260960FB6F894AE
:1034C000DEBF0FBECDBFDF91CF911F910F91EF9067
:1034D000DF90CF9008952F923F924F925F926F921C
:1034E0007F928F929F92AF92BF92CF92DF92EF9294
:1034F000FF920F931F93CF93DF93CDB7DEB72A9739
:103500000FB6F894DEBF0FBECDBF2B013C012D835B
:103510003E834F83588747015801DA86C9868091D8
:103520003B0190913C01A0913D01B0913E01898306
:103530009A83AB83BC83D6011C9111960C91119791
:1035400012963C90129713962C9020E030E0A9013F
:10355000612F702F832D922D0E945AEE81110AC087
:10356000EDEEFBE285919591A591B491182F092F6D
:103570003A2E2B2EA5019401609124077091250706
:1035800080912607909127070E945AEE87FF16C068
:10359000812F902FA32DB22D80933B0190933C015E
:1035A000A0933D01B0933E0180922407909225079D
:1035B000A0922607B09227070E94141AE985FA857F
:1035C000C080D180E280F38020E030E0A901C70113
:1035D000B6010E945AEE811107C085E5C82EDC2C89
:1035E00085E0E82E83E4F82EC0923B01D0923C01A6
:1035F000E0923D01F0923E0140921C0750921D075F
:1036000060921E0770921F078D819E81AF81B885E1
:103610008093200790932107A0932207B09323075C
:103620000E94141A20912407309125074091260703
:1036300050912707C501B4010E945AEE87FF16C0BA
:10364000812F902FA32DB22D80933B0190933C01AD
:10365000A0933D01B0933E018092240790922507EC
:10366000A0922607B09227070E94141A0E94D73F03
:1036700089819A81AB81BC8180933B0190933C010D
:10368000A0933D01B0933E012A960FB6F894DEBF99
:103690000FBECDBFDF91CF911F910F91FF90EF90A3
:1036A000DF90CF90BF90AF909F908F907F906F9062
:1036B0005F904F903F902F900895CF92DF92EF92BE
:1036C000FF920F931F936B01FC01E080F180028158
:1036D0001381ECE1F7E024813581468157816081D7
:1036E0007181828193810E946B1A1F910F91FF90CB
:1036F000EF90DF90CF9008950F931F93CF93DF93B8
:1037000094E0899FE00111248E010D511D4FFE01AF
:10371000E559FC4FDE01A952BD4F2D913D914D91D0
:103720005C9160817181828193810E94D0F2F80165
:103730006083718382839383FE01E751F84F859103
:103740009591A591B491FE01EB55FA4F8083918339
:10375000A283B383FE01EB50F84F85919591A5911B
:10376000B491C25FDE4F88839983AA83BB83DF91C4
:10377000CF911F910F910895FF920F931F93CF93B5
:10378000DF93FC0120812B3319F1D0912505D43032
:10379000F8F4F62EBC01C0912F050C2F10E0F0E6D6
:1037A000CF9FC00111248D559C4F0E9481F6F801D6
:1037B000E756FC4FF082CF5FC43018F4C0932F055A
:1037C00002C010922F05DF5FD093250581E001C074
:1037D00080E0DF91CF911F910F91FF900895DF92CC
:1037E000EF92FF920F931F93CF93DF93CDB7DEB786
:1037F0006E970FB6F894DEBF0FBECDBF6091D402B6
:103800007091D5026115710509F14DE150E0CE01CD
:1038100001967C010E94C9ED1E8EF7018F010E19E1
:103820001F09D190DD2019F09AE0D912F7CFF701E6
:10383000E00FF11F108260E0C7010E94BC1B8823CB
:1038400029F0C7010E946FB2811109C081E0209167
:10385000D4023091D502232BA1F480E012C0DD20E8
:1038600049F00F5F1F4F8091D4029091D502080F4D
:10387000191F02C000E010E01093D5020093D4029B
:10388000E5CF6E960FB6F894DEBF0FBECDBFDF91C9
:10389000CF911F910F91FF90EF90DF9008950F93BC
:1038A0001F93CF93DF93CDB7DEB72C970FB6F89465
:1038B000DEBF0FBECDBFECE1F7E080859185A2852C
:1038C000B385448155816681778100811181228190
:1038D000338109831A832B833C834D835E836F83FB
:1038E000788789879A87AB87BC87AE01475F5F4F30
:1038F000BE016B5F7F4FCE0101960E9445CC28E24E
:1039000037E0AE01475F5F4FBE016B5F7F4FCE0177
:1039100001960E9495C62C960FB6F894DEBF0FBE96
:10392000CDBFDF91CF911F910F9108952F923F92BC
:103930004F925F926F927F929F92AF92BF92CF927F
:10394000DF92EF92FF920F931F93CF93DF93CDB748
:10395000DEB764970FB6F894DEBF0FBECDBF1A0175
:103960002B01922EF32EC82ED12CF601E056FA4FE1
:10397000E491AA24A3941E160CF4A12CBB24B394A6
:1039800020E030E0A901C201B1010E9430F5181613
:103990000CF0B12CCC0CDD1CCC0CDD1CC601845E03
:1039A000984F3C01FC0110821182128213820E9406
:1039B0004F1CF3012082318242825382E090300713
:1039C00020E030E0A901B801892D9F2D0E945AEE18
:1039D00081110AC0F601EB51F44D85919591A591A5
:1039E000B4918C019A2EFB2EC801A92DBF2D898B75
:1039F0009A8BAB8BBC8B8091240790912507A0916B
:103A00002607B09127074091200750912107609128
:103A100022077091230700911C0710911D07209128
:103A20001E0730911F0709831A832B833C834D8324
:103A30005E836F83788789879A87AB87BC871D866B
:103A40001E861F86188AAE01475F5F4FBE016B5FFF
:103A50007F4FCE0101960E9445CCCE010D966C01A0
:103A60008E010F5E1F4F28E237E0AE01475F5F4FC8
:103A7000BE016B5F7F4F0C970E9408320E94D73FB8
:103A8000AB1459F080912305882319F01092230577
:103A900004C081E098E00E941BB564960FB6F894CC
:103AA000DEBF0FBECDBFDF91CF911F910F91FF9071
:103AB000EF90DF90CF90BF90AF909F907F906F90EE
:103AC0005F904F903F902F90089580912D05909199
:103AD0002E05009731F04AE050E060E070E00C9471
:103AE00092EC60E070E0CB01089580912D059091FB
:103AF0002E05009731F04AE050E060E070E00C9451
:103B000064EB60E070E0CB0108950E94751D97FDA5
:103B10000CC00E94751D6F3F71058105910509F06C
:103B200034F40E94751D862F089580E008958FEF6C
:103B3000089580912D0590912E05892B39F00E94D2
:103B4000851D91E0811103C090E001C091E0892FB3
:103B500008950F931F93CF9380912D0590912E057B
:103B60000097F1F0FC018F01C1912C2F2F7D89F07E
:103B7000C53411F0C536B9F7F801108260E070E085
:103B80000E9408EAF801C083562F472F382F292FAB
:103B90000BC060E070E0CF911F910F910C9408EA88
:103BA00050E040E030E020E0652F742F832F922F0B
:103BB000CF911F910F91089581548A3108F042C02E
:103BC000E82FF0E0409168025091690260916A022A
:103BD00070916B0204C076956795579547958A95C5
:103BE000D2F7842F817040FF2FC0E25BFD4F9081A0
:103BF000992309F1E0910A07F0910B07E90FF11DF4
:103C0000908120ED290F2A3098F09E3211F4918195
:103C10000CC09D3211F09B3271F4918120ED290F7F
:103C20002A3030F09E3239F4928190539A3018F451
:103C30002E2F9F2F02C020E090E020932D0590931F
:103C40002E05089580E0089508950E94DC1D8823C4
:103C500041F081E020912D0530912E05232B09F4B0
:103C600080E008959F92AF92BF92CF92DF92EF9241
:103C7000FF920F931F93CF93DF9389E5A82E81E0E6
:103C8000B82E0CE017E0CCE1D7E093EEC92E92E01D
:103C9000D92E2DE9E22E23E0F22E912CF50181910F
:103CA0005F010E94DC1D882309F10E94A91DF70114
:103CB0002081211104C02091A103222339F0288101
:103CC00039814A815B810E94D0F20AC0F3E09F16DD
:103CD00039F0F60120813181428153810E94CFF277
:103CE000F801608371838283938309C088819981FD
:103CF000AA81BB81F80180839183A283B3839394CB
:103D00000C5F1F4F2496F4E0CF0ED11C2FEFE21A68
:103D1000F20A84E09812C2CF86E40E94251E88230E
:103D2000C9F00E94A91D20E030E0A9010E9430F5F1
:103D3000181684F40E94A91D20E030E040E752E408
:103D40000E94CAF360933B0170933C0180933D0154
:103D500090933E018091340783FD28C0809119091A
:103D6000882321F1209128073091290740912A07C3
:103D700050912B07609118077091190780911A07CD
:103D800090911B070E94CFF220912A0930912B09B4
:103D900040912C0950912D090E94D0F260932A097C
:103DA00070932B0980932C0990932D09DF91CF916B
:103DB0001F910F91FF90EF90DF90CF90BF90AF9049
:103DC0009F9008952F923F924F925F926F927F92B1
:103DD0008F929F92AF92BF92CF92DF92EF92FF921B
:103DE0000F931F93CF93DF93EB01FC0180809180B1
:103DF000A280B380C501B40120E831E541E050E084
:103E00000E9493F2C9016DE671E00E94F0F56B012A
:103E10007C01C501B40120E13EE040E050E00E9499
:103E200093F2CA01B90128E130E040E050E00E947D
:103E300093F2362E272E062F172F8CE3482E512C67
:103E4000612C712CC501B401A30192010E9493F26F
:103E5000B62EA72ECA01B901A30192010E9493F2C6
:103E6000CB01C114D104D9F0AF92BF927F936F936D
:103E70002F923F92FF92EF92DF92CF9287EB96E0E4
:103E80009F938F93DF93CF930E94F2ED8DB79EB7F0
:103E90000E960FB6F8949EBF0FBE8DBF5CC0E114A6
:103EA000F104C9F0AF92BF927F936F932F923F922C
:103EB000FF92EF9287EA96E09F938F93DF93CF93E1
:103EC0000E94F2EDEDB7FEB73C960FB6F894FEBF38
:103ED0000FBEEDBF40C0012BB9F0AF92BF927F93F0
:103EE0006F932F923F928BE996E09F938F93DF938E
:103EF000CF930E94F2ED8DB79EB70A960FB6F89455
:103F00009EBF0FBE8DBF27C0892BA9F0AF92BF9275
:103F10007F936F9383E996E09F938F93DF93CF9383
:103F20000E94F2EDEDB7FEB738960FB6F894FEBFDB
:103F30000FBEEDBF10C0AF92BF928FE896E09F9387
:103F40008F93DF93CF930E94F2ED0F900F900F901D
:103F50000F900F900F90DF91CF911F910F91FF90D5
:103F6000EF90DF90CF90BF90AF909F908F907F9019
:103F70006F905F904F903F902F90089580E1ECE11B
:103F8000F7E0ACE0B7E001900D928A95E1F7089573
:103F900080E1ECE0F7E0ACE1B7E001900D928A95AA
:103FA000E1F70895AF92BF92CF92DF92EF920F9315
:103FB0001F93CF93DF93CDB7DEB760970FB6F8941A
:103FC000DEBF0FBECDBF5C018B010E94BE1FE09023
:103FD00030078CE0C82E87E0D82E84E0E89EF00100
:103FE0001124E95FFE4F2081318142815381F50127
:103FF00060817181828193810E94CAF3F6012485D8
:104000003585468557850E94D0F2F601648775870D
:10401000868797871D861E861F86188A80819181D4
:10402000A281B38189839A83AB83BC838481958188
:10403000A681B7818D839E83AF83B8878085918564
:10404000A285B38589879A87AB87BC87AE01475F16
:104050005F4FBE016B5F7F4FCE0101960E9445CC42
:10406000CE010D966C0128E137E0AE01475F5F4F4E
:10407000BE016B5F7F4F0C970E9408320E94C81FE1
:104080000E94D73F60960FB6F894DEBF0FBECDBF3B
:10409000DF91CF911F910F91EF90DF90CF90BF9064
:1040A000AF9008959091C00095FFFCCF8093C6001B
:1040B0000895CF93DF93E6E7F3E28491EF01219631
:1040C000882321F00E945220FE01F7CFE4E2F8E0BD
:1040D0008491EF012196882321F00E945220FE0155
:1040E000F7CFDF91CF910895CF93DF93EFE0F8E022
:1040F0008491EF012196882321F00E945220FE0135
:10410000F7CFDF91CF910895CF92DF92EF92FF9298
:104110000F931F93CF93DF9380912505843008F090
:1041200027C10E94D918AC0197FD22C1982F209178
:10413000890730918A078A3019F09D3009F0E6C06E
:10414000109294052115310519F40E94B666E4CF4A
:10415000F901EC5CFA4F108210928A0710928907DD
:10416000C4E3D5E0FE018191803211F4EF01FACF72
:104170008E3409F07EC0209709F47BC061ED77E0B2
:10418000CE010E94D8ED8C01892B41F06EE470E0E5
:10419000CE0104960E946DF6009709F4CE014AE024
:1041A00050E060E070E001960E9464EB609330059F
:1041B000709331058093320590933305C0908B073F
:1041C000D0908C07E0908D07F0908E072FEFC21AE9
:1041D000D20AE20AF20A6C157D058E059F0529F0C8
:1041E000012B19F48EE997E02AC06AE270E0CE0153
:1041F0000E94A5F69C01009701F1982F9C1B10E0EE
:10420000992339F09150FE01E90FF11D80811827A3
:10421000F7CF4AE050E060E070E0C90101960E94EB
:1042200064EB012F10E020E030E060177107820797
:10423000930779F08FE797E002C085E597E0DF917B
:10424000CF911F910F91FF90EF90DF90CF900C9442
:104250003B9A8091300590913105A0913205B09143
:10426000330580938B0790938C07A0938D07B093B1
:104270008E0780910D01811124C067E470E0CE01AA
:104280000E946DF60097E9F04AE050E060E070E0CF
:1042900001960E9464EB643071058105910588F4F4
:1042A000EEEDF6E084918F010F5F1F4F882321F020
:1042B0000E945220F801F6CF60E084ED96E00E9463
:1042C00088AF6AE172E0CE010E9478F6892B21F472
:1042D000109241011092EF026FE172E0CE010E9454
:1042E00078F6892B21F48BEC96E00E941BB564E2F2
:1042F00072E0CE010E9478F6892B11F40E941E8193
:1043000061E084E395E00E94BC1B06CF2F353105A8
:104310000CF002CF9C35C1F40E94D91897FDFCCE59
:10432000209194052111F8CE2091890730918A07B8
:10433000A9014F5F5F4F50938A0740938907F901A6
:10434000EC5CFA4F8083E8CE9B3319F481E08093D4
:104350009405809194058111DFCEC9010196909357
:104360008A0780938907F901EC5CFA4F4083D4CE29
:10437000DF91CF911F910F91FF90EF90DF90CF9041
:1043800008958F929F92AF92BF92EF92FF920F93F8
:104390001F93CF93DF93CDB7DEB7A0970FB6F894F6
:1043A000DEBF0FBECDBF611571058105910591F18D
:1043B00000E0842E912CA12CB12C102FEE24E3943C
:1043C000F12CEC0EFD1EE00EF11C07FDFA94A50188
:1043D00094010E9493F2F7016083B901CA010F5F53
:1043E000611571058105910541F71F3F31F1E1E04C
:1043F000F0E0EC0FFD1FE10FF11D17FDFA95808134
:104400008A3010F097E301C090E3890F0E94522098
:104410001150EBCF80E3A0960FB6F894DEBF0FBE2D
:10442000CDBFDF91CF911F910F91FF90EF90BF9083
:10443000AF909F908F900C945220A0960FB6F89456
:10444000DEBF0FBECDBFDF91CF911F910F91FF90C7
:10445000EF90BF90AF909F908F900895EF92FF9252
:104460000F931F93CF93DF937C0184E50E94251E59
:10447000D82F882349F10E94851DC82F181604F5EE
:10448000E0E7F3E284918F010F5F1F4F882321F053
:104490000E945220F801F6CF8DE40E945220B7010D
:1044A00080E090E04AE00E94C1216C2FCC0F770B96
:1044B00086ED97E00E9403C48AE00E94522008C063
:1044C00080939703D0E004C08091300780939703D6
:1044D0008D2FDF91CF911F910F91FF90EF90089555
:1044E000CF92DF92EF92FF926B017C0197FF0BC09E
:1044F0008DE20E945220F094E094D094C094C11CAC
:10450000D11CE11CF11C4AE0C701B601FF90EF90FD
:10451000DF90CF900C94C1214F925F926F927F9267
:104520008F929F92AF92BF92CF92DF92EF92FF92C3
:10453000CF93DF932091E3023091E4024091E502B2
:104540005091E60260911C0770911D0780911E0733
:1045500090911F070E94D0F2AB01BC0181E998E065
:104560000E94E6C32091E7023091E8024091E902FF
:104570005091EA02609120077091210780912207F3
:10458000909123070E94D0F2AB01BC018DE898E026
:104590000E94E6C32091EB023091EC024091ED02C3
:1045A0005091EE02609124077091250780912607B3
:1045B000909127070E94D0F2AB01BC0189E898E0F6
:1045C0000E94E6C3409128075091290760912A076D
:1045D00070912B0785E898E00E94E6C380916F00F8
:1045E000982F927081FF05C080916F008D7F80931E
:1045F0006F004090690750906A0760906B07709059
:104600006C0780906D0790906E07A0906F07B09038
:104610007007C0907107D0907207E0907307F09018
:104620007407992329F080916F00826080936F0056
:10463000EBE7F8E08491EF012196882321F00E94B6
:104640005220FE01F7CFC301B2010E947022E7E7BA
:10465000F8E08491EF012196882321F00E945220F6
:10466000FE01F7CFC501B4010E947022E3E7F8E034
:104670008491EF012196882321F00E945220FE01AF
:10468000F7CFC701B6010E9470228AE0DF91CF9177
:10469000FF90EF90DF90CF90BF90AF909F908F9062
:1046A0007F906F905F904F900C9452208F929F92CA
:1046B000AF92BF92EF92FF920F931F93CF93DF932E
:1046C00000D000D0CDB7DEB7182F8091810387705E
:1046D000873069F48FE40E94251E882319F00E9418
:1046E000991D03C08FE40E94DC1D8111C2C00E948D
:1046F000D73F80E00E94F31980913B0190913C01EB
:10470000A0913D01B0913E0180939705909398054B
:10471000A0939905B0939A0580913F019091400133
:10472000909396058093950584E690E090934001E0
:1047300080933F0181E080930B0311111BC088E53A
:104740000E94DC1DF82E89E50E94DC1D082F8AE5F9
:104750000E94DC1DE82EF11006C0011109C0811174
:1047600007C0F02E0CC0002319F0F02E182F08C03F
:1047700010E006C0FF24F39401E0EE24E39411E07E
:104780000E94BE1F82E50E94251E882361F00E94C0
:10479000A91D4B015C0120E030E0A9010E945AEE06
:1047A000882371F106C0812C912C80EAA82E80E428
:1047B000B82E111104C0F11002C0002391F18092B3
:1047C000140790921507A0921607B0921707A5013B
:1047D000940160912407709125078091260790919C
:1047E00027070E945AEE87FF0BC019821A821B828C
:1047F0001C82BE016F5F7F4F84E197E00E945D1BCA
:10480000111105C0011103C0F11006C00AC081E0FA
:104810000E948EB11123C1F380E00E948EB111116C
:1048200002C0EE2019F082E00E948EB10E944F1C5F
:1048300080910A0380930B038091970590919805CE
:10484000A0919905B0919A0580933B0190933C010A
:10485000A0933D01B0933E018091950590919605FE
:104860009093400180933F0183E0809344010E9434
:104870008C220F900F900F900F90DF91CF911F918E
:104880000F91FF90EF90BF90AF909F908F90089501
:10489000CF92DF92EF92FF920F931F93CF93DF930C
:1048A000CDB7DEB72C970FB6F894DEBF0FBECDBFE5
:1048B0007B018C01D42E9B01AC016091F4057091B9
:1048C000F5058091F6059091F7050E945AEE882330
:1048D00009F496C0C090980380E00E94F31920E08C
:1048E00030E0A901B701C8010E9430F5181624F084
:1048F000E12CF12C00E010E0C701D8018093F40511
:104900009093F505A093F605B093F7052DEB37E3EB
:1049100046E855EBB701C8010E9430F587FD0AC093
:104920002DEB37E346E855E3B701C8010E945AEE84
:1049300018164CF49701A80160E070E080E89FE34E
:104940000E94CAF303C060E070E0CB016093FE0DEB
:104950007093FF0D8093000E9093010E80EF9FEFF8
:10496000A9E7B4EC8093020E9093030EA093040E7B
:10497000B093050ECC2009F443C080911C079091A0
:104980001D07A0911E07B0911F0789839A83AB83EF
:10499000BC838091200790912107A0912207B091BC
:1049A00023078D839E83AF83B887809124079091DE
:1049B0002507A0912607B091270789879A87AB879B
:1049C000BC8781E00E94F319DD20D1F04CE050E07B
:1049D0006CE177E0CE0101960E9459F6892B81F0B7
:1049E0002C960FB6F894DEBF0FBECDBFDF91CF91EE
:1049F0001F910F91FF90EF90DF90CF900C948C223D
:104A00002C960FB6F894DEBF0FBECDBFDF91CF91CD
:104A10001F910F91FF90EF90DF90CF9008952F920C
:104A20003F924F925F926F927F928F929F92AF923E
:104A3000BF92CF92DF92EF92FF920F931F93CF938B
:104A4000DF93CDB7DEB762970FB6F894DEBF0FBE27
:104A5000CDBF8091340783FDA3C183E50E94251E4D
:104A60008C87811106C082E50E94251E882309F4E7
:104A700097C10E94A91D0E943CF4643671050CF098
:104A80008CC170931D0E60931C0E0E944C650E9499
:104A9000A91D20E030E040E251E40E9430F51816F4
:104AA00014F40E9437C460911C0E70911D0E072EE5
:104AB000000C880B990B0E9461EE2091FD0530914E
:104AC000FE054091FF05509100060E9430F5181632
:104AD0001CF085E598E002C084E698E060E00E9462
:104AE00088AF81E0809341018091300780939703E4
:104AF0001A821B821C821D82188619861A861B86C2
:104B000019821D862CE32E873CE13F8746E4488BC3
:104B1000312C212C50E8598B8FEB8A8B812C912CD6
:104B2000540160911C0E70911D0E072E000C880B15
:104B3000990B0E9461EE7B018C019B01AC01632DFE
:104B4000722D89899A890E945AEE882309F442C0FD
:104B50002091FD053091FE054091FF055091000622
:104B60009C85B701802F91110CC0912F0E945AEEA5
:104B7000881F8827881F89833E2C2F2C098B1A8B2E
:104B800029C0912F0E945AEE87FF1FC080914101DA
:104B9000882309F405C162960FB6F894DEBF0FBEF4
:104BA000CDBFDF91CF911F910F91FF90EF90DF90DC
:104BB000CF90BF90AF909F908F907F906F905F90BD
:104BC0004F903F902F900C94365E3E2C2F2C098BEB
:104BD0001A8B19820E9446D26B017C01DC01CB0149
:104BE000288539854A855B85821B930BA40BB50B01
:104BF000B7FD3BC0D701C60188519C4FAF4FBF4F97
:104C000088879987AA87BB870E941A63E1E5F8E045
:104C100084913F019FEF691A790A882321F00E944D
:104C20005220F301F5CF81149104A104B104B9F02D
:104C3000D501C401805F984DAF4FBF4FBC01CD017E
:104C40006C197D098E099F0928EE33E040E050E0A1
:104C50000E9493F2CA01B9010E94702203C08FE33F
:104C60000E9452208AE00E94522080E00E9470BB85
:104C70000E9446D26093E5087093E6088093E708A7
:104C80009093E808A091FD05AE83B091FE05BF8327
:104C90000091FF05109100069D01A801632D722D62
:104CA00089899A890E94CFF22B013C0120E030E0F3
:104CB000A9010E9430F587FF04C077FA709477F855
:104CC000709481149104A104B10459F420E030E0FF
:104CD00040E85FE3C301B2010E945AEE87FF0DC0B6
:104CE0000AC020E030E040E450E4C301B2010E9479
:104CF00030F5181614F44601570129812223A9F131
:104D00008A819B81AC81BD81892B8A2B8B2B61F0A1
:104D1000D701C6012A813B814C815D81821B930BA7
:104D2000A40BB50BB7FD21C02E813F81A8016D8575
:104D30007E858F8598890E94CFF220E030E040EC9C
:104D40005FE30E945AEE87FD21CFD701C601805A4A
:104D50009541AF4FBF4F8A839B83AC83BD839E81B8
:104D60009D87AF81AE870F87188B80914101882383
:104D700009F40CCF81149104A104B10409F4D1CE3B
:104D8000B0E1CB1AB7E2DB0AE108F108C818D9088C
:104D9000EA08FB08F7FEFACEC4CE64E670E071CEF6
:104DA00062960FB6F894DEBF0FBECDBFDF91CF91F4
:104DB0001F910F91FF90EF90DF90CF90BF90AF9039
:104DC0009F908F907F906F905F904F903F902F902B
:104DD00008952F923F924F925F926F927F928F929F
:104DE0009F92AF92BF92CF92DF92EF92FF920F937A
:104DF0001F93CF93DF93CDB7DEB762970FB6F894CA
:104E0000DEBF0FBECDBF8DE690E00E942E22811145
:104E1000B7C18091340783FDB3C183E50E94251E8D
:104E20008F83811107C082E50E94251E8983882314
:104E300009F444C00E94A91D0E943CF4CB010E94C9
:104E40002DAF0E94A91D20E030E04AEA52E40E9402
:104E50005AEE18160CF48BC10E9488C50E94365E6B
:104E60006091320770913307072E000C880B990B65
:104E70000E9461EE6B017C0180902C0790902D07C1
:104E8000A0902E07B0902F07A50194010E9430F545
:104E900018160CF46FC12F8121116FC1A501940167
:104EA000C701B6010E9430F518160CF463C187E300
:104EB00098E060E00E9488AF31E039830E940AC622
:104EC0005981552309F45CC181E0809341011B8223
:104ED0001C821D821E8219861A861B861C861A82D7
:104EE0001D868CE38E879CE19F87A6E4A88B1A8A97
:104EF000312CB0E8B9832FEB298B812C912C5401F4
:104F00006091320770913307072E000C880B990BC4
:104F10000E9461EE7B018C019B01AC016A89732DBB
:104F2000898199890E945AEE882309F441C0209111
:104F30002C0730912D0740912E0750912F078F811C
:104F4000B70181110CC0C8010E945AEE881F882742
:104F5000881F8A83EA8A3F2C0983198B29C0C801DC
:104F60000E945AEE87FF1FC080914101882309F4F7
:104F700007C162960FB6F894DEBF0FBECDBFDF91BA
:104F8000CF911F910F91FF90EF90DF90CF90BF9046
:104F9000AF909F908F907F906F905F904F903F90D9
:104FA0002F900C94365EEA8A3F2C0983198B1A8263
:104FB0000E9446D26B017C01DC01CB0129853A8538
:104FC0004B855C85821B930BA40BB50BB7FD3BC0D7
:104FD000D701C60188519C4FAF4FBF4F89879A8731
:104FE000AB87BC870E941A63E3E3F8E084913F013A
:104FF0009FEF691A790A882321F00E945220F30159
:10500000F5CF81149104A104B104B9F0D501C40114
:10501000805F984DAF4FBF4FBC01CD016C197D092A
:105020008E099F0928EE33E040E050E00E9493F2A1
:10503000CA01B9010E94702203C08FE30E9452206E
:105040008AE00E94522080E00E9470BB0E9446D2FB
:105050006093E5087093E6088093E7089093E8086A
:1050600020902C07A0912D07A88700912E07109162
:105070002F07222D3A2FA8016A89732D89819989DA
:105080000E94CFF22B013C0120E030E0A9010E94F8
:1050900030F587FF04C077FA709477F87094811424
:1050A0009104A104B10459F420E030E040E85FE34A
:1050B000C301B2010E945AEE87FF0DC00AC020E072
:1050C00030E040E450E4C301B2010E9430F518160C
:1050D00014F446015701BA81BB2389F12B813C812D
:1050E0004D815E81211531054105510541F0D70102
:1050F000C601821B930BA40BB50BB7FD20C0222D5C
:105100003885A8016D857E858F8598890E94CFF2AC
:1051100020E030E040EC5FE30E945AEE87FD24CFB0
:10512000D701C601805A9541AF4FBF4F8B839C83F7
:10513000AD83BE832D8698859E870F87188B8091BF
:105140004101882309F410CF81149104A104B10412
:1051500009F4D6CEA0E1CA1AA7E2DA0AE108F108FA
:10516000C818D908EA08FB08F7FEFECEC9CE0E948F
:1051700037C476CE84E498E09CCE41E049839ECE4D
:1051800062960FB6F894DEBF0FBECDBFDF91CF9110
:105190001F910F91FF90EF90DF90CF90BF90AF9055
:1051A0009F908F907F906F905F904F903F902F9047
:1051B00008958F929F92AF92BF92CF92DF92EF921B
:1051C000FF92CF936B017C01B42E20E030E0A90167
:1051D0000E945AEE87FF07C08DE20E945220F7FA24
:1051E000F094F7F8F094C0E060E070E080E09FE3B6
:1051F000CB1541F02DEC3CEC4CEC5DE30E94C0EE95
:10520000CF5FF6CF9B01AC01C701B6010E94D0F27F
:105210006B017C010E9443F44B015C014AE00E9457
:10522000C121CC2389F1C501B4010E945FEE9B012D
:10523000AC01C701B6010E94CFF26B017C018EE286
:105240000E94522020E030E040E251E4C701B60164
:105250000E94C0EE4B015C010E943CF46B01770F91
:10526000EE08FF08C701B6010E947022C701B6010F
:105270000E9461EE9B01AC01C501B4010E94CFF216
:105280006B017C01C150F1F6CF91FF90EF90DF9060
:10529000CF90BF90AF909F908F900895CF93DF9362
:1052A0000E94B2C28BE50E945220C8EDD8E068810E
:1052B00079818A819B8142E00E94D9284C815D815D
:1052C0006E817F8181E298E00E94E6C3488559851E
:1052D0006A857B858EE198E00E94E6C38DE50E9499
:1052E00052208AE0DF91CF910C9452201F920F92AE
:1052F0000FB60F9211240BB60F922F938F939F939B
:10530000EF93FF932091D708E091D60881E08E0FAC
:105310008F779091C600281729F0F0E0EA5AF74FEE
:105320009083E82FE093D608FF91EF919F918F91A2
:105330002F910F900BBE0F900FBE0F901F901895DE
:1053400021E0209335076093B1057093B2058093F7
:10535000B3059093B40540E050E0BA018091B505E3
:105360009091B6050C94F45560E070E080E291E411
:105370000C94A02960E070E080E89FE30C94A029E1
:105380006DEC7CEC8CEC9DE30C94A02980914401A5
:10539000882331F060E070E084EC98E00E9456577A
:1053A00084E080934401809139078770873039F415
:1053B00040E050E0BA0183EF91E30C94F455089576
:1053C000CF92DF92EF92FF92CF93C82F0E9446D2E6
:1053D0006B017C0124EA30E74DE75FE36091B105A2
:1053E0007091B2058091B3059091B4050E945AEE78
:1053F00087FD05C08AEF90E0A0E0B0E003C080E048
:1054000090E0DC01C80ED91EEA1EFB1EC092D30537
:10541000D092D405E092D505F092D605C0931A013A
:10542000CF91FF90EF90DF90CF9008958091E205AB
:105430001092E205882321F0109235070C94CF5E7C
:105440006091070E7091080E8091090E90910A0EDE
:10545000611571058105910561F10E9461EE209150
:10546000B1053091B2054091B3055091B4050E9449
:10547000C0EE209128073091290740912A075091CA
:105480002B070E94D0F2609328077093290780931E
:105490002A0790932B0783E00E94E02981E0809304
:1054A00044011092070E1092080E1092090E1092ED
:1054B0000A0E80914401882349F088E297E00E9417
:1054C00022ACBC0184E19AE00C94565708953F92B7
:1054D0004F925F926F927F928F929F92AF92BF9204
:1054E000CF92DF92EF92FF920F931F93CF93DF93B0
:1054F000CDB7DEB72A970FB6F894DEBF0FBECDBF8B
:105500009A878987362E8091E2051092E2058823DA
:1055100029F0109235070E94CF5EF8C08091070EE7
:105520009091080EA091090EB0910A0E8D839E8372
:10553000AF83B887892B8A2B8B2B09F4A4C094E006
:10554000699F80011124F801E45EF84F408051808A
:105550006280738020E030E04AE754E4C301B20186
:105560000E94CFF24B015C0120E030E04AE754E4B6
:10557000C301B2010E94D0F26B017C0180913A011B
:105580008823D1F1A1E03A1639F13A16A0F0B2E041
:105590003B1232C08090AD059090AE05A090AF0553
:1055A000B090B005C0901601D0901701E09018019E
:1055B000F090190121C08090A5059090A605A090BB
:1055C000A705B090A805C0900E01D0900F01E09003
:1055D0001001F090110110C08090A9059090AA05CB
:1055E000A090AB05B090AC05C0901201D090130113
:1055F000E0901401F09015016D817E818F81988576
:105600000E9461EE2091B1053091B2054091B30541
:105610005091B4050E94C0EEA30192010E94D0F205
:105620002B013C018D819E81AF81B885A301920140
:10563000B7FF16C0C501B4010E9430F5181644F03A
:10564000F801E45EF84F408251826282738215C095
:10565000F801E45EF84F80829182A282B3820DC08D
:10566000C701B6010E945AEE87FFEACFF801E45E57
:10567000F84FC082D182E282F382832D0E94E0291A
:1056800081E0809344011092070E1092080E109250
:10569000090E10920A0E809144018823B9F1A4E00A
:1056A0003A9EC0011124FC01E45EF84FDC01AD51CB
:1056B000BD4F2D913D914D915C91608171818281B1
:1056C00093810E94D0F269837A838B839C832DEC33
:1056D0003CEC4CEC5DE36091B1057091B2058091BA
:1056E000B3059091B4050E9430F587FD05C0CE0149
:1056F00001960E9422AC05C060E2CE0101960E9494
:105700008AABBC0189859A850E9456572A960FB6A6
:10571000F894DEBF0FBECDBFDF91CF911F910F91E7
:10572000FF90EF90DF90CF90BF90AF909F908F90C1
:105730007F906F905F904F903F90089562E08DE072
:105740009AE00C94672A61E086E09AE00C94672A5C
:1057500060E08FEF99E00C94672A81E08093350731
:105760001092390740E050E0BA0186EC99E20E94BD
:10577000F4558FEC98E09093D5028093D4020C946A
:10578000EF1B2F923F925F926F928F929F92AF92F8
:10579000BF92CF92DF92EF92FF920F931F93CF931E
:1057A00061E081E00E94475EC091D205612C39E939
:1057B000232E39E0332E05E519E042ECE42E49E0D2
:1057C000F42E5FECC52E59E0D52E6CEDA62E69E0C7
:1057D000B62E7CEE872E79E0972EC11120C08091E5
:1057E0003F08882331F080914401882309F47AC06E
:1057F0000DC08091E2058823B1F31092E2050E946A
:10580000CF5E80913E08882371F300C281E09091C1
:105810003F08911180E024E04AEF59E060C0C130B8
:1058200019F580913F08813031F08091440188233F
:1058300009F458C00FC08091E2058823B1F310929B
:10584000E2058BE392E70E94855380913E0888230E
:1058500061F3DCC181E090913F08913009F080E074
:1058600023E040EF59E03BC0C23021F580913F0872
:10587000823029F0809144018823A1F111C08091E8
:10588000E2058823B9F31092E2059092D502809246
:10589000D4020E94EF1B80913E08882359F3B6C1C1
:1058A00081E090913F08923009F080E020E242EEE2
:1058B00059E015C0C33009F0E2C080913F08833041
:1058C00009F4CAC080914401882361F081E090917D
:1058D0003F08933009F080E020E245ED59E0662D65
:1058E0000E94E6AE809132079091330720911C0E02
:1058F00030911D0E232B11F4892B61F1C93069F50C
:1059000080913F08893031F080914401882309F467
:105910007AC113C08091E2058823B1F31092E205A9
:1059200010921F0E10921E0E0E9498650E94C85E73
:1059300080913E08882341F369C181E090913F083E
:10594000993009F080E020E242E759E0662D0E949C
:10595000E6AE59C129E0522E02C09AE0592E5C12DF
:1059600023C080913F08851529F080914401882348
:10597000D9F00FC08091E2058823B9F31092E205B7
:1059800089E695E40E94855380913E08882369F357
:105990003DC181E090913F089C1380E023E046E602
:1059A00059E0662D0E94E6AE81E0850D8C1323C080
:1059B00080913F088C1729F0809144018823D9F009
:1059C0000FC08091E2058823B9F31092E2058BEABB
:1059D00094E40E94855380913E08882369F316C1A0
:1059E00081E090913F089C1380E023E04AE559E074
:1059F000662D0E94E6AE82E0850D8C1323C0809157
:105A00003F088C1729F0809144018823D9F00FC0FA
:105A10008091E2058823B9F31092E2058DEE93E4BC
:105A20000E94855380913E08882369F3EFC081E08E
:105A300090913F089C1380E023E04BE759E0662DEE
:105A40000E94E6AE6394CF5F85E06812C6CE83E025
:105A5000850D8093D105DAC08091E205882309F491
:105A600031CF1092E205B092D502A092D4020E94EA
:105A7000EF1B80913E08882309F424CFC7C0C430AF
:105A800029F580913F08843031F0809144018823CA
:105A900009F428CF11C08091E2058823B1F3109258
:105AA000E205D092D502C092D4020E94EF1B8091F1
:105AB0003E08882351F3AAC081E090913F089430BA
:105AC00009F080E020E248EC59E009CFC53029F523
:105AD00080913F08853031F080914401882309F49A
